{
  "_format": "hh-sol-artifact-1",
  "contractName": "CrossChainPriceFeeder",
  "sourceName": "contracts/CrossChainPriceFeeder.sol",
  "abi": [
    {
      "inputs": [],
      "stateMutability": "nonpayable",
      "type": "constructor"
    },
    {
      "anonymous": false,
      "inputs": [
        {
          "indexed": true,
          "internalType": "uint64",
          "name": "chainSelector",
          "type": "uint64"
        },
        {
          "indexed": false,
          "internalType": "address",
          "name": "contractAddress",
          "type": "address"
        },
        {
          "indexed": false,
          "internalType": "bool",
          "name": "enabled",
          "type": "bool"
        }
      ],
      "name": "ChainConfigured",
      "type": "event"
    },
    {
      "anonymous": false,
      "inputs": [
        {
          "indexed": true,
          "internalType": "uint64",
          "name": "chainSelector",
          "type": "uint64"
        },
        {
          "indexed": true,
          "internalType": "address",
          "name": "receiver",
          "type": "address"
        },
        {
          "indexed": false,
          "internalType": "uint256",
          "name": "tokenCount",
          "type": "uint256"
        },
        {
          "indexed": false,
          "internalType": "uint256",
          "name": "fees",
          "type": "uint256"
        }
      ],
      "name": "PriceMessageSent",
      "type": "event"
    },
    {
      "anonymous": false,
      "inputs": [
        {
          "indexed": true,
          "internalType": "address",
          "name": "tokenAddress",
          "type": "address"
        },
        {
          "indexed": false,
          "internalType": "string",
          "name": "symbol",
          "type": "string"
        },
        {
          "indexed": false,
          "internalType": "string",
          "name": "name",
          "type": "string"
        },
        {
          "indexed": false,
          "internalType": "uint256",
          "name": "initialPrice",
          "type": "uint256"
        }
      ],
      "name": "TokenPriceAdded",
      "type": "event"
    },
    {
      "anonymous": false,
      "inputs": [
        {
          "indexed": true,
          "internalType": "address",
          "name": "tokenAddress",
          "type": "address"
        },
        {
          "indexed": false,
          "internalType": "uint256",
          "name": "oldPrice",
          "type": "uint256"
        },
        {
          "indexed": false,
          "internalType": "uint256",
          "name": "newPrice",
          "type": "uint256"
        }
      ],
      "name": "TokenPriceUpdated",
      "type": "event"
    },
    {
      "inputs": [
        {
          "internalType": "address",
          "name": "tokenAddress",
          "type": "address"
        },
        {
          "internalType": "string",
          "name": "symbol",
          "type": "string"
        },
        {
          "internalType": "string",
          "name": "name",
          "type": "string"
        },
        {
          "internalType": "uint256",
          "name": "initialPrice",
          "type": "uint256"
        }
      ],
      "name": "addToken",
      "outputs": [],
      "stateMutability": "nonpayable",
      "type": "function"
    },
    {
      "inputs": [
        {
          "internalType": "address[]",
          "name": "tokenAddresses",
          "type": "address[]"
        }
      ],
      "name": "broadcastPrices",
      "outputs": [],
      "stateMutability": "nonpayable",
      "type": "function"
    },
    {
      "inputs": [
        {
          "internalType": "address",
          "name": "newOwner",
          "type": "address"
        }
      ],
      "name": "changeOwner",
      "outputs": [],
      "stateMutability": "nonpayable",
      "type": "function"
    },
    {
      "inputs": [
        {
          "internalType": "address",
          "name": "tokenAddress",
          "type": "address"
        }
      ],
      "name": "deactivateToken",
      "outputs": [],
      "stateMutability": "nonpayable",
      "type": "function"
    },
    {
      "inputs": [
        {
          "internalType": "uint64",
          "name": "",
          "type": "uint64"
        }
      ],
      "name": "destinationContracts",
      "outputs": [
        {
          "internalType": "address",
          "name": "",
          "type": "address"
        }
      ],
      "stateMutability": "view",
      "type": "function"
    },
    {
      "inputs": [
        {
          "internalType": "uint64",
          "name": "",
          "type": "uint64"
        }
      ],
      "name": "enabledChains",
      "outputs": [
        {
          "internalType": "bool",
          "name": "",
          "type": "bool"
        }
      ],
      "stateMutability": "view",
      "type": "function"
    },
    {
      "inputs": [
        {
          "internalType": "uint64",
          "name": "chainSelector",
          "type": "uint64"
        },
        {
          "internalType": "address[]",
          "name": "tokenAddresses",
          "type": "address[]"
        }
      ],
      "name": "estimateFees",
      "outputs": [
        {
          "internalType": "uint256",
          "name": "",
          "type": "uint256"
        }
      ],
      "stateMutability": "view",
      "type": "function"
    },
    {
      "inputs": [],
      "name": "getAllTokens",
      "outputs": [
        {
          "components": [
            {
              "internalType": "address",
              "name": "tokenAddress",
              "type": "address"
            },
            {
              "internalType": "string",
              "name": "symbol",
              "type": "string"
            },
            {
              "internalType": "string",
              "name": "name",
              "type": "string"
            },
            {
              "internalType": "uint256",
              "name": "currentPrice",
              "type": "uint256"
            },
            {
              "internalType": "bool",
              "name": "isActive",
              "type": "bool"
            },
            {
              "internalType": "uint256",
              "name": "lastUpdated",
              "type": "uint256"
            }
          ],
          "internalType": "struct CrossChainPriceFeeder.TokenPriceInfo[]",
          "name": "",
          "type": "tuple[]"
        }
      ],
      "stateMutability": "view",
      "type": "function"
    },
    {
      "inputs": [],
      "name": "getLinkBalance",
      "outputs": [
        {
          "internalType": "uint256",
          "name": "",
          "type": "uint256"
        }
      ],
      "stateMutability": "view",
      "type": "function"
    },
    {
      "inputs": [],
      "name": "getSupportedTokensCount",
      "outputs": [
        {
          "internalType": "uint256",
          "name": "",
          "type": "uint256"
        }
      ],
      "stateMutability": "view",
      "type": "function"
    },
    {
      "inputs": [
        {
          "internalType": "address",
          "name": "tokenAddress",
          "type": "address"
        }
      ],
      "name": "getTokenInfo",
      "outputs": [
        {
          "components": [
            {
              "internalType": "address",
              "name": "tokenAddress",
              "type": "address"
            },
            {
              "internalType": "string",
              "name": "symbol",
              "type": "string"
            },
            {
              "internalType": "string",
              "name": "name",
              "type": "string"
            },
            {
              "internalType": "uint256",
              "name": "currentPrice",
              "type": "uint256"
            },
            {
              "internalType": "bool",
              "name": "isActive",
              "type": "bool"
            },
            {
              "internalType": "uint256",
              "name": "lastUpdated",
              "type": "uint256"
            }
          ],
          "internalType": "struct CrossChainPriceFeeder.TokenPriceInfo",
          "name": "",
          "type": "tuple"
        }
      ],
      "stateMutability": "view",
      "type": "function"
    },
    {
      "inputs": [
        {
          "internalType": "address",
          "name": "tokenAddress",
          "type": "address"
        }
      ],
      "name": "getTokenPrice",
      "outputs": [
        {
          "internalType": "uint256",
          "name": "",
          "type": "uint256"
        }
      ],
      "stateMutability": "view",
      "type": "function"
    },
    {
      "inputs": [],
      "name": "linkToken",
      "outputs": [
        {
          "internalType": "contract IERC20",
          "name": "",
          "type": "address"
        }
      ],
      "stateMutability": "view",
      "type": "function"
    },
    {
      "inputs": [],
      "name": "owner",
      "outputs": [
        {
          "internalType": "address",
          "name": "",
          "type": "address"
        }
      ],
      "stateMutability": "view",
      "type": "function"
    },
    {
      "inputs": [],
      "name": "router",
      "outputs": [
        {
          "internalType": "contract IRouterClient",
          "name": "",
          "type": "address"
        }
      ],
      "stateMutability": "view",
      "type": "function"
    },
    {
      "inputs": [
        {
          "internalType": "uint64",
          "name": "chainSelector",
          "type": "uint64"
        },
        {
          "internalType": "address[]",
          "name": "tokenAddresses",
          "type": "address[]"
        }
      ],
      "name": "sendPricesToChain",
      "outputs": [
        {
          "internalType": "bytes32",
          "name": "messageId",
          "type": "bytes32"
        }
      ],
      "stateMutability": "nonpayable",
      "type": "function"
    },
    {
      "inputs": [
        {
          "internalType": "uint64",
          "name": "chainSelector",
          "type": "uint64"
        },
        {
          "internalType": "address",
          "name": "contractAddress",
          "type": "address"
        },
        {
          "internalType": "bool",
          "name": "enabled",
          "type": "bool"
        }
      ],
      "name": "setDestinationContract",
      "outputs": [],
      "stateMutability": "nonpayable",
      "type": "function"
    },
    {
      "inputs": [
        {
          "internalType": "uint256",
          "name": "",
          "type": "uint256"
        }
      ],
      "name": "supportedTokens",
      "outputs": [
        {
          "internalType": "address",
          "name": "",
          "type": "address"
        }
      ],
      "stateMutability": "view",
      "type": "function"
    },
    {
      "inputs": [
        {
          "internalType": "address",
          "name": "",
          "type": "address"
        }
      ],
      "name": "tokenPrices",
      "outputs": [
        {
          "internalType": "address",
          "name": "tokenAddress",
          "type": "address"
        },
        {
          "internalType": "string",
          "name": "symbol",
          "type": "string"
        },
        {
          "internalType": "string",
          "name": "name",
          "type": "string"
        },
        {
          "internalType": "uint256",
          "name": "currentPrice",
          "type": "uint256"
        },
        {
          "internalType": "bool",
          "name": "isActive",
          "type": "bool"
        },
        {
          "internalType": "uint256",
          "name": "lastUpdated",
          "type": "uint256"
        }
      ],
      "stateMutability": "view",
      "type": "function"
    },
    {
      "inputs": [
        {
          "internalType": "address[]",
          "name": "tokenAddresses",
          "type": "address[]"
        },
        {
          "internalType": "uint256[]",
          "name": "newPrices",
          "type": "uint256[]"
        }
      ],
      "name": "updateAndBroadcast",
      "outputs": [],
      "stateMutability": "nonpayable",
      "type": "function"
    },
    {
      "inputs": [
        {
          "internalType": "address[]",
          "name": "tokenAddresses",
          "type": "address[]"
        },
        {
          "internalType": "uint256[]",
          "name": "newPrices",
          "type": "uint256[]"
        }
      ],
      "name": "updateMultipleTokenPrices",
      "outputs": [],
      "stateMutability": "nonpayable",
      "type": "function"
    },
    {
      "inputs": [
        {
          "internalType": "address",
          "name": "tokenAddress",
          "type": "address"
        },
        {
          "internalType": "uint256",
          "name": "newPrice",
          "type": "uint256"
        }
      ],
      "name": "updateTokenPrice",
      "outputs": [],
      "stateMutability": "nonpayable",
      "type": "function"
    },
    {
      "inputs": [
        {
          "internalType": "uint256",
          "name": "amount",
          "type": "uint256"
        }
      ],
      "name": "withdrawLink",
      "outputs": [],
      "stateMutability": "nonpayable",
      "type": "function"
    }
  ],
  "bytecode": "0x60c060405234801561001057600080fd5b50600080546001600160a01b03191633178155730bf3de8c5d3e8a2b34d2beeb17abfcebaf363a5960805273779877a7b0d9e8603169ddbd7836e478b462478960a052671e4ba3a26233c850905260046020527f8200fa81af3c47583298e460f9f834ca43aee2d42e50453aca9e0ef7aa7e23c9805460ff1916600117905560805160a051612a11610101600039600081816101e50152818161091301528181610e1a01528181610f400152818161102101528181611d4d01528181611e4d0152611f4c01526000818161037701528181610e7d01528181611db301528181611f1d0152611fd10152612a116000f3fe608060405234801561001057600080fd5b506004361061014d5760003560e01c80638476c9a5116100c3578063d02641a01161007c578063d02641a014610313578063d342d27114610326578063d4ee651b14610339578063d7559ba21461034c578063e25265a41461035f578063f887ea401461037257600080fd5b80638476c9a5146102815780638da5cb5b146102945780639d473093146102a7578063a6f9dae1146102da578063c3ab6f07146102ed578063c62556261461030057600080fd5b806351a80b9e1161011557806351a80b9e146101cb57806357970e93146101e057806363754f501461021f57806368173bcf146102485780636daed9ea1461025b5780637a8042bd1461026e57600080fd5b80631d163923146101525780631f69565f14610169578063204120bc146101895780632a5c792a146101ae57806350c5f975146101c3575b600080fd5b6002545b6040519081526020015b60405180910390f35b61017c610177366004612151565b610399565b6040516101609190612226565b61019c610197366004612151565b610565565b60405161016096959493929190612239565b6101b66106bb565b604051610160919061228e565b6101566108fb565b6101de6101d936600461233b565b61098b565b005b6102077f000000000000000000000000000000000000000000000000000000000000000081565b6040516001600160a01b039091168152602001610160565b61020761022d3660046123bd565b6003602052600090815260409020546001600160a01b031681565b6101de610256366004612151565b6109d1565b6101566102693660046123d8565b610b62565b6101de61027c36600461242a565b610eff565b6101de61028f36600461233b565b611090565b600054610207906001600160a01b031681565b6102ca6102b53660046123bd565b60046020526000908152604090205460ff1681565b6040519015158152602001610160565b6101de6102e8366004612151565b611377565b6101de6102fb3660046124e5565b61140d565b61020761030e36600461242a565b611677565b610156610321366004612151565b6116a1565b6101de610334366004612571565b6116fb565b6101de6103473660046125b8565b6117b0565b6101de61035a3660046125e2565b6118ba565b61015661036d3660046123d8565b6119c0565b6102077f000000000000000000000000000000000000000000000000000000000000000081565b6103a16120f4565b6001600160a01b03821660009081526001602052604090206004015460ff166103e55760405162461bcd60e51b81526004016103dc90612623565b60405180910390fd5b6001600160a01b03808316600090815260016020818152604092839020835160c08101909452805490941683529083018054929392918401916104279061264c565b80601f01602080910402602001604051908101604052809291908181526020018280546104539061264c565b80156104a05780601f10610475576101008083540402835291602001916104a0565b820191906000526020600020905b81548152906001019060200180831161048357829003601f168201915b505050505081526020016002820180546104b99061264c565b80601f01602080910402602001604051908101604052809291908181526020018280546104e59061264c565b80156105325780601f1061050757610100808354040283529160200191610532565b820191906000526020600020905b81548152906001019060200180831161051557829003601f168201915b505050918352505060038201546020820152600482015460ff161515604082015260059091015460609091015292915050565b6001602081905260009182526040909120805491810180546001600160a01b03909316926105929061264c565b80601f01602080910402602001604051908101604052809291908181526020018280546105be9061264c565b801561060b5780601f106105e05761010080835404028352916020019161060b565b820191906000526020600020905b8154815290600101906020018083116105ee57829003601f168201915b5050505050908060020180546106209061264c565b80601f016020809104026020016040519081016040528092919081815260200182805461064c9061264c565b80156106995780601f1061066e57610100808354040283529160200191610699565b820191906000526020600020905b81548152906001019060200180831161067c57829003601f168201915b50505050600383015460048401546005909401549293909260ff909116915086565b6002546060906000906001600160401b038111156106db576106db612443565b60405190808252806020026020018201604052801561071457816020015b6107016120f4565b8152602001906001900390816106f95790505b50905060005b6002548110156108f557600160006002838154811061073b5761073b612680565b60009182526020808320909101546001600160a01b039081168452838201949094526040928301909120825160c08101909352805490931682526001830180549293929184019161078b9061264c565b80601f01602080910402602001604051908101604052809291908181526020018280546107b79061264c565b80156108045780601f106107d957610100808354040283529160200191610804565b820191906000526020600020905b8154815290600101906020018083116107e757829003601f168201915b5050505050815260200160028201805461081d9061264c565b80601f01602080910402602001604051908101604052809291908181526020018280546108499061264c565b80156108965780601f1061086b57610100808354040283529160200191610896565b820191906000526020600020905b81548152906001019060200180831161087957829003601f168201915b505050918352505060038201546020820152600482015460ff161515604082015260059091015460609091015282518390839081106108d7576108d7612680565b602002602001018190525080806108ed906126ac565b91505061071a565b50919050565b6040516370a0823160e01b81523060048201526000907f00000000000000000000000000000000000000000000000000000000000000006001600160a01b0316906370a0823190602401602060405180830381865afa158015610962573d6000803e3d6000fd5b505050506040513d601f19601f8201168201806040525081019061098691906126c5565b905090565b6000546001600160a01b031633146109b55760405162461bcd60e51b81526004016103dc906126de565b6109c184848484611090565b6109cb84846118ba565b50505050565b6000546001600160a01b031633146109fb5760405162461bcd60e51b81526004016103dc906126de565b6001600160a01b03811660009081526001602052604090206004015460ff16610a365760405162461bcd60e51b81526004016103dc90612623565b6001600160a01b0381166000908152600160205260408120600401805460ff191690555b600254811015610b5e57816001600160a01b031660028281548110610a8157610a81612680565b6000918252602090912001546001600160a01b031603610b4c5760028054610aab9060019061270b565b81548110610abb57610abb612680565b600091825260209091200154600280546001600160a01b039092169183908110610ae757610ae7612680565b9060005260206000200160006101000a8154816001600160a01b0302191690836001600160a01b031602179055506002805480610b2657610b26612724565b600082815260209020810160001990810180546001600160a01b03191690550190555050565b80610b56816126ac565b915050610a5a565b5050565b6001600160401b03831660009081526004602052604081205460ff16610bbe5760405162461bcd60e51b815260206004820152601160248201527010da185a5b881b9bdd08195b98589b1959607a1b60448201526064016103dc565b6001600160401b0384166000908152600360205260409020546001600160a01b0316610c2c5760405162461bcd60e51b815260206004820152601c60248201527f44657374696e6174696f6e20636f6e7472616374206e6f74207365740000000060448201526064016103dc565b6000826001600160401b03811115610c4657610c46612443565b604051908082528060200260200182016040528015610c8b57816020015b6040805180820190915260008082526020820152815260200190600190039081610c645790505b50905060005b83811015610d5b576040518060400160405280868684818110610cb657610cb6612680565b9050602002016020810190610ccb9190612151565b6001600160a01b0316815260200160016000888886818110610cef57610cef612680565b9050602002016020810190610d049190612151565b6001600160a01b03166001600160a01b0316815260200190815260200160002060030154815250828281518110610d3d57610d3d612680565b60200260200101819052508080610d53906126ac565b915050610c91565b506040805160a0810182526001600160401b03871660009081526003602052918220546001600160a01b031660c08201528060e08101604051602081830303815290604052815260200183604051602001610db6919061273a565b60408051601f1981840301815291905281526020016000604051908082528060200260200182016040528015610e1257816020015b6040805180820190915260008082526020820152815260200190600190039081610deb5790505b5081526020017f00000000000000000000000000000000000000000000000000000000000000006001600160a01b03168152602001610e6160405180602001604052806207a1208152506120b7565b90526040516320487ded60e01b81529091506001600160a01b037f000000000000000000000000000000000000000000000000000000000000000016906320487ded90610eb4908990859060040161279a565b602060405180830381865afa158015610ed1573d6000803e3d6000fd5b505050506040513d601f19601f82011682018060405250810190610ef591906126c5565b9695505050505050565b6000546001600160a01b03163314610f295760405162461bcd60e51b81526004016103dc906126de565b6040516370a0823160e01b815230600482015281907f00000000000000000000000000000000000000000000000000000000000000006001600160a01b0316906370a0823190602401602060405180830381865afa158015610f8f573d6000803e3d6000fd5b505050506040513d601f19601f82011682018060405250810190610fb391906126c5565b1015610ff85760405162461bcd60e51b8152602060048201526014602482015273496e73756666696369656e742062616c616e636560601b60448201526064016103dc565b60005460405163a9059cbb60e01b81526001600160a01b039182166004820152602481018390527f00000000000000000000000000000000000000000000000000000000000000009091169063a9059cbb906044016020604051808303816000875af115801561106c573d6000803e3d6000fd5b505050506040513d601f19601f82011682018060405250810190610b5e919061287b565b6000546001600160a01b031633146110ba5760405162461bcd60e51b81526004016103dc906126de565b8281146111025760405162461bcd60e51b8152602060048201526016602482015275082e4e4c2f2e640d8cadccee8d040dad2e6dac2e8c6d60531b60448201526064016103dc565b60005b83811015611370576001600086868481811061112357611123612680565b90506020020160208101906111389190612151565b6001600160a01b0316815260208101919091526040016000206004015460ff166111745760405162461bcd60e51b81526004016103dc90612623565b600083838381811061118857611188612680565b90506020020135116111cc5760405162461bcd60e51b815260206004820152600d60248201526c496e76616c696420707269636560981b60448201526064016103dc565b6000600160008787858181106111e4576111e4612680565b90506020020160208101906111f99190612151565b6001600160a01b03166001600160a01b0316815260200190815260200160002060030154905083838381811061123157611231612680565b905060200201356001600088888681811061124e5761124e612680565b90506020020160208101906112639190612151565b6001600160a01b03166001600160a01b031681526020019081526020016000206003018190555042600160008888868181106112a1576112a1612680565b90506020020160208101906112b69190612151565b6001600160a01b031681526020810191909152604001600020600501558585838181106112e5576112e5612680565b90506020020160208101906112fa9190612151565b6001600160a01b03167f62e2c9c75b287778c0b58f1c1d83fa8f9978a33848e0b423735fd44f48ebe3c18286868681811061133757611337612680565b90506020020135604051611355929190918252602082015260400190565b60405180910390a25080611368816126ac565b915050611105565b5050505050565b6000546001600160a01b031633146113a15760405162461bcd60e51b81526004016103dc906126de565b6001600160a01b0381166113eb5760405162461bcd60e51b815260206004820152601160248201527024b73b30b634b2103732bb9037bbb732b960791b60448201526064016103dc565b600080546001600160a01b0319166001600160a01b0392909216919091179055565b6000546001600160a01b031633146114375760405162461bcd60e51b81526004016103dc906126de565b6001600160a01b0384166114855760405162461bcd60e51b8152602060048201526015602482015274496e76616c696420746f6b656e206164647265737360581b60448201526064016103dc565b600081116114cd5760405162461bcd60e51b8152602060048201526015602482015274496e76616c696420696e697469616c20707269636560581b60448201526064016103dc565b6001600160a01b03841660009081526001602052604090206004015460ff16156115305760405162461bcd60e51b8152602060048201526014602482015273546f6b656e20616c72656164792065786973747360601b60448201526064016103dc565b6040805160c0810182526001600160a01b038681168083526020808401888152848601889052606085018790526001608086018190524260a087015260009384529182905294909120835181546001600160a01b0319169316929092178255925191929091908201906115a390826128e6565b50604082015160028201906115b890826128e6565b5060608201516003820155608082015160048201805460ff191691151591909117905560a090910151600590910155600280546001810182556000919091527f405787fa12a823e0f2b7631cc41b3ba8828b3321ca811111fa75cd3aa3bb5ace0180546001600160a01b0319166001600160a01b0386169081179091556040517fb2c462d1eb80d9818671cdae611ab650390c6b928ebbcef043a491e65ba81a9690611669908690869086906129a5565b60405180910390a250505050565b6002818154811061168757600080fd5b6000918252602090912001546001600160a01b0316905081565b6001600160a01b03811660009081526001602052604081206004015460ff166116dc5760405162461bcd60e51b81526004016103dc90612623565b506001600160a01b031660009081526001602052604090206003015490565b6000546001600160a01b031633146117255760405162461bcd60e51b81526004016103dc906126de565b6001600160401b038316600081815260036020908152604080832080546001600160a01b0319166001600160a01b0388169081179091556004835292819020805460ff19168615159081179091558151938452918301919091527fa9243e6fbe5168d2370c3d81b3c8d8f64c53980be0afefe5650d1a86d41aced891015b60405180910390a2505050565b6000546001600160a01b031633146117da5760405162461bcd60e51b81526004016103dc906126de565b6001600160a01b03821660009081526001602052604090206004015460ff166118155760405162461bcd60e51b81526004016103dc90612623565b600081116118555760405162461bcd60e51b815260206004820152600d60248201526c496e76616c696420707269636560981b60448201526064016103dc565b6001600160a01b0382166000818152600160209081526040918290206003810180549086905542600590920191909155825181815291820185905292917f62e2c9c75b287778c0b58f1c1d83fa8f9978a33848e0b423735fd44f48ebe3c191016117a3565b6000546001600160a01b031633146118e45760405162461bcd60e51b81526004016103dc906126de565b806119275760405162461bcd60e51b8152602060048201526013602482015272139bc81d1bdad95b9cc81cdc1958da599a5959606a1b60448201526064016103dc565b671e4ba3a26233c85060005260046020527f8200fa81af3c47583298e460f9f834ca43aee2d42e50453aca9e0ef7aa7e23c95460ff1680156119a35750671e4ba3a26233c85060005260036020527f6c89f332a8658e73ec299e0b7351c19c9076060abac24e977ead0f9bbcf88c86546001600160a01b031615155b15610b5e576119bb671e4ba3a26233c85083836119c0565b505050565b600080546001600160a01b031633146119eb5760405162461bcd60e51b81526004016103dc906126de565b6001600160401b03841660009081526004602052604090205460ff16611a475760405162461bcd60e51b815260206004820152601160248201527010da185a5b881b9bdd08195b98589b1959607a1b60448201526064016103dc565b6001600160401b0384166000908152600360205260409020546001600160a01b0316611ab55760405162461bcd60e51b815260206004820152601c60248201527f44657374696e6174696f6e20636f6e7472616374206e6f74207365740000000060448201526064016103dc565b81611af85760405162461bcd60e51b8152602060048201526013602482015272139bc81d1bdad95b9cc81cdc1958da599a5959606a1b60448201526064016103dc565b6000826001600160401b03811115611b1257611b12612443565b604051908082528060200260200182016040528015611b5757816020015b6040805180820190915260008082526020820152815260200190600190039081611b305790505b50905060005b83811015611c8e5760016000868684818110611b7b57611b7b612680565b9050602002016020810190611b909190612151565b6001600160a01b0316815260208101919091526040016000206004015460ff16611bcc5760405162461bcd60e51b81526004016103dc90612623565b6040518060400160405280868684818110611be957611be9612680565b9050602002016020810190611bfe9190612151565b6001600160a01b0316815260200160016000888886818110611c2257611c22612680565b9050602002016020810190611c379190612151565b6001600160a01b03166001600160a01b0316815260200190815260200160002060030154815250828281518110611c7057611c70612680565b60200260200101819052508080611c86906126ac565b915050611b5d565b506040805160a0810182526001600160401b03871660009081526003602052918220546001600160a01b031660c08201528060e08101604051602081830303815290604052815260200183604051602001611ce9919061273a565b60408051601f1981840301815291905281526020016000604051908082528060200260200182016040528015611d4557816020015b6040805180820190915260008082526020820152815260200190600190039081611d1e5790505b5081526020017f00000000000000000000000000000000000000000000000000000000000000006001600160a01b03168152602001611d9460405180602001604052806207a1208152506120b7565b90526040516320487ded60e01b81529091506000906001600160a01b037f000000000000000000000000000000000000000000000000000000000000000016906320487ded90611dea908a90869060040161279a565b602060405180830381865afa158015611e07573d6000803e3d6000fd5b505050506040513d601f19601f82011682018060405250810190611e2b91906126c5565b6040516370a0823160e01b815230600482015290915081906001600160a01b037f000000000000000000000000000000000000000000000000000000000000000016906370a0823190602401602060405180830381865afa158015611e94573d6000803e3d6000fd5b505050506040513d601f19601f82011682018060405250810190611eb891906126c5565b1015611f065760405162461bcd60e51b815260206004820152601960248201527f496e73756666696369656e74204c494e4b2062616c616e63650000000000000060448201526064016103dc565b60405163095ea7b360e01b81526001600160a01b037f000000000000000000000000000000000000000000000000000000000000000081166004830152602482018390527f0000000000000000000000000000000000000000000000000000000000000000169063095ea7b3906044016020604051808303816000875af1158015611f95573d6000803e3d6000fd5b505050506040513d601f19601f82011682018060405250810190611fb9919061287b565b506040516396f4e9f960e01b81526001600160a01b037f000000000000000000000000000000000000000000000000000000000000000016906396f4e9f990612008908a90869060040161279a565b6020604051808303816000875af1158015612027573d6000803e3d6000fd5b505050506040513d601f19601f8201168201806040525081019061204b91906126c5565b6001600160401b0388166000818152600360209081526040918290205482518a81529182018690529397506001600160a01b03909316927f37f7505fcdf14a6c67e3c724949e1a1d5e846c93bba7bd2718a2337d216ac41e910160405180910390a35050509392505050565b60408051915160248084019190915281518084039091018152604490920190526020810180516001600160e01b03166397a657c960e01b17905290565b6040518060c0016040528060006001600160a01b03168152602001606081526020016060815260200160008152602001600015158152602001600081525090565b80356001600160a01b038116811461214c57600080fd5b919050565b60006020828403121561216357600080fd5b61216c82612135565b9392505050565b6000815180845260005b818110156121995760208185018101518683018201520161217d565b506000602082860101526020601f19601f83011685010191505092915050565b60018060a01b0381511682526000602082015160c060208501526121e060c0850182612173565b9050604083015184820360408601526121f98282612173565b9150506060830151606085015260808301511515608085015260a083015160a08501528091505092915050565b60208152600061216c60208301846121b9565b6001600160a01b038716815260c06020820181905260009061225d90830188612173565b828103604084015261226f8188612173565b60608401969096525050911515608083015260a0909101529392505050565b6000602080830181845280855180835260408601915060408160051b870101925083870160005b828110156122e357603f198886030184526122d18583516121b9565b945092850192908501906001016122b5565b5092979650505050505050565b60008083601f84011261230257600080fd5b5081356001600160401b0381111561231957600080fd5b6020830191508360208260051b850101111561233457600080fd5b9250929050565b6000806000806040858703121561235157600080fd5b84356001600160401b038082111561236857600080fd5b612374888389016122f0565b9096509450602087013591508082111561238d57600080fd5b5061239a878288016122f0565b95989497509550505050565b80356001600160401b038116811461214c57600080fd5b6000602082840312156123cf57600080fd5b61216c826123a6565b6000806000604084860312156123ed57600080fd5b6123f6846123a6565b925060208401356001600160401b0381111561241157600080fd5b61241d868287016122f0565b9497909650939450505050565b60006020828403121561243c57600080fd5b5035919050565b634e487b7160e01b600052604160045260246000fd5b600082601f83011261246a57600080fd5b81356001600160401b038082111561248457612484612443565b604051601f8301601f19908116603f011681019082821181831017156124ac576124ac612443565b816040528381528660208588010111156124c557600080fd5b836020870160208301376000602085830101528094505050505092915050565b600080600080608085870312156124fb57600080fd5b61250485612135565b935060208501356001600160401b038082111561252057600080fd5b61252c88838901612459565b9450604087013591508082111561254257600080fd5b5061254f87828801612459565b949793965093946060013593505050565b801515811461256e57600080fd5b50565b60008060006060848603121561258657600080fd5b61258f846123a6565b925061259d60208501612135565b915060408401356125ad81612560565b809150509250925092565b600080604083850312156125cb57600080fd5b6125d483612135565b946020939093013593505050565b600080602083850312156125f557600080fd5b82356001600160401b0381111561260b57600080fd5b612617858286016122f0565b90969095509350505050565b6020808252600f908201526e151bdad95b881b9bdd08199bdd5b99608a1b604082015260600190565b600181811c9082168061266057607f821691505b6020821081036108f557634e487b7160e01b600052602260045260246000fd5b634e487b7160e01b600052603260045260246000fd5b634e487b7160e01b600052601160045260246000fd5b6000600182016126be576126be612696565b5060010190565b6000602082840312156126d757600080fd5b5051919050565b60208082526013908201527213db9b1e481bdddb995c8818d85b8818d85b1b606a1b604082015260600190565b8181038181111561271e5761271e612696565b92915050565b634e487b7160e01b600052603160045260246000fd5b602080825282518282018190526000919060409081850190868401855b8281101561278d5761277d84835180516001600160a01b03168252602090810151910152565b9284019290850190600101612757565b5091979650505050505050565b600060406001600160401b038516835260208181850152845160a0838601526127c660e0860182612173565b905081860151603f19808784030160608801526127e38383612173565b88860151888203830160808a01528051808352908601945060009350908501905b8084101561283e5761282a82865180516001600160a01b03168252602090810151910152565b938501936001939093019290860190612804565b5060608901516001600160a01b031660a08901526080890151888203830160c08a0152955061286d8187612173565b9a9950505050505050505050565b60006020828403121561288d57600080fd5b815161216c81612560565b601f8211156119bb57600081815260208120601f850160051c810160208610156128bf5750805b601f850160051c820191505b818110156128de578281556001016128cb565b505050505050565b81516001600160401b038111156128ff576128ff612443565b6129138161290d845461264c565b84612898565b602080601f83116001811461294857600084156129305750858301515b600019600386901b1c1916600185901b1785556128de565b600085815260208120601f198616915b8281101561297757888601518255948401946001909101908401612958565b50858210156129955787850151600019600388901b60f8161c191681555b5050505050600190811b01905550565b6060815260006129b86060830186612173565b82810360208401526129ca8186612173565b91505082604083015294935050505056fea26469706673582212202c9ce11f1e2a3ec6891ca38b71164149889620cc0a4a14883ff47030b153944664736f6c63430008140033",
  "linkReferences": {},
  "deployedLinkReferences": {}
}