{"@chainlink/contracts-ccip/contracts/libraries/Client.sol":{"Client":{"abi":[{"inputs":[],"name":"EVM_EXTRA_ARGS_V1_TAG","outputs":[{"internalType":"bytes4","name":"","type":"bytes4"}],"stateMutability":"view","type":"function"},{"inputs":[],"name":"GENERIC_EXTRA_ARGS_V2_TAG","outputs":[{"internalType":"bytes4","name":"","type":"bytes4"}],"stateMutability":"view","type":"function"},{"inputs":[],"name":"SVM_ACCOUNT_BYTE_SIZE","outputs":[{"internalType":"uint256","name":"","type":"uint256"}],"stateMutability":"view","type":"function"},{"inputs":[],"name":"SVM_EXTRA_ARGS_MAX_ACCOUNTS","outputs":[{"internalType":"uint256","name":"","type":"uint256"}],"stateMutability":"view","type":"function"},{"inputs":[],"name":"SVM_EXTRA_ARGS_V1_TAG","outputs":[{"internalType":"bytes4","name":"","type":"bytes4"}],"stateMutability":"view","type":"function"},{"inputs":[],"name":"SVM_MESSAGING_ACCOUNTS_OVERHEAD","outputs":[{"internalType":"uint256","name":"","type":"uint256"}],"stateMutability":"view","type":"function"},{"inputs":[],"name":"SVM_TOKEN_TRANSFER_DATA_OVERHEAD","outputs":[{"internalType":"uint256","name":"","type":"uint256"}],"stateMutability":"view","type":"function"}],"evm":{"bytecode":{"linkReferences":{},"object":"61012861003a600b82828239805160001a60731461002d57634e487b7160e01b600052600060045260246000fd5b30600052607381538281f3fe7300000000000000000000000000000000000000003014608060405260043610607e5760003560e01c806371953f6011605f57806371953f601460c95780637498e3551460d05780639713cbbd1460dd578063a5dd87d81460e557600080fd5b80631ac428f81460835780633ab8c0d014609d5780635dd8ee3e1460c2575b600080fd5b608a604081565b6040519081526020015b60405180910390f35b60aa6397a657c960e01b81565b6040516001600160e01b031990911681526020016094565b608a600281565b608a602081565b60aa630181dcf160e41b81565b608a61012c81565b60aa630f9d9d5d60e11b8156fea2646970667358221220236b51ba1ae5e41b72878aa74dcf5e5a756ecf5e1b6e4af92b015e5e0504bae964736f6c63430008140033","opcodes":"PUSH2 0x128 PUSH2 0x3A PUSH1 0xB DUP3 DUP3 DUP3 CODECOPY DUP1 MLOAD PUSH1 0x0 BYTE PUSH1 0x73 EQ PUSH2 0x2D JUMPI PUSH4 0x4E487B71 PUSH1 0xE0 SHL PUSH1 0x0 MSTORE PUSH1 0x0 PUSH1 0x4 MSTORE PUSH1 0x24 PUSH1 0x0 REVERT JUMPDEST ADDRESS PUSH1 0x0 MSTORE PUSH1 0x73 DUP2 MSTORE8 DUP3 DUP2 RETURN INVALID PUSH20 0x0 ADDRESS EQ PUSH1 0x80 PUSH1 0x40 MSTORE PUSH1 0x4 CALLDATASIZE LT PUSH1 0x7E JUMPI PUSH1 0x0 CALLDATALOAD PUSH1 0xE0 SHR DUP1 PUSH4 0x71953F60 GT PUSH1 0x5F JUMPI DUP1 PUSH4 0x71953F60 EQ PUSH1 0xC9 JUMPI DUP1 PUSH4 0x7498E355 EQ PUSH1 0xD0 JUMPI DUP1 PUSH4 0x9713CBBD EQ PUSH1 0xDD JUMPI DUP1 PUSH4 0xA5DD87D8 EQ PUSH1 0xE5 JUMPI PUSH1 0x0 DUP1 REVERT JUMPDEST DUP1 PUSH4 0x1AC428F8 EQ PUSH1 0x83 JUMPI DUP1 PUSH4 0x3AB8C0D0 EQ PUSH1 0x9D JUMPI DUP1 PUSH4 0x5DD8EE3E EQ PUSH1 0xC2 JUMPI JUMPDEST PUSH1 0x0 DUP1 REVERT JUMPDEST PUSH1 0x8A PUSH1 0x40 DUP2 JUMP JUMPDEST PUSH1 0x40 MLOAD SWAP1 DUP2 MSTORE PUSH1 0x20 ADD JUMPDEST PUSH1 0x40 MLOAD DUP1 SWAP2 SUB SWAP1 RETURN JUMPDEST PUSH1 0xAA PUSH4 0x97A657C9 PUSH1 0xE0 SHL DUP2 JUMP JUMPDEST PUSH1 0x40 MLOAD PUSH1 0x1 PUSH1 0x1 PUSH1 0xE0 SHL SUB NOT SWAP1 SWAP2 AND DUP2 MSTORE PUSH1 0x20 ADD PUSH1 0x94 JUMP JUMPDEST PUSH1 0x8A PUSH1 0x2 DUP2 JUMP JUMPDEST PUSH1 0x8A PUSH1 0x20 DUP2 JUMP JUMPDEST PUSH1 0xAA PUSH4 0x181DCF1 PUSH1 0xE4 SHL DUP2 JUMP JUMPDEST PUSH1 0x8A PUSH2 0x12C DUP2 JUMP JUMPDEST PUSH1 0xAA PUSH4 0xF9D9D5D PUSH1 0xE1 SHL DUP2 JUMP INVALID LOG2 PUSH5 0x6970667358 0x22 SLT KECCAK256 0x23 PUSH12 0x51BA1AE5E41B72878AA74DCF 0x5E GAS PUSH22 0x6ECF5E1B6E4AF92B015E5E0504BAE964736F6C634300 ADDMOD EQ STOP CALLER "},"methodIdentifiers":{"EVM_EXTRA_ARGS_V1_TAG()":"3ab8c0d0","GENERIC_EXTRA_ARGS_V2_TAG()":"7498e355","SVM_ACCOUNT_BYTE_SIZE()":"71953f60","SVM_EXTRA_ARGS_MAX_ACCOUNTS()":"1ac428f8","SVM_EXTRA_ARGS_V1_TAG()":"a5dd87d8","SVM_MESSAGING_ACCOUNTS_OVERHEAD()":"5dd8ee3e","SVM_TOKEN_TRANSFER_DATA_OVERHEAD()":"9713cbbd"}}}}}