{"contracts/RoundFactory.sol":{"RoundFactory":{"abi":[{"inputs":[{"internalType":"address","name":"_owner","type":"address"}],"stateMutability":"nonpayable","type":"constructor"},{"anonymous":false,"inputs":[{"indexed":true,"internalType":"uint256","name":"roundIndex","type":"uint256"},{"indexed":true,"internalType":"address","name":"roundAddress","type":"address"},{"indexed":false,"internalType":"string","name":"roundName","type":"string"},{"indexed":false,"internalType":"uint256","name":"tokenCount","type":"uint256"}],"name":"RoundCreated","type":"event"},{"anonymous":false,"inputs":[{"indexed":true,"internalType":"address","name":"roundAddress","type":"address"},{"indexed":true,"internalType":"address","name":"winningToken","type":"address"}],"name":"RoundFinalized","type":"event"},{"anonymous":false,"inputs":[{"indexed":true,"internalType":"address","name":"tokenAddress","type":"address"},{"indexed":false,"internalType":"string","name":"symbol","type":"string"},{"indexed":false,"internalType":"string","name":"name","type":"string"},{"indexed":false,"internalType":"uint256","name":"initialPrice","type":"uint256"}],"name":"TokenAdded","type":"event"},{"anonymous":false,"inputs":[{"indexed":true,"internalType":"address","name":"tokenAddress","type":"address"},{"indexed":false,"internalType":"uint256","name":"oldPrice","type":"uint256"},{"indexed":false,"internalType":"uint256","name":"newPrice","type":"uint256"}],"name":"TokenPriceUpdated","type":"event"},{"anonymous":false,"inputs":[{"indexed":true,"internalType":"address","name":"tokenAddress","type":"address"}],"name":"TokenRemoved","type":"event"},{"inputs":[{"internalType":"address","name":"tokenAddress","type":"address"},{"internalType":"string","name":"symbol","type":"string"},{"internalType":"string","name":"name","type":"string"},{"internalType":"uint256","name":"initialPrice","type":"uint256"}],"name":"addSupportedToken","outputs":[],"stateMutability":"nonpayable","type":"function"},{"inputs":[],"name":"canCreateNewRound","outputs":[{"internalType":"bool","name":"","type":"bool"}],"stateMutability":"view","type":"function"},{"inputs":[{"internalType":"address","name":"_newOwner","type":"address"}],"name":"changeOwner","outputs":[],"stateMutability":"nonpayable","type":"function"},{"inputs":[{"internalType":"string","name":"roundName","type":"string"},{"internalType":"uint256","name":"duration","type":"uint256"},{"internalType":"address[]","name":"participatingTokens","type":"address[]"}],"name":"createRound","outputs":[{"internalType":"address","name":"","type":"address"}],"stateMutability":"nonpayable","type":"function"},{"inputs":[],"name":"currentActiveRound","outputs":[{"internalType":"address","name":"","type":"address"}],"stateMutability":"view","type":"function"},{"inputs":[],"name":"currentRoundIndex","outputs":[{"internalType":"uint256","name":"","type":"uint256"}],"stateMutability":"view","type":"function"},{"inputs":[{"internalType":"address","name":"roundAddress","type":"address"},{"components":[{"internalType":"address","name":"tokenAddress","type":"address"},{"internalType":"uint256","name":"currentPrice","type":"uint256"}],"internalType":"struct Round.TokenPrice[]","name":"currentPrices","type":"tuple[]"}],"name":"emergencyFinalizeRound","outputs":[],"stateMutability":"nonpayable","type":"function"},{"inputs":[{"internalType":"address","name":"roundAddress","type":"address"},{"components":[{"internalType":"address","name":"tokenAddress","type":"address"},{"internalType":"uint256","name":"currentPrice","type":"uint256"}],"internalType":"struct Round.TokenPrice[]","name":"currentPrices","type":"tuple[]"}],"name":"finalizeRound","outputs":[],"stateMutability":"nonpayable","type":"function"},{"inputs":[],"name":"getCurrentRoundInfo","outputs":[{"internalType":"address","name":"roundAddress","type":"address"},{"internalType":"string","name":"roundName","type":"string"},{"internalType":"bool","name":"isActive","type":"bool"},{"internalType":"uint256","name":"tokenCount","type":"uint256"},{"internalType":"uint256","name":"totalPrizePool","type":"uint256"}],"stateMutability":"view","type":"function"},{"inputs":[{"internalType":"uint256","name":"roundIndex","type":"uint256"}],"name":"getRoundInfo","outputs":[{"internalType":"address","name":"roundAddress","type":"address"},{"internalType":"string","name":"roundName","type":"string"},{"internalType":"bool","name":"isActive","type":"bool"},{"internalType":"bool","name":"isFinalized","type":"bool"},{"internalType":"uint256","name":"totalPrizePool","type":"uint256"},{"internalType":"address","name":"winningToken","type":"address"}],"stateMutability":"view","type":"function"},{"inputs":[],"name":"getSupportedTokens","outputs":[{"components":[{"internalType":"address","name":"tokenAddress","type":"address"},{"internalType":"string","name":"symbol","type":"string"},{"internalType":"string","name":"name","type":"string"},{"internalType":"uint256","name":"currentPrice","type":"uint256"},{"internalType":"bool","name":"isActive","type":"bool"}],"internalType":"struct RoundFactory.TokenInfo[]","name":"","type":"tuple[]"}],"stateMutability":"view","type":"function"},{"inputs":[{"internalType":"address","name":"tokenAddress","type":"address"}],"name":"getTokenPrice","outputs":[{"internalType":"uint256","name":"","type":"uint256"}],"stateMutability":"view","type":"function"},{"inputs":[{"internalType":"address[]","name":"tokenAddresses","type":"address[]"}],"name":"getTokenPrices","outputs":[{"internalType":"uint256[]","name":"","type":"uint256[]"}],"stateMutability":"view","type":"function"},{"inputs":[{"internalType":"address","name":"","type":"address"}],"name":"isValidRound","outputs":[{"internalType":"bool","name":"","type":"bool"}],"stateMutability":"view","type":"function"},{"inputs":[],"name":"owner","outputs":[{"internalType":"address","name":"","type":"address"}],"stateMutability":"view","type":"function"},{"inputs":[{"internalType":"address","name":"tokenAddress","type":"address"}],"name":"removeSupportedToken","outputs":[],"stateMutability":"nonpayable","type":"function"},{"inputs":[{"internalType":"uint256","name":"","type":"uint256"}],"name":"rounds","outputs":[{"internalType":"address","name":"","type":"address"}],"stateMutability":"view","type":"function"},{"inputs":[{"internalType":"address","name":"","type":"address"}],"name":"supportedTokens","outputs":[{"internalType":"address","name":"tokenAddress","type":"address"},{"internalType":"string","name":"symbol","type":"string"},{"internalType":"string","name":"name","type":"string"},{"internalType":"uint256","name":"currentPrice","type":"uint256"},{"internalType":"bool","name":"isActive","type":"bool"}],"stateMutability":"view","type":"function"},{"inputs":[{"internalType":"uint256","name":"","type":"uint256"}],"name":"tokenList","outputs":[{"internalType":"address","name":"","type":"address"}],"stateMutability":"view","type":"function"},{"inputs":[{"internalType":"address","name":"tokenAddress","type":"address"},{"internalType":"uint256","name":"newPrice","type":"uint256"}],"name":"updateTokenPrice","outputs":[],"stateMutability":"nonpayable","type":"function"},{"inputs":[{"internalType":"address[]","name":"tokenAddresses","type":"address[]"},{"internalType":"uint256[]","name":"newPrices","type":"uint256[]"}],"name":"updateTokenPrices","outputs":[],"stateMutability":"nonpayable","type":"function"}],"evm":{"bytecode":{"linkReferences":{},"object":"60806040523480156200001157600080fd5b50604051620051e1380380620051e183398101604081905262000034916200005a565b600080546001600160a01b0319166001600160a01b03929092169190911790556200008c565b6000602082840312156200006d57600080fd5b81516001600160a01b03811681146200008557600080fd5b9392505050565b615145806200009c6000396000f3fe60806040523480156200001157600080fd5b5060043610620001515760003560e01c80638c65c81f11620000c7578063a6f9dae11162000086578063a6f9dae11462000323578063d02641a0146200033a578063d3c7c2c71462000351578063d4ee651b146200036a578063eff29f8e1462000381578063effa5699146200039857600080fd5b80638c65c81f146200029e5780638da5cb5b14620002ca5780639550af0614620002de5780639591e26014620002f55780639ead7222146200030c57600080fd5b806368c4ac26116200011457806368c4ac2614620001fc5780636fc89fe31462000226578063747dff42146200023f57806376319190146200025c57806388c3ffb0146200027357600080fd5b8063181d957414620001565780632819829d146200018757806345ac924d14620001a65780635693f02e14620001cc5780636896ef4b14620001e3575b600080fd5b6006546200016a906001600160a01b031681565b6040516001600160a01b0390911681526020015b60405180910390f35b6006546001600160a01b0316155b60405190151581526020016200017e565b620001bd620001b7366004620021e2565b620003be565b6040516200017e919062002264565b6200016a620001dd3660046200234f565b62000521565b620001ed60015481565b6040519081526020016200017e565b620002136200020d366004620023de565b620009b7565b6040516200017e95949392919062002452565b6200023d62000237366004620024a6565b62000b14565b005b6200024962000d88565b6040516200017e9594939291906200252c565b6200023d6200026d366004620023de565b62000e2b565b6200028a620002843660046200256f565b6200100c565b6040516200017e9695949392919062002589565b6200016a620002af3660046200256f565b6002602052600090815260409020546001600160a01b031681565b6000546200016a906001600160a01b031681565b6200023d620002ef366004620025d5565b620010bb565b6200023d62000306366004620025d5565b62001582565b6200016a6200031d3660046200256f565b62001944565b6200023d62000334366004620023de565b6200196f565b620001ed6200034b366004620023de565b62001a0a565b6200035b62001a67565b6040516200017e919062002663565b6200023d6200037b3660046200271b565b62001d9e565b6200023d620003923660046200274a565b62001e9d565b62000195620003a9366004620023de565b60036020526000908152604090205460ff1681565b60606000826001600160401b03811115620003dd57620003dd62002280565b60405190808252806020026020018201604052801562000407578160200160208202803683370190505b50905060005b838110156200051757600460008686848181106200042f576200042f620027a1565b9050602002016020810190620004469190620023de565b6001600160a01b0316815260208101919091526040016000206004015460ff166200048e5760405162461bcd60e51b81526004016200048590620027b7565b60405180910390fd5b60046000868684818110620004a757620004a7620027a1565b9050602002016020810190620004be9190620023de565b6001600160a01b03166001600160a01b0316815260200190815260200160002060030154828281518110620004f757620004f7620027a1565b6020908102919091010152806200050e81620027fa565b9150506200040d565b5090505b92915050565b600080546001600160a01b031633146200054f5760405162461bcd60e51b8152600401620004859062002816565b6006546001600160a01b031615620005a05760405162461bcd60e51b815260206004820152601360248201527241637469766520726f756e642065786973747360681b604482015260640162000485565b6000855111620005e95760405162461bcd60e51b8152602060048201526013602482015272149bdd5b99081b985b59481c995c5d5a5c9959606a1b604482015260640162000485565b600084116200063b5760405162461bcd60e51b815260206004820152601f60248201527f4475726174696f6e206d7573742062652067726561746572207468616e203000604482015260640162000485565b60018211620006865760405162461bcd60e51b81526020600482015260166024820152754e656564206174206c65617374203220746f6b656e7360501b604482015260640162000485565b6000826001600160401b03811115620006a357620006a362002280565b604051908082528060200260200182016040528015620006cd578160200160208202803683370190505b5090506000836001600160401b03811115620006ed57620006ed62002280565b60405190808252806020026020018201604052801562000717578160200160208202803683370190505b50905060005b848110156200087f57600460008787848181106200073f576200073f620027a1565b9050602002016020810190620007569190620023de565b6001600160a01b0316815260208101919091526040016000206004015460ff16620007955760405162461bcd60e51b81526004016200048590620027b7565b858582818110620007aa57620007aa620027a1565b9050602002016020810190620007c19190620023de565b838281518110620007d657620007d6620027a1565b60200260200101906001600160a01b031690816001600160a01b031681525050600460008787848181106200080f576200080f620027a1565b9050602002016020810190620008269190620023de565b6001600160a01b03166001600160a01b03168152602001908152602001600020600301548282815181106200085f576200085f620027a1565b6020908102919091010152806200087681620027fa565b9150506200071d565b50600060015488426040516020016200089b9392919062002843565b60405160208183030381529060405280519060200120905060008189898686604051620008c8906200214c565b620008d7949392919062002872565b8190604051809103906000f5905080158015620008f8573d6000803e3d6000fd5b5060018054600090815260026020908152604080832080546001600160a01b0387166001600160a01b03199182168117909255818552600390935292819020805460ff1916851790556006805490921683179091559154915192935083929091907f4f28300a5fd8808e5f10b16038bd9bcb8caacb650f56c4e7550a5fe70c7368c9906200098a908e908c90620028f0565b60405180910390a360018054906000620009a483620027fa565b90915550909a9950505050505050505050565b600460205260009081526040902080546001820180546001600160a01b039092169291620009e59062002914565b80601f016020809104026020016040519081016040528092919081815260200182805462000a139062002914565b801562000a645780601f1062000a385761010080835404028352916020019162000a64565b820191906000526020600020905b81548152906001019060200180831162000a4657829003601f168201915b50505050509080600201805462000a7b9062002914565b80601f016020809104026020016040519081016040528092919081815260200182805462000aa99062002914565b801562000afa5780601f1062000ace5761010080835404028352916020019162000afa565b820191906000526020600020905b81548152906001019060200180831162000adc57829003601f168201915b50505050600383015460049093015491929160ff16905085565b6000546001600160a01b0316331462000b415760405162461bcd60e51b8152600401620004859062002816565b6001600160a01b03841662000b915760405162461bcd60e51b8152602060048201526015602482015274496e76616c696420746f6b656e206164647265737360581b604482015260640162000485565b6000811162000bdb5760405162461bcd60e51b8152602060048201526015602482015274496e76616c696420696e697469616c20707269636560581b604482015260640162000485565b6001600160a01b0384166000908152600460208190526040909120015460ff161562000c4a5760405162461bcd60e51b815260206004820152601760248201527f546f6b656e20616c726561647920737570706f72746564000000000000000000604482015260640162000485565b6040805160a0810182526001600160a01b038681168083526020808401888152848601889052606085018790526001608086018190526000938452600490925294909120835181546001600160a01b03191693169290921782559251919290919082019062000cba9082620029a3565b506040820151600282019062000cd19082620029a3565b50606082015160038201556080909101516004909101805460ff1916911515919091179055600580546001810182556000919091527f036b6384b5eca791c62761152d0c79bb0604c104a5fb6f4eb0703f3154bb3db00180546001600160a01b0319166001600160a01b0386169081179091556040517ff711540f34d729d036431d051198fe18d9fd348ad9aa68dfc8b27d5c5f2771079062000d7a9086908690869062002a6f565b60405180910390a250505050565b6006546001600160a01b0316606060008080841562000e24576000859050600080826001600160a01b031663d015d86f6040518163ffffffff1660e01b8152600401600060405180830381865afa15801562000de8573d6000803e3d6000fd5b505050506040513d6000823e601f3d908101601f1916820160405262000e12919081019062002acc565b50939a50919850909650909450505050505b9091929394565b6000546001600160a01b0316331462000e585760405162461bcd60e51b8152600401620004859062002816565b6001600160a01b0381166000908152600460208190526040909120015460ff1662000e975760405162461bcd60e51b81526004016200048590620027b7565b6001600160a01b0381166000908152600460208190526040822001805460ff191690555b60055481101562000fd457816001600160a01b03166005828154811062000ee65762000ee6620027a1565b6000918252602090912001546001600160a01b03160362000fbf576005805462000f139060019062002b96565b8154811062000f265762000f26620027a1565b600091825260209091200154600580546001600160a01b03909216918390811062000f555762000f55620027a1565b9060005260206000200160006101000a8154816001600160a01b0302191690836001600160a01b03160217905550600580548062000f975762000f9762002bac565b600082815260209020810160001990810180546001600160a01b031916905501905562000fd4565b8062000fcb81620027fa565b91505062000ebb565b506040516001600160a01b038216907f4c910b69fe65a61f7531b9c5042b2329ca7179c77290aa7e2eb3afa3c8511fd390600090a250565b6000818152600260205260408120546001600160a01b0316906060908080808515620010b2576000869050806001600160a01b031663d015d86f6040518163ffffffff1660e01b8152600401600060405180830381865afa15801562001076573d6000803e3d6000fd5b505050506040513d6000823e601f3d908101601f19168201604052620010a0919081019062002acc565b949a5092985090965090945090925050505b91939550919395565b6000546001600160a01b03163314620010e85760405162461bcd60e51b8152600401620004859062002816565b6001600160a01b03831660009081526003602052604090205460ff166200114a5760405162461bcd60e51b8152602060048201526015602482015274496e76616c696420726f756e64206164647265737360581b604482015260640162000485565b6006546001600160a01b03848116911614620011a95760405162461bcd60e51b815260206004820152601860248201527f4e6f742063757272656e742061637469766520726f756e640000000000000000604482015260640162000485565b6000839050806001600160a01b03166322f3e2d46040518163ffffffff1660e01b8152600401602060405180830381865afa158015620011ed573d6000803e3d6000fd5b505050506040513d601f19601f8201168201806040525081019062001213919062002bc2565b8015620012825750806001600160a01b0316638d4e40836040518163ffffffff1660e01b8152600401602060405180830381865afa1580156200125a573d6000803e3d6000fd5b505050506040513d601f19601f8201168201806040525081019062001280919062002bc2565b155b620012c35760405162461bcd60e51b815260206004820152601060248201526f526f756e64206e6f742061637469766560801b604482015260640162000485565b6000816001600160a01b0316636fe8022c6040518163ffffffff1660e01b815260040160a060405180830381865afa15801562001304573d6000803e3d6000fd5b505050506040513d601f19601f820116820180604052508101906200132a919062002be0565b945050505050806200137f5760405162461bcd60e51b815260206004820152601860248201527f526f756e642074696d65206e6f7420656e646564207965740000000000000000604482015260640162000485565b60005b8381101562001462576000858583818110620013a257620013a2620027a1565b905060400201803603810190620013ba919062002c2c565b80516001600160a01b03166000908152600460208190526040909120015490915060ff16156200144c5780516001600160a01b0390811660009081526004602090815260408083206003908101548387018051885188168752958490209092019490945585519051825185815293840152815193941692600080516020620050f08339815191529281900390910190a2505b50806200145981620027fa565b91505062001382565b5060405163531c04af60e11b81526001600160a01b0383169063a638095e9062001493908790879060040162002c89565b600060405180830381600087803b158015620014ae57600080fd5b505af1158015620014c3573d6000803e3d6000fd5b50505050816001600160a01b031663361bc1b56040518163ffffffff1660e01b8152600401602060405180830381865afa15801562001506573d6000803e3d6000fd5b505050506040513d601f19601f820116820180604052508101906200152c919062002ce6565b6001600160a01b0316856001600160a01b03167fa9bd5492c2625576549717f92067040ac2d73d543e19a2fe2125588b3ec3a54760405160405180910390a35050600680546001600160a01b0319169055505050565b6000546001600160a01b03163314620015af5760405162461bcd60e51b8152600401620004859062002816565b6001600160a01b03831660009081526003602052604090205460ff16620016115760405162461bcd60e51b8152602060048201526015602482015274496e76616c696420726f756e64206164647265737360581b604482015260640162000485565b6000839050806001600160a01b03166322f3e2d46040518163ffffffff1660e01b8152600401602060405180830381865afa15801562001655573d6000803e3d6000fd5b505050506040513d601f19601f820116820180604052508101906200167b919062002bc2565b8015620016ea5750806001600160a01b0316638d4e40836040518163ffffffff1660e01b8152600401602060405180830381865afa158015620016c2573d6000803e3d6000fd5b505050506040513d601f19601f82011682018060405250810190620016e8919062002bc2565b155b6200172b5760405162461bcd60e51b815260206004820152601060248201526f526f756e64206e6f742061637469766560801b604482015260640162000485565b60005b828110156200180e5760008484838181106200174e576200174e620027a1565b90506040020180360381019062001766919062002c2c565b80516001600160a01b03166000908152600460208190526040909120015490915060ff1615620017f85780516001600160a01b0390811660009081526004602090815260408083206003908101548387018051885188168752958490209092019490945585519051825185815293840152815193941692600080516020620050f08339815191529281900390910190a2505b50806200180581620027fa565b9150506200172e565b5060405163531c04af60e11b81526001600160a01b0382169063a638095e906200183f908690869060040162002c89565b600060405180830381600087803b1580156200185a57600080fd5b505af11580156200186f573d6000803e3d6000fd5b50505050806001600160a01b031663361bc1b56040518163ffffffff1660e01b8152600401602060405180830381865afa158015620018b2573d6000803e3d6000fd5b505050506040513d601f19601f82011682018060405250810190620018d8919062002ce6565b6001600160a01b0316846001600160a01b03167fa9bd5492c2625576549717f92067040ac2d73d543e19a2fe2125588b3ec3a54760405160405180910390a36006546001600160a01b038086169116036200193e57600680546001600160a01b03191690555b50505050565b600581815481106200195557600080fd5b6000918252602090912001546001600160a01b0316905081565b6000546001600160a01b031633146200199c5760405162461bcd60e51b8152600401620004859062002816565b6001600160a01b038116620019e85760405162461bcd60e51b815260206004820152601160248201527024b73b30b634b2103732bb9037bbb732b960791b604482015260640162000485565b600080546001600160a01b0319166001600160a01b0392909216919091179055565b6001600160a01b03811660009081526004602081905260408220015460ff1662001a485760405162461bcd60e51b81526004016200048590620027b7565b506001600160a01b031660009081526004602052604090206003015490565b6005546060906000906001600160401b0381111562001a8a5762001a8a62002280565b60405190808252806020026020018201604052801562001ac757816020015b62001ab36200215a565b81526020019060019003908162001aa95790505b5090506000805b60055481101562001cd9576000600460006005848154811062001af55762001af5620027a1565b60009182526020808320909101546001600160a01b039081168452838201949094526040928301909120825160a08101909352805490931682526001830180549293929184019162001b479062002914565b80601f016020809104026020016040519081016040528092919081815260200182805462001b759062002914565b801562001bc65780601f1062001b9a5761010080835404028352916020019162001bc6565b820191906000526020600020905b81548152906001019060200180831162001ba857829003601f168201915b5050505050815260200160028201805462001be19062002914565b80601f016020809104026020016040519081016040528092919081815260200182805462001c0f9062002914565b801562001c605780601f1062001c345761010080835404028352916020019162001c60565b820191906000526020600020905b81548152906001019060200180831162001c4257829003601f168201915b50505091835250506003820154602082015260049091015460ff16151560409091015260808101519091501562001cc3578084848151811062001ca75762001ca7620027a1565b6020026020010181905250828062001cbf90620027fa565b9350505b508062001cd081620027fa565b91505062001ace565b506000816001600160401b0381111562001cf75762001cf762002280565b60405190808252806020026020018201604052801562001d3457816020015b62001d206200215a565b81526020019060019003908162001d165790505b50905060005b8281101562001d965783818151811062001d585762001d58620027a1565b602002602001015182828151811062001d755762001d75620027a1565b6020026020010181905250808062001d8d90620027fa565b91505062001d3a565b509392505050565b6000546001600160a01b0316331462001dcb5760405162461bcd60e51b8152600401620004859062002816565b6001600160a01b0382166000908152600460208190526040909120015460ff1662001e0a5760405162461bcd60e51b81526004016200048590620027b7565b6000811162001e4c5760405162461bcd60e51b815260206004820152600d60248201526c496e76616c696420707269636560981b604482015260640162000485565b6001600160a01b03821660008181526004602090815260409182902060030180549085905582518181529182018590529291600080516020620050f0833981519152910160405180910390a2505050565b6000546001600160a01b0316331462001eca5760405162461bcd60e51b8152600401620004859062002816565b82811462001f145760405162461bcd60e51b8152602060048201526016602482015275082e4e4c2f2e640d8cadccee8d040dad2e6dac2e8c6d60531b604482015260640162000485565b60005b8381101562002145576004600086868481811062001f395762001f39620027a1565b905060200201602081019062001f509190620023de565b6001600160a01b0316815260208101919091526040016000206004015460ff1662001f8f5760405162461bcd60e51b81526004016200048590620027b7565b600083838381811062001fa65762001fa6620027a1565b905060200201351162001fec5760405162461bcd60e51b815260206004820152600d60248201526c496e76616c696420707269636560981b604482015260640162000485565b600060046000878785818110620020075762002007620027a1565b90506020020160208101906200201e9190620023de565b6001600160a01b03166001600160a01b03168152602001908152602001600020600301549050838383818110620020595762002059620027a1565b9050602002013560046000888886818110620020795762002079620027a1565b9050602002016020810190620020909190620023de565b6001600160a01b03168152602081019190915260400160002060030155858583818110620020c257620020c2620027a1565b9050602002016020810190620020d99190620023de565b6001600160a01b0316600080516020620050f083398151915282868686818110620021085762002108620027a1565b9050602002013560405162002127929190918252602082015260400190565b60405180910390a250806200213c81620027fa565b91505062001f17565b5050505050565b6123e98062002d0783390190565b6040518060a0016040528060006001600160a01b031681526020016060815260200160608152602001600081526020016000151581525090565b60008083601f840112620021a757600080fd5b5081356001600160401b03811115620021bf57600080fd5b6020830191508360208260051b8501011115620021db57600080fd5b9250929050565b60008060208385031215620021f657600080fd5b82356001600160401b038111156200220d57600080fd5b6200221b8582860162002194565b90969095509350505050565b600081518084526020808501945080840160005b8381101562002259578151875295820195908201906001016200223b565b509495945050505050565b60208152600062002279602083018462002227565b9392505050565b634e487b7160e01b600052604160045260246000fd5b604051601f8201601f191681016001600160401b0381118282101715620022c157620022c162002280565b604052919050565b60006001600160401b03821115620022e557620022e562002280565b50601f01601f191660200190565b600082601f8301126200230557600080fd5b81356200231c6200231682620022c9565b62002296565b8181528460208386010111156200233257600080fd5b816020850160208301376000918101602001919091529392505050565b600080600080606085870312156200236657600080fd5b84356001600160401b03808211156200237e57600080fd5b6200238c88838901620022f3565b9550602087013594506040870135915080821115620023aa57600080fd5b50620023b98782880162002194565b95989497509550505050565b6001600160a01b0381168114620023db57600080fd5b50565b600060208284031215620023f157600080fd5b81356200227981620023c5565b60005b838110156200241b57818101518382015260200162002401565b50506000910152565b600081518084526200243e816020860160208601620023fe565b601f01601f19169290920160200192915050565b6001600160a01b038616815260a060208201819052600090620024789083018762002424565b82810360408401526200248c818762002424565b606084019590955250509015156080909101529392505050565b60008060008060808587031215620024bd57600080fd5b8435620024ca81620023c5565b935060208501356001600160401b0380821115620024e757600080fd5b620024f588838901620022f3565b945060408701359150808211156200250c57600080fd5b506200251b87828801620022f3565b949793965093946060013593505050565b6001600160a01b038616815260a060208201819052600090620025529083018762002424565b941515604083015250606081019290925260809091015292915050565b6000602082840312156200258257600080fd5b5035919050565b600060018060a01b03808916835260c06020840152620025ad60c084018962002424565b9615156040840152941515606083015250608081019290925290911660a09091015292915050565b600080600060408486031215620025eb57600080fd5b8335620025f881620023c5565b925060208401356001600160401b03808211156200261557600080fd5b818601915086601f8301126200262a57600080fd5b8135818111156200263a57600080fd5b8760208260061b85010111156200265057600080fd5b6020830194508093505050509250925092565b60006020808301818452808551808352604092508286019150828160051b87010184880160005b838110156200270d57888303603f19018552815180516001600160a01b031684528781015160a089860181905290620026c68287018262002424565b9150508782015185820389870152620026e0828262002424565b6060848101519088015260809384015115159390960192909252505093860193908601906001016200268a565b509098975050505050505050565b600080604083850312156200272f57600080fd5b82356200273c81620023c5565b946020939093013593505050565b600080600080604085870312156200276157600080fd5b84356001600160401b03808211156200277957600080fd5b620027878883890162002194565b90965094506020870135915080821115620023aa57600080fd5b634e487b7160e01b600052603260045260246000fd5b602080825260139082015272151bdad95b881b9bdd081cdd5c1c1bdc9d1959606a1b604082015260600190565b634e487b7160e01b600052601160045260246000fd5b6000600182016200280f576200280f620027e4565b5060010190565b60208082526013908201527213db9b1e481bdddb995c8818d85b8818d85b1b606a1b604082015260600190565b838152600083516200285d816020850160208801620023fe565b60209201918201929092526040019392505050565b60808152600062002887608083018762002424565b6020838101879052838203604085015285518083528682019282019060005b81811015620028cd5784516001600160a01b031683529383019391830191600101620028a6565b50508481036060860152620028e3818762002227565b9998505050505050505050565b60408152600062002905604083018562002424565b90508260208301529392505050565b600181811c908216806200292957607f821691505b6020821081036200294a57634e487b7160e01b600052602260045260246000fd5b50919050565b601f8211156200299e57600081815260208120601f850160051c81016020861015620029795750805b601f850160051c820191505b818110156200299a5782815560010162002985565b5050505b505050565b81516001600160401b03811115620029bf57620029bf62002280565b620029d781620029d0845462002914565b8462002950565b602080601f83116001811462002a0f5760008415620029f65750858301515b600019600386901b1c1916600185901b1785556200299a565b600085815260208120601f198616915b8281101562002a405788860151825594840194600190910190840162002a1f565b508582101562002a5f5787850151600019600388901b60f8161c191681555b5050505050600190811b01905550565b60608152600062002a84606083018662002424565b828103602084015262002a98818662002424565b915050826040830152949350505050565b8051801515811462002aba57600080fd5b919050565b805162002aba81620023c5565b60008060008060008060c0878903121562002ae657600080fd5b86516001600160401b0381111562002afd57600080fd5b8701601f8101891362002b0f57600080fd5b805162002b206200231682620022c9565b8181528a602083850101111562002b3657600080fd5b62002b49826020830160208601620023fe565b975062002b5c9150506020880162002aa9565b945062002b6c6040880162002aa9565b9350606087015192506080870151915062002b8a60a0880162002abf565b90509295509295509295565b818103818111156200051b576200051b620027e4565b634e487b7160e01b600052603160045260246000fd5b60006020828403121562002bd557600080fd5b620022798262002aa9565b600080600080600060a0868803121562002bf957600080fd5b8551945060208601519350604086015192506060860151915062002c206080870162002aa9565b90509295509295909350565b60006040828403121562002c3f57600080fd5b604051604081018181106001600160401b038211171562002c645762002c6462002280565b604052823562002c7481620023c5565b81526020928301359281019290925250919050565b6020808252818101839052600090604080840186845b8781101562002cd957813562002cb581620023c5565b6001600160a01b031683528185013585840152918301919083019060010162002c9f565b5090979650505050505050565b60006020828403121562002cf957600080fd5b81516200227981620023c556fe6101006040523480156200001257600080fd5b50604051620023e9380380620023e983398101604081905262000035916200051b565b80518251146200008c5760405162461bcd60e51b815260206004820152601660248201527f417272617973206c656e677468206d69736d617463680000000000000000000060448201526064015b60405180910390fd5b6001825111620000df5760405162461bcd60e51b815260206004820152601660248201527f4e656564206174206c65617374203220746f6b656e7300000000000000000000604482015260640162000083565b60008311620001315760405162461bcd60e51b815260206004820152601f60248201527f4475726174696f6e206d7573742062652067726561746572207468616e203000604482015260640162000083565b336080526000620001438582620006b7565b504260a081905260c08490526200015c90849062000799565b60e0526006805460ff1916600117905560005b8251811015620003b55760006001600160a01b0316838281518110620001995762000199620007b5565b60200260200101516001600160a01b031603620001f95760405162461bcd60e51b815260206004820152601560248201527f496e76616c696420746f6b656e20616464726573730000000000000000000000604482015260640162000083565b6000828281518110620002105762000210620007b5565b602002602001015111620002675760405162461bcd60e51b815260206004820152601560248201527f496e76616c696420696e697469616c2070726963650000000000000000000000604482015260640162000083565b60016000848381518110620002805762000280620007b5565b60200260200101516001600160a01b03166001600160a01b0316815260200190815260200160002054600014620002ec5760405162461bcd60e51b815260206004820152600f60248201526e223ab83634b1b0ba32903a37b5b2b760891b604482015260640162000083565b818181518110620003015762000301620007b5565b602002602001015160016000858481518110620003225762000322620007b5565b60200260200101516001600160a01b03166001600160a01b03168152602001908152602001600020819055506004838281518110620003655762000365620007b5565b60209081029190910181015182546001810184556000938452919092200180546001600160a01b0319166001600160a01b0390921691909117905580620003ac81620007cb565b9150506200016f565b5050505050620007e7565b634e487b7160e01b600052604160045260246000fd5b604051601f8201601f191681016001600160401b0381118282101715620004015762000401620003c0565b604052919050565b60006001600160401b03821115620004255762000425620003c0565b5060051b60200190565b600082601f8301126200044157600080fd5b815160206200045a620004548362000409565b620003d6565b82815260059290921b840181019181810190868411156200047a57600080fd5b8286015b84811015620004ae5780516001600160a01b0381168114620004a05760008081fd5b83529183019183016200047e565b509695505050505050565b600082601f830112620004cb57600080fd5b81516020620004de620004548362000409565b82815260059290921b84018101918181019086841115620004fe57600080fd5b8286015b84811015620004ae578051835291830191830162000502565b600080600080608085870312156200053257600080fd5b84516001600160401b03808211156200054a57600080fd5b818701915087601f8301126200055f57600080fd5b815181811115620005745762000574620003c0565b60206200058a601f8301601f19168201620003d6565b8281528a828487010111156200059f57600080fd5b60005b83811015620005bf578581018301518282018401528201620005a2565b50600092810182019290925288015160408901519197509550915080821115620005e857600080fd5b620005f6888389016200042f565b935060608701519150808211156200060d57600080fd5b506200061c87828801620004b9565b91505092959194509250565b600181811c908216806200063d57607f821691505b6020821081036200065e57634e487b7160e01b600052602260045260246000fd5b50919050565b601f821115620006b257600081815260208120601f850160051c810160208610156200068d5750805b601f850160051c820191505b81811015620006ae5782815560010162000699565b5050505b505050565b81516001600160401b03811115620006d357620006d3620003c0565b620006eb81620006e4845462000628565b8462000664565b602080601f8311600181146200072357600084156200070a5750858301515b600019600386901b1c1916600185901b178555620006ae565b600085815260208120601f198616915b82811015620007545788860151825594840194600190910190840162000733565b5085821015620007735787850151600019600388901b60f8161c191681555b5050505050600190811b01905550565b634e487b7160e01b600052601160045260246000fd5b80820180821115620007af57620007af62000783565b92915050565b634e487b7160e01b600052603260045260246000fd5b600060018201620007e057620007e062000783565b5060010190565b60805160a05160c05160e051611b8962000860600039600081816102f90152818161067c01528181610c1601528181610c6701528181610c9701528181610dd201526112e20152600081816101bd0152610c370152600081816104040152610bf501526000818161056d0152610cf70152611b896000f3fe6080604052600436106101665760003560e01c80636fe8022c116100d1578063a638095e1161008a578063c38687c011610064578063c38687c014610523578063c45a01551461055b578063d015d86f1461058f578063fd92649f146105b657600080fd5b8063a638095e146104a8578063ad79d884146104c8578063b0cc896c146104f657600080fd5b80636fe8022c146103b357806378e97925146103f25780638d4e4083146104265780639903e1be146104455780639a0ba2ea1461045b578063a41fe82c1461047b57600080fd5b806322f3e2d41161012357806322f3e2d4146102bd5780633197cbb6146102e7578063361bc1b51461031b578063398ab9a7146103595780633f47666b1461036f5780636c74ad851461039357600080fd5b806301fd050d1461016b5780630474a68e146101965780630fb5a6b4146101ab57806314cbd993146101ed5780631f69565f1461020f57806322af00fa14610273575b600080fd5b34801561017757600080fd5b506101806105cb565b60405161018d91906117ab565b60405180910390f35b6101a96101a43660046117e1565b610659565b005b3480156101b757600080fd5b506101df7f000000000000000000000000000000000000000000000000000000000000000081565b60405190815260200161018d565b3480156101f957600080fd5b50610202610908565b60405161018d9190611840565b34801561021b57600080fd5b5061025661022a3660046117e1565b6001600160a01b0316600090815260016020908152604080832054600290925290912054909182151590565b60408051938452602084019290925215159082015260600161018d565b34801561027f57600080fd5b5061029361028e366004611853565b61096a565b604080516001600160a01b039485168152602081019390935292169181019190915260600161018d565b3480156102c957600080fd5b506006546102d79060ff1681565b604051901515815260200161018d565b3480156102f357600080fd5b506101df7f000000000000000000000000000000000000000000000000000000000000000081565b34801561032757600080fd5b50600654610341906201000090046001600160a01b031681565b6040516001600160a01b03909116815260200161018d565b34801561036557600080fd5b506101df60075481565b34801561037b57600080fd5b506103846109a8565b60405161018d9392919061189c565b34801561039f57600080fd5b506101df6103ae3660046118df565b610bc6565b3480156103bf57600080fd5b506103c8610bf3565b6040805195865260208601949094529284019190915260608301521515608082015260a00161018d565b3480156103fe57600080fd5b506101df7f000000000000000000000000000000000000000000000000000000000000000081565b34801561043257600080fd5b506006546102d790610100900460ff1681565b34801561045157600080fd5b506101df60085481565b34801561046757600080fd5b50610341610476366004611853565b610cc2565b34801561048757600080fd5b506101df6104963660046117e1565b60026020526000908152604090205481565b3480156104b457600080fd5b506101a96104c3366004611912565b610cec565b3480156104d457600080fd5b506104e86104e33660046117e1565b61109f565b60405161018d929190611987565b34801561050257600080fd5b506101df6105113660046117e1565b60016020526000908152604090205481565b34801561052f57600080fd5b506101df61053e3660046118df565b600360209081526000928352604080842090915290825290205481565b34801561056757600080fd5b506103417f000000000000000000000000000000000000000000000000000000000000000081565b34801561059b57600080fd5b506105a4611239565b60405161018d969594939291906119b5565b3480156105c257600080fd5b506104e8611333565b600080546105d8906119fa565b80601f0160208091040260200160405190810160405280929190818152602001828054610604906119fa565b80156106515780601f1061062657610100808354040283529160200191610651565b820191906000526020600020905b81548152906001019060200180831161063457829003601f168201915b505050505081565b60065460ff1680156106735750600654610100900460ff16155b801561069f57507f00000000000000000000000000000000000000000000000000000000000000004211155b6106e35760405162461bcd60e51b815260206004820152601060248201526f526f756e64206e6f742061637469766560801b60448201526064015b60405180910390fd5b6000341161073d5760405162461bcd60e51b815260206004820152602160248201527f42657420616d6f756e74206d7573742062652067726561746572207468616e206044820152600360fc1b60648201526084016106da565b6001600160a01b0381166000908152600160205260409020546107995760405162461bcd60e51b8152602060048201526014602482015273151bdad95b881b9bdd081c9959da5cdd195c995960621b60448201526064016106da565b3360009081526003602090815260408083206001600160a01b0385168452909152812080543492906107cc908490611a4a565b90915550506001600160a01b038116600090815260026020526040812080543492906107f9908490611a4a565b9091555050604080516060810182526001600160a01b0380841680835234602084018181523385870181815260058054600181018255600091909152965160039097027f036b6384b5eca791c62761152d0c79bb0604c104a5fb6f4eb0703f3154bb3db0810180549888166001600160a01b0319998a1617905592517f036b6384b5eca791c62761152d0c79bb0604c104a5fb6f4eb0703f3154bb3db1840155517f036b6384b5eca791c62761152d0c79bb0604c104a5fb6f4eb0703f3154bb3db2909201805492909516919095161790925592517f3fe3739e8f82288ea9b537327542d88a4989dfc21c88c5c0c9261a4933520291916108fd9190815260200190565b60405180910390a350565b6060600480548060200260200160405190810160405280929190818152602001828054801561096057602002820191906000526020600020905b81546001600160a01b03168152600190910190602001808311610942575b5050505050905090565b6005818154811061097a57600080fd5b60009182526020909120600390910201805460018201546002909201546001600160a01b0391821693501683565b606080606060048054905067ffffffffffffffff8111156109cb576109cb611a5d565b6040519080825280602002602001820160405280156109f4578160200160208202803683370190505b5060045490935067ffffffffffffffff811115610a1357610a13611a5d565b604051908082528060200260200182016040528015610a3c578160200160208202803683370190505b5060045490925067ffffffffffffffff811115610a5b57610a5b611a5d565b604051908082528060200260200182016040528015610a84578160200160208202803683370190505b50905060005b600454811015610bc05760048181548110610aa757610aa7611a73565b9060005260206000200160009054906101000a90046001600160a01b0316848281518110610ad757610ad7611a73565b60200260200101906001600160a01b031690816001600160a01b0316815250506001600060048381548110610b0e57610b0e611a73565b60009182526020808320909101546001600160a01b031683528201929092526040019020548351849083908110610b4757610b47611a73565b6020026020010181815250506002600060048381548110610b6a57610b6a611a73565b60009182526020808320909101546001600160a01b031683528201929092526040019020548251839083908110610ba357610ba3611a73565b602090810291909101015280610bb881611a89565b915050610a8a565b50909192565b6001600160a01b038083166000908152600360209081526040808320938516835292905220545b92915050565b7f00000000000000000000000000000000000000000000000000000000000000007f00000000000000000000000000000000000000000000000000000000000000007f000000000000000000000000000000000000000000000000000000000000000060008042841115610c9057610c8b427f0000000000000000000000000000000000000000000000000000000000000000611aa2565b610c93565b60005b91507f000000000000000000000000000000000000000000000000000000000000000042101590509091929394565b60048181548110610cd257600080fd5b6000918252602090912001546001600160a01b0316905081565b336001600160a01b037f00000000000000000000000000000000000000000000000000000000000000001614610d5c5760405162461bcd60e51b815260206004820152601560248201527413db9b1e48199858dd1bdc9e4818d85b8818d85b1b605a1b60448201526064016106da565b60065460ff168015610d765750600654610100900460ff16155b610dd05760405162461bcd60e51b815260206004820152602560248201527f526f756e64206e6f7420616374697665206f7220616c72656164792066696e616044820152641b1a5e995960da1b60648201526084016106da565b7f0000000000000000000000000000000000000000000000000000000000000000421015610e365760405162461bcd60e51b8152602060048201526013602482015272149bdd5b99081b9bdd08195b991959081e595d606a1b60448201526064016106da565b6004548114610e875760405162461bcd60e51b815260206004820152601960248201527f496e76616c69642070726963652064617461206c656e6774680000000000000060448201526064016106da565b60008060005b83811015610f9a576000858583818110610ea957610ea9611a73565b905060400201803603810190610ebf9190611ab5565b80516001600160a01b0316600090815260016020526040902054909150610f1f5760405162461bcd60e51b8152602060048201526014602482015273151bdad95b881b9bdd081c9959da5cdd195c995960621b60448201526064016106da565b80516001600160a01b031660009081526001602090815260409091205490820151811015610f8557600081828460200151610f5a9190611aa2565b610f6690612710611b1a565b610f709190611b31565b905085811115610f835782519095509350845b505b50508080610f9290611a89565b915050610e8d565b506001600160a01b038116610ffb5760405162461bcd60e51b815260206004820152602160248201527f4e6f20746f6b656e2068616420706f73697469766520706572666f726d616e636044820152606560f81b60648201526084016106da565b60068054610100610100600160b01b0319909116620100006001600160a01b03858116820261ff001916929092179290921792839055476007559104166000908152600260205260409020546008556110526114a9565b600654604051838152620100009091046001600160a01b0316907fc8404bd5e2bf0c0d9461811a6e7cfae92b0d57217d8dd9c212dc145392a922fd9060200160405180910390a250505050565b600454606090819067ffffffffffffffff8111156110bf576110bf611a5d565b6040519080825280602002602001820160405280156110e8578160200160208202803683370190505b5060045490925067ffffffffffffffff81111561110757611107611a5d565b604051908082528060200260200182016040528015611130578160200160208202803683370190505b50905060005b600454811015611233576004818154811061115357611153611a73565b9060005260206000200160009054906101000a90046001600160a01b031683828151811061118357611183611a73565b60200260200101906001600160a01b031690816001600160a01b03168152505060036000856001600160a01b03166001600160a01b031681526020019081526020016000206000600483815481106111dd576111dd611a73565b60009182526020808320909101546001600160a01b03168352820192909252604001902054825183908390811061121657611216611a73565b60209081029190910101528061122b81611a89565b915050611136565b50915091565b6060600080600080600080805461124f906119fa565b80601f016020809104026020016040519081016040528092919081815260200182805461127b906119fa565b80156112c85780601f1061129d576101008083540402835291602001916112c8565b820191906000526020600020905b8154815290600101906020018083116112ab57829003601f168201915b50506006549399505060ff909216915050801561130557507f00000000000000000000000000000000000000000000000000000000000000004211155b60065460045497989197610100820460ff16975095504794506201000090046001600160a01b031692509050565b600454606090819067ffffffffffffffff81111561135357611353611a5d565b60405190808252806020026020018201604052801561137c578160200160208202803683370190505b5060045490925067ffffffffffffffff81111561139b5761139b611a5d565b6040519080825280602002602001820160405280156113c4578160200160208202803683370190505b50905060005b6004548110156114a457600481815481106113e7576113e7611a73565b9060005260206000200160009054906101000a90046001600160a01b031683828151811061141757611417611a73565b60200260200101906001600160a01b031690816001600160a01b031681525050600260006004838154811061144e5761144e611a73565b60009182526020808320909101546001600160a01b03168352820192909252604001902054825183908390811061148757611487611a73565b60209081029190910101528061149c81611a89565b9150506113ca565b509091565b6008546000036114b557565b60055460009067ffffffffffffffff8111156114d3576114d3611a5d565b6040519080825280602002602001820160405280156114fc578160200160208202803683370190505b5090506000805b6005548110156117605760006005828154811061152257611522611a73565b600091825260209182902060408051606081018252600390930290910180546001600160a01b039081168085526001830154958501959095526002909101548116918301919091526006549193506201000090910416900361174d576000805b848110156115db5782604001516001600160a01b03168682815181106115aa576115aa611a73565b60200260200101516001600160a01b0316036115c957600191506115db565b806115d381611a89565b915050611582565b508061174b576040808301516001600160a01b03908116600090815260036020908152838220600654620100009004909316825291909152205480156117495760006008546007548361162e9190611b1a565b6116389190611b31565b9050836040015187878151811061165157611651611a73565b6001600160a01b03909216602092830291909101909101528561167381611a89565b604086810180516001600160a01b0390811660009081526003602090815284822060065462010000900484168352905283812081905591519251939a50909350169083908381818185875af1925050503d80600081146116ef576040519150601f19603f3d011682016040523d82523d6000602084013e6116f4565b606091505b5050905080156117465784604001516001600160a01b03167fb8e091d87f82e56d22276c9a0088ea5d6068e355383dc08b2721b7b6cb10e8458360405161173d91815260200190565b60405180910390a25b50505b505b505b508061175881611a89565b915050611503565b505050565b6000815180845260005b8181101561178b5760208185018101518683018201520161176f565b506000602082860101526020601f19601f83011685010191505092915050565b6020815260006117be6020830184611765565b9392505050565b80356001600160a01b03811681146117dc57600080fd5b919050565b6000602082840312156117f357600080fd5b6117be826117c5565b600081518084526020808501945080840160005b838110156118355781516001600160a01b031687529582019590820190600101611810565b509495945050505050565b6020815260006117be60208301846117fc565b60006020828403121561186557600080fd5b5035919050565b600081518084526020808501945080840160005b8381101561183557815187529582019590820190600101611880565b6060815260006118af60608301866117fc565b82810360208401526118c1818661186c565b905082810360408401526118d5818561186c565b9695505050505050565b600080604083850312156118f257600080fd5b6118fb836117c5565b9150611909602084016117c5565b90509250929050565b6000806020838503121561192557600080fd5b823567ffffffffffffffff8082111561193d57600080fd5b818501915085601f83011261195157600080fd5b81358181111561196057600080fd5b8660208260061b850101111561197557600080fd5b60209290920196919550909350505050565b60408152600061199a60408301856117fc565b82810360208401526119ac818561186c565b95945050505050565b60c0815260006119c860c0830189611765565b9615156020830152509315156040850152606084019290925260808301526001600160a01b031660a090910152919050565b600181811c90821680611a0e57607f821691505b602082108103611a2e57634e487b7160e01b600052602260045260246000fd5b50919050565b634e487b7160e01b600052601160045260246000fd5b80820180821115610bed57610bed611a34565b634e487b7160e01b600052604160045260246000fd5b634e487b7160e01b600052603260045260246000fd5b600060018201611a9b57611a9b611a34565b5060010190565b81810381811115610bed57610bed611a34565b600060408284031215611ac757600080fd5b6040516040810181811067ffffffffffffffff82111715611af857634e487b7160e01b600052604160045260246000fd5b604052611b04836117c5565b8152602083013560208201528091505092915050565b8082028115828204841417610bed57610bed611a34565b600082611b4e57634e487b7160e01b600052601260045260246000fd5b50049056fea2646970667358221220db1a978136f6ad380b84448b314e0cd51d72ea45b94e9853d4838e251f701dd064736f6c6343000814003362e2c9c75b287778c0b58f1c1d83fa8f9978a33848e0b423735fd44f48ebe3c1a264697066735822122055cac236076e3a838b181199e053f6d5bbdc2441c3146249a2fa96be2936587e64736f6c63430008140033","opcodes":"PUSH1 0x80 PUSH1 0x40 MSTORE CALLVALUE DUP1 ISZERO PUSH3 0x11 JUMPI PUSH1 0x0 DUP1 REVERT JUMPDEST POP PUSH1 0x40 MLOAD PUSH3 0x51E1 CODESIZE SUB DUP1 PUSH3 0x51E1 DUP4 CODECOPY DUP2 ADD PUSH1 0x40 DUP2 SWAP1 MSTORE PUSH3 0x34 SWAP2 PUSH3 0x5A JUMP JUMPDEST PUSH1 0x0 DUP1 SLOAD PUSH1 0x1 PUSH1 0x1 PUSH1 0xA0 SHL SUB NOT AND PUSH1 0x1 PUSH1 0x1 PUSH1 0xA0 SHL SUB SWAP3 SWAP1 SWAP3 AND SWAP2 SWAP1 SWAP2 OR SWAP1 SSTORE PUSH3 0x8C JUMP JUMPDEST PUSH1 0x0 PUSH1 0x20 DUP3 DUP5 SUB SLT ISZERO PUSH3 0x6D JUMPI PUSH1 0x0 DUP1 REVERT JUMPDEST DUP2 MLOAD PUSH1 0x1 PUSH1 0x1 PUSH1 0xA0 SHL SUB DUP2 AND DUP2 EQ PUSH3 0x85 JUMPI PUSH1 0x0 DUP1 REVERT JUMPDEST SWAP4 SWAP3 POP POP POP JUMP JUMPDEST PUSH2 0x5145 DUP1 PUSH3 0x9C PUSH1 0x0 CODECOPY PUSH1 0x0 RETURN INVALID PUSH1 0x80 PUSH1 0x40 MSTORE CALLVALUE DUP1 ISZERO PUSH3 0x11 JUMPI PUSH1 0x0 DUP1 REVERT JUMPDEST POP PUSH1 0x4 CALLDATASIZE LT PUSH3 0x151 JUMPI PUSH1 0x0 CALLDATALOAD PUSH1 0xE0 SHR DUP1 PUSH4 0x8C65C81F GT PUSH3 0xC7 JUMPI DUP1 PUSH4 0xA6F9DAE1 GT PUSH3 0x86 JUMPI DUP1 PUSH4 0xA6F9DAE1 EQ PUSH3 0x323 JUMPI DUP1 PUSH4 0xD02641A0 EQ PUSH3 0x33A JUMPI DUP1 PUSH4 0xD3C7C2C7 EQ PUSH3 0x351 JUMPI DUP1 PUSH4 0xD4EE651B EQ PUSH3 0x36A JUMPI DUP1 PUSH4 0xEFF29F8E EQ PUSH3 0x381 JUMPI DUP1 PUSH4 0xEFFA5699 EQ PUSH3 0x398 JUMPI PUSH1 0x0 DUP1 REVERT JUMPDEST DUP1 PUSH4 0x8C65C81F EQ PUSH3 0x29E JUMPI DUP1 PUSH4 0x8DA5CB5B EQ PUSH3 0x2CA JUMPI DUP1 PUSH4 0x9550AF06 EQ PUSH3 0x2DE JUMPI DUP1 PUSH4 0x9591E260 EQ PUSH3 0x2F5 JUMPI DUP1 PUSH4 0x9EAD7222 EQ PUSH3 0x30C JUMPI PUSH1 0x0 DUP1 REVERT JUMPDEST DUP1 PUSH4 0x68C4AC26 GT PUSH3 0x114 JUMPI DUP1 PUSH4 0x68C4AC26 EQ PUSH3 0x1FC JUMPI DUP1 PUSH4 0x6FC89FE3 EQ PUSH3 0x226 JUMPI DUP1 PUSH4 0x747DFF42 EQ PUSH3 0x23F JUMPI DUP1 PUSH4 0x76319190 EQ PUSH3 0x25C JUMPI DUP1 PUSH4 0x88C3FFB0 EQ PUSH3 0x273 JUMPI PUSH1 0x0 DUP1 REVERT JUMPDEST DUP1 PUSH4 0x181D9574 EQ PUSH3 0x156 JUMPI DUP1 PUSH4 0x2819829D EQ PUSH3 0x187 JUMPI DUP1 PUSH4 0x45AC924D EQ PUSH3 0x1A6 JUMPI DUP1 PUSH4 0x5693F02E EQ PUSH3 0x1CC JUMPI DUP1 PUSH4 0x6896EF4B EQ PUSH3 0x1E3 JUMPI JUMPDEST PUSH1 0x0 DUP1 REVERT JUMPDEST PUSH1 0x6 SLOAD PUSH3 0x16A SWAP1 PUSH1 0x1 PUSH1 0x1 PUSH1 0xA0 SHL SUB AND DUP2 JUMP JUMPDEST PUSH1 0x40 MLOAD PUSH1 0x1 PUSH1 0x1 PUSH1 0xA0 SHL SUB SWAP1 SWAP2 AND DUP2 MSTORE PUSH1 0x20 ADD JUMPDEST PUSH1 0x40 MLOAD DUP1 SWAP2 SUB SWAP1 RETURN JUMPDEST PUSH1 0x6 SLOAD PUSH1 0x1 PUSH1 0x1 PUSH1 0xA0 SHL SUB AND ISZERO JUMPDEST PUSH1 0x40 MLOAD SWAP1 ISZERO ISZERO DUP2 MSTORE PUSH1 0x20 ADD PUSH3 0x17E JUMP JUMPDEST PUSH3 0x1BD PUSH3 0x1B7 CALLDATASIZE PUSH1 0x4 PUSH3 0x21E2 JUMP JUMPDEST PUSH3 0x3BE JUMP JUMPDEST PUSH1 0x40 MLOAD PUSH3 0x17E SWAP2 SWAP1 PUSH3 0x2264 JUMP JUMPDEST PUSH3 0x16A PUSH3 0x1DD CALLDATASIZE PUSH1 0x4 PUSH3 0x234F JUMP JUMPDEST PUSH3 0x521 JUMP JUMPDEST PUSH3 0x1ED PUSH1 0x1 SLOAD DUP2 JUMP JUMPDEST PUSH1 0x40 MLOAD SWAP1 DUP2 MSTORE PUSH1 0x20 ADD PUSH3 0x17E JUMP JUMPDEST PUSH3 0x213 PUSH3 0x20D CALLDATASIZE PUSH1 0x4 PUSH3 0x23DE JUMP JUMPDEST PUSH3 0x9B7 JUMP JUMPDEST PUSH1 0x40 MLOAD PUSH3 0x17E SWAP6 SWAP5 SWAP4 SWAP3 SWAP2 SWAP1 PUSH3 0x2452 JUMP JUMPDEST PUSH3 0x23D PUSH3 0x237 CALLDATASIZE PUSH1 0x4 PUSH3 0x24A6 JUMP JUMPDEST PUSH3 0xB14 JUMP JUMPDEST STOP JUMPDEST PUSH3 0x249 PUSH3 0xD88 JUMP JUMPDEST PUSH1 0x40 MLOAD PUSH3 0x17E SWAP6 SWAP5 SWAP4 SWAP3 SWAP2 SWAP1 PUSH3 0x252C JUMP JUMPDEST PUSH3 0x23D PUSH3 0x26D CALLDATASIZE PUSH1 0x4 PUSH3 0x23DE JUMP JUMPDEST PUSH3 0xE2B JUMP JUMPDEST PUSH3 0x28A PUSH3 0x284 CALLDATASIZE PUSH1 0x4 PUSH3 0x256F JUMP JUMPDEST PUSH3 0x100C JUMP JUMPDEST PUSH1 0x40 MLOAD PUSH3 0x17E SWAP7 SWAP6 SWAP5 SWAP4 SWAP3 SWAP2 SWAP1 PUSH3 0x2589 JUMP JUMPDEST PUSH3 0x16A PUSH3 0x2AF CALLDATASIZE PUSH1 0x4 PUSH3 0x256F JUMP JUMPDEST PUSH1 0x2 PUSH1 0x20 MSTORE PUSH1 0x0 SWAP1 DUP2 MSTORE PUSH1 0x40 SWAP1 KECCAK256 SLOAD PUSH1 0x1 PUSH1 0x1 PUSH1 0xA0 SHL SUB AND DUP2 JUMP JUMPDEST PUSH1 0x0 SLOAD PUSH3 0x16A SWAP1 PUSH1 0x1 PUSH1 0x1 PUSH1 0xA0 SHL SUB AND DUP2 JUMP JUMPDEST PUSH3 0x23D PUSH3 0x2EF CALLDATASIZE PUSH1 0x4 PUSH3 0x25D5 JUMP JUMPDEST PUSH3 0x10BB JUMP JUMPDEST PUSH3 0x23D PUSH3 0x306 CALLDATASIZE PUSH1 0x4 PUSH3 0x25D5 JUMP JUMPDEST PUSH3 0x1582 JUMP JUMPDEST PUSH3 0x16A PUSH3 0x31D CALLDATASIZE PUSH1 0x4 PUSH3 0x256F JUMP JUMPDEST PUSH3 0x1944 JUMP JUMPDEST PUSH3 0x23D PUSH3 0x334 CALLDATASIZE PUSH1 0x4 PUSH3 0x23DE JUMP JUMPDEST PUSH3 0x196F JUMP JUMPDEST PUSH3 0x1ED PUSH3 0x34B CALLDATASIZE PUSH1 0x4 PUSH3 0x23DE JUMP JUMPDEST PUSH3 0x1A0A JUMP JUMPDEST PUSH3 0x35B PUSH3 0x1A67 JUMP JUMPDEST PUSH1 0x40 MLOAD PUSH3 0x17E SWAP2 SWAP1 PUSH3 0x2663 JUMP JUMPDEST PUSH3 0x23D PUSH3 0x37B CALLDATASIZE PUSH1 0x4 PUSH3 0x271B JUMP JUMPDEST PUSH3 0x1D9E JUMP JUMPDEST PUSH3 0x23D PUSH3 0x392 CALLDATASIZE PUSH1 0x4 PUSH3 0x274A JUMP JUMPDEST PUSH3 0x1E9D JUMP JUMPDEST PUSH3 0x195 PUSH3 0x3A9 CALLDATASIZE PUSH1 0x4 PUSH3 0x23DE JUMP JUMPDEST PUSH1 0x3 PUSH1 0x20 MSTORE PUSH1 0x0 SWAP1 DUP2 MSTORE PUSH1 0x40 SWAP1 KECCAK256 SLOAD PUSH1 0xFF AND DUP2 JUMP JUMPDEST PUSH1 0x60 PUSH1 0x0 DUP3 PUSH1 0x1 PUSH1 0x1 PUSH1 0x40 SHL SUB DUP2 GT ISZERO PUSH3 0x3DD JUMPI PUSH3 0x3DD PUSH3 0x2280 JUMP JUMPDEST PUSH1 0x40 MLOAD SWAP1 DUP1 DUP3 MSTORE DUP1 PUSH1 0x20 MUL PUSH1 0x20 ADD DUP3 ADD PUSH1 0x40 MSTORE DUP1 ISZERO PUSH3 0x407 JUMPI DUP2 PUSH1 0x20 ADD PUSH1 0x20 DUP3 MUL DUP1 CALLDATASIZE DUP4 CALLDATACOPY ADD SWAP1 POP JUMPDEST POP SWAP1 POP PUSH1 0x0 JUMPDEST DUP4 DUP2 LT ISZERO PUSH3 0x517 JUMPI PUSH1 0x4 PUSH1 0x0 DUP7 DUP7 DUP5 DUP2 DUP2 LT PUSH3 0x42F JUMPI PUSH3 0x42F PUSH3 0x27A1 JUMP JUMPDEST SWAP1 POP PUSH1 0x20 MUL ADD PUSH1 0x20 DUP2 ADD SWAP1 PUSH3 0x446 SWAP2 SWAP1 PUSH3 0x23DE JUMP JUMPDEST PUSH1 0x1 PUSH1 0x1 PUSH1 0xA0 SHL SUB AND DUP2 MSTORE PUSH1 0x20 DUP2 ADD SWAP2 SWAP1 SWAP2 MSTORE PUSH1 0x40 ADD PUSH1 0x0 KECCAK256 PUSH1 0x4 ADD SLOAD PUSH1 0xFF AND PUSH3 0x48E JUMPI PUSH1 0x40 MLOAD PUSH3 0x461BCD PUSH1 0xE5 SHL DUP2 MSTORE PUSH1 0x4 ADD PUSH3 0x485 SWAP1 PUSH3 0x27B7 JUMP JUMPDEST PUSH1 0x40 MLOAD DUP1 SWAP2 SUB SWAP1 REVERT JUMPDEST PUSH1 0x4 PUSH1 0x0 DUP7 DUP7 DUP5 DUP2 DUP2 LT PUSH3 0x4A7 JUMPI PUSH3 0x4A7 PUSH3 0x27A1 JUMP JUMPDEST SWAP1 POP PUSH1 0x20 MUL ADD PUSH1 0x20 DUP2 ADD SWAP1 PUSH3 0x4BE SWAP2 SWAP1 PUSH3 0x23DE JUMP JUMPDEST PUSH1 0x1 PUSH1 0x1 PUSH1 0xA0 SHL SUB AND PUSH1 0x1 PUSH1 0x1 PUSH1 0xA0 SHL SUB AND DUP2 MSTORE PUSH1 0x20 ADD SWAP1 DUP2 MSTORE PUSH1 0x20 ADD PUSH1 0x0 KECCAK256 PUSH1 0x3 ADD SLOAD DUP3 DUP3 DUP2 MLOAD DUP2 LT PUSH3 0x4F7 JUMPI PUSH3 0x4F7 PUSH3 0x27A1 JUMP JUMPDEST PUSH1 0x20 SWAP1 DUP2 MUL SWAP2 SWAP1 SWAP2 ADD ADD MSTORE DUP1 PUSH3 0x50E DUP2 PUSH3 0x27FA JUMP JUMPDEST SWAP2 POP POP PUSH3 0x40D JUMP JUMPDEST POP SWAP1 POP JUMPDEST SWAP3 SWAP2 POP POP JUMP JUMPDEST PUSH1 0x0 DUP1 SLOAD PUSH1 0x1 PUSH1 0x1 PUSH1 0xA0 SHL SUB AND CALLER EQ PUSH3 0x54F JUMPI PUSH1 0x40 MLOAD PUSH3 0x461BCD PUSH1 0xE5 SHL DUP2 MSTORE PUSH1 0x4 ADD PUSH3 0x485 SWAP1 PUSH3 0x2816 JUMP JUMPDEST PUSH1 0x6 SLOAD PUSH1 0x1 PUSH1 0x1 PUSH1 0xA0 SHL SUB AND ISZERO PUSH3 0x5A0 JUMPI PUSH1 0x40 MLOAD PUSH3 0x461BCD PUSH1 0xE5 SHL DUP2 MSTORE PUSH1 0x20 PUSH1 0x4 DUP3 ADD MSTORE PUSH1 0x13 PUSH1 0x24 DUP3 ADD MSTORE PUSH19 0x41637469766520726F756E6420657869737473 PUSH1 0x68 SHL PUSH1 0x44 DUP3 ADD MSTORE PUSH1 0x64 ADD PUSH3 0x485 JUMP JUMPDEST PUSH1 0x0 DUP6 MLOAD GT PUSH3 0x5E9 JUMPI PUSH1 0x40 MLOAD PUSH3 0x461BCD PUSH1 0xE5 SHL DUP2 MSTORE PUSH1 0x20 PUSH1 0x4 DUP3 ADD MSTORE PUSH1 0x13 PUSH1 0x24 DUP3 ADD MSTORE PUSH19 0x149BDD5B99081B985B59481C995C5D5A5C9959 PUSH1 0x6A SHL PUSH1 0x44 DUP3 ADD MSTORE PUSH1 0x64 ADD PUSH3 0x485 JUMP JUMPDEST PUSH1 0x0 DUP5 GT PUSH3 0x63B JUMPI PUSH1 0x40 MLOAD PUSH3 0x461BCD PUSH1 0xE5 SHL DUP2 MSTORE PUSH1 0x20 PUSH1 0x4 DUP3 ADD MSTORE PUSH1 0x1F PUSH1 0x24 DUP3 ADD MSTORE PUSH32 0x4475726174696F6E206D7573742062652067726561746572207468616E203000 PUSH1 0x44 DUP3 ADD MSTORE PUSH1 0x64 ADD PUSH3 0x485 JUMP JUMPDEST PUSH1 0x1 DUP3 GT PUSH3 0x686 JUMPI PUSH1 0x40 MLOAD PUSH3 0x461BCD PUSH1 0xE5 SHL DUP2 MSTORE PUSH1 0x20 PUSH1 0x4 DUP3 ADD MSTORE PUSH1 0x16 PUSH1 0x24 DUP3 ADD MSTORE PUSH22 0x4E656564206174206C65617374203220746F6B656E73 PUSH1 0x50 SHL PUSH1 0x44 DUP3 ADD MSTORE PUSH1 0x64 ADD PUSH3 0x485 JUMP JUMPDEST PUSH1 0x0 DUP3 PUSH1 0x1 PUSH1 0x1 PUSH1 0x40 SHL SUB DUP2 GT ISZERO PUSH3 0x6A3 JUMPI PUSH3 0x6A3 PUSH3 0x2280 JUMP JUMPDEST PUSH1 0x40 MLOAD SWAP1 DUP1 DUP3 MSTORE DUP1 PUSH1 0x20 MUL PUSH1 0x20 ADD DUP3 ADD PUSH1 0x40 MSTORE DUP1 ISZERO PUSH3 0x6CD JUMPI DUP2 PUSH1 0x20 ADD PUSH1 0x20 DUP3 MUL DUP1 CALLDATASIZE DUP4 CALLDATACOPY ADD SWAP1 POP JUMPDEST POP SWAP1 POP PUSH1 0x0 DUP4 PUSH1 0x1 PUSH1 0x1 PUSH1 0x40 SHL SUB DUP2 GT ISZERO PUSH3 0x6ED JUMPI PUSH3 0x6ED PUSH3 0x2280 JUMP JUMPDEST PUSH1 0x40 MLOAD SWAP1 DUP1 DUP3 MSTORE DUP1 PUSH1 0x20 MUL PUSH1 0x20 ADD DUP3 ADD PUSH1 0x40 MSTORE DUP1 ISZERO PUSH3 0x717 JUMPI DUP2 PUSH1 0x20 ADD PUSH1 0x20 DUP3 MUL DUP1 CALLDATASIZE DUP4 CALLDATACOPY ADD SWAP1 POP JUMPDEST POP SWAP1 POP PUSH1 0x0 JUMPDEST DUP5 DUP2 LT ISZERO PUSH3 0x87F JUMPI PUSH1 0x4 PUSH1 0x0 DUP8 DUP8 DUP5 DUP2 DUP2 LT PUSH3 0x73F JUMPI PUSH3 0x73F PUSH3 0x27A1 JUMP JUMPDEST SWAP1 POP PUSH1 0x20 MUL ADD PUSH1 0x20 DUP2 ADD SWAP1 PUSH3 0x756 SWAP2 SWAP1 PUSH3 0x23DE JUMP JUMPDEST PUSH1 0x1 PUSH1 0x1 PUSH1 0xA0 SHL SUB AND DUP2 MSTORE PUSH1 0x20 DUP2 ADD SWAP2 SWAP1 SWAP2 MSTORE PUSH1 0x40 ADD PUSH1 0x0 KECCAK256 PUSH1 0x4 ADD SLOAD PUSH1 0xFF AND PUSH3 0x795 JUMPI PUSH1 0x40 MLOAD PUSH3 0x461BCD PUSH1 0xE5 SHL DUP2 MSTORE PUSH1 0x4 ADD PUSH3 0x485 SWAP1 PUSH3 0x27B7 JUMP JUMPDEST DUP6 DUP6 DUP3 DUP2 DUP2 LT PUSH3 0x7AA JUMPI PUSH3 0x7AA PUSH3 0x27A1 JUMP JUMPDEST SWAP1 POP PUSH1 0x20 MUL ADD PUSH1 0x20 DUP2 ADD SWAP1 PUSH3 0x7C1 SWAP2 SWAP1 PUSH3 0x23DE JUMP JUMPDEST DUP4 DUP3 DUP2 MLOAD DUP2 LT PUSH3 0x7D6 JUMPI PUSH3 0x7D6 PUSH3 0x27A1 JUMP JUMPDEST PUSH1 0x20 MUL PUSH1 0x20 ADD ADD SWAP1 PUSH1 0x1 PUSH1 0x1 PUSH1 0xA0 SHL SUB AND SWAP1 DUP2 PUSH1 0x1 PUSH1 0x1 PUSH1 0xA0 SHL SUB AND DUP2 MSTORE POP POP PUSH1 0x4 PUSH1 0x0 DUP8 DUP8 DUP5 DUP2 DUP2 LT PUSH3 0x80F JUMPI PUSH3 0x80F PUSH3 0x27A1 JUMP JUMPDEST SWAP1 POP PUSH1 0x20 MUL ADD PUSH1 0x20 DUP2 ADD SWAP1 PUSH3 0x826 SWAP2 SWAP1 PUSH3 0x23DE JUMP JUMPDEST PUSH1 0x1 PUSH1 0x1 PUSH1 0xA0 SHL SUB AND PUSH1 0x1 PUSH1 0x1 PUSH1 0xA0 SHL SUB AND DUP2 MSTORE PUSH1 0x20 ADD SWAP1 DUP2 MSTORE PUSH1 0x20 ADD PUSH1 0x0 KECCAK256 PUSH1 0x3 ADD SLOAD DUP3 DUP3 DUP2 MLOAD DUP2 LT PUSH3 0x85F JUMPI PUSH3 0x85F PUSH3 0x27A1 JUMP JUMPDEST PUSH1 0x20 SWAP1 DUP2 MUL SWAP2 SWAP1 SWAP2 ADD ADD MSTORE DUP1 PUSH3 0x876 DUP2 PUSH3 0x27FA JUMP JUMPDEST SWAP2 POP POP PUSH3 0x71D JUMP JUMPDEST POP PUSH1 0x0 PUSH1 0x1 SLOAD DUP9 TIMESTAMP PUSH1 0x40 MLOAD PUSH1 0x20 ADD PUSH3 0x89B SWAP4 SWAP3 SWAP2 SWAP1 PUSH3 0x2843 JUMP JUMPDEST PUSH1 0x40 MLOAD PUSH1 0x20 DUP2 DUP4 SUB SUB DUP2 MSTORE SWAP1 PUSH1 0x40 MSTORE DUP1 MLOAD SWAP1 PUSH1 0x20 ADD KECCAK256 SWAP1 POP PUSH1 0x0 DUP2 DUP10 DUP10 DUP7 DUP7 PUSH1 0x40 MLOAD PUSH3 0x8C8 SWAP1 PUSH3 0x214C JUMP JUMPDEST PUSH3 0x8D7 SWAP5 SWAP4 SWAP3 SWAP2 SWAP1 PUSH3 0x2872 JUMP JUMPDEST DUP2 SWAP1 PUSH1 0x40 MLOAD DUP1 SWAP2 SUB SWAP1 PUSH1 0x0 CREATE2 SWAP1 POP DUP1 ISZERO DUP1 ISZERO PUSH3 0x8F8 JUMPI RETURNDATASIZE PUSH1 0x0 DUP1 RETURNDATACOPY RETURNDATASIZE PUSH1 0x0 REVERT JUMPDEST POP PUSH1 0x1 DUP1 SLOAD PUSH1 0x0 SWAP1 DUP2 MSTORE PUSH1 0x2 PUSH1 0x20 SWAP1 DUP2 MSTORE PUSH1 0x40 DUP1 DUP4 KECCAK256 DUP1 SLOAD PUSH1 0x1 PUSH1 0x1 PUSH1 0xA0 SHL SUB DUP8 AND PUSH1 0x1 PUSH1 0x1 PUSH1 0xA0 SHL SUB NOT SWAP2 DUP3 AND DUP2 OR SWAP1 SWAP3 SSTORE DUP2 DUP6 MSTORE PUSH1 0x3 SWAP1 SWAP4 MSTORE SWAP3 DUP2 SWAP1 KECCAK256 DUP1 SLOAD PUSH1 0xFF NOT AND DUP6 OR SWAP1 SSTORE PUSH1 0x6 DUP1 SLOAD SWAP1 SWAP3 AND DUP4 OR SWAP1 SWAP2 SSTORE SWAP2 SLOAD SWAP2 MLOAD SWAP3 SWAP4 POP DUP4 SWAP3 SWAP1 SWAP2 SWAP1 PUSH32 0x4F28300A5FD8808E5F10B16038BD9BCB8CAACB650F56C4E7550A5FE70C7368C9 SWAP1 PUSH3 0x98A SWAP1 DUP15 SWAP1 DUP13 SWAP1 PUSH3 0x28F0 JUMP JUMPDEST PUSH1 0x40 MLOAD DUP1 SWAP2 SUB SWAP1 LOG3 PUSH1 0x1 DUP1 SLOAD SWAP1 PUSH1 0x0 PUSH3 0x9A4 DUP4 PUSH3 0x27FA JUMP JUMPDEST SWAP1 SWAP2 SSTORE POP SWAP1 SWAP11 SWAP10 POP POP POP POP POP POP POP POP POP POP JUMP JUMPDEST PUSH1 0x4 PUSH1 0x20 MSTORE PUSH1 0x0 SWAP1 DUP2 MSTORE PUSH1 0x40 SWAP1 KECCAK256 DUP1 SLOAD PUSH1 0x1 DUP3 ADD DUP1 SLOAD PUSH1 0x1 PUSH1 0x1 PUSH1 0xA0 SHL SUB SWAP1 SWAP3 AND SWAP3 SWAP2 PUSH3 0x9E5 SWAP1 PUSH3 0x2914 JUMP JUMPDEST DUP1 PUSH1 0x1F ADD PUSH1 0x20 DUP1 SWAP2 DIV MUL PUSH1 0x20 ADD PUSH1 0x40 MLOAD SWAP1 DUP2 ADD PUSH1 0x40 MSTORE DUP1 SWAP3 SWAP2 SWAP1 DUP2 DUP2 MSTORE PUSH1 0x20 ADD DUP3 DUP1 SLOAD PUSH3 0xA13 SWAP1 PUSH3 0x2914 JUMP JUMPDEST DUP1 ISZERO PUSH3 0xA64 JUMPI DUP1 PUSH1 0x1F LT PUSH3 0xA38 JUMPI PUSH2 0x100 DUP1 DUP4 SLOAD DIV MUL DUP4 MSTORE SWAP2 PUSH1 0x20 ADD SWAP2 PUSH3 0xA64 JUMP JUMPDEST DUP3 ADD SWAP2 SWAP1 PUSH1 0x0 MSTORE PUSH1 0x20 PUSH1 0x0 KECCAK256 SWAP1 JUMPDEST DUP2 SLOAD DUP2 MSTORE SWAP1 PUSH1 0x1 ADD SWAP1 PUSH1 0x20 ADD DUP1 DUP4 GT PUSH3 0xA46 JUMPI DUP3 SWAP1 SUB PUSH1 0x1F AND DUP3 ADD SWAP2 JUMPDEST POP POP POP POP POP SWAP1 DUP1 PUSH1 0x2 ADD DUP1 SLOAD PUSH3 0xA7B SWAP1 PUSH3 0x2914 JUMP JUMPDEST DUP1 PUSH1 0x1F ADD PUSH1 0x20 DUP1 SWAP2 DIV MUL PUSH1 0x20 ADD PUSH1 0x40 MLOAD SWAP1 DUP2 ADD PUSH1 0x40 MSTORE DUP1 SWAP3 SWAP2 SWAP1 DUP2 DUP2 MSTORE PUSH1 0x20 ADD DUP3 DUP1 SLOAD PUSH3 0xAA9 SWAP1 PUSH3 0x2914 JUMP JUMPDEST DUP1 ISZERO PUSH3 0xAFA JUMPI DUP1 PUSH1 0x1F LT PUSH3 0xACE JUMPI PUSH2 0x100 DUP1 DUP4 SLOAD DIV MUL DUP4 MSTORE SWAP2 PUSH1 0x20 ADD SWAP2 PUSH3 0xAFA JUMP JUMPDEST DUP3 ADD SWAP2 SWAP1 PUSH1 0x0 MSTORE PUSH1 0x20 PUSH1 0x0 KECCAK256 SWAP1 JUMPDEST DUP2 SLOAD DUP2 MSTORE SWAP1 PUSH1 0x1 ADD SWAP1 PUSH1 0x20 ADD DUP1 DUP4 GT PUSH3 0xADC JUMPI DUP3 SWAP1 SUB PUSH1 0x1F AND DUP3 ADD SWAP2 JUMPDEST POP POP POP POP PUSH1 0x3 DUP4 ADD SLOAD PUSH1 0x4 SWAP1 SWAP4 ADD SLOAD SWAP2 SWAP3 SWAP2 PUSH1 0xFF AND SWAP1 POP DUP6 JUMP JUMPDEST PUSH1 0x0 SLOAD PUSH1 0x1 PUSH1 0x1 PUSH1 0xA0 SHL SUB AND CALLER EQ PUSH3 0xB41 JUMPI PUSH1 0x40 MLOAD PUSH3 0x461BCD PUSH1 0xE5 SHL DUP2 MSTORE PUSH1 0x4 ADD PUSH3 0x485 SWAP1 PUSH3 0x2816 JUMP JUMPDEST PUSH1 0x1 PUSH1 0x1 PUSH1 0xA0 SHL SUB DUP5 AND PUSH3 0xB91 JUMPI PUSH1 0x40 MLOAD PUSH3 0x461BCD PUSH1 0xE5 SHL DUP2 MSTORE PUSH1 0x20 PUSH1 0x4 DUP3 ADD MSTORE PUSH1 0x15 PUSH1 0x24 DUP3 ADD MSTORE PUSH21 0x496E76616C696420746F6B656E2061646472657373 PUSH1 0x58 SHL PUSH1 0x44 DUP3 ADD MSTORE PUSH1 0x64 ADD PUSH3 0x485 JUMP JUMPDEST PUSH1 0x0 DUP2 GT PUSH3 0xBDB JUMPI PUSH1 0x40 MLOAD PUSH3 0x461BCD PUSH1 0xE5 SHL DUP2 MSTORE PUSH1 0x20 PUSH1 0x4 DUP3 ADD MSTORE PUSH1 0x15 PUSH1 0x24 DUP3 ADD MSTORE PUSH21 0x496E76616C696420696E697469616C207072696365 PUSH1 0x58 SHL PUSH1 0x44 DUP3 ADD MSTORE PUSH1 0x64 ADD PUSH3 0x485 JUMP JUMPDEST PUSH1 0x1 PUSH1 0x1 PUSH1 0xA0 SHL SUB DUP5 AND PUSH1 0x0 SWAP1 DUP2 MSTORE PUSH1 0x4 PUSH1 0x20 DUP2 SWAP1 MSTORE PUSH1 0x40 SWAP1 SWAP2 KECCAK256 ADD SLOAD PUSH1 0xFF AND ISZERO PUSH3 0xC4A JUMPI PUSH1 0x40 MLOAD PUSH3 0x461BCD PUSH1 0xE5 SHL DUP2 MSTORE PUSH1 0x20 PUSH1 0x4 DUP3 ADD MSTORE PUSH1 0x17 PUSH1 0x24 DUP3 ADD MSTORE PUSH32 0x546F6B656E20616C726561647920737570706F72746564000000000000000000 PUSH1 0x44 DUP3 ADD MSTORE PUSH1 0x64 ADD PUSH3 0x485 JUMP JUMPDEST PUSH1 0x40 DUP1 MLOAD PUSH1 0xA0 DUP2 ADD DUP3 MSTORE PUSH1 0x1 PUSH1 0x1 PUSH1 0xA0 SHL SUB DUP7 DUP2 AND DUP1 DUP4 MSTORE PUSH1 0x20 DUP1 DUP5 ADD DUP9 DUP2 MSTORE DUP5 DUP7 ADD DUP9 SWAP1 MSTORE PUSH1 0x60 DUP6 ADD DUP8 SWAP1 MSTORE PUSH1 0x1 PUSH1 0x80 DUP7 ADD DUP2 SWAP1 MSTORE PUSH1 0x0 SWAP4 DUP5 MSTORE PUSH1 0x4 SWAP1 SWAP3 MSTORE SWAP5 SWAP1 SWAP2 KECCAK256 DUP4 MLOAD DUP2 SLOAD PUSH1 0x1 PUSH1 0x1 PUSH1 0xA0 SHL SUB NOT AND SWAP4 AND SWAP3 SWAP1 SWAP3 OR DUP3 SSTORE SWAP3 MLOAD SWAP2 SWAP3 SWAP1 SWAP2 SWAP1 DUP3 ADD SWAP1 PUSH3 0xCBA SWAP1 DUP3 PUSH3 0x29A3 JUMP JUMPDEST POP PUSH1 0x40 DUP3 ADD MLOAD PUSH1 0x2 DUP3 ADD SWAP1 PUSH3 0xCD1 SWAP1 DUP3 PUSH3 0x29A3 JUMP JUMPDEST POP PUSH1 0x60 DUP3 ADD MLOAD PUSH1 0x3 DUP3 ADD SSTORE PUSH1 0x80 SWAP1 SWAP2 ADD MLOAD PUSH1 0x4 SWAP1 SWAP2 ADD DUP1 SLOAD PUSH1 0xFF NOT AND SWAP2 ISZERO ISZERO SWAP2 SWAP1 SWAP2 OR SWAP1 SSTORE PUSH1 0x5 DUP1 SLOAD PUSH1 0x1 DUP2 ADD DUP3 SSTORE PUSH1 0x0 SWAP2 SWAP1 SWAP2 MSTORE PUSH32 0x36B6384B5ECA791C62761152D0C79BB0604C104A5FB6F4EB0703F3154BB3DB0 ADD DUP1 SLOAD PUSH1 0x1 PUSH1 0x1 PUSH1 0xA0 SHL SUB NOT AND PUSH1 0x1 PUSH1 0x1 PUSH1 0xA0 SHL SUB DUP7 AND SWAP1 DUP2 OR SWAP1 SWAP2 SSTORE PUSH1 0x40 MLOAD PUSH32 0xF711540F34D729D036431D051198FE18D9FD348AD9AA68DFC8B27D5C5F277107 SWAP1 PUSH3 0xD7A SWAP1 DUP7 SWAP1 DUP7 SWAP1 DUP7 SWAP1 PUSH3 0x2A6F JUMP JUMPDEST PUSH1 0x40 MLOAD DUP1 SWAP2 SUB SWAP1 LOG2 POP POP POP POP JUMP JUMPDEST PUSH1 0x6 SLOAD PUSH1 0x1 PUSH1 0x1 PUSH1 0xA0 SHL SUB AND PUSH1 0x60 PUSH1 0x0 DUP1 DUP1 DUP5 ISZERO PUSH3 0xE24 JUMPI PUSH1 0x0 DUP6 SWAP1 POP PUSH1 0x0 DUP1 DUP3 PUSH1 0x1 PUSH1 0x1 PUSH1 0xA0 SHL SUB AND PUSH4 0xD015D86F PUSH1 0x40 MLOAD DUP2 PUSH4 0xFFFFFFFF AND PUSH1 0xE0 SHL DUP2 MSTORE PUSH1 0x4 ADD PUSH1 0x0 PUSH1 0x40 MLOAD DUP1 DUP4 SUB DUP2 DUP7 GAS STATICCALL ISZERO DUP1 ISZERO PUSH3 0xDE8 JUMPI RETURNDATASIZE PUSH1 0x0 DUP1 RETURNDATACOPY RETURNDATASIZE PUSH1 0x0 REVERT JUMPDEST POP POP POP POP PUSH1 0x40 MLOAD RETURNDATASIZE PUSH1 0x0 DUP3 RETURNDATACOPY PUSH1 0x1F RETURNDATASIZE SWAP1 DUP2 ADD PUSH1 0x1F NOT AND DUP3 ADD PUSH1 0x40 MSTORE PUSH3 0xE12 SWAP2 SWAP1 DUP2 ADD SWAP1 PUSH3 0x2ACC JUMP JUMPDEST POP SWAP4 SWAP11 POP SWAP2 SWAP9 POP SWAP1 SWAP7 POP SWAP1 SWAP5 POP POP POP POP POP JUMPDEST SWAP1 SWAP2 SWAP3 SWAP4 SWAP5 JUMP JUMPDEST PUSH1 0x0 SLOAD PUSH1 0x1 PUSH1 0x1 PUSH1 0xA0 SHL SUB AND CALLER EQ PUSH3 0xE58 JUMPI PUSH1 0x40 MLOAD PUSH3 0x461BCD PUSH1 0xE5 SHL DUP2 MSTORE PUSH1 0x4 ADD PUSH3 0x485 SWAP1 PUSH3 0x2816 JUMP JUMPDEST PUSH1 0x1 PUSH1 0x1 PUSH1 0xA0 SHL SUB DUP2 AND PUSH1 0x0 SWAP1 DUP2 MSTORE PUSH1 0x4 PUSH1 0x20 DUP2 SWAP1 MSTORE PUSH1 0x40 SWAP1 SWAP2 KECCAK256 ADD SLOAD PUSH1 0xFF AND PUSH3 0xE97 JUMPI PUSH1 0x40 MLOAD PUSH3 0x461BCD PUSH1 0xE5 SHL DUP2 MSTORE PUSH1 0x4 ADD PUSH3 0x485 SWAP1 PUSH3 0x27B7 JUMP JUMPDEST PUSH1 0x1 PUSH1 0x1 PUSH1 0xA0 SHL SUB DUP2 AND PUSH1 0x0 SWAP1 DUP2 MSTORE PUSH1 0x4 PUSH1 0x20 DUP2 SWAP1 MSTORE PUSH1 0x40 DUP3 KECCAK256 ADD DUP1 SLOAD PUSH1 0xFF NOT AND SWAP1 SSTORE JUMPDEST PUSH1 0x5 SLOAD DUP2 LT ISZERO PUSH3 0xFD4 JUMPI DUP2 PUSH1 0x1 PUSH1 0x1 PUSH1 0xA0 SHL SUB AND PUSH1 0x5 DUP3 DUP2 SLOAD DUP2 LT PUSH3 0xEE6 JUMPI PUSH3 0xEE6 PUSH3 0x27A1 JUMP JUMPDEST PUSH1 0x0 SWAP2 DUP3 MSTORE PUSH1 0x20 SWAP1 SWAP2 KECCAK256 ADD SLOAD PUSH1 0x1 PUSH1 0x1 PUSH1 0xA0 SHL SUB AND SUB PUSH3 0xFBF JUMPI PUSH1 0x5 DUP1 SLOAD PUSH3 0xF13 SWAP1 PUSH1 0x1 SWAP1 PUSH3 0x2B96 JUMP JUMPDEST DUP2 SLOAD DUP2 LT PUSH3 0xF26 JUMPI PUSH3 0xF26 PUSH3 0x27A1 JUMP JUMPDEST PUSH1 0x0 SWAP2 DUP3 MSTORE PUSH1 0x20 SWAP1 SWAP2 KECCAK256 ADD SLOAD PUSH1 0x5 DUP1 SLOAD PUSH1 0x1 PUSH1 0x1 PUSH1 0xA0 SHL SUB SWAP1 SWAP3 AND SWAP2 DUP4 SWAP1 DUP2 LT PUSH3 0xF55 JUMPI PUSH3 0xF55 PUSH3 0x27A1 JUMP JUMPDEST SWAP1 PUSH1 0x0 MSTORE PUSH1 0x20 PUSH1 0x0 KECCAK256 ADD PUSH1 0x0 PUSH2 0x100 EXP DUP2 SLOAD DUP2 PUSH1 0x1 PUSH1 0x1 PUSH1 0xA0 SHL SUB MUL NOT AND SWAP1 DUP4 PUSH1 0x1 PUSH1 0x1 PUSH1 0xA0 SHL SUB AND MUL OR SWAP1 SSTORE POP PUSH1 0x5 DUP1 SLOAD DUP1 PUSH3 0xF97 JUMPI PUSH3 0xF97 PUSH3 0x2BAC JUMP JUMPDEST PUSH1 0x0 DUP3 DUP2 MSTORE PUSH1 0x20 SWAP1 KECCAK256 DUP2 ADD PUSH1 0x0 NOT SWAP1 DUP2 ADD DUP1 SLOAD PUSH1 0x1 PUSH1 0x1 PUSH1 0xA0 SHL SUB NOT AND SWAP1 SSTORE ADD SWAP1 SSTORE PUSH3 0xFD4 JUMP JUMPDEST DUP1 PUSH3 0xFCB DUP2 PUSH3 0x27FA JUMP JUMPDEST SWAP2 POP POP PUSH3 0xEBB JUMP JUMPDEST POP PUSH1 0x40 MLOAD PUSH1 0x1 PUSH1 0x1 PUSH1 0xA0 SHL SUB DUP3 AND SWAP1 PUSH32 0x4C910B69FE65A61F7531B9C5042B2329CA7179C77290AA7E2EB3AFA3C8511FD3 SWAP1 PUSH1 0x0 SWAP1 LOG2 POP JUMP JUMPDEST PUSH1 0x0 DUP2 DUP2 MSTORE PUSH1 0x2 PUSH1 0x20 MSTORE PUSH1 0x40 DUP2 KECCAK256 SLOAD PUSH1 0x1 PUSH1 0x1 PUSH1 0xA0 SHL SUB AND SWAP1 PUSH1 0x60 SWAP1 DUP1 DUP1 DUP1 DUP6 ISZERO PUSH3 0x10B2 JUMPI PUSH1 0x0 DUP7 SWAP1 POP DUP1 PUSH1 0x1 PUSH1 0x1 PUSH1 0xA0 SHL SUB AND PUSH4 0xD015D86F PUSH1 0x40 MLOAD DUP2 PUSH4 0xFFFFFFFF AND PUSH1 0xE0 SHL DUP2 MSTORE PUSH1 0x4 ADD PUSH1 0x0 PUSH1 0x40 MLOAD DUP1 DUP4 SUB DUP2 DUP7 GAS STATICCALL ISZERO DUP1 ISZERO PUSH3 0x1076 JUMPI RETURNDATASIZE PUSH1 0x0 DUP1 RETURNDATACOPY RETURNDATASIZE PUSH1 0x0 REVERT JUMPDEST POP POP POP POP PUSH1 0x40 MLOAD RETURNDATASIZE PUSH1 0x0 DUP3 RETURNDATACOPY PUSH1 0x1F RETURNDATASIZE SWAP1 DUP2 ADD PUSH1 0x1F NOT AND DUP3 ADD PUSH1 0x40 MSTORE PUSH3 0x10A0 SWAP2 SWAP1 DUP2 ADD SWAP1 PUSH3 0x2ACC JUMP JUMPDEST SWAP5 SWAP11 POP SWAP3 SWAP9 POP SWAP1 SWAP7 POP SWAP1 SWAP5 POP SWAP1 SWAP3 POP POP POP JUMPDEST SWAP2 SWAP4 SWAP6 POP SWAP2 SWAP4 SWAP6 JUMP JUMPDEST PUSH1 0x0 SLOAD PUSH1 0x1 PUSH1 0x1 PUSH1 0xA0 SHL SUB AND CALLER EQ PUSH3 0x10E8 JUMPI PUSH1 0x40 MLOAD PUSH3 0x461BCD PUSH1 0xE5 SHL DUP2 MSTORE PUSH1 0x4 ADD PUSH3 0x485 SWAP1 PUSH3 0x2816 JUMP JUMPDEST PUSH1 0x1 PUSH1 0x1 PUSH1 0xA0 SHL SUB DUP4 AND PUSH1 0x0 SWAP1 DUP2 MSTORE PUSH1 0x3 PUSH1 0x20 MSTORE PUSH1 0x40 SWAP1 KECCAK256 SLOAD PUSH1 0xFF AND PUSH3 0x114A JUMPI PUSH1 0x40 MLOAD PUSH3 0x461BCD PUSH1 0xE5 SHL DUP2 MSTORE PUSH1 0x20 PUSH1 0x4 DUP3 ADD MSTORE PUSH1 0x15 PUSH1 0x24 DUP3 ADD MSTORE PUSH21 0x496E76616C696420726F756E642061646472657373 PUSH1 0x58 SHL PUSH1 0x44 DUP3 ADD MSTORE PUSH1 0x64 ADD PUSH3 0x485 JUMP JUMPDEST PUSH1 0x6 SLOAD PUSH1 0x1 PUSH1 0x1 PUSH1 0xA0 SHL SUB DUP5 DUP2 AND SWAP2 AND EQ PUSH3 0x11A9 JUMPI PUSH1 0x40 MLOAD PUSH3 0x461BCD PUSH1 0xE5 SHL DUP2 MSTORE PUSH1 0x20 PUSH1 0x4 DUP3 ADD MSTORE PUSH1 0x18 PUSH1 0x24 DUP3 ADD MSTORE PUSH32 0x4E6F742063757272656E742061637469766520726F756E640000000000000000 PUSH1 0x44 DUP3 ADD MSTORE PUSH1 0x64 ADD PUSH3 0x485 JUMP JUMPDEST PUSH1 0x0 DUP4 SWAP1 POP DUP1 PUSH1 0x1 PUSH1 0x1 PUSH1 0xA0 SHL SUB AND PUSH4 0x22F3E2D4 PUSH1 0x40 MLOAD DUP2 PUSH4 0xFFFFFFFF AND PUSH1 0xE0 SHL DUP2 MSTORE PUSH1 0x4 ADD PUSH1 0x20 PUSH1 0x40 MLOAD DUP1 DUP4 SUB DUP2 DUP7 GAS STATICCALL ISZERO DUP1 ISZERO PUSH3 0x11ED JUMPI RETURNDATASIZE PUSH1 0x0 DUP1 RETURNDATACOPY RETURNDATASIZE PUSH1 0x0 REVERT JUMPDEST POP POP POP POP PUSH1 0x40 MLOAD RETURNDATASIZE PUSH1 0x1F NOT PUSH1 0x1F DUP3 ADD AND DUP3 ADD DUP1 PUSH1 0x40 MSTORE POP DUP2 ADD SWAP1 PUSH3 0x1213 SWAP2 SWAP1 PUSH3 0x2BC2 JUMP JUMPDEST DUP1 ISZERO PUSH3 0x1282 JUMPI POP DUP1 PUSH1 0x1 PUSH1 0x1 PUSH1 0xA0 SHL SUB AND PUSH4 0x8D4E4083 PUSH1 0x40 MLOAD DUP2 PUSH4 0xFFFFFFFF AND PUSH1 0xE0 SHL DUP2 MSTORE PUSH1 0x4 ADD PUSH1 0x20 PUSH1 0x40 MLOAD DUP1 DUP4 SUB DUP2 DUP7 GAS STATICCALL ISZERO DUP1 ISZERO PUSH3 0x125A JUMPI RETURNDATASIZE PUSH1 0x0 DUP1 RETURNDATACOPY RETURNDATASIZE PUSH1 0x0 REVERT JUMPDEST POP POP POP POP PUSH1 0x40 MLOAD RETURNDATASIZE PUSH1 0x1F NOT PUSH1 0x1F DUP3 ADD AND DUP3 ADD DUP1 PUSH1 0x40 MSTORE POP DUP2 ADD SWAP1 PUSH3 0x1280 SWAP2 SWAP1 PUSH3 0x2BC2 JUMP JUMPDEST ISZERO JUMPDEST PUSH3 0x12C3 JUMPI PUSH1 0x40 MLOAD PUSH3 0x461BCD PUSH1 0xE5 SHL DUP2 MSTORE PUSH1 0x20 PUSH1 0x4 DUP3 ADD MSTORE PUSH1 0x10 PUSH1 0x24 DUP3 ADD MSTORE PUSH16 0x526F756E64206E6F7420616374697665 PUSH1 0x80 SHL PUSH1 0x44 DUP3 ADD MSTORE PUSH1 0x64 ADD PUSH3 0x485 JUMP JUMPDEST PUSH1 0x0 DUP2 PUSH1 0x1 PUSH1 0x1 PUSH1 0xA0 SHL SUB AND PUSH4 0x6FE8022C PUSH1 0x40 MLOAD DUP2 PUSH4 0xFFFFFFFF AND PUSH1 0xE0 SHL DUP2 MSTORE PUSH1 0x4 ADD PUSH1 0xA0 PUSH1 0x40 MLOAD DUP1 DUP4 SUB DUP2 DUP7 GAS STATICCALL ISZERO DUP1 ISZERO PUSH3 0x1304 JUMPI RETURNDATASIZE PUSH1 0x0 DUP1 RETURNDATACOPY RETURNDATASIZE PUSH1 0x0 REVERT JUMPDEST POP POP POP POP PUSH1 0x40 MLOAD RETURNDATASIZE PUSH1 0x1F NOT PUSH1 0x1F DUP3 ADD AND DUP3 ADD DUP1 PUSH1 0x40 MSTORE POP DUP2 ADD SWAP1 PUSH3 0x132A SWAP2 SWAP1 PUSH3 0x2BE0 JUMP JUMPDEST SWAP5 POP POP POP POP POP DUP1 PUSH3 0x137F JUMPI PUSH1 0x40 MLOAD PUSH3 0x461BCD PUSH1 0xE5 SHL DUP2 MSTORE PUSH1 0x20 PUSH1 0x4 DUP3 ADD MSTORE PUSH1 0x18 PUSH1 0x24 DUP3 ADD MSTORE PUSH32 0x526F756E642074696D65206E6F7420656E646564207965740000000000000000 PUSH1 0x44 DUP3 ADD MSTORE PUSH1 0x64 ADD PUSH3 0x485 JUMP JUMPDEST PUSH1 0x0 JUMPDEST DUP4 DUP2 LT ISZERO PUSH3 0x1462 JUMPI PUSH1 0x0 DUP6 DUP6 DUP4 DUP2 DUP2 LT PUSH3 0x13A2 JUMPI PUSH3 0x13A2 PUSH3 0x27A1 JUMP JUMPDEST SWAP1 POP PUSH1 0x40 MUL ADD DUP1 CALLDATASIZE SUB DUP2 ADD SWAP1 PUSH3 0x13BA SWAP2 SWAP1 PUSH3 0x2C2C JUMP JUMPDEST DUP1 MLOAD PUSH1 0x1 PUSH1 0x1 PUSH1 0xA0 SHL SUB AND PUSH1 0x0 SWAP1 DUP2 MSTORE PUSH1 0x4 PUSH1 0x20 DUP2 SWAP1 MSTORE PUSH1 0x40 SWAP1 SWAP2 KECCAK256 ADD SLOAD SWAP1 SWAP2 POP PUSH1 0xFF AND ISZERO PUSH3 0x144C JUMPI DUP1 MLOAD PUSH1 0x1 PUSH1 0x1 PUSH1 0xA0 SHL SUB SWAP1 DUP2 AND PUSH1 0x0 SWAP1 DUP2 MSTORE PUSH1 0x4 PUSH1 0x20 SWAP1 DUP2 MSTORE PUSH1 0x40 DUP1 DUP4 KECCAK256 PUSH1 0x3 SWAP1 DUP2 ADD SLOAD DUP4 DUP8 ADD DUP1 MLOAD DUP9 MLOAD DUP9 AND DUP8 MSTORE SWAP6 DUP5 SWAP1 KECCAK256 SWAP1 SWAP3 ADD SWAP5 SWAP1 SWAP5 SSTORE DUP6 MLOAD SWAP1 MLOAD DUP3 MLOAD DUP6 DUP2 MSTORE SWAP4 DUP5 ADD MSTORE DUP2 MLOAD SWAP4 SWAP5 AND SWAP3 PUSH1 0x0 DUP1 MLOAD PUSH1 0x20 PUSH3 0x50F0 DUP4 CODECOPY DUP2 MLOAD SWAP2 MSTORE SWAP3 DUP2 SWAP1 SUB SWAP1 SWAP2 ADD SWAP1 LOG2 POP JUMPDEST POP DUP1 PUSH3 0x1459 DUP2 PUSH3 0x27FA JUMP JUMPDEST SWAP2 POP POP PUSH3 0x1382 JUMP JUMPDEST POP PUSH1 0x40 MLOAD PUSH4 0x531C04AF PUSH1 0xE1 SHL DUP2 MSTORE PUSH1 0x1 PUSH1 0x1 PUSH1 0xA0 SHL SUB DUP4 AND SWAP1 PUSH4 0xA638095E SWAP1 PUSH3 0x1493 SWAP1 DUP8 SWAP1 DUP8 SWAP1 PUSH1 0x4 ADD PUSH3 0x2C89 JUMP JUMPDEST PUSH1 0x0 PUSH1 0x40 MLOAD DUP1 DUP4 SUB DUP2 PUSH1 0x0 DUP8 DUP1 EXTCODESIZE ISZERO DUP1 ISZERO PUSH3 0x14AE JUMPI PUSH1 0x0 DUP1 REVERT JUMPDEST POP GAS CALL ISZERO DUP1 ISZERO PUSH3 0x14C3 JUMPI RETURNDATASIZE PUSH1 0x0 DUP1 RETURNDATACOPY RETURNDATASIZE PUSH1 0x0 REVERT JUMPDEST POP POP POP POP DUP2 PUSH1 0x1 PUSH1 0x1 PUSH1 0xA0 SHL SUB AND PUSH4 0x361BC1B5 PUSH1 0x40 MLOAD DUP2 PUSH4 0xFFFFFFFF AND PUSH1 0xE0 SHL DUP2 MSTORE PUSH1 0x4 ADD PUSH1 0x20 PUSH1 0x40 MLOAD DUP1 DUP4 SUB DUP2 DUP7 GAS STATICCALL ISZERO DUP1 ISZERO PUSH3 0x1506 JUMPI RETURNDATASIZE PUSH1 0x0 DUP1 RETURNDATACOPY RETURNDATASIZE PUSH1 0x0 REVERT JUMPDEST POP POP POP POP PUSH1 0x40 MLOAD RETURNDATASIZE PUSH1 0x1F NOT PUSH1 0x1F DUP3 ADD AND DUP3 ADD DUP1 PUSH1 0x40 MSTORE POP DUP2 ADD SWAP1 PUSH3 0x152C SWAP2 SWAP1 PUSH3 0x2CE6 JUMP JUMPDEST PUSH1 0x1 PUSH1 0x1 PUSH1 0xA0 SHL SUB AND DUP6 PUSH1 0x1 PUSH1 0x1 PUSH1 0xA0 SHL SUB AND PUSH32 0xA9BD5492C2625576549717F92067040AC2D73D543E19A2FE2125588B3EC3A547 PUSH1 0x40 MLOAD PUSH1 0x40 MLOAD DUP1 SWAP2 SUB SWAP1 LOG3 POP POP PUSH1 0x6 DUP1 SLOAD PUSH1 0x1 PUSH1 0x1 PUSH1 0xA0 SHL SUB NOT AND SWAP1 SSTORE POP POP POP JUMP JUMPDEST PUSH1 0x0 SLOAD PUSH1 0x1 PUSH1 0x1 PUSH1 0xA0 SHL SUB AND CALLER EQ PUSH3 0x15AF JUMPI PUSH1 0x40 MLOAD PUSH3 0x461BCD PUSH1 0xE5 SHL DUP2 MSTORE PUSH1 0x4 ADD PUSH3 0x485 SWAP1 PUSH3 0x2816 JUMP JUMPDEST PUSH1 0x1 PUSH1 0x1 PUSH1 0xA0 SHL SUB DUP4 AND PUSH1 0x0 SWAP1 DUP2 MSTORE PUSH1 0x3 PUSH1 0x20 MSTORE PUSH1 0x40 SWAP1 KECCAK256 SLOAD PUSH1 0xFF AND PUSH3 0x1611 JUMPI PUSH1 0x40 MLOAD PUSH3 0x461BCD PUSH1 0xE5 SHL DUP2 MSTORE PUSH1 0x20 PUSH1 0x4 DUP3 ADD MSTORE PUSH1 0x15 PUSH1 0x24 DUP3 ADD MSTORE PUSH21 0x496E76616C696420726F756E642061646472657373 PUSH1 0x58 SHL PUSH1 0x44 DUP3 ADD MSTORE PUSH1 0x64 ADD PUSH3 0x485 JUMP JUMPDEST PUSH1 0x0 DUP4 SWAP1 POP DUP1 PUSH1 0x1 PUSH1 0x1 PUSH1 0xA0 SHL SUB AND PUSH4 0x22F3E2D4 PUSH1 0x40 MLOAD DUP2 PUSH4 0xFFFFFFFF AND PUSH1 0xE0 SHL DUP2 MSTORE PUSH1 0x4 ADD PUSH1 0x20 PUSH1 0x40 MLOAD DUP1 DUP4 SUB DUP2 DUP7 GAS STATICCALL ISZERO DUP1 ISZERO PUSH3 0x1655 JUMPI RETURNDATASIZE PUSH1 0x0 DUP1 RETURNDATACOPY RETURNDATASIZE PUSH1 0x0 REVERT JUMPDEST POP POP POP POP PUSH1 0x40 MLOAD RETURNDATASIZE PUSH1 0x1F NOT PUSH1 0x1F DUP3 ADD AND DUP3 ADD DUP1 PUSH1 0x40 MSTORE POP DUP2 ADD SWAP1 PUSH3 0x167B SWAP2 SWAP1 PUSH3 0x2BC2 JUMP JUMPDEST DUP1 ISZERO PUSH3 0x16EA JUMPI POP DUP1 PUSH1 0x1 PUSH1 0x1 PUSH1 0xA0 SHL SUB AND PUSH4 0x8D4E4083 PUSH1 0x40 MLOAD DUP2 PUSH4 0xFFFFFFFF AND PUSH1 0xE0 SHL DUP2 MSTORE PUSH1 0x4 ADD PUSH1 0x20 PUSH1 0x40 MLOAD DUP1 DUP4 SUB DUP2 DUP7 GAS STATICCALL ISZERO DUP1 ISZERO PUSH3 0x16C2 JUMPI RETURNDATASIZE PUSH1 0x0 DUP1 RETURNDATACOPY RETURNDATASIZE PUSH1 0x0 REVERT JUMPDEST POP POP POP POP PUSH1 0x40 MLOAD RETURNDATASIZE PUSH1 0x1F NOT PUSH1 0x1F DUP3 ADD AND DUP3 ADD DUP1 PUSH1 0x40 MSTORE POP DUP2 ADD SWAP1 PUSH3 0x16E8 SWAP2 SWAP1 PUSH3 0x2BC2 JUMP JUMPDEST ISZERO JUMPDEST PUSH3 0x172B JUMPI PUSH1 0x40 MLOAD PUSH3 0x461BCD PUSH1 0xE5 SHL DUP2 MSTORE PUSH1 0x20 PUSH1 0x4 DUP3 ADD MSTORE PUSH1 0x10 PUSH1 0x24 DUP3 ADD MSTORE PUSH16 0x526F756E64206E6F7420616374697665 PUSH1 0x80 SHL PUSH1 0x44 DUP3 ADD MSTORE PUSH1 0x64 ADD PUSH3 0x485 JUMP JUMPDEST PUSH1 0x0 JUMPDEST DUP3 DUP2 LT ISZERO PUSH3 0x180E JUMPI PUSH1 0x0 DUP5 DUP5 DUP4 DUP2 DUP2 LT PUSH3 0x174E JUMPI PUSH3 0x174E PUSH3 0x27A1 JUMP JUMPDEST SWAP1 POP PUSH1 0x40 MUL ADD DUP1 CALLDATASIZE SUB DUP2 ADD SWAP1 PUSH3 0x1766 SWAP2 SWAP1 PUSH3 0x2C2C JUMP JUMPDEST DUP1 MLOAD PUSH1 0x1 PUSH1 0x1 PUSH1 0xA0 SHL SUB AND PUSH1 0x0 SWAP1 DUP2 MSTORE PUSH1 0x4 PUSH1 0x20 DUP2 SWAP1 MSTORE PUSH1 0x40 SWAP1 SWAP2 KECCAK256 ADD SLOAD SWAP1 SWAP2 POP PUSH1 0xFF AND ISZERO PUSH3 0x17F8 JUMPI DUP1 MLOAD PUSH1 0x1 PUSH1 0x1 PUSH1 0xA0 SHL SUB SWAP1 DUP2 AND PUSH1 0x0 SWAP1 DUP2 MSTORE PUSH1 0x4 PUSH1 0x20 SWAP1 DUP2 MSTORE PUSH1 0x40 DUP1 DUP4 KECCAK256 PUSH1 0x3 SWAP1 DUP2 ADD SLOAD DUP4 DUP8 ADD DUP1 MLOAD DUP9 MLOAD DUP9 AND DUP8 MSTORE SWAP6 DUP5 SWAP1 KECCAK256 SWAP1 SWAP3 ADD SWAP5 SWAP1 SWAP5 SSTORE DUP6 MLOAD SWAP1 MLOAD DUP3 MLOAD DUP6 DUP2 MSTORE SWAP4 DUP5 ADD MSTORE DUP2 MLOAD SWAP4 SWAP5 AND SWAP3 PUSH1 0x0 DUP1 MLOAD PUSH1 0x20 PUSH3 0x50F0 DUP4 CODECOPY DUP2 MLOAD SWAP2 MSTORE SWAP3 DUP2 SWAP1 SUB SWAP1 SWAP2 ADD SWAP1 LOG2 POP JUMPDEST POP DUP1 PUSH3 0x1805 DUP2 PUSH3 0x27FA JUMP JUMPDEST SWAP2 POP POP PUSH3 0x172E JUMP JUMPDEST POP PUSH1 0x40 MLOAD PUSH4 0x531C04AF PUSH1 0xE1 SHL DUP2 MSTORE PUSH1 0x1 PUSH1 0x1 PUSH1 0xA0 SHL SUB DUP3 AND SWAP1 PUSH4 0xA638095E SWAP1 PUSH3 0x183F SWAP1 DUP7 SWAP1 DUP7 SWAP1 PUSH1 0x4 ADD PUSH3 0x2C89 JUMP JUMPDEST PUSH1 0x0 PUSH1 0x40 MLOAD DUP1 DUP4 SUB DUP2 PUSH1 0x0 DUP8 DUP1 EXTCODESIZE ISZERO DUP1 ISZERO PUSH3 0x185A JUMPI PUSH1 0x0 DUP1 REVERT JUMPDEST POP GAS CALL ISZERO DUP1 ISZERO PUSH3 0x186F JUMPI RETURNDATASIZE PUSH1 0x0 DUP1 RETURNDATACOPY RETURNDATASIZE PUSH1 0x0 REVERT JUMPDEST POP POP POP POP DUP1 PUSH1 0x1 PUSH1 0x1 PUSH1 0xA0 SHL SUB AND PUSH4 0x361BC1B5 PUSH1 0x40 MLOAD DUP2 PUSH4 0xFFFFFFFF AND PUSH1 0xE0 SHL DUP2 MSTORE PUSH1 0x4 ADD PUSH1 0x20 PUSH1 0x40 MLOAD DUP1 DUP4 SUB DUP2 DUP7 GAS STATICCALL ISZERO DUP1 ISZERO PUSH3 0x18B2 JUMPI RETURNDATASIZE PUSH1 0x0 DUP1 RETURNDATACOPY RETURNDATASIZE PUSH1 0x0 REVERT JUMPDEST POP POP POP POP PUSH1 0x40 MLOAD RETURNDATASIZE PUSH1 0x1F NOT PUSH1 0x1F DUP3 ADD AND DUP3 ADD DUP1 PUSH1 0x40 MSTORE POP DUP2 ADD SWAP1 PUSH3 0x18D8 SWAP2 SWAP1 PUSH3 0x2CE6 JUMP JUMPDEST PUSH1 0x1 PUSH1 0x1 PUSH1 0xA0 SHL SUB AND DUP5 PUSH1 0x1 PUSH1 0x1 PUSH1 0xA0 SHL SUB AND PUSH32 0xA9BD5492C2625576549717F92067040AC2D73D543E19A2FE2125588B3EC3A547 PUSH1 0x40 MLOAD PUSH1 0x40 MLOAD DUP1 SWAP2 SUB SWAP1 LOG3 PUSH1 0x6 SLOAD PUSH1 0x1 PUSH1 0x1 PUSH1 0xA0 SHL SUB DUP1 DUP7 AND SWAP2 AND SUB PUSH3 0x193E JUMPI PUSH1 0x6 DUP1 SLOAD PUSH1 0x1 PUSH1 0x1 PUSH1 0xA0 SHL SUB NOT AND SWAP1 SSTORE JUMPDEST POP POP POP POP JUMP JUMPDEST PUSH1 0x5 DUP2 DUP2 SLOAD DUP2 LT PUSH3 0x1955 JUMPI PUSH1 0x0 DUP1 REVERT JUMPDEST PUSH1 0x0 SWAP2 DUP3 MSTORE PUSH1 0x20 SWAP1 SWAP2 KECCAK256 ADD SLOAD PUSH1 0x1 PUSH1 0x1 PUSH1 0xA0 SHL SUB AND SWAP1 POP DUP2 JUMP JUMPDEST PUSH1 0x0 SLOAD PUSH1 0x1 PUSH1 0x1 PUSH1 0xA0 SHL SUB AND CALLER EQ PUSH3 0x199C JUMPI PUSH1 0x40 MLOAD PUSH3 0x461BCD PUSH1 0xE5 SHL DUP2 MSTORE PUSH1 0x4 ADD PUSH3 0x485 SWAP1 PUSH3 0x2816 JUMP JUMPDEST PUSH1 0x1 PUSH1 0x1 PUSH1 0xA0 SHL SUB DUP2 AND PUSH3 0x19E8 JUMPI PUSH1 0x40 MLOAD PUSH3 0x461BCD PUSH1 0xE5 SHL DUP2 MSTORE PUSH1 0x20 PUSH1 0x4 DUP3 ADD MSTORE PUSH1 0x11 PUSH1 0x24 DUP3 ADD MSTORE PUSH17 0x24B73B30B634B2103732BB9037BBB732B9 PUSH1 0x79 SHL PUSH1 0x44 DUP3 ADD MSTORE PUSH1 0x64 ADD PUSH3 0x485 JUMP JUMPDEST PUSH1 0x0 DUP1 SLOAD PUSH1 0x1 PUSH1 0x1 PUSH1 0xA0 SHL SUB NOT AND PUSH1 0x1 PUSH1 0x1 PUSH1 0xA0 SHL SUB SWAP3 SWAP1 SWAP3 AND SWAP2 SWAP1 SWAP2 OR SWAP1 SSTORE JUMP JUMPDEST PUSH1 0x1 PUSH1 0x1 PUSH1 0xA0 SHL SUB DUP2 AND PUSH1 0x0 SWAP1 DUP2 MSTORE PUSH1 0x4 PUSH1 0x20 DUP2 SWAP1 MSTORE PUSH1 0x40 DUP3 KECCAK256 ADD SLOAD PUSH1 0xFF AND PUSH3 0x1A48 JUMPI PUSH1 0x40 MLOAD PUSH3 0x461BCD PUSH1 0xE5 SHL DUP2 MSTORE PUSH1 0x4 ADD PUSH3 0x485 SWAP1 PUSH3 0x27B7 JUMP JUMPDEST POP PUSH1 0x1 PUSH1 0x1 PUSH1 0xA0 SHL SUB AND PUSH1 0x0 SWAP1 DUP2 MSTORE PUSH1 0x4 PUSH1 0x20 MSTORE PUSH1 0x40 SWAP1 KECCAK256 PUSH1 0x3 ADD SLOAD SWAP1 JUMP JUMPDEST PUSH1 0x5 SLOAD PUSH1 0x60 SWAP1 PUSH1 0x0 SWAP1 PUSH1 0x1 PUSH1 0x1 PUSH1 0x40 SHL SUB DUP2 GT ISZERO PUSH3 0x1A8A JUMPI PUSH3 0x1A8A PUSH3 0x2280 JUMP JUMPDEST PUSH1 0x40 MLOAD SWAP1 DUP1 DUP3 MSTORE DUP1 PUSH1 0x20 MUL PUSH1 0x20 ADD DUP3 ADD PUSH1 0x40 MSTORE DUP1 ISZERO PUSH3 0x1AC7 JUMPI DUP2 PUSH1 0x20 ADD JUMPDEST PUSH3 0x1AB3 PUSH3 0x215A JUMP JUMPDEST DUP2 MSTORE PUSH1 0x20 ADD SWAP1 PUSH1 0x1 SWAP1 SUB SWAP1 DUP2 PUSH3 0x1AA9 JUMPI SWAP1 POP JUMPDEST POP SWAP1 POP PUSH1 0x0 DUP1 JUMPDEST PUSH1 0x5 SLOAD DUP2 LT ISZERO PUSH3 0x1CD9 JUMPI PUSH1 0x0 PUSH1 0x4 PUSH1 0x0 PUSH1 0x5 DUP5 DUP2 SLOAD DUP2 LT PUSH3 0x1AF5 JUMPI PUSH3 0x1AF5 PUSH3 0x27A1 JUMP JUMPDEST PUSH1 0x0 SWAP2 DUP3 MSTORE PUSH1 0x20 DUP1 DUP4 KECCAK256 SWAP1 SWAP2 ADD SLOAD PUSH1 0x1 PUSH1 0x1 PUSH1 0xA0 SHL SUB SWAP1 DUP2 AND DUP5 MSTORE DUP4 DUP3 ADD SWAP5 SWAP1 SWAP5 MSTORE PUSH1 0x40 SWAP3 DUP4 ADD SWAP1 SWAP2 KECCAK256 DUP3 MLOAD PUSH1 0xA0 DUP2 ADD SWAP1 SWAP4 MSTORE DUP1 SLOAD SWAP1 SWAP4 AND DUP3 MSTORE PUSH1 0x1 DUP4 ADD DUP1 SLOAD SWAP3 SWAP4 SWAP3 SWAP2 DUP5 ADD SWAP2 PUSH3 0x1B47 SWAP1 PUSH3 0x2914 JUMP JUMPDEST DUP1 PUSH1 0x1F ADD PUSH1 0x20 DUP1 SWAP2 DIV MUL PUSH1 0x20 ADD PUSH1 0x40 MLOAD SWAP1 DUP2 ADD PUSH1 0x40 MSTORE DUP1 SWAP3 SWAP2 SWAP1 DUP2 DUP2 MSTORE PUSH1 0x20 ADD DUP3 DUP1 SLOAD PUSH3 0x1B75 SWAP1 PUSH3 0x2914 JUMP JUMPDEST DUP1 ISZERO PUSH3 0x1BC6 JUMPI DUP1 PUSH1 0x1F LT PUSH3 0x1B9A JUMPI PUSH2 0x100 DUP1 DUP4 SLOAD DIV MUL DUP4 MSTORE SWAP2 PUSH1 0x20 ADD SWAP2 PUSH3 0x1BC6 JUMP JUMPDEST DUP3 ADD SWAP2 SWAP1 PUSH1 0x0 MSTORE PUSH1 0x20 PUSH1 0x0 KECCAK256 SWAP1 JUMPDEST DUP2 SLOAD DUP2 MSTORE SWAP1 PUSH1 0x1 ADD SWAP1 PUSH1 0x20 ADD DUP1 DUP4 GT PUSH3 0x1BA8 JUMPI DUP3 SWAP1 SUB PUSH1 0x1F AND DUP3 ADD SWAP2 JUMPDEST POP POP POP POP POP DUP2 MSTORE PUSH1 0x20 ADD PUSH1 0x2 DUP3 ADD DUP1 SLOAD PUSH3 0x1BE1 SWAP1 PUSH3 0x2914 JUMP JUMPDEST DUP1 PUSH1 0x1F ADD PUSH1 0x20 DUP1 SWAP2 DIV MUL PUSH1 0x20 ADD PUSH1 0x40 MLOAD SWAP1 DUP2 ADD PUSH1 0x40 MSTORE DUP1 SWAP3 SWAP2 SWAP1 DUP2 DUP2 MSTORE PUSH1 0x20 ADD DUP3 DUP1 SLOAD PUSH3 0x1C0F SWAP1 PUSH3 0x2914 JUMP JUMPDEST DUP1 ISZERO PUSH3 0x1C60 JUMPI DUP1 PUSH1 0x1F LT PUSH3 0x1C34 JUMPI PUSH2 0x100 DUP1 DUP4 SLOAD DIV MUL DUP4 MSTORE SWAP2 PUSH1 0x20 ADD SWAP2 PUSH3 0x1C60 JUMP JUMPDEST DUP3 ADD SWAP2 SWAP1 PUSH1 0x0 MSTORE PUSH1 0x20 PUSH1 0x0 KECCAK256 SWAP1 JUMPDEST DUP2 SLOAD DUP2 MSTORE SWAP1 PUSH1 0x1 ADD SWAP1 PUSH1 0x20 ADD DUP1 DUP4 GT PUSH3 0x1C42 JUMPI DUP3 SWAP1 SUB PUSH1 0x1F AND DUP3 ADD SWAP2 JUMPDEST POP POP POP SWAP2 DUP4 MSTORE POP POP PUSH1 0x3 DUP3 ADD SLOAD PUSH1 0x20 DUP3 ADD MSTORE PUSH1 0x4 SWAP1 SWAP2 ADD SLOAD PUSH1 0xFF AND ISZERO ISZERO PUSH1 0x40 SWAP1 SWAP2 ADD MSTORE PUSH1 0x80 DUP2 ADD MLOAD SWAP1 SWAP2 POP ISZERO PUSH3 0x1CC3 JUMPI DUP1 DUP5 DUP5 DUP2 MLOAD DUP2 LT PUSH3 0x1CA7 JUMPI PUSH3 0x1CA7 PUSH3 0x27A1 JUMP JUMPDEST PUSH1 0x20 MUL PUSH1 0x20 ADD ADD DUP2 SWAP1 MSTORE POP DUP3 DUP1 PUSH3 0x1CBF SWAP1 PUSH3 0x27FA JUMP JUMPDEST SWAP4 POP POP JUMPDEST POP DUP1 PUSH3 0x1CD0 DUP2 PUSH3 0x27FA JUMP JUMPDEST SWAP2 POP POP PUSH3 0x1ACE JUMP JUMPDEST POP PUSH1 0x0 DUP2 PUSH1 0x1 PUSH1 0x1 PUSH1 0x40 SHL SUB DUP2 GT ISZERO PUSH3 0x1CF7 JUMPI PUSH3 0x1CF7 PUSH3 0x2280 JUMP JUMPDEST PUSH1 0x40 MLOAD SWAP1 DUP1 DUP3 MSTORE DUP1 PUSH1 0x20 MUL PUSH1 0x20 ADD DUP3 ADD PUSH1 0x40 MSTORE DUP1 ISZERO PUSH3 0x1D34 JUMPI DUP2 PUSH1 0x20 ADD JUMPDEST PUSH3 0x1D20 PUSH3 0x215A JUMP JUMPDEST DUP2 MSTORE PUSH1 0x20 ADD SWAP1 PUSH1 0x1 SWAP1 SUB SWAP1 DUP2 PUSH3 0x1D16 JUMPI SWAP1 POP JUMPDEST POP SWAP1 POP PUSH1 0x0 JUMPDEST DUP3 DUP2 LT ISZERO PUSH3 0x1D96 JUMPI DUP4 DUP2 DUP2 MLOAD DUP2 LT PUSH3 0x1D58 JUMPI PUSH3 0x1D58 PUSH3 0x27A1 JUMP JUMPDEST PUSH1 0x20 MUL PUSH1 0x20 ADD ADD MLOAD DUP3 DUP3 DUP2 MLOAD DUP2 LT PUSH3 0x1D75 JUMPI PUSH3 0x1D75 PUSH3 0x27A1 JUMP JUMPDEST PUSH1 0x20 MUL PUSH1 0x20 ADD ADD DUP2 SWAP1 MSTORE POP DUP1 DUP1 PUSH3 0x1D8D SWAP1 PUSH3 0x27FA JUMP JUMPDEST SWAP2 POP POP PUSH3 0x1D3A JUMP JUMPDEST POP SWAP4 SWAP3 POP POP POP JUMP JUMPDEST PUSH1 0x0 SLOAD PUSH1 0x1 PUSH1 0x1 PUSH1 0xA0 SHL SUB AND CALLER EQ PUSH3 0x1DCB JUMPI PUSH1 0x40 MLOAD PUSH3 0x461BCD PUSH1 0xE5 SHL DUP2 MSTORE PUSH1 0x4 ADD PUSH3 0x485 SWAP1 PUSH3 0x2816 JUMP JUMPDEST PUSH1 0x1 PUSH1 0x1 PUSH1 0xA0 SHL SUB DUP3 AND PUSH1 0x0 SWAP1 DUP2 MSTORE PUSH1 0x4 PUSH1 0x20 DUP2 SWAP1 MSTORE PUSH1 0x40 SWAP1 SWAP2 KECCAK256 ADD SLOAD PUSH1 0xFF AND PUSH3 0x1E0A JUMPI PUSH1 0x40 MLOAD PUSH3 0x461BCD PUSH1 0xE5 SHL DUP2 MSTORE PUSH1 0x4 ADD PUSH3 0x485 SWAP1 PUSH3 0x27B7 JUMP JUMPDEST PUSH1 0x0 DUP2 GT PUSH3 0x1E4C JUMPI PUSH1 0x40 MLOAD PUSH3 0x461BCD PUSH1 0xE5 SHL DUP2 MSTORE PUSH1 0x20 PUSH1 0x4 DUP3 ADD MSTORE PUSH1 0xD PUSH1 0x24 DUP3 ADD MSTORE PUSH13 0x496E76616C6964207072696365 PUSH1 0x98 SHL PUSH1 0x44 DUP3 ADD MSTORE PUSH1 0x64 ADD PUSH3 0x485 JUMP JUMPDEST PUSH1 0x1 PUSH1 0x1 PUSH1 0xA0 SHL SUB DUP3 AND PUSH1 0x0 DUP2 DUP2 MSTORE PUSH1 0x4 PUSH1 0x20 SWAP1 DUP2 MSTORE PUSH1 0x40 SWAP2 DUP3 SWAP1 KECCAK256 PUSH1 0x3 ADD DUP1 SLOAD SWAP1 DUP6 SWAP1 SSTORE DUP3 MLOAD DUP2 DUP2 MSTORE SWAP2 DUP3 ADD DUP6 SWAP1 MSTORE SWAP3 SWAP2 PUSH1 0x0 DUP1 MLOAD PUSH1 0x20 PUSH3 0x50F0 DUP4 CODECOPY DUP2 MLOAD SWAP2 MSTORE SWAP2 ADD PUSH1 0x40 MLOAD DUP1 SWAP2 SUB SWAP1 LOG2 POP POP POP JUMP JUMPDEST PUSH1 0x0 SLOAD PUSH1 0x1 PUSH1 0x1 PUSH1 0xA0 SHL SUB AND CALLER EQ PUSH3 0x1ECA JUMPI PUSH1 0x40 MLOAD PUSH3 0x461BCD PUSH1 0xE5 SHL DUP2 MSTORE PUSH1 0x4 ADD PUSH3 0x485 SWAP1 PUSH3 0x2816 JUMP JUMPDEST DUP3 DUP2 EQ PUSH3 0x1F14 JUMPI PUSH1 0x40 MLOAD PUSH3 0x461BCD PUSH1 0xE5 SHL DUP2 MSTORE PUSH1 0x20 PUSH1 0x4 DUP3 ADD MSTORE PUSH1 0x16 PUSH1 0x24 DUP3 ADD MSTORE PUSH22 0x82E4E4C2F2E640D8CADCCEE8D040DAD2E6DAC2E8C6D PUSH1 0x53 SHL PUSH1 0x44 DUP3 ADD MSTORE PUSH1 0x64 ADD PUSH3 0x485 JUMP JUMPDEST PUSH1 0x0 JUMPDEST DUP4 DUP2 LT ISZERO PUSH3 0x2145 JUMPI PUSH1 0x4 PUSH1 0x0 DUP7 DUP7 DUP5 DUP2 DUP2 LT PUSH3 0x1F39 JUMPI PUSH3 0x1F39 PUSH3 0x27A1 JUMP JUMPDEST SWAP1 POP PUSH1 0x20 MUL ADD PUSH1 0x20 DUP2 ADD SWAP1 PUSH3 0x1F50 SWAP2 SWAP1 PUSH3 0x23DE JUMP JUMPDEST PUSH1 0x1 PUSH1 0x1 PUSH1 0xA0 SHL SUB AND DUP2 MSTORE PUSH1 0x20 DUP2 ADD SWAP2 SWAP1 SWAP2 MSTORE PUSH1 0x40 ADD PUSH1 0x0 KECCAK256 PUSH1 0x4 ADD SLOAD PUSH1 0xFF AND PUSH3 0x1F8F JUMPI PUSH1 0x40 MLOAD PUSH3 0x461BCD PUSH1 0xE5 SHL DUP2 MSTORE PUSH1 0x4 ADD PUSH3 0x485 SWAP1 PUSH3 0x27B7 JUMP JUMPDEST PUSH1 0x0 DUP4 DUP4 DUP4 DUP2 DUP2 LT PUSH3 0x1FA6 JUMPI PUSH3 0x1FA6 PUSH3 0x27A1 JUMP JUMPDEST SWAP1 POP PUSH1 0x20 MUL ADD CALLDATALOAD GT PUSH3 0x1FEC JUMPI PUSH1 0x40 MLOAD PUSH3 0x461BCD PUSH1 0xE5 SHL DUP2 MSTORE PUSH1 0x20 PUSH1 0x4 DUP3 ADD MSTORE PUSH1 0xD PUSH1 0x24 DUP3 ADD MSTORE PUSH13 0x496E76616C6964207072696365 PUSH1 0x98 SHL PUSH1 0x44 DUP3 ADD MSTORE PUSH1 0x64 ADD PUSH3 0x485 JUMP JUMPDEST PUSH1 0x0 PUSH1 0x4 PUSH1 0x0 DUP8 DUP8 DUP6 DUP2 DUP2 LT PUSH3 0x2007 JUMPI PUSH3 0x2007 PUSH3 0x27A1 JUMP JUMPDEST SWAP1 POP PUSH1 0x20 MUL ADD PUSH1 0x20 DUP2 ADD SWAP1 PUSH3 0x201E SWAP2 SWAP1 PUSH3 0x23DE JUMP JUMPDEST PUSH1 0x1 PUSH1 0x1 PUSH1 0xA0 SHL SUB AND PUSH1 0x1 PUSH1 0x1 PUSH1 0xA0 SHL SUB AND DUP2 MSTORE PUSH1 0x20 ADD SWAP1 DUP2 MSTORE PUSH1 0x20 ADD PUSH1 0x0 KECCAK256 PUSH1 0x3 ADD SLOAD SWAP1 POP DUP4 DUP4 DUP4 DUP2 DUP2 LT PUSH3 0x2059 JUMPI PUSH3 0x2059 PUSH3 0x27A1 JUMP JUMPDEST SWAP1 POP PUSH1 0x20 MUL ADD CALLDATALOAD PUSH1 0x4 PUSH1 0x0 DUP9 DUP9 DUP7 DUP2 DUP2 LT PUSH3 0x2079 JUMPI PUSH3 0x2079 PUSH3 0x27A1 JUMP JUMPDEST SWAP1 POP PUSH1 0x20 MUL ADD PUSH1 0x20 DUP2 ADD SWAP1 PUSH3 0x2090 SWAP2 SWAP1 PUSH3 0x23DE JUMP JUMPDEST PUSH1 0x1 PUSH1 0x1 PUSH1 0xA0 SHL SUB AND DUP2 MSTORE PUSH1 0x20 DUP2 ADD SWAP2 SWAP1 SWAP2 MSTORE PUSH1 0x40 ADD PUSH1 0x0 KECCAK256 PUSH1 0x3 ADD SSTORE DUP6 DUP6 DUP4 DUP2 DUP2 LT PUSH3 0x20C2 JUMPI PUSH3 0x20C2 PUSH3 0x27A1 JUMP JUMPDEST SWAP1 POP PUSH1 0x20 MUL ADD PUSH1 0x20 DUP2 ADD SWAP1 PUSH3 0x20D9 SWAP2 SWAP1 PUSH3 0x23DE JUMP JUMPDEST PUSH1 0x1 PUSH1 0x1 PUSH1 0xA0 SHL SUB AND PUSH1 0x0 DUP1 MLOAD PUSH1 0x20 PUSH3 0x50F0 DUP4 CODECOPY DUP2 MLOAD SWAP2 MSTORE DUP3 DUP7 DUP7 DUP7 DUP2 DUP2 LT PUSH3 0x2108 JUMPI PUSH3 0x2108 PUSH3 0x27A1 JUMP JUMPDEST SWAP1 POP PUSH1 0x20 MUL ADD CALLDATALOAD PUSH1 0x40 MLOAD PUSH3 0x2127 SWAP3 SWAP2 SWAP1 SWAP2 DUP3 MSTORE PUSH1 0x20 DUP3 ADD MSTORE PUSH1 0x40 ADD SWAP1 JUMP JUMPDEST PUSH1 0x40 MLOAD DUP1 SWAP2 SUB SWAP1 LOG2 POP DUP1 PUSH3 0x213C DUP2 PUSH3 0x27FA JUMP JUMPDEST SWAP2 POP POP PUSH3 0x1F17 JUMP JUMPDEST POP POP POP POP POP JUMP JUMPDEST PUSH2 0x23E9 DUP1 PUSH3 0x2D07 DUP4 CODECOPY ADD SWAP1 JUMP JUMPDEST PUSH1 0x40 MLOAD DUP1 PUSH1 0xA0 ADD PUSH1 0x40 MSTORE DUP1 PUSH1 0x0 PUSH1 0x1 PUSH1 0x1 PUSH1 0xA0 SHL SUB AND DUP2 MSTORE PUSH1 0x20 ADD PUSH1 0x60 DUP2 MSTORE PUSH1 0x20 ADD PUSH1 0x60 DUP2 MSTORE PUSH1 0x20 ADD PUSH1 0x0 DUP2 MSTORE PUSH1 0x20 ADD PUSH1 0x0 ISZERO ISZERO DUP2 MSTORE POP SWAP1 JUMP JUMPDEST PUSH1 0x0 DUP1 DUP4 PUSH1 0x1F DUP5 ADD SLT PUSH3 0x21A7 JUMPI PUSH1 0x0 DUP1 REVERT JUMPDEST POP DUP2 CALLDATALOAD PUSH1 0x1 PUSH1 0x1 PUSH1 0x40 SHL SUB DUP2 GT ISZERO PUSH3 0x21BF JUMPI PUSH1 0x0 DUP1 REVERT JUMPDEST PUSH1 0x20 DUP4 ADD SWAP2 POP DUP4 PUSH1 0x20 DUP3 PUSH1 0x5 SHL DUP6 ADD ADD GT ISZERO PUSH3 0x21DB JUMPI PUSH1 0x0 DUP1 REVERT JUMPDEST SWAP3 POP SWAP3 SWAP1 POP JUMP JUMPDEST PUSH1 0x0 DUP1 PUSH1 0x20 DUP4 DUP6 SUB SLT ISZERO PUSH3 0x21F6 JUMPI PUSH1 0x0 DUP1 REVERT JUMPDEST DUP3 CALLDATALOAD PUSH1 0x1 PUSH1 0x1 PUSH1 0x40 SHL SUB DUP2 GT ISZERO PUSH3 0x220D JUMPI PUSH1 0x0 DUP1 REVERT JUMPDEST PUSH3 0x221B DUP6 DUP3 DUP7 ADD PUSH3 0x2194 JUMP JUMPDEST SWAP1 SWAP7 SWAP1 SWAP6 POP SWAP4 POP POP POP POP JUMP JUMPDEST PUSH1 0x0 DUP2 MLOAD DUP1 DUP5 MSTORE PUSH1 0x20 DUP1 DUP6 ADD SWAP5 POP DUP1 DUP5 ADD PUSH1 0x0 JUMPDEST DUP4 DUP2 LT ISZERO PUSH3 0x2259 JUMPI DUP2 MLOAD DUP8 MSTORE SWAP6 DUP3 ADD SWAP6 SWAP1 DUP3 ADD SWAP1 PUSH1 0x1 ADD PUSH3 0x223B JUMP JUMPDEST POP SWAP5 SWAP6 SWAP5 POP POP POP POP POP JUMP JUMPDEST PUSH1 0x20 DUP2 MSTORE PUSH1 0x0 PUSH3 0x2279 PUSH1 0x20 DUP4 ADD DUP5 PUSH3 0x2227 JUMP JUMPDEST SWAP4 SWAP3 POP POP POP JUMP JUMPDEST PUSH4 0x4E487B71 PUSH1 0xE0 SHL PUSH1 0x0 MSTORE PUSH1 0x41 PUSH1 0x4 MSTORE PUSH1 0x24 PUSH1 0x0 REVERT JUMPDEST PUSH1 0x40 MLOAD PUSH1 0x1F DUP3 ADD PUSH1 0x1F NOT AND DUP2 ADD PUSH1 0x1 PUSH1 0x1 PUSH1 0x40 SHL SUB DUP2 GT DUP3 DUP3 LT OR ISZERO PUSH3 0x22C1 JUMPI PUSH3 0x22C1 PUSH3 0x2280 JUMP JUMPDEST PUSH1 0x40 MSTORE SWAP2 SWAP1 POP JUMP JUMPDEST PUSH1 0x0 PUSH1 0x1 PUSH1 0x1 PUSH1 0x40 SHL SUB DUP3 GT ISZERO PUSH3 0x22E5 JUMPI PUSH3 0x22E5 PUSH3 0x2280 JUMP JUMPDEST POP PUSH1 0x1F ADD PUSH1 0x1F NOT AND PUSH1 0x20 ADD SWAP1 JUMP JUMPDEST PUSH1 0x0 DUP3 PUSH1 0x1F DUP4 ADD SLT PUSH3 0x2305 JUMPI PUSH1 0x0 DUP1 REVERT JUMPDEST DUP2 CALLDATALOAD PUSH3 0x231C PUSH3 0x2316 DUP3 PUSH3 0x22C9 JUMP JUMPDEST PUSH3 0x2296 JUMP JUMPDEST DUP2 DUP2 MSTORE DUP5 PUSH1 0x20 DUP4 DUP7 ADD ADD GT ISZERO PUSH3 0x2332 JUMPI PUSH1 0x0 DUP1 REVERT JUMPDEST DUP2 PUSH1 0x20 DUP6 ADD PUSH1 0x20 DUP4 ADD CALLDATACOPY PUSH1 0x0 SWAP2 DUP2 ADD PUSH1 0x20 ADD SWAP2 SWAP1 SWAP2 MSTORE SWAP4 SWAP3 POP POP POP JUMP JUMPDEST PUSH1 0x0 DUP1 PUSH1 0x0 DUP1 PUSH1 0x60 DUP6 DUP8 SUB SLT ISZERO PUSH3 0x2366 JUMPI PUSH1 0x0 DUP1 REVERT JUMPDEST DUP5 CALLDATALOAD PUSH1 0x1 PUSH1 0x1 PUSH1 0x40 SHL SUB DUP1 DUP3 GT ISZERO PUSH3 0x237E JUMPI PUSH1 0x0 DUP1 REVERT JUMPDEST PUSH3 0x238C DUP9 DUP4 DUP10 ADD PUSH3 0x22F3 JUMP JUMPDEST SWAP6 POP PUSH1 0x20 DUP8 ADD CALLDATALOAD SWAP5 POP PUSH1 0x40 DUP8 ADD CALLDATALOAD SWAP2 POP DUP1 DUP3 GT ISZERO PUSH3 0x23AA JUMPI PUSH1 0x0 DUP1 REVERT JUMPDEST POP PUSH3 0x23B9 DUP8 DUP3 DUP9 ADD PUSH3 0x2194 JUMP JUMPDEST SWAP6 SWAP9 SWAP5 SWAP8 POP SWAP6 POP POP POP POP JUMP JUMPDEST PUSH1 0x1 PUSH1 0x1 PUSH1 0xA0 SHL SUB DUP2 AND DUP2 EQ PUSH3 0x23DB JUMPI PUSH1 0x0 DUP1 REVERT JUMPDEST POP JUMP JUMPDEST PUSH1 0x0 PUSH1 0x20 DUP3 DUP5 SUB SLT ISZERO PUSH3 0x23F1 JUMPI PUSH1 0x0 DUP1 REVERT JUMPDEST DUP2 CALLDATALOAD PUSH3 0x2279 DUP2 PUSH3 0x23C5 JUMP JUMPDEST PUSH1 0x0 JUMPDEST DUP4 DUP2 LT ISZERO PUSH3 0x241B JUMPI DUP2 DUP2 ADD MLOAD DUP4 DUP3 ADD MSTORE PUSH1 0x20 ADD PUSH3 0x2401 JUMP JUMPDEST POP POP PUSH1 0x0 SWAP2 ADD MSTORE JUMP JUMPDEST PUSH1 0x0 DUP2 MLOAD DUP1 DUP5 MSTORE PUSH3 0x243E DUP2 PUSH1 0x20 DUP7 ADD PUSH1 0x20 DUP7 ADD PUSH3 0x23FE JUMP JUMPDEST PUSH1 0x1F ADD PUSH1 0x1F NOT AND SWAP3 SWAP1 SWAP3 ADD PUSH1 0x20 ADD SWAP3 SWAP2 POP POP JUMP JUMPDEST PUSH1 0x1 PUSH1 0x1 PUSH1 0xA0 SHL SUB DUP7 AND DUP2 MSTORE PUSH1 0xA0 PUSH1 0x20 DUP3 ADD DUP2 SWAP1 MSTORE PUSH1 0x0 SWAP1 PUSH3 0x2478 SWAP1 DUP4 ADD DUP8 PUSH3 0x2424 JUMP JUMPDEST DUP3 DUP2 SUB PUSH1 0x40 DUP5 ADD MSTORE PUSH3 0x248C DUP2 DUP8 PUSH3 0x2424 JUMP JUMPDEST PUSH1 0x60 DUP5 ADD SWAP6 SWAP1 SWAP6 MSTORE POP POP SWAP1 ISZERO ISZERO PUSH1 0x80 SWAP1 SWAP2 ADD MSTORE SWAP4 SWAP3 POP POP POP JUMP JUMPDEST PUSH1 0x0 DUP1 PUSH1 0x0 DUP1 PUSH1 0x80 DUP6 DUP8 SUB SLT ISZERO PUSH3 0x24BD JUMPI PUSH1 0x0 DUP1 REVERT JUMPDEST DUP5 CALLDATALOAD PUSH3 0x24CA DUP2 PUSH3 0x23C5 JUMP JUMPDEST SWAP4 POP PUSH1 0x20 DUP6 ADD CALLDATALOAD PUSH1 0x1 PUSH1 0x1 PUSH1 0x40 SHL SUB DUP1 DUP3 GT ISZERO PUSH3 0x24E7 JUMPI PUSH1 0x0 DUP1 REVERT JUMPDEST PUSH3 0x24F5 DUP9 DUP4 DUP10 ADD PUSH3 0x22F3 JUMP JUMPDEST SWAP5 POP PUSH1 0x40 DUP8 ADD CALLDATALOAD SWAP2 POP DUP1 DUP3 GT ISZERO PUSH3 0x250C JUMPI PUSH1 0x0 DUP1 REVERT JUMPDEST POP PUSH3 0x251B DUP8 DUP3 DUP9 ADD PUSH3 0x22F3 JUMP JUMPDEST SWAP5 SWAP8 SWAP4 SWAP7 POP SWAP4 SWAP5 PUSH1 0x60 ADD CALLDATALOAD SWAP4 POP POP POP JUMP JUMPDEST PUSH1 0x1 PUSH1 0x1 PUSH1 0xA0 SHL SUB DUP7 AND DUP2 MSTORE PUSH1 0xA0 PUSH1 0x20 DUP3 ADD DUP2 SWAP1 MSTORE PUSH1 0x0 SWAP1 PUSH3 0x2552 SWAP1 DUP4 ADD DUP8 PUSH3 0x2424 JUMP JUMPDEST SWAP5 ISZERO ISZERO PUSH1 0x40 DUP4 ADD MSTORE POP PUSH1 0x60 DUP2 ADD SWAP3 SWAP1 SWAP3 MSTORE PUSH1 0x80 SWAP1 SWAP2 ADD MSTORE SWAP3 SWAP2 POP POP JUMP JUMPDEST PUSH1 0x0 PUSH1 0x20 DUP3 DUP5 SUB SLT ISZERO PUSH3 0x2582 JUMPI PUSH1 0x0 DUP1 REVERT JUMPDEST POP CALLDATALOAD SWAP2 SWAP1 POP JUMP JUMPDEST PUSH1 0x0 PUSH1 0x1 DUP1 PUSH1 0xA0 SHL SUB DUP1 DUP10 AND DUP4 MSTORE PUSH1 0xC0 PUSH1 0x20 DUP5 ADD MSTORE PUSH3 0x25AD PUSH1 0xC0 DUP5 ADD DUP10 PUSH3 0x2424 JUMP JUMPDEST SWAP7 ISZERO ISZERO PUSH1 0x40 DUP5 ADD MSTORE SWAP5 ISZERO ISZERO PUSH1 0x60 DUP4 ADD MSTORE POP PUSH1 0x80 DUP2 ADD SWAP3 SWAP1 SWAP3 MSTORE SWAP1 SWAP2 AND PUSH1 0xA0 SWAP1 SWAP2 ADD MSTORE SWAP3 SWAP2 POP POP JUMP JUMPDEST PUSH1 0x0 DUP1 PUSH1 0x0 PUSH1 0x40 DUP5 DUP7 SUB SLT ISZERO PUSH3 0x25EB JUMPI PUSH1 0x0 DUP1 REVERT JUMPDEST DUP4 CALLDATALOAD PUSH3 0x25F8 DUP2 PUSH3 0x23C5 JUMP JUMPDEST SWAP3 POP PUSH1 0x20 DUP5 ADD CALLDATALOAD PUSH1 0x1 PUSH1 0x1 PUSH1 0x40 SHL SUB DUP1 DUP3 GT ISZERO PUSH3 0x2615 JUMPI PUSH1 0x0 DUP1 REVERT JUMPDEST DUP2 DUP7 ADD SWAP2 POP DUP7 PUSH1 0x1F DUP4 ADD SLT PUSH3 0x262A JUMPI PUSH1 0x0 DUP1 REVERT JUMPDEST DUP2 CALLDATALOAD DUP2 DUP2 GT ISZERO PUSH3 0x263A JUMPI PUSH1 0x0 DUP1 REVERT JUMPDEST DUP8 PUSH1 0x20 DUP3 PUSH1 0x6 SHL DUP6 ADD ADD GT ISZERO PUSH3 0x2650 JUMPI PUSH1 0x0 DUP1 REVERT JUMPDEST PUSH1 0x20 DUP4 ADD SWAP5 POP DUP1 SWAP4 POP POP POP POP SWAP3 POP SWAP3 POP SWAP3 JUMP JUMPDEST PUSH1 0x0 PUSH1 0x20 DUP1 DUP4 ADD DUP2 DUP5 MSTORE DUP1 DUP6 MLOAD DUP1 DUP4 MSTORE PUSH1 0x40 SWAP3 POP DUP3 DUP7 ADD SWAP2 POP DUP3 DUP2 PUSH1 0x5 SHL DUP8 ADD ADD DUP5 DUP9 ADD PUSH1 0x0 JUMPDEST DUP4 DUP2 LT ISZERO PUSH3 0x270D JUMPI DUP9 DUP4 SUB PUSH1 0x3F NOT ADD DUP6 MSTORE DUP2 MLOAD DUP1 MLOAD PUSH1 0x1 PUSH1 0x1 PUSH1 0xA0 SHL SUB AND DUP5 MSTORE DUP8 DUP2 ADD MLOAD PUSH1 0xA0 DUP10 DUP7 ADD DUP2 SWAP1 MSTORE SWAP1 PUSH3 0x26C6 DUP3 DUP8 ADD DUP3 PUSH3 0x2424 JUMP JUMPDEST SWAP2 POP POP DUP8 DUP3 ADD MLOAD DUP6 DUP3 SUB DUP10 DUP8 ADD MSTORE PUSH3 0x26E0 DUP3 DUP3 PUSH3 0x2424 JUMP JUMPDEST PUSH1 0x60 DUP5 DUP2 ADD MLOAD SWAP1 DUP9 ADD MSTORE PUSH1 0x80 SWAP4 DUP5 ADD MLOAD ISZERO ISZERO SWAP4 SWAP1 SWAP7 ADD SWAP3 SWAP1 SWAP3 MSTORE POP POP SWAP4 DUP7 ADD SWAP4 SWAP1 DUP7 ADD SWAP1 PUSH1 0x1 ADD PUSH3 0x268A JUMP JUMPDEST POP SWAP1 SWAP9 SWAP8 POP POP POP POP POP POP POP POP JUMP JUMPDEST PUSH1 0x0 DUP1 PUSH1 0x40 DUP4 DUP6 SUB SLT ISZERO PUSH3 0x272F JUMPI PUSH1 0x0 DUP1 REVERT JUMPDEST DUP3 CALLDATALOAD PUSH3 0x273C DUP2 PUSH3 0x23C5 JUMP JUMPDEST SWAP5 PUSH1 0x20 SWAP4 SWAP1 SWAP4 ADD CALLDATALOAD SWAP4 POP POP POP JUMP JUMPDEST PUSH1 0x0 DUP1 PUSH1 0x0 DUP1 PUSH1 0x40 DUP6 DUP8 SUB SLT ISZERO PUSH3 0x2761 JUMPI PUSH1 0x0 DUP1 REVERT JUMPDEST DUP5 CALLDATALOAD PUSH1 0x1 PUSH1 0x1 PUSH1 0x40 SHL SUB DUP1 DUP3 GT ISZERO PUSH3 0x2779 JUMPI PUSH1 0x0 DUP1 REVERT JUMPDEST PUSH3 0x2787 DUP9 DUP4 DUP10 ADD PUSH3 0x2194 JUMP JUMPDEST SWAP1 SWAP7 POP SWAP5 POP PUSH1 0x20 DUP8 ADD CALLDATALOAD SWAP2 POP DUP1 DUP3 GT ISZERO PUSH3 0x23AA JUMPI PUSH1 0x0 DUP1 REVERT JUMPDEST PUSH4 0x4E487B71 PUSH1 0xE0 SHL PUSH1 0x0 MSTORE PUSH1 0x32 PUSH1 0x4 MSTORE PUSH1 0x24 PUSH1 0x0 REVERT JUMPDEST PUSH1 0x20 DUP1 DUP3 MSTORE PUSH1 0x13 SWAP1 DUP3 ADD MSTORE PUSH19 0x151BDAD95B881B9BDD081CDD5C1C1BDC9D1959 PUSH1 0x6A SHL PUSH1 0x40 DUP3 ADD MSTORE PUSH1 0x60 ADD SWAP1 JUMP JUMPDEST PUSH4 0x4E487B71 PUSH1 0xE0 SHL PUSH1 0x0 MSTORE PUSH1 0x11 PUSH1 0x4 MSTORE PUSH1 0x24 PUSH1 0x0 REVERT JUMPDEST PUSH1 0x0 PUSH1 0x1 DUP3 ADD PUSH3 0x280F JUMPI PUSH3 0x280F PUSH3 0x27E4 JUMP JUMPDEST POP PUSH1 0x1 ADD SWAP1 JUMP JUMPDEST PUSH1 0x20 DUP1 DUP3 MSTORE PUSH1 0x13 SWAP1 DUP3 ADD MSTORE PUSH19 0x13DB9B1E481BDDDB995C8818D85B8818D85B1B PUSH1 0x6A SHL PUSH1 0x40 DUP3 ADD MSTORE PUSH1 0x60 ADD SWAP1 JUMP JUMPDEST DUP4 DUP2 MSTORE PUSH1 0x0 DUP4 MLOAD PUSH3 0x285D DUP2 PUSH1 0x20 DUP6 ADD PUSH1 0x20 DUP9 ADD PUSH3 0x23FE JUMP JUMPDEST PUSH1 0x20 SWAP3 ADD SWAP2 DUP3 ADD SWAP3 SWAP1 SWAP3 MSTORE PUSH1 0x40 ADD SWAP4 SWAP3 POP POP POP JUMP JUMPDEST PUSH1 0x80 DUP2 MSTORE PUSH1 0x0 PUSH3 0x2887 PUSH1 0x80 DUP4 ADD DUP8 PUSH3 0x2424 JUMP JUMPDEST PUSH1 0x20 DUP4 DUP2 ADD DUP8 SWAP1 MSTORE DUP4 DUP3 SUB PUSH1 0x40 DUP6 ADD MSTORE DUP6 MLOAD DUP1 DUP4 MSTORE DUP7 DUP3 ADD SWAP3 DUP3 ADD SWAP1 PUSH1 0x0 JUMPDEST DUP2 DUP2 LT ISZERO PUSH3 0x28CD JUMPI DUP5 MLOAD PUSH1 0x1 PUSH1 0x1 PUSH1 0xA0 SHL SUB AND DUP4 MSTORE SWAP4 DUP4 ADD SWAP4 SWAP2 DUP4 ADD SWAP2 PUSH1 0x1 ADD PUSH3 0x28A6 JUMP JUMPDEST POP POP DUP5 DUP2 SUB PUSH1 0x60 DUP7 ADD MSTORE PUSH3 0x28E3 DUP2 DUP8 PUSH3 0x2227 JUMP JUMPDEST SWAP10 SWAP9 POP POP POP POP POP POP POP POP POP JUMP JUMPDEST PUSH1 0x40 DUP2 MSTORE PUSH1 0x0 PUSH3 0x2905 PUSH1 0x40 DUP4 ADD DUP6 PUSH3 0x2424 JUMP JUMPDEST SWAP1 POP DUP3 PUSH1 0x20 DUP4 ADD MSTORE SWAP4 SWAP3 POP POP POP JUMP JUMPDEST PUSH1 0x1 DUP2 DUP2 SHR SWAP1 DUP3 AND DUP1 PUSH3 0x2929 JUMPI PUSH1 0x7F DUP3 AND SWAP2 POP JUMPDEST PUSH1 0x20 DUP3 LT DUP2 SUB PUSH3 0x294A JUMPI PUSH4 0x4E487B71 PUSH1 0xE0 SHL PUSH1 0x0 MSTORE PUSH1 0x22 PUSH1 0x4 MSTORE PUSH1 0x24 PUSH1 0x0 REVERT JUMPDEST POP SWAP2 SWAP1 POP JUMP JUMPDEST PUSH1 0x1F DUP3 GT ISZERO PUSH3 0x299E JUMPI PUSH1 0x0 DUP2 DUP2 MSTORE PUSH1 0x20 DUP2 KECCAK256 PUSH1 0x1F DUP6 ADD PUSH1 0x5 SHR DUP2 ADD PUSH1 0x20 DUP7 LT ISZERO PUSH3 0x2979 JUMPI POP DUP1 JUMPDEST PUSH1 0x1F DUP6 ADD PUSH1 0x5 SHR DUP3 ADD SWAP2 POP JUMPDEST DUP2 DUP2 LT ISZERO PUSH3 0x299A JUMPI DUP3 DUP2 SSTORE PUSH1 0x1 ADD PUSH3 0x2985 JUMP JUMPDEST POP POP POP JUMPDEST POP POP POP JUMP JUMPDEST DUP2 MLOAD PUSH1 0x1 PUSH1 0x1 PUSH1 0x40 SHL SUB DUP2 GT ISZERO PUSH3 0x29BF JUMPI PUSH3 0x29BF PUSH3 0x2280 JUMP JUMPDEST PUSH3 0x29D7 DUP2 PUSH3 0x29D0 DUP5 SLOAD PUSH3 0x2914 JUMP JUMPDEST DUP5 PUSH3 0x2950 JUMP JUMPDEST PUSH1 0x20 DUP1 PUSH1 0x1F DUP4 GT PUSH1 0x1 DUP2 EQ PUSH3 0x2A0F JUMPI PUSH1 0x0 DUP5 ISZERO PUSH3 0x29F6 JUMPI POP DUP6 DUP4 ADD MLOAD JUMPDEST PUSH1 0x0 NOT PUSH1 0x3 DUP7 SWAP1 SHL SHR NOT AND PUSH1 0x1 DUP6 SWAP1 SHL OR DUP6 SSTORE PUSH3 0x299A JUMP JUMPDEST PUSH1 0x0 DUP6 DUP2 MSTORE PUSH1 0x20 DUP2 KECCAK256 PUSH1 0x1F NOT DUP7 AND SWAP2 JUMPDEST DUP3 DUP2 LT ISZERO PUSH3 0x2A40 JUMPI DUP9 DUP7 ADD MLOAD DUP3 SSTORE SWAP5 DUP5 ADD SWAP5 PUSH1 0x1 SWAP1 SWAP2 ADD SWAP1 DUP5 ADD PUSH3 0x2A1F JUMP JUMPDEST POP DUP6 DUP3 LT ISZERO PUSH3 0x2A5F JUMPI DUP8 DUP6 ADD MLOAD PUSH1 0x0 NOT PUSH1 0x3 DUP9 SWAP1 SHL PUSH1 0xF8 AND SHR NOT AND DUP2 SSTORE JUMPDEST POP POP POP POP POP PUSH1 0x1 SWAP1 DUP2 SHL ADD SWAP1 SSTORE POP JUMP JUMPDEST PUSH1 0x60 DUP2 MSTORE PUSH1 0x0 PUSH3 0x2A84 PUSH1 0x60 DUP4 ADD DUP7 PUSH3 0x2424 JUMP JUMPDEST DUP3 DUP2 SUB PUSH1 0x20 DUP5 ADD MSTORE PUSH3 0x2A98 DUP2 DUP7 PUSH3 0x2424 JUMP JUMPDEST SWAP2 POP POP DUP3 PUSH1 0x40 DUP4 ADD MSTORE SWAP5 SWAP4 POP POP POP POP JUMP JUMPDEST DUP1 MLOAD DUP1 ISZERO ISZERO DUP2 EQ PUSH3 0x2ABA JUMPI PUSH1 0x0 DUP1 REVERT JUMPDEST SWAP2 SWAP1 POP JUMP JUMPDEST DUP1 MLOAD PUSH3 0x2ABA DUP2 PUSH3 0x23C5 JUMP JUMPDEST PUSH1 0x0 DUP1 PUSH1 0x0 DUP1 PUSH1 0x0 DUP1 PUSH1 0xC0 DUP8 DUP10 SUB SLT ISZERO PUSH3 0x2AE6 JUMPI PUSH1 0x0 DUP1 REVERT JUMPDEST DUP7 MLOAD PUSH1 0x1 PUSH1 0x1 PUSH1 0x40 SHL SUB DUP2 GT ISZERO PUSH3 0x2AFD JUMPI PUSH1 0x0 DUP1 REVERT JUMPDEST DUP8 ADD PUSH1 0x1F DUP2 ADD DUP10 SGT PUSH3 0x2B0F JUMPI PUSH1 0x0 DUP1 REVERT JUMPDEST DUP1 MLOAD PUSH3 0x2B20 PUSH3 0x2316 DUP3 PUSH3 0x22C9 JUMP JUMPDEST DUP2 DUP2 MSTORE DUP11 PUSH1 0x20 DUP4 DUP6 ADD ADD GT ISZERO PUSH3 0x2B36 JUMPI PUSH1 0x0 DUP1 REVERT JUMPDEST PUSH3 0x2B49 DUP3 PUSH1 0x20 DUP4 ADD PUSH1 0x20 DUP7 ADD PUSH3 0x23FE JUMP JUMPDEST SWAP8 POP PUSH3 0x2B5C SWAP2 POP POP PUSH1 0x20 DUP9 ADD PUSH3 0x2AA9 JUMP JUMPDEST SWAP5 POP PUSH3 0x2B6C PUSH1 0x40 DUP9 ADD PUSH3 0x2AA9 JUMP JUMPDEST SWAP4 POP PUSH1 0x60 DUP8 ADD MLOAD SWAP3 POP PUSH1 0x80 DUP8 ADD MLOAD SWAP2 POP PUSH3 0x2B8A PUSH1 0xA0 DUP9 ADD PUSH3 0x2ABF JUMP JUMPDEST SWAP1 POP SWAP3 SWAP6 POP SWAP3 SWAP6 POP SWAP3 SWAP6 JUMP JUMPDEST DUP2 DUP2 SUB DUP2 DUP2 GT ISZERO PUSH3 0x51B JUMPI PUSH3 0x51B PUSH3 0x27E4 JUMP JUMPDEST PUSH4 0x4E487B71 PUSH1 0xE0 SHL PUSH1 0x0 MSTORE PUSH1 0x31 PUSH1 0x4 MSTORE PUSH1 0x24 PUSH1 0x0 REVERT JUMPDEST PUSH1 0x0 PUSH1 0x20 DUP3 DUP5 SUB SLT ISZERO PUSH3 0x2BD5 JUMPI PUSH1 0x0 DUP1 REVERT JUMPDEST PUSH3 0x2279 DUP3 PUSH3 0x2AA9 JUMP JUMPDEST PUSH1 0x0 DUP1 PUSH1 0x0 DUP1 PUSH1 0x0 PUSH1 0xA0 DUP7 DUP9 SUB SLT ISZERO PUSH3 0x2BF9 JUMPI PUSH1 0x0 DUP1 REVERT JUMPDEST DUP6 MLOAD SWAP5 POP PUSH1 0x20 DUP7 ADD MLOAD SWAP4 POP PUSH1 0x40 DUP7 ADD MLOAD SWAP3 POP PUSH1 0x60 DUP7 ADD MLOAD SWAP2 POP PUSH3 0x2C20 PUSH1 0x80 DUP8 ADD PUSH3 0x2AA9 JUMP JUMPDEST SWAP1 POP SWAP3 SWAP6 POP SWAP3 SWAP6 SWAP1 SWAP4 POP JUMP JUMPDEST PUSH1 0x0 PUSH1 0x40 DUP3 DUP5 SUB SLT ISZERO PUSH3 0x2C3F JUMPI PUSH1 0x0 DUP1 REVERT JUMPDEST PUSH1 0x40 MLOAD PUSH1 0x40 DUP2 ADD DUP2 DUP2 LT PUSH1 0x1 PUSH1 0x1 PUSH1 0x40 SHL SUB DUP3 GT OR ISZERO PUSH3 0x2C64 JUMPI PUSH3 0x2C64 PUSH3 0x2280 JUMP JUMPDEST PUSH1 0x40 MSTORE DUP3 CALLDATALOAD PUSH3 0x2C74 DUP2 PUSH3 0x23C5 JUMP JUMPDEST DUP2 MSTORE PUSH1 0x20 SWAP3 DUP4 ADD CALLDATALOAD SWAP3 DUP2 ADD SWAP3 SWAP1 SWAP3 MSTORE POP SWAP2 SWAP1 POP JUMP JUMPDEST PUSH1 0x20 DUP1 DUP3 MSTORE DUP2 DUP2 ADD DUP4 SWAP1 MSTORE PUSH1 0x0 SWAP1 PUSH1 0x40 DUP1 DUP5 ADD DUP7 DUP5 JUMPDEST DUP8 DUP2 LT ISZERO PUSH3 0x2CD9 JUMPI DUP2 CALLDATALOAD PUSH3 0x2CB5 DUP2 PUSH3 0x23C5 JUMP JUMPDEST PUSH1 0x1 PUSH1 0x1 PUSH1 0xA0 SHL SUB AND DUP4 MSTORE DUP2 DUP6 ADD CALLDATALOAD DUP6 DUP5 ADD MSTORE SWAP2 DUP4 ADD SWAP2 SWAP1 DUP4 ADD SWAP1 PUSH1 0x1 ADD PUSH3 0x2C9F JUMP JUMPDEST POP SWAP1 SWAP8 SWAP7 POP POP POP POP POP POP POP JUMP JUMPDEST PUSH1 0x0 PUSH1 0x20 DUP3 DUP5 SUB SLT ISZERO PUSH3 0x2CF9 JUMPI PUSH1 0x0 DUP1 REVERT JUMPDEST DUP2 MLOAD PUSH3 0x2279 DUP2 PUSH3 0x23C5 JUMP INVALID PUSH2 0x100 PUSH1 0x40 MSTORE CALLVALUE DUP1 ISZERO PUSH3 0x12 JUMPI PUSH1 0x0 DUP1 REVERT JUMPDEST POP PUSH1 0x40 MLOAD PUSH3 0x23E9 CODESIZE SUB DUP1 PUSH3 0x23E9 DUP4 CODECOPY DUP2 ADD PUSH1 0x40 DUP2 SWAP1 MSTORE PUSH3 0x35 SWAP2 PUSH3 0x51B JUMP JUMPDEST DUP1 MLOAD DUP3 MLOAD EQ PUSH3 0x8C JUMPI PUSH1 0x40 MLOAD PUSH3 0x461BCD PUSH1 0xE5 SHL DUP2 MSTORE PUSH1 0x20 PUSH1 0x4 DUP3 ADD MSTORE PUSH1 0x16 PUSH1 0x24 DUP3 ADD MSTORE PUSH32 0x417272617973206C656E677468206D69736D6174636800000000000000000000 PUSH1 0x44 DUP3 ADD MSTORE PUSH1 0x64 ADD JUMPDEST PUSH1 0x40 MLOAD DUP1 SWAP2 SUB SWAP1 REVERT JUMPDEST PUSH1 0x1 DUP3 MLOAD GT PUSH3 0xDF JUMPI PUSH1 0x40 MLOAD PUSH3 0x461BCD PUSH1 0xE5 SHL DUP2 MSTORE PUSH1 0x20 PUSH1 0x4 DUP3 ADD MSTORE PUSH1 0x16 PUSH1 0x24 DUP3 ADD MSTORE PUSH32 0x4E656564206174206C65617374203220746F6B656E7300000000000000000000 PUSH1 0x44 DUP3 ADD MSTORE PUSH1 0x64 ADD PUSH3 0x83 JUMP JUMPDEST PUSH1 0x0 DUP4 GT PUSH3 0x131 JUMPI PUSH1 0x40 MLOAD PUSH3 0x461BCD PUSH1 0xE5 SHL DUP2 MSTORE PUSH1 0x20 PUSH1 0x4 DUP3 ADD MSTORE PUSH1 0x1F PUSH1 0x24 DUP3 ADD MSTORE PUSH32 0x4475726174696F6E206D7573742062652067726561746572207468616E203000 PUSH1 0x44 DUP3 ADD MSTORE PUSH1 0x64 ADD PUSH3 0x83 JUMP JUMPDEST CALLER PUSH1 0x80 MSTORE PUSH1 0x0 PUSH3 0x143 DUP6 DUP3 PUSH3 0x6B7 JUMP JUMPDEST POP TIMESTAMP PUSH1 0xA0 DUP2 SWAP1 MSTORE PUSH1 0xC0 DUP5 SWAP1 MSTORE PUSH3 0x15C SWAP1 DUP5 SWAP1 PUSH3 0x799 JUMP JUMPDEST PUSH1 0xE0 MSTORE PUSH1 0x6 DUP1 SLOAD PUSH1 0xFF NOT AND PUSH1 0x1 OR SWAP1 SSTORE PUSH1 0x0 JUMPDEST DUP3 MLOAD DUP2 LT ISZERO PUSH3 0x3B5 JUMPI PUSH1 0x0 PUSH1 0x1 PUSH1 0x1 PUSH1 0xA0 SHL SUB AND DUP4 DUP3 DUP2 MLOAD DUP2 LT PUSH3 0x199 JUMPI PUSH3 0x199 PUSH3 0x7B5 JUMP JUMPDEST PUSH1 0x20 MUL PUSH1 0x20 ADD ADD MLOAD PUSH1 0x1 PUSH1 0x1 PUSH1 0xA0 SHL SUB AND SUB PUSH3 0x1F9 JUMPI PUSH1 0x40 MLOAD PUSH3 0x461BCD PUSH1 0xE5 SHL DUP2 MSTORE PUSH1 0x20 PUSH1 0x4 DUP3 ADD MSTORE PUSH1 0x15 PUSH1 0x24 DUP3 ADD MSTORE PUSH32 0x496E76616C696420746F6B656E20616464726573730000000000000000000000 PUSH1 0x44 DUP3 ADD MSTORE PUSH1 0x64 ADD PUSH3 0x83 JUMP JUMPDEST PUSH1 0x0 DUP3 DUP3 DUP2 MLOAD DUP2 LT PUSH3 0x210 JUMPI PUSH3 0x210 PUSH3 0x7B5 JUMP JUMPDEST PUSH1 0x20 MUL PUSH1 0x20 ADD ADD MLOAD GT PUSH3 0x267 JUMPI PUSH1 0x40 MLOAD PUSH3 0x461BCD PUSH1 0xE5 SHL DUP2 MSTORE PUSH1 0x20 PUSH1 0x4 DUP3 ADD MSTORE PUSH1 0x15 PUSH1 0x24 DUP3 ADD MSTORE PUSH32 0x496E76616C696420696E697469616C2070726963650000000000000000000000 PUSH1 0x44 DUP3 ADD MSTORE PUSH1 0x64 ADD PUSH3 0x83 JUMP JUMPDEST PUSH1 0x1 PUSH1 0x0 DUP5 DUP4 DUP2 MLOAD DUP2 LT PUSH3 0x280 JUMPI PUSH3 0x280 PUSH3 0x7B5 JUMP JUMPDEST PUSH1 0x20 MUL PUSH1 0x20 ADD ADD MLOAD PUSH1 0x1 PUSH1 0x1 PUSH1 0xA0 SHL SUB AND PUSH1 0x1 PUSH1 0x1 PUSH1 0xA0 SHL SUB AND DUP2 MSTORE PUSH1 0x20 ADD SWAP1 DUP2 MSTORE PUSH1 0x20 ADD PUSH1 0x0 KECCAK256 SLOAD PUSH1 0x0 EQ PUSH3 0x2EC JUMPI PUSH1 0x40 MLOAD PUSH3 0x461BCD PUSH1 0xE5 SHL DUP2 MSTORE PUSH1 0x20 PUSH1 0x4 DUP3 ADD MSTORE PUSH1 0xF PUSH1 0x24 DUP3 ADD MSTORE PUSH15 0x223AB83634B1B0BA32903A37B5B2B7 PUSH1 0x89 SHL PUSH1 0x44 DUP3 ADD MSTORE PUSH1 0x64 ADD PUSH3 0x83 JUMP JUMPDEST DUP2 DUP2 DUP2 MLOAD DUP2 LT PUSH3 0x301 JUMPI PUSH3 0x301 PUSH3 0x7B5 JUMP JUMPDEST PUSH1 0x20 MUL PUSH1 0x20 ADD ADD MLOAD PUSH1 0x1 PUSH1 0x0 DUP6 DUP5 DUP2 MLOAD DUP2 LT PUSH3 0x322 JUMPI PUSH3 0x322 PUSH3 0x7B5 JUMP JUMPDEST PUSH1 0x20 MUL PUSH1 0x20 ADD ADD MLOAD PUSH1 0x1 PUSH1 0x1 PUSH1 0xA0 SHL SUB AND PUSH1 0x1 PUSH1 0x1 PUSH1 0xA0 SHL SUB AND DUP2 MSTORE PUSH1 0x20 ADD SWAP1 DUP2 MSTORE PUSH1 0x20 ADD PUSH1 0x0 KECCAK256 DUP2 SWAP1 SSTORE POP PUSH1 0x4 DUP4 DUP3 DUP2 MLOAD DUP2 LT PUSH3 0x365 JUMPI PUSH3 0x365 PUSH3 0x7B5 JUMP JUMPDEST PUSH1 0x20 SWAP1 DUP2 MUL SWAP2 SWAP1 SWAP2 ADD DUP2 ADD MLOAD DUP3 SLOAD PUSH1 0x1 DUP2 ADD DUP5 SSTORE PUSH1 0x0 SWAP4 DUP5 MSTORE SWAP2 SWAP1 SWAP3 KECCAK256 ADD DUP1 SLOAD PUSH1 0x1 PUSH1 0x1 PUSH1 0xA0 SHL SUB NOT AND PUSH1 0x1 PUSH1 0x1 PUSH1 0xA0 SHL SUB SWAP1 SWAP3 AND SWAP2 SWAP1 SWAP2 OR SWAP1 SSTORE DUP1 PUSH3 0x3AC DUP2 PUSH3 0x7CB JUMP JUMPDEST SWAP2 POP POP PUSH3 0x16F JUMP JUMPDEST POP POP POP POP POP PUSH3 0x7E7 JUMP JUMPDEST PUSH4 0x4E487B71 PUSH1 0xE0 SHL PUSH1 0x0 MSTORE PUSH1 0x41 PUSH1 0x4 MSTORE PUSH1 0x24 PUSH1 0x0 REVERT JUMPDEST PUSH1 0x40 MLOAD PUSH1 0x1F DUP3 ADD PUSH1 0x1F NOT AND DUP2 ADD PUSH1 0x1 PUSH1 0x1 PUSH1 0x40 SHL SUB DUP2 GT DUP3 DUP3 LT OR ISZERO PUSH3 0x401 JUMPI PUSH3 0x401 PUSH3 0x3C0 JUMP JUMPDEST PUSH1 0x40 MSTORE SWAP2 SWAP1 POP JUMP JUMPDEST PUSH1 0x0 PUSH1 0x1 PUSH1 0x1 PUSH1 0x40 SHL SUB DUP3 GT ISZERO PUSH3 0x425 JUMPI PUSH3 0x425 PUSH3 0x3C0 JUMP JUMPDEST POP PUSH1 0x5 SHL PUSH1 0x20 ADD SWAP1 JUMP JUMPDEST PUSH1 0x0 DUP3 PUSH1 0x1F DUP4 ADD SLT PUSH3 0x441 JUMPI PUSH1 0x0 DUP1 REVERT JUMPDEST DUP2 MLOAD PUSH1 0x20 PUSH3 0x45A PUSH3 0x454 DUP4 PUSH3 0x409 JUMP JUMPDEST PUSH3 0x3D6 JUMP JUMPDEST DUP3 DUP2 MSTORE PUSH1 0x5 SWAP3 SWAP1 SWAP3 SHL DUP5 ADD DUP2 ADD SWAP2 DUP2 DUP2 ADD SWAP1 DUP7 DUP5 GT ISZERO PUSH3 0x47A JUMPI PUSH1 0x0 DUP1 REVERT JUMPDEST DUP3 DUP7 ADD JUMPDEST DUP5 DUP2 LT ISZERO PUSH3 0x4AE JUMPI DUP1 MLOAD PUSH1 0x1 PUSH1 0x1 PUSH1 0xA0 SHL SUB DUP2 AND DUP2 EQ PUSH3 0x4A0 JUMPI PUSH1 0x0 DUP1 DUP2 REVERT JUMPDEST DUP4 MSTORE SWAP2 DUP4 ADD SWAP2 DUP4 ADD PUSH3 0x47E JUMP JUMPDEST POP SWAP7 SWAP6 POP POP POP POP POP POP JUMP JUMPDEST PUSH1 0x0 DUP3 PUSH1 0x1F DUP4 ADD SLT PUSH3 0x4CB JUMPI PUSH1 0x0 DUP1 REVERT JUMPDEST DUP2 MLOAD PUSH1 0x20 PUSH3 0x4DE PUSH3 0x454 DUP4 PUSH3 0x409 JUMP JUMPDEST DUP3 DUP2 MSTORE PUSH1 0x5 SWAP3 SWAP1 SWAP3 SHL DUP5 ADD DUP2 ADD SWAP2 DUP2 DUP2 ADD SWAP1 DUP7 DUP5 GT ISZERO PUSH3 0x4FE JUMPI PUSH1 0x0 DUP1 REVERT JUMPDEST DUP3 DUP7 ADD JUMPDEST DUP5 DUP2 LT ISZERO PUSH3 0x4AE JUMPI DUP1 MLOAD DUP4 MSTORE SWAP2 DUP4 ADD SWAP2 DUP4 ADD PUSH3 0x502 JUMP JUMPDEST PUSH1 0x0 DUP1 PUSH1 0x0 DUP1 PUSH1 0x80 DUP6 DUP8 SUB SLT ISZERO PUSH3 0x532 JUMPI PUSH1 0x0 DUP1 REVERT JUMPDEST DUP5 MLOAD PUSH1 0x1 PUSH1 0x1 PUSH1 0x40 SHL SUB DUP1 DUP3 GT ISZERO PUSH3 0x54A JUMPI PUSH1 0x0 DUP1 REVERT JUMPDEST DUP2 DUP8 ADD SWAP2 POP DUP8 PUSH1 0x1F DUP4 ADD SLT PUSH3 0x55F JUMPI PUSH1 0x0 DUP1 REVERT JUMPDEST DUP2 MLOAD DUP2 DUP2 GT ISZERO PUSH3 0x574 JUMPI PUSH3 0x574 PUSH3 0x3C0 JUMP JUMPDEST PUSH1 0x20 PUSH3 0x58A PUSH1 0x1F DUP4 ADD PUSH1 0x1F NOT AND DUP3 ADD PUSH3 0x3D6 JUMP JUMPDEST DUP3 DUP2 MSTORE DUP11 DUP3 DUP5 DUP8 ADD ADD GT ISZERO PUSH3 0x59F JUMPI PUSH1 0x0 DUP1 REVERT JUMPDEST PUSH1 0x0 JUMPDEST DUP4 DUP2 LT ISZERO PUSH3 0x5BF JUMPI DUP6 DUP2 ADD DUP4 ADD MLOAD DUP3 DUP3 ADD DUP5 ADD MSTORE DUP3 ADD PUSH3 0x5A2 JUMP JUMPDEST POP PUSH1 0x0 SWAP3 DUP2 ADD DUP3 ADD SWAP3 SWAP1 SWAP3 MSTORE DUP9 ADD MLOAD PUSH1 0x40 DUP10 ADD MLOAD SWAP2 SWAP8 POP SWAP6 POP SWAP2 POP DUP1 DUP3 GT ISZERO PUSH3 0x5E8 JUMPI PUSH1 0x0 DUP1 REVERT JUMPDEST PUSH3 0x5F6 DUP9 DUP4 DUP10 ADD PUSH3 0x42F JUMP JUMPDEST SWAP4 POP PUSH1 0x60 DUP8 ADD MLOAD SWAP2 POP DUP1 DUP3 GT ISZERO PUSH3 0x60D JUMPI PUSH1 0x0 DUP1 REVERT JUMPDEST POP PUSH3 0x61C DUP8 DUP3 DUP9 ADD PUSH3 0x4B9 JUMP JUMPDEST SWAP2 POP POP SWAP3 SWAP6 SWAP2 SWAP5 POP SWAP3 POP JUMP JUMPDEST PUSH1 0x1 DUP2 DUP2 SHR SWAP1 DUP3 AND DUP1 PUSH3 0x63D JUMPI PUSH1 0x7F DUP3 AND SWAP2 POP JUMPDEST PUSH1 0x20 DUP3 LT DUP2 SUB PUSH3 0x65E JUMPI PUSH4 0x4E487B71 PUSH1 0xE0 SHL PUSH1 0x0 MSTORE PUSH1 0x22 PUSH1 0x4 MSTORE PUSH1 0x24 PUSH1 0x0 REVERT JUMPDEST POP SWAP2 SWAP1 POP JUMP JUMPDEST PUSH1 0x1F DUP3 GT ISZERO PUSH3 0x6B2 JUMPI PUSH1 0x0 DUP2 DUP2 MSTORE PUSH1 0x20 DUP2 KECCAK256 PUSH1 0x1F DUP6 ADD PUSH1 0x5 SHR DUP2 ADD PUSH1 0x20 DUP7 LT ISZERO PUSH3 0x68D JUMPI POP DUP1 JUMPDEST PUSH1 0x1F DUP6 ADD PUSH1 0x5 SHR DUP3 ADD SWAP2 POP JUMPDEST DUP2 DUP2 LT ISZERO PUSH3 0x6AE JUMPI DUP3 DUP2 SSTORE PUSH1 0x1 ADD PUSH3 0x699 JUMP JUMPDEST POP POP POP JUMPDEST POP POP POP JUMP JUMPDEST DUP2 MLOAD PUSH1 0x1 PUSH1 0x1 PUSH1 0x40 SHL SUB DUP2 GT ISZERO PUSH3 0x6D3 JUMPI PUSH3 0x6D3 PUSH3 0x3C0 JUMP JUMPDEST PUSH3 0x6EB DUP2 PUSH3 0x6E4 DUP5 SLOAD PUSH3 0x628 JUMP JUMPDEST DUP5 PUSH3 0x664 JUMP JUMPDEST PUSH1 0x20 DUP1 PUSH1 0x1F DUP4 GT PUSH1 0x1 DUP2 EQ PUSH3 0x723 JUMPI PUSH1 0x0 DUP5 ISZERO PUSH3 0x70A JUMPI POP DUP6 DUP4 ADD MLOAD JUMPDEST PUSH1 0x0 NOT PUSH1 0x3 DUP7 SWAP1 SHL SHR NOT AND PUSH1 0x1 DUP6 SWAP1 SHL OR DUP6 SSTORE PUSH3 0x6AE JUMP JUMPDEST PUSH1 0x0 DUP6 DUP2 MSTORE PUSH1 0x20 DUP2 KECCAK256 PUSH1 0x1F NOT DUP7 AND SWAP2 JUMPDEST DUP3 DUP2 LT ISZERO PUSH3 0x754 JUMPI DUP9 DUP7 ADD MLOAD DUP3 SSTORE SWAP5 DUP5 ADD SWAP5 PUSH1 0x1 SWAP1 SWAP2 ADD SWAP1 DUP5 ADD PUSH3 0x733 JUMP JUMPDEST POP DUP6 DUP3 LT ISZERO PUSH3 0x773 JUMPI DUP8 DUP6 ADD MLOAD PUSH1 0x0 NOT PUSH1 0x3 DUP9 SWAP1 SHL PUSH1 0xF8 AND SHR NOT AND DUP2 SSTORE JUMPDEST POP POP POP POP POP PUSH1 0x1 SWAP1 DUP2 SHL ADD SWAP1 SSTORE POP JUMP JUMPDEST PUSH4 0x4E487B71 PUSH1 0xE0 SHL PUSH1 0x0 MSTORE PUSH1 0x11 PUSH1 0x4 MSTORE PUSH1 0x24 PUSH1 0x0 REVERT JUMPDEST DUP1 DUP3 ADD DUP1 DUP3 GT ISZERO PUSH3 0x7AF JUMPI PUSH3 0x7AF PUSH3 0x783 JUMP JUMPDEST SWAP3 SWAP2 POP POP JUMP JUMPDEST PUSH4 0x4E487B71 PUSH1 0xE0 SHL PUSH1 0x0 MSTORE PUSH1 0x32 PUSH1 0x4 MSTORE PUSH1 0x24 PUSH1 0x0 REVERT JUMPDEST PUSH1 0x0 PUSH1 0x1 DUP3 ADD PUSH3 0x7E0 JUMPI PUSH3 0x7E0 PUSH3 0x783 JUMP JUMPDEST POP PUSH1 0x1 ADD SWAP1 JUMP JUMPDEST PUSH1 0x80 MLOAD PUSH1 0xA0 MLOAD PUSH1 0xC0 MLOAD PUSH1 0xE0 MLOAD PUSH2 0x1B89 PUSH3 0x860 PUSH1 0x0 CODECOPY PUSH1 0x0 DUP2 DUP2 PUSH2 0x2F9 ADD MSTORE DUP2 DUP2 PUSH2 0x67C ADD MSTORE DUP2 DUP2 PUSH2 0xC16 ADD MSTORE DUP2 DUP2 PUSH2 0xC67 ADD MSTORE DUP2 DUP2 PUSH2 0xC97 ADD MSTORE DUP2 DUP2 PUSH2 0xDD2 ADD MSTORE PUSH2 0x12E2 ADD MSTORE PUSH1 0x0 DUP2 DUP2 PUSH2 0x1BD ADD MSTORE PUSH2 0xC37 ADD MSTORE PUSH1 0x0 DUP2 DUP2 PUSH2 0x404 ADD MSTORE PUSH2 0xBF5 ADD MSTORE PUSH1 0x0 DUP2 DUP2 PUSH2 0x56D ADD MSTORE PUSH2 0xCF7 ADD MSTORE PUSH2 0x1B89 PUSH1 0x0 RETURN INVALID PUSH1 0x80 PUSH1 0x40 MSTORE PUSH1 0x4 CALLDATASIZE LT PUSH2 0x166 JUMPI PUSH1 0x0 CALLDATALOAD PUSH1 0xE0 SHR DUP1 PUSH4 0x6FE8022C GT PUSH2 0xD1 JUMPI DUP1 PUSH4 0xA638095E GT PUSH2 0x8A JUMPI DUP1 PUSH4 0xC38687C0 GT PUSH2 0x64 JUMPI DUP1 PUSH4 0xC38687C0 EQ PUSH2 0x523 JUMPI DUP1 PUSH4 0xC45A0155 EQ PUSH2 0x55B JUMPI DUP1 PUSH4 0xD015D86F EQ PUSH2 0x58F JUMPI DUP1 PUSH4 0xFD92649F EQ PUSH2 0x5B6 JUMPI PUSH1 0x0 DUP1 REVERT JUMPDEST DUP1 PUSH4 0xA638095E EQ PUSH2 0x4A8 JUMPI DUP1 PUSH4 0xAD79D884 EQ PUSH2 0x4C8 JUMPI DUP1 PUSH4 0xB0CC896C EQ PUSH2 0x4F6 JUMPI PUSH1 0x0 DUP1 REVERT JUMPDEST DUP1 PUSH4 0x6FE8022C EQ PUSH2 0x3B3 JUMPI DUP1 PUSH4 0x78E97925 EQ PUSH2 0x3F2 JUMPI DUP1 PUSH4 0x8D4E4083 EQ PUSH2 0x426 JUMPI DUP1 PUSH4 0x9903E1BE EQ PUSH2 0x445 JUMPI DUP1 PUSH4 0x9A0BA2EA EQ PUSH2 0x45B JUMPI DUP1 PUSH4 0xA41FE82C EQ PUSH2 0x47B JUMPI PUSH1 0x0 DUP1 REVERT JUMPDEST DUP1 PUSH4 0x22F3E2D4 GT PUSH2 0x123 JUMPI DUP1 PUSH4 0x22F3E2D4 EQ PUSH2 0x2BD JUMPI DUP1 PUSH4 0x3197CBB6 EQ PUSH2 0x2E7 JUMPI DUP1 PUSH4 0x361BC1B5 EQ PUSH2 0x31B JUMPI DUP1 PUSH4 0x398AB9A7 EQ PUSH2 0x359 JUMPI DUP1 PUSH4 0x3F47666B EQ PUSH2 0x36F JUMPI DUP1 PUSH4 0x6C74AD85 EQ PUSH2 0x393 JUMPI PUSH1 0x0 DUP1 REVERT JUMPDEST DUP1 PUSH4 0x1FD050D EQ PUSH2 0x16B JUMPI DUP1 PUSH4 0x474A68E EQ PUSH2 0x196 JUMPI DUP1 PUSH4 0xFB5A6B4 EQ PUSH2 0x1AB JUMPI DUP1 PUSH4 0x14CBD993 EQ PUSH2 0x1ED JUMPI DUP1 PUSH4 0x1F69565F EQ PUSH2 0x20F JUMPI DUP1 PUSH4 0x22AF00FA EQ PUSH2 0x273 JUMPI JUMPDEST PUSH1 0x0 DUP1 REVERT JUMPDEST CALLVALUE DUP1 ISZERO PUSH2 0x177 JUMPI PUSH1 0x0 DUP1 REVERT JUMPDEST POP PUSH2 0x180 PUSH2 0x5CB JUMP JUMPDEST PUSH1 0x40 MLOAD PUSH2 0x18D SWAP2 SWAP1 PUSH2 0x17AB JUMP JUMPDEST PUSH1 0x40 MLOAD DUP1 SWAP2 SUB SWAP1 RETURN JUMPDEST PUSH2 0x1A9 PUSH2 0x1A4 CALLDATASIZE PUSH1 0x4 PUSH2 0x17E1 JUMP JUMPDEST PUSH2 0x659 JUMP JUMPDEST STOP JUMPDEST CALLVALUE DUP1 ISZERO PUSH2 0x1B7 JUMPI PUSH1 0x0 DUP1 REVERT JUMPDEST POP PUSH2 0x1DF PUSH32 0x0 DUP2 JUMP JUMPDEST PUSH1 0x40 MLOAD SWAP1 DUP2 MSTORE PUSH1 0x20 ADD PUSH2 0x18D JUMP JUMPDEST CALLVALUE DUP1 ISZERO PUSH2 0x1F9 JUMPI PUSH1 0x0 DUP1 REVERT JUMPDEST POP PUSH2 0x202 PUSH2 0x908 JUMP JUMPDEST PUSH1 0x40 MLOAD PUSH2 0x18D SWAP2 SWAP1 PUSH2 0x1840 JUMP JUMPDEST CALLVALUE DUP1 ISZERO PUSH2 0x21B JUMPI PUSH1 0x0 DUP1 REVERT JUMPDEST POP PUSH2 0x256 PUSH2 0x22A CALLDATASIZE PUSH1 0x4 PUSH2 0x17E1 JUMP JUMPDEST PUSH1 0x1 PUSH1 0x1 PUSH1 0xA0 SHL SUB AND PUSH1 0x0 SWAP1 DUP2 MSTORE PUSH1 0x1 PUSH1 0x20 SWAP1 DUP2 MSTORE PUSH1 0x40 DUP1 DUP4 KECCAK256 SLOAD PUSH1 0x2 SWAP1 SWAP3 MSTORE SWAP1 SWAP2 KECCAK256 SLOAD SWAP1 SWAP2 DUP3 ISZERO ISZERO SWAP1 JUMP JUMPDEST PUSH1 0x40 DUP1 MLOAD SWAP4 DUP5 MSTORE PUSH1 0x20 DUP5 ADD SWAP3 SWAP1 SWAP3 MSTORE ISZERO ISZERO SWAP1 DUP3 ADD MSTORE PUSH1 0x60 ADD PUSH2 0x18D JUMP JUMPDEST CALLVALUE DUP1 ISZERO PUSH2 0x27F JUMPI PUSH1 0x0 DUP1 REVERT JUMPDEST POP PUSH2 0x293 PUSH2 0x28E CALLDATASIZE PUSH1 0x4 PUSH2 0x1853 JUMP JUMPDEST PUSH2 0x96A JUMP JUMPDEST PUSH1 0x40 DUP1 MLOAD PUSH1 0x1 PUSH1 0x1 PUSH1 0xA0 SHL SUB SWAP5 DUP6 AND DUP2 MSTORE PUSH1 0x20 DUP2 ADD SWAP4 SWAP1 SWAP4 MSTORE SWAP3 AND SWAP2 DUP2 ADD SWAP2 SWAP1 SWAP2 MSTORE PUSH1 0x60 ADD PUSH2 0x18D JUMP JUMPDEST CALLVALUE DUP1 ISZERO PUSH2 0x2C9 JUMPI PUSH1 0x0 DUP1 REVERT JUMPDEST POP PUSH1 0x6 SLOAD PUSH2 0x2D7 SWAP1 PUSH1 0xFF AND DUP2 JUMP JUMPDEST PUSH1 0x40 MLOAD SWAP1 ISZERO ISZERO DUP2 MSTORE PUSH1 0x20 ADD PUSH2 0x18D JUMP JUMPDEST CALLVALUE DUP1 ISZERO PUSH2 0x2F3 JUMPI PUSH1 0x0 DUP1 REVERT JUMPDEST POP PUSH2 0x1DF PUSH32 0x0 DUP2 JUMP JUMPDEST CALLVALUE DUP1 ISZERO PUSH2 0x327 JUMPI PUSH1 0x0 DUP1 REVERT JUMPDEST POP PUSH1 0x6 SLOAD PUSH2 0x341 SWAP1 PUSH3 0x10000 SWAP1 DIV PUSH1 0x1 PUSH1 0x1 PUSH1 0xA0 SHL SUB AND DUP2 JUMP JUMPDEST PUSH1 0x40 MLOAD PUSH1 0x1 PUSH1 0x1 PUSH1 0xA0 SHL SUB SWAP1 SWAP2 AND DUP2 MSTORE PUSH1 0x20 ADD PUSH2 0x18D JUMP JUMPDEST CALLVALUE DUP1 ISZERO PUSH2 0x365 JUMPI PUSH1 0x0 DUP1 REVERT JUMPDEST POP PUSH2 0x1DF PUSH1 0x7 SLOAD DUP2 JUMP JUMPDEST CALLVALUE DUP1 ISZERO PUSH2 0x37B JUMPI PUSH1 0x0 DUP1 REVERT JUMPDEST POP PUSH2 0x384 PUSH2 0x9A8 JUMP JUMPDEST PUSH1 0x40 MLOAD PUSH2 0x18D SWAP4 SWAP3 SWAP2 SWAP1 PUSH2 0x189C JUMP JUMPDEST CALLVALUE DUP1 ISZERO PUSH2 0x39F JUMPI PUSH1 0x0 DUP1 REVERT JUMPDEST POP PUSH2 0x1DF PUSH2 0x3AE CALLDATASIZE PUSH1 0x4 PUSH2 0x18DF JUMP JUMPDEST PUSH2 0xBC6 JUMP JUMPDEST CALLVALUE DUP1 ISZERO PUSH2 0x3BF JUMPI PUSH1 0x0 DUP1 REVERT JUMPDEST POP PUSH2 0x3C8 PUSH2 0xBF3 JUMP JUMPDEST PUSH1 0x40 DUP1 MLOAD SWAP6 DUP7 MSTORE PUSH1 0x20 DUP7 ADD SWAP5 SWAP1 SWAP5 MSTORE SWAP3 DUP5 ADD SWAP2 SWAP1 SWAP2 MSTORE PUSH1 0x60 DUP4 ADD MSTORE ISZERO ISZERO PUSH1 0x80 DUP3 ADD MSTORE PUSH1 0xA0 ADD PUSH2 0x18D JUMP JUMPDEST CALLVALUE DUP1 ISZERO PUSH2 0x3FE JUMPI PUSH1 0x0 DUP1 REVERT JUMPDEST POP PUSH2 0x1DF PUSH32 0x0 DUP2 JUMP JUMPDEST CALLVALUE DUP1 ISZERO PUSH2 0x432 JUMPI PUSH1 0x0 DUP1 REVERT JUMPDEST POP PUSH1 0x6 SLOAD PUSH2 0x2D7 SWAP1 PUSH2 0x100 SWAP1 DIV PUSH1 0xFF AND DUP2 JUMP JUMPDEST CALLVALUE DUP1 ISZERO PUSH2 0x451 JUMPI PUSH1 0x0 DUP1 REVERT JUMPDEST POP PUSH2 0x1DF PUSH1 0x8 SLOAD DUP2 JUMP JUMPDEST CALLVALUE DUP1 ISZERO PUSH2 0x467 JUMPI PUSH1 0x0 DUP1 REVERT JUMPDEST POP PUSH2 0x341 PUSH2 0x476 CALLDATASIZE PUSH1 0x4 PUSH2 0x1853 JUMP JUMPDEST PUSH2 0xCC2 JUMP JUMPDEST CALLVALUE DUP1 ISZERO PUSH2 0x487 JUMPI PUSH1 0x0 DUP1 REVERT JUMPDEST POP PUSH2 0x1DF PUSH2 0x496 CALLDATASIZE PUSH1 0x4 PUSH2 0x17E1 JUMP JUMPDEST PUSH1 0x2 PUSH1 0x20 MSTORE PUSH1 0x0 SWAP1 DUP2 MSTORE PUSH1 0x40 SWAP1 KECCAK256 SLOAD DUP2 JUMP JUMPDEST CALLVALUE DUP1 ISZERO PUSH2 0x4B4 JUMPI PUSH1 0x0 DUP1 REVERT JUMPDEST POP PUSH2 0x1A9 PUSH2 0x4C3 CALLDATASIZE PUSH1 0x4 PUSH2 0x1912 JUMP JUMPDEST PUSH2 0xCEC JUMP JUMPDEST CALLVALUE DUP1 ISZERO PUSH2 0x4D4 JUMPI PUSH1 0x0 DUP1 REVERT JUMPDEST POP PUSH2 0x4E8 PUSH2 0x4E3 CALLDATASIZE PUSH1 0x4 PUSH2 0x17E1 JUMP JUMPDEST PUSH2 0x109F JUMP JUMPDEST PUSH1 0x40 MLOAD PUSH2 0x18D SWAP3 SWAP2 SWAP1 PUSH2 0x1987 JUMP JUMPDEST CALLVALUE DUP1 ISZERO PUSH2 0x502 JUMPI PUSH1 0x0 DUP1 REVERT JUMPDEST POP PUSH2 0x1DF PUSH2 0x511 CALLDATASIZE PUSH1 0x4 PUSH2 0x17E1 JUMP JUMPDEST PUSH1 0x1 PUSH1 0x20 MSTORE PUSH1 0x0 SWAP1 DUP2 MSTORE PUSH1 0x40 SWAP1 KECCAK256 SLOAD DUP2 JUMP JUMPDEST CALLVALUE DUP1 ISZERO PUSH2 0x52F JUMPI PUSH1 0x0 DUP1 REVERT JUMPDEST POP PUSH2 0x1DF PUSH2 0x53E CALLDATASIZE PUSH1 0x4 PUSH2 0x18DF JUMP JUMPDEST PUSH1 0x3 PUSH1 0x20 SWAP1 DUP2 MSTORE PUSH1 0x0 SWAP3 DUP4 MSTORE PUSH1 0x40 DUP1 DUP5 KECCAK256 SWAP1 SWAP2 MSTORE SWAP1 DUP3 MSTORE SWAP1 KECCAK256 SLOAD DUP2 JUMP JUMPDEST CALLVALUE DUP1 ISZERO PUSH2 0x567 JUMPI PUSH1 0x0 DUP1 REVERT JUMPDEST POP PUSH2 0x341 PUSH32 0x0 DUP2 JUMP JUMPDEST CALLVALUE DUP1 ISZERO PUSH2 0x59B JUMPI PUSH1 0x0 DUP1 REVERT JUMPDEST POP PUSH2 0x5A4 PUSH2 0x1239 JUMP JUMPDEST PUSH1 0x40 MLOAD PUSH2 0x18D SWAP7 SWAP6 SWAP5 SWAP4 SWAP3 SWAP2 SWAP1 PUSH2 0x19B5 JUMP JUMPDEST CALLVALUE DUP1 ISZERO PUSH2 0x5C2 JUMPI PUSH1 0x0 DUP1 REVERT JUMPDEST POP PUSH2 0x4E8 PUSH2 0x1333 JUMP JUMPDEST PUSH1 0x0 DUP1 SLOAD PUSH2 0x5D8 SWAP1 PUSH2 0x19FA JUMP JUMPDEST DUP1 PUSH1 0x1F ADD PUSH1 0x20 DUP1 SWAP2 DIV MUL PUSH1 0x20 ADD PUSH1 0x40 MLOAD SWAP1 DUP2 ADD PUSH1 0x40 MSTORE DUP1 SWAP3 SWAP2 SWAP1 DUP2 DUP2 MSTORE PUSH1 0x20 ADD DUP3 DUP1 SLOAD PUSH2 0x604 SWAP1 PUSH2 0x19FA JUMP JUMPDEST DUP1 ISZERO PUSH2 0x651 JUMPI DUP1 PUSH1 0x1F LT PUSH2 0x626 JUMPI PUSH2 0x100 DUP1 DUP4 SLOAD DIV MUL DUP4 MSTORE SWAP2 PUSH1 0x20 ADD SWAP2 PUSH2 0x651 JUMP JUMPDEST DUP3 ADD SWAP2 SWAP1 PUSH1 0x0 MSTORE PUSH1 0x20 PUSH1 0x0 KECCAK256 SWAP1 JUMPDEST DUP2 SLOAD DUP2 MSTORE SWAP1 PUSH1 0x1 ADD SWAP1 PUSH1 0x20 ADD DUP1 DUP4 GT PUSH2 0x634 JUMPI DUP3 SWAP1 SUB PUSH1 0x1F AND DUP3 ADD SWAP2 JUMPDEST POP POP POP POP POP DUP2 JUMP JUMPDEST PUSH1 0x6 SLOAD PUSH1 0xFF AND DUP1 ISZERO PUSH2 0x673 JUMPI POP PUSH1 0x6 SLOAD PUSH2 0x100 SWAP1 DIV PUSH1 0xFF AND ISZERO JUMPDEST DUP1 ISZERO PUSH2 0x69F JUMPI POP PUSH32 0x0 TIMESTAMP GT ISZERO JUMPDEST PUSH2 0x6E3 JUMPI PUSH1 0x40 MLOAD PUSH3 0x461BCD PUSH1 0xE5 SHL DUP2 MSTORE PUSH1 0x20 PUSH1 0x4 DUP3 ADD MSTORE PUSH1 0x10 PUSH1 0x24 DUP3 ADD MSTORE PUSH16 0x526F756E64206E6F7420616374697665 PUSH1 0x80 SHL PUSH1 0x44 DUP3 ADD MSTORE PUSH1 0x64 ADD JUMPDEST PUSH1 0x40 MLOAD DUP1 SWAP2 SUB SWAP1 REVERT JUMPDEST PUSH1 0x0 CALLVALUE GT PUSH2 0x73D JUMPI PUSH1 0x40 MLOAD PUSH3 0x461BCD PUSH1 0xE5 SHL DUP2 MSTORE PUSH1 0x20 PUSH1 0x4 DUP3 ADD MSTORE PUSH1 0x21 PUSH1 0x24 DUP3 ADD MSTORE PUSH32 0x42657420616D6F756E74206D7573742062652067726561746572207468616E20 PUSH1 0x44 DUP3 ADD MSTORE PUSH1 0x3 PUSH1 0xFC SHL PUSH1 0x64 DUP3 ADD MSTORE PUSH1 0x84 ADD PUSH2 0x6DA JUMP JUMPDEST PUSH1 0x1 PUSH1 0x1 PUSH1 0xA0 SHL SUB DUP2 AND PUSH1 0x0 SWAP1 DUP2 MSTORE PUSH1 0x1 PUSH1 0x20 MSTORE PUSH1 0x40 SWAP1 KECCAK256 SLOAD PUSH2 0x799 JUMPI PUSH1 0x40 MLOAD PUSH3 0x461BCD PUSH1 0xE5 SHL DUP2 MSTORE PUSH1 0x20 PUSH1 0x4 DUP3 ADD MSTORE PUSH1 0x14 PUSH1 0x24 DUP3 ADD MSTORE PUSH20 0x151BDAD95B881B9BDD081C9959DA5CDD195C9959 PUSH1 0x62 SHL PUSH1 0x44 DUP3 ADD MSTORE PUSH1 0x64 ADD PUSH2 0x6DA JUMP JUMPDEST CALLER PUSH1 0x0 SWAP1 DUP2 MSTORE PUSH1 0x3 PUSH1 0x20 SWAP1 DUP2 MSTORE PUSH1 0x40 DUP1 DUP4 KECCAK256 PUSH1 0x1 PUSH1 0x1 PUSH1 0xA0 SHL SUB DUP6 AND DUP5 MSTORE SWAP1 SWAP2 MSTORE DUP2 KECCAK256 DUP1 SLOAD CALLVALUE SWAP3 SWAP1 PUSH2 0x7CC SWAP1 DUP5 SWAP1 PUSH2 0x1A4A JUMP JUMPDEST SWAP1 SWAP2 SSTORE POP POP PUSH1 0x1 PUSH1 0x1 PUSH1 0xA0 SHL SUB DUP2 AND PUSH1 0x0 SWAP1 DUP2 MSTORE PUSH1 0x2 PUSH1 0x20 MSTORE PUSH1 0x40 DUP2 KECCAK256 DUP1 SLOAD CALLVALUE SWAP3 SWAP1 PUSH2 0x7F9 SWAP1 DUP5 SWAP1 PUSH2 0x1A4A JUMP JUMPDEST SWAP1 SWAP2 SSTORE POP POP PUSH1 0x40 DUP1 MLOAD PUSH1 0x60 DUP2 ADD DUP3 MSTORE PUSH1 0x1 PUSH1 0x1 PUSH1 0xA0 SHL SUB DUP1 DUP5 AND DUP1 DUP4 MSTORE CALLVALUE PUSH1 0x20 DUP5 ADD DUP2 DUP2 MSTORE CALLER DUP6 DUP8 ADD DUP2 DUP2 MSTORE PUSH1 0x5 DUP1 SLOAD PUSH1 0x1 DUP2 ADD DUP3 SSTORE PUSH1 0x0 SWAP2 SWAP1 SWAP2 MSTORE SWAP7 MLOAD PUSH1 0x3 SWAP1 SWAP8 MUL PUSH32 0x36B6384B5ECA791C62761152D0C79BB0604C104A5FB6F4EB0703F3154BB3DB0 DUP2 ADD DUP1 SLOAD SWAP9 DUP9 AND PUSH1 0x1 PUSH1 0x1 PUSH1 0xA0 SHL SUB NOT SWAP10 DUP11 AND OR SWAP1 SSTORE SWAP3 MLOAD PUSH32 0x36B6384B5ECA791C62761152D0C79BB0604C104A5FB6F4EB0703F3154BB3DB1 DUP5 ADD SSTORE MLOAD PUSH32 0x36B6384B5ECA791C62761152D0C79BB0604C104A5FB6F4EB0703F3154BB3DB2 SWAP1 SWAP3 ADD DUP1 SLOAD SWAP3 SWAP1 SWAP6 AND SWAP2 SWAP1 SWAP6 AND OR SWAP1 SWAP3 SSTORE SWAP3 MLOAD PUSH32 0x3FE3739E8F82288EA9B537327542D88A4989DFC21C88C5C0C9261A4933520291 SWAP2 PUSH2 0x8FD SWAP2 SWAP1 DUP2 MSTORE PUSH1 0x20 ADD SWAP1 JUMP JUMPDEST PUSH1 0x40 MLOAD DUP1 SWAP2 SUB SWAP1 LOG3 POP JUMP JUMPDEST PUSH1 0x60 PUSH1 0x4 DUP1 SLOAD DUP1 PUSH1 0x20 MUL PUSH1 0x20 ADD PUSH1 0x40 MLOAD SWAP1 DUP2 ADD PUSH1 0x40 MSTORE DUP1 SWAP3 SWAP2 SWAP1 DUP2 DUP2 MSTORE PUSH1 0x20 ADD DUP3 DUP1 SLOAD DUP1 ISZERO PUSH2 0x960 JUMPI PUSH1 0x20 MUL DUP3 ADD SWAP2 SWAP1 PUSH1 0x0 MSTORE PUSH1 0x20 PUSH1 0x0 KECCAK256 SWAP1 JUMPDEST DUP2 SLOAD PUSH1 0x1 PUSH1 0x1 PUSH1 0xA0 SHL SUB AND DUP2 MSTORE PUSH1 0x1 SWAP1 SWAP2 ADD SWAP1 PUSH1 0x20 ADD DUP1 DUP4 GT PUSH2 0x942 JUMPI JUMPDEST POP POP POP POP POP SWAP1 POP SWAP1 JUMP JUMPDEST PUSH1 0x5 DUP2 DUP2 SLOAD DUP2 LT PUSH2 0x97A JUMPI PUSH1 0x0 DUP1 REVERT JUMPDEST PUSH1 0x0 SWAP2 DUP3 MSTORE PUSH1 0x20 SWAP1 SWAP2 KECCAK256 PUSH1 0x3 SWAP1 SWAP2 MUL ADD DUP1 SLOAD PUSH1 0x1 DUP3 ADD SLOAD PUSH1 0x2 SWAP1 SWAP3 ADD SLOAD PUSH1 0x1 PUSH1 0x1 PUSH1 0xA0 SHL SUB SWAP2 DUP3 AND SWAP4 POP AND DUP4 JUMP JUMPDEST PUSH1 0x60 DUP1 PUSH1 0x60 PUSH1 0x4 DUP1 SLOAD SWAP1 POP PUSH8 0xFFFFFFFFFFFFFFFF DUP2 GT ISZERO PUSH2 0x9CB JUMPI PUSH2 0x9CB PUSH2 0x1A5D JUMP JUMPDEST PUSH1 0x40 MLOAD SWAP1 DUP1 DUP3 MSTORE DUP1 PUSH1 0x20 MUL PUSH1 0x20 ADD DUP3 ADD PUSH1 0x40 MSTORE DUP1 ISZERO PUSH2 0x9F4 JUMPI DUP2 PUSH1 0x20 ADD PUSH1 0x20 DUP3 MUL DUP1 CALLDATASIZE DUP4 CALLDATACOPY ADD SWAP1 POP JUMPDEST POP PUSH1 0x4 SLOAD SWAP1 SWAP4 POP PUSH8 0xFFFFFFFFFFFFFFFF DUP2 GT ISZERO PUSH2 0xA13 JUMPI PUSH2 0xA13 PUSH2 0x1A5D JUMP JUMPDEST PUSH1 0x40 MLOAD SWAP1 DUP1 DUP3 MSTORE DUP1 PUSH1 0x20 MUL PUSH1 0x20 ADD DUP3 ADD PUSH1 0x40 MSTORE DUP1 ISZERO PUSH2 0xA3C JUMPI DUP2 PUSH1 0x20 ADD PUSH1 0x20 DUP3 MUL DUP1 CALLDATASIZE DUP4 CALLDATACOPY ADD SWAP1 POP JUMPDEST POP PUSH1 0x4 SLOAD SWAP1 SWAP3 POP PUSH8 0xFFFFFFFFFFFFFFFF DUP2 GT ISZERO PUSH2 0xA5B JUMPI PUSH2 0xA5B PUSH2 0x1A5D JUMP JUMPDEST PUSH1 0x40 MLOAD SWAP1 DUP1 DUP3 MSTORE DUP1 PUSH1 0x20 MUL PUSH1 0x20 ADD DUP3 ADD PUSH1 0x40 MSTORE DUP1 ISZERO PUSH2 0xA84 JUMPI DUP2 PUSH1 0x20 ADD PUSH1 0x20 DUP3 MUL DUP1 CALLDATASIZE DUP4 CALLDATACOPY ADD SWAP1 POP JUMPDEST POP SWAP1 POP PUSH1 0x0 JUMPDEST PUSH1 0x4 SLOAD DUP2 LT ISZERO PUSH2 0xBC0 JUMPI PUSH1 0x4 DUP2 DUP2 SLOAD DUP2 LT PUSH2 0xAA7 JUMPI PUSH2 0xAA7 PUSH2 0x1A73 JUMP JUMPDEST SWAP1 PUSH1 0x0 MSTORE PUSH1 0x20 PUSH1 0x0 KECCAK256 ADD PUSH1 0x0 SWAP1 SLOAD SWAP1 PUSH2 0x100 EXP SWAP1 DIV PUSH1 0x1 PUSH1 0x1 PUSH1 0xA0 SHL SUB AND DUP5 DUP3 DUP2 MLOAD DUP2 LT PUSH2 0xAD7 JUMPI PUSH2 0xAD7 PUSH2 0x1A73 JUMP JUMPDEST PUSH1 0x20 MUL PUSH1 0x20 ADD ADD SWAP1 PUSH1 0x1 PUSH1 0x1 PUSH1 0xA0 SHL SUB AND SWAP1 DUP2 PUSH1 0x1 PUSH1 0x1 PUSH1 0xA0 SHL SUB AND DUP2 MSTORE POP POP PUSH1 0x1 PUSH1 0x0 PUSH1 0x4 DUP4 DUP2 SLOAD DUP2 LT PUSH2 0xB0E JUMPI PUSH2 0xB0E PUSH2 0x1A73 JUMP JUMPDEST PUSH1 0x0 SWAP2 DUP3 MSTORE PUSH1 0x20 DUP1 DUP4 KECCAK256 SWAP1 SWAP2 ADD SLOAD PUSH1 0x1 PUSH1 0x1 PUSH1 0xA0 SHL SUB AND DUP4 MSTORE DUP3 ADD SWAP3 SWAP1 SWAP3 MSTORE PUSH1 0x40 ADD SWAP1 KECCAK256 SLOAD DUP4 MLOAD DUP5 SWAP1 DUP4 SWAP1 DUP2 LT PUSH2 0xB47 JUMPI PUSH2 0xB47 PUSH2 0x1A73 JUMP JUMPDEST PUSH1 0x20 MUL PUSH1 0x20 ADD ADD DUP2 DUP2 MSTORE POP POP PUSH1 0x2 PUSH1 0x0 PUSH1 0x4 DUP4 DUP2 SLOAD DUP2 LT PUSH2 0xB6A JUMPI PUSH2 0xB6A PUSH2 0x1A73 JUMP JUMPDEST PUSH1 0x0 SWAP2 DUP3 MSTORE PUSH1 0x20 DUP1 DUP4 KECCAK256 SWAP1 SWAP2 ADD SLOAD PUSH1 0x1 PUSH1 0x1 PUSH1 0xA0 SHL SUB AND DUP4 MSTORE DUP3 ADD SWAP3 SWAP1 SWAP3 MSTORE PUSH1 0x40 ADD SWAP1 KECCAK256 SLOAD DUP3 MLOAD DUP4 SWAP1 DUP4 SWAP1 DUP2 LT PUSH2 0xBA3 JUMPI PUSH2 0xBA3 PUSH2 0x1A73 JUMP JUMPDEST PUSH1 0x20 SWAP1 DUP2 MUL SWAP2 SWAP1 SWAP2 ADD ADD MSTORE DUP1 PUSH2 0xBB8 DUP2 PUSH2 0x1A89 JUMP JUMPDEST SWAP2 POP POP PUSH2 0xA8A JUMP JUMPDEST POP SWAP1 SWAP2 SWAP3 JUMP JUMPDEST PUSH1 0x1 PUSH1 0x1 PUSH1 0xA0 SHL SUB DUP1 DUP4 AND PUSH1 0x0 SWAP1 DUP2 MSTORE PUSH1 0x3 PUSH1 0x20 SWAP1 DUP2 MSTORE PUSH1 0x40 DUP1 DUP4 KECCAK256 SWAP4 DUP6 AND DUP4 MSTORE SWAP3 SWAP1 MSTORE KECCAK256 SLOAD JUMPDEST SWAP3 SWAP2 POP POP JUMP JUMPDEST PUSH32 0x0 PUSH32 0x0 PUSH32 0x0 PUSH1 0x0 DUP1 TIMESTAMP DUP5 GT ISZERO PUSH2 0xC90 JUMPI PUSH2 0xC8B TIMESTAMP PUSH32 0x0 PUSH2 0x1AA2 JUMP JUMPDEST PUSH2 0xC93 JUMP JUMPDEST PUSH1 0x0 JUMPDEST SWAP2 POP PUSH32 0x0 TIMESTAMP LT ISZERO SWAP1 POP SWAP1 SWAP2 SWAP3 SWAP4 SWAP5 JUMP JUMPDEST PUSH1 0x4 DUP2 DUP2 SLOAD DUP2 LT PUSH2 0xCD2 JUMPI PUSH1 0x0 DUP1 REVERT JUMPDEST PUSH1 0x0 SWAP2 DUP3 MSTORE PUSH1 0x20 SWAP1 SWAP2 KECCAK256 ADD SLOAD PUSH1 0x1 PUSH1 0x1 PUSH1 0xA0 SHL SUB AND SWAP1 POP DUP2 JUMP JUMPDEST CALLER PUSH1 0x1 PUSH1 0x1 PUSH1 0xA0 SHL SUB PUSH32 0x0 AND EQ PUSH2 0xD5C JUMPI PUSH1 0x40 MLOAD PUSH3 0x461BCD PUSH1 0xE5 SHL DUP2 MSTORE PUSH1 0x20 PUSH1 0x4 DUP3 ADD MSTORE PUSH1 0x15 PUSH1 0x24 DUP3 ADD MSTORE PUSH21 0x13DB9B1E48199858DD1BDC9E4818D85B8818D85B1B PUSH1 0x5A SHL PUSH1 0x44 DUP3 ADD MSTORE PUSH1 0x64 ADD PUSH2 0x6DA JUMP JUMPDEST PUSH1 0x6 SLOAD PUSH1 0xFF AND DUP1 ISZERO PUSH2 0xD76 JUMPI POP PUSH1 0x6 SLOAD PUSH2 0x100 SWAP1 DIV PUSH1 0xFF AND ISZERO JUMPDEST PUSH2 0xDD0 JUMPI PUSH1 0x40 MLOAD PUSH3 0x461BCD PUSH1 0xE5 SHL DUP2 MSTORE PUSH1 0x20 PUSH1 0x4 DUP3 ADD MSTORE PUSH1 0x25 PUSH1 0x24 DUP3 ADD MSTORE PUSH32 0x526F756E64206E6F7420616374697665206F7220616C72656164792066696E61 PUSH1 0x44 DUP3 ADD MSTORE PUSH5 0x1B1A5E9959 PUSH1 0xDA SHL PUSH1 0x64 DUP3 ADD MSTORE PUSH1 0x84 ADD PUSH2 0x6DA JUMP JUMPDEST PUSH32 0x0 TIMESTAMP LT ISZERO PUSH2 0xE36 JUMPI PUSH1 0x40 MLOAD PUSH3 0x461BCD PUSH1 0xE5 SHL DUP2 MSTORE PUSH1 0x20 PUSH1 0x4 DUP3 ADD MSTORE PUSH1 0x13 PUSH1 0x24 DUP3 ADD MSTORE PUSH19 0x149BDD5B99081B9BDD08195B991959081E595D PUSH1 0x6A SHL PUSH1 0x44 DUP3 ADD MSTORE PUSH1 0x64 ADD PUSH2 0x6DA JUMP JUMPDEST PUSH1 0x4 SLOAD DUP2 EQ PUSH2 0xE87 JUMPI PUSH1 0x40 MLOAD PUSH3 0x461BCD PUSH1 0xE5 SHL DUP2 MSTORE PUSH1 0x20 PUSH1 0x4 DUP3 ADD MSTORE PUSH1 0x19 PUSH1 0x24 DUP3 ADD MSTORE PUSH32 0x496E76616C69642070726963652064617461206C656E67746800000000000000 PUSH1 0x44 DUP3 ADD MSTORE PUSH1 0x64 ADD PUSH2 0x6DA JUMP JUMPDEST PUSH1 0x0 DUP1 PUSH1 0x0 JUMPDEST DUP4 DUP2 LT ISZERO PUSH2 0xF9A JUMPI PUSH1 0x0 DUP6 DUP6 DUP4 DUP2 DUP2 LT PUSH2 0xEA9 JUMPI PUSH2 0xEA9 PUSH2 0x1A73 JUMP JUMPDEST SWAP1 POP PUSH1 0x40 MUL ADD DUP1 CALLDATASIZE SUB DUP2 ADD SWAP1 PUSH2 0xEBF SWAP2 SWAP1 PUSH2 0x1AB5 JUMP JUMPDEST DUP1 MLOAD PUSH1 0x1 PUSH1 0x1 PUSH1 0xA0 SHL SUB AND PUSH1 0x0 SWAP1 DUP2 MSTORE PUSH1 0x1 PUSH1 0x20 MSTORE PUSH1 0x40 SWAP1 KECCAK256 SLOAD SWAP1 SWAP2 POP PUSH2 0xF1F JUMPI PUSH1 0x40 MLOAD PUSH3 0x461BCD PUSH1 0xE5 SHL DUP2 MSTORE PUSH1 0x20 PUSH1 0x4 DUP3 ADD MSTORE PUSH1 0x14 PUSH1 0x24 DUP3 ADD MSTORE PUSH20 0x151BDAD95B881B9BDD081C9959DA5CDD195C9959 PUSH1 0x62 SHL PUSH1 0x44 DUP3 ADD MSTORE PUSH1 0x64 ADD PUSH2 0x6DA JUMP JUMPDEST DUP1 MLOAD PUSH1 0x1 PUSH1 0x1 PUSH1 0xA0 SHL SUB AND PUSH1 0x0 SWAP1 DUP2 MSTORE PUSH1 0x1 PUSH1 0x20 SWAP1 DUP2 MSTORE PUSH1 0x40 SWAP1 SWAP2 KECCAK256 SLOAD SWAP1 DUP3 ADD MLOAD DUP2 LT ISZERO PUSH2 0xF85 JUMPI PUSH1 0x0 DUP2 DUP3 DUP5 PUSH1 0x20 ADD MLOAD PUSH2 0xF5A SWAP2 SWAP1 PUSH2 0x1AA2 JUMP JUMPDEST PUSH2 0xF66 SWAP1 PUSH2 0x2710 PUSH2 0x1B1A JUMP JUMPDEST PUSH2 0xF70 SWAP2 SWAP1 PUSH2 0x1B31 JUMP JUMPDEST SWAP1 POP DUP6 DUP2 GT ISZERO PUSH2 0xF83 JUMPI DUP3 MLOAD SWAP1 SWAP6 POP SWAP4 POP DUP5 JUMPDEST POP JUMPDEST POP POP DUP1 DUP1 PUSH2 0xF92 SWAP1 PUSH2 0x1A89 JUMP JUMPDEST SWAP2 POP POP PUSH2 0xE8D JUMP JUMPDEST POP PUSH1 0x1 PUSH1 0x1 PUSH1 0xA0 SHL SUB DUP2 AND PUSH2 0xFFB JUMPI PUSH1 0x40 MLOAD PUSH3 0x461BCD PUSH1 0xE5 SHL DUP2 MSTORE PUSH1 0x20 PUSH1 0x4 DUP3 ADD MSTORE PUSH1 0x21 PUSH1 0x24 DUP3 ADD MSTORE PUSH32 0x4E6F20746F6B656E2068616420706F73697469766520706572666F726D616E63 PUSH1 0x44 DUP3 ADD MSTORE PUSH1 0x65 PUSH1 0xF8 SHL PUSH1 0x64 DUP3 ADD MSTORE PUSH1 0x84 ADD PUSH2 0x6DA JUMP JUMPDEST PUSH1 0x6 DUP1 SLOAD PUSH2 0x100 PUSH2 0x100 PUSH1 0x1 PUSH1 0xB0 SHL SUB NOT SWAP1 SWAP2 AND PUSH3 0x10000 PUSH1 0x1 PUSH1 0x1 PUSH1 0xA0 SHL SUB DUP6 DUP2 AND DUP3 MUL PUSH2 0xFF00 NOT AND SWAP3 SWAP1 SWAP3 OR SWAP3 SWAP1 SWAP3 OR SWAP3 DUP4 SWAP1 SSTORE SELFBALANCE PUSH1 0x7 SSTORE SWAP2 DIV AND PUSH1 0x0 SWAP1 DUP2 MSTORE PUSH1 0x2 PUSH1 0x20 MSTORE PUSH1 0x40 SWAP1 KECCAK256 SLOAD PUSH1 0x8 SSTORE PUSH2 0x1052 PUSH2 0x14A9 JUMP JUMPDEST PUSH1 0x6 SLOAD PUSH1 0x40 MLOAD DUP4 DUP2 MSTORE PUSH3 0x10000 SWAP1 SWAP2 DIV PUSH1 0x1 PUSH1 0x1 PUSH1 0xA0 SHL SUB AND SWAP1 PUSH32 0xC8404BD5E2BF0C0D9461811A6E7CFAE92B0D57217D8DD9C212DC145392A922FD SWAP1 PUSH1 0x20 ADD PUSH1 0x40 MLOAD DUP1 SWAP2 SUB SWAP1 LOG2 POP POP POP POP JUMP JUMPDEST PUSH1 0x4 SLOAD PUSH1 0x60 SWAP1 DUP2 SWAP1 PUSH8 0xFFFFFFFFFFFFFFFF DUP2 GT ISZERO PUSH2 0x10BF JUMPI PUSH2 0x10BF PUSH2 0x1A5D JUMP JUMPDEST PUSH1 0x40 MLOAD SWAP1 DUP1 DUP3 MSTORE DUP1 PUSH1 0x20 MUL PUSH1 0x20 ADD DUP3 ADD PUSH1 0x40 MSTORE DUP1 ISZERO PUSH2 0x10E8 JUMPI DUP2 PUSH1 0x20 ADD PUSH1 0x20 DUP3 MUL DUP1 CALLDATASIZE DUP4 CALLDATACOPY ADD SWAP1 POP JUMPDEST POP PUSH1 0x4 SLOAD SWAP1 SWAP3 POP PUSH8 0xFFFFFFFFFFFFFFFF DUP2 GT ISZERO PUSH2 0x1107 JUMPI PUSH2 0x1107 PUSH2 0x1A5D JUMP JUMPDEST PUSH1 0x40 MLOAD SWAP1 DUP1 DUP3 MSTORE DUP1 PUSH1 0x20 MUL PUSH1 0x20 ADD DUP3 ADD PUSH1 0x40 MSTORE DUP1 ISZERO PUSH2 0x1130 JUMPI DUP2 PUSH1 0x20 ADD PUSH1 0x20 DUP3 MUL DUP1 CALLDATASIZE DUP4 CALLDATACOPY ADD SWAP1 POP JUMPDEST POP SWAP1 POP PUSH1 0x0 JUMPDEST PUSH1 0x4 SLOAD DUP2 LT ISZERO PUSH2 0x1233 JUMPI PUSH1 0x4 DUP2 DUP2 SLOAD DUP2 LT PUSH2 0x1153 JUMPI PUSH2 0x1153 PUSH2 0x1A73 JUMP JUMPDEST SWAP1 PUSH1 0x0 MSTORE PUSH1 0x20 PUSH1 0x0 KECCAK256 ADD PUSH1 0x0 SWAP1 SLOAD SWAP1 PUSH2 0x100 EXP SWAP1 DIV PUSH1 0x1 PUSH1 0x1 PUSH1 0xA0 SHL SUB AND DUP4 DUP3 DUP2 MLOAD DUP2 LT PUSH2 0x1183 JUMPI PUSH2 0x1183 PUSH2 0x1A73 JUMP JUMPDEST PUSH1 0x20 MUL PUSH1 0x20 ADD ADD SWAP1 PUSH1 0x1 PUSH1 0x1 PUSH1 0xA0 SHL SUB AND SWAP1 DUP2 PUSH1 0x1 PUSH1 0x1 PUSH1 0xA0 SHL SUB AND DUP2 MSTORE POP POP PUSH1 0x3 PUSH1 0x0 DUP6 PUSH1 0x1 PUSH1 0x1 PUSH1 0xA0 SHL SUB AND PUSH1 0x1 PUSH1 0x1 PUSH1 0xA0 SHL SUB AND DUP2 MSTORE PUSH1 0x20 ADD SWAP1 DUP2 MSTORE PUSH1 0x20 ADD PUSH1 0x0 KECCAK256 PUSH1 0x0 PUSH1 0x4 DUP4 DUP2 SLOAD DUP2 LT PUSH2 0x11DD JUMPI PUSH2 0x11DD PUSH2 0x1A73 JUMP JUMPDEST PUSH1 0x0 SWAP2 DUP3 MSTORE PUSH1 0x20 DUP1 DUP4 KECCAK256 SWAP1 SWAP2 ADD SLOAD PUSH1 0x1 PUSH1 0x1 PUSH1 0xA0 SHL SUB AND DUP4 MSTORE DUP3 ADD SWAP3 SWAP1 SWAP3 MSTORE PUSH1 0x40 ADD SWAP1 KECCAK256 SLOAD DUP3 MLOAD DUP4 SWAP1 DUP4 SWAP1 DUP2 LT PUSH2 0x1216 JUMPI PUSH2 0x1216 PUSH2 0x1A73 JUMP JUMPDEST PUSH1 0x20 SWAP1 DUP2 MUL SWAP2 SWAP1 SWAP2 ADD ADD MSTORE DUP1 PUSH2 0x122B DUP2 PUSH2 0x1A89 JUMP JUMPDEST SWAP2 POP POP PUSH2 0x1136 JUMP JUMPDEST POP SWAP2 POP SWAP2 JUMP JUMPDEST PUSH1 0x60 PUSH1 0x0 DUP1 PUSH1 0x0 DUP1 PUSH1 0x0 DUP1 DUP1 SLOAD PUSH2 0x124F SWAP1 PUSH2 0x19FA JUMP JUMPDEST DUP1 PUSH1 0x1F ADD PUSH1 0x20 DUP1 SWAP2 DIV MUL PUSH1 0x20 ADD PUSH1 0x40 MLOAD SWAP1 DUP2 ADD PUSH1 0x40 MSTORE DUP1 SWAP3 SWAP2 SWAP1 DUP2 DUP2 MSTORE PUSH1 0x20 ADD DUP3 DUP1 SLOAD PUSH2 0x127B SWAP1 PUSH2 0x19FA JUMP JUMPDEST DUP1 ISZERO PUSH2 0x12C8 JUMPI DUP1 PUSH1 0x1F LT PUSH2 0x129D JUMPI PUSH2 0x100 DUP1 DUP4 SLOAD DIV MUL DUP4 MSTORE SWAP2 PUSH1 0x20 ADD SWAP2 PUSH2 0x12C8 JUMP JUMPDEST DUP3 ADD SWAP2 SWAP1 PUSH1 0x0 MSTORE PUSH1 0x20 PUSH1 0x0 KECCAK256 SWAP1 JUMPDEST DUP2 SLOAD DUP2 MSTORE SWAP1 PUSH1 0x1 ADD SWAP1 PUSH1 0x20 ADD DUP1 DUP4 GT PUSH2 0x12AB JUMPI DUP3 SWAP1 SUB PUSH1 0x1F AND DUP3 ADD SWAP2 JUMPDEST POP POP PUSH1 0x6 SLOAD SWAP4 SWAP10 POP POP PUSH1 0xFF SWAP1 SWAP3 AND SWAP2 POP POP DUP1 ISZERO PUSH2 0x1305 JUMPI POP PUSH32 0x0 TIMESTAMP GT ISZERO JUMPDEST PUSH1 0x6 SLOAD PUSH1 0x4 SLOAD SWAP8 SWAP9 SWAP2 SWAP8 PUSH2 0x100 DUP3 DIV PUSH1 0xFF AND SWAP8 POP SWAP6 POP SELFBALANCE SWAP5 POP PUSH3 0x10000 SWAP1 DIV PUSH1 0x1 PUSH1 0x1 PUSH1 0xA0 SHL SUB AND SWAP3 POP SWAP1 POP JUMP JUMPDEST PUSH1 0x4 SLOAD PUSH1 0x60 SWAP1 DUP2 SWAP1 PUSH8 0xFFFFFFFFFFFFFFFF DUP2 GT ISZERO PUSH2 0x1353 JUMPI PUSH2 0x1353 PUSH2 0x1A5D JUMP JUMPDEST PUSH1 0x40 MLOAD SWAP1 DUP1 DUP3 MSTORE DUP1 PUSH1 0x20 MUL PUSH1 0x20 ADD DUP3 ADD PUSH1 0x40 MSTORE DUP1 ISZERO PUSH2 0x137C JUMPI DUP2 PUSH1 0x20 ADD PUSH1 0x20 DUP3 MUL DUP1 CALLDATASIZE DUP4 CALLDATACOPY ADD SWAP1 POP JUMPDEST POP PUSH1 0x4 SLOAD SWAP1 SWAP3 POP PUSH8 0xFFFFFFFFFFFFFFFF DUP2 GT ISZERO PUSH2 0x139B JUMPI PUSH2 0x139B PUSH2 0x1A5D JUMP JUMPDEST PUSH1 0x40 MLOAD SWAP1 DUP1 DUP3 MSTORE DUP1 PUSH1 0x20 MUL PUSH1 0x20 ADD DUP3 ADD PUSH1 0x40 MSTORE DUP1 ISZERO PUSH2 0x13C4 JUMPI DUP2 PUSH1 0x20 ADD PUSH1 0x20 DUP3 MUL DUP1 CALLDATASIZE DUP4 CALLDATACOPY ADD SWAP1 POP JUMPDEST POP SWAP1 POP PUSH1 0x0 JUMPDEST PUSH1 0x4 SLOAD DUP2 LT ISZERO PUSH2 0x14A4 JUMPI PUSH1 0x4 DUP2 DUP2 SLOAD DUP2 LT PUSH2 0x13E7 JUMPI PUSH2 0x13E7 PUSH2 0x1A73 JUMP JUMPDEST SWAP1 PUSH1 0x0 MSTORE PUSH1 0x20 PUSH1 0x0 KECCAK256 ADD PUSH1 0x0 SWAP1 SLOAD SWAP1 PUSH2 0x100 EXP SWAP1 DIV PUSH1 0x1 PUSH1 0x1 PUSH1 0xA0 SHL SUB AND DUP4 DUP3 DUP2 MLOAD DUP2 LT PUSH2 0x1417 JUMPI PUSH2 0x1417 PUSH2 0x1A73 JUMP JUMPDEST PUSH1 0x20 MUL PUSH1 0x20 ADD ADD SWAP1 PUSH1 0x1 PUSH1 0x1 PUSH1 0xA0 SHL SUB AND SWAP1 DUP2 PUSH1 0x1 PUSH1 0x1 PUSH1 0xA0 SHL SUB AND DUP2 MSTORE POP POP PUSH1 0x2 PUSH1 0x0 PUSH1 0x4 DUP4 DUP2 SLOAD DUP2 LT PUSH2 0x144E JUMPI PUSH2 0x144E PUSH2 0x1A73 JUMP JUMPDEST PUSH1 0x0 SWAP2 DUP3 MSTORE PUSH1 0x20 DUP1 DUP4 KECCAK256 SWAP1 SWAP2 ADD SLOAD PUSH1 0x1 PUSH1 0x1 PUSH1 0xA0 SHL SUB AND DUP4 MSTORE DUP3 ADD SWAP3 SWAP1 SWAP3 MSTORE PUSH1 0x40 ADD SWAP1 KECCAK256 SLOAD DUP3 MLOAD DUP4 SWAP1 DUP4 SWAP1 DUP2 LT PUSH2 0x1487 JUMPI PUSH2 0x1487 PUSH2 0x1A73 JUMP JUMPDEST PUSH1 0x20 SWAP1 DUP2 MUL SWAP2 SWAP1 SWAP2 ADD ADD MSTORE DUP1 PUSH2 0x149C DUP2 PUSH2 0x1A89 JUMP JUMPDEST SWAP2 POP POP PUSH2 0x13CA JUMP JUMPDEST POP SWAP1 SWAP2 JUMP JUMPDEST PUSH1 0x8 SLOAD PUSH1 0x0 SUB PUSH2 0x14B5 JUMPI JUMP JUMPDEST PUSH1 0x5 SLOAD PUSH1 0x0 SWAP1 PUSH8 0xFFFFFFFFFFFFFFFF DUP2 GT ISZERO PUSH2 0x14D3 JUMPI PUSH2 0x14D3 PUSH2 0x1A5D JUMP JUMPDEST PUSH1 0x40 MLOAD SWAP1 DUP1 DUP3 MSTORE DUP1 PUSH1 0x20 MUL PUSH1 0x20 ADD DUP3 ADD PUSH1 0x40 MSTORE DUP1 ISZERO PUSH2 0x14FC JUMPI DUP2 PUSH1 0x20 ADD PUSH1 0x20 DUP3 MUL DUP1 CALLDATASIZE DUP4 CALLDATACOPY ADD SWAP1 POP JUMPDEST POP SWAP1 POP PUSH1 0x0 DUP1 JUMPDEST PUSH1 0x5 SLOAD DUP2 LT ISZERO PUSH2 0x1760 JUMPI PUSH1 0x0 PUSH1 0x5 DUP3 DUP2 SLOAD DUP2 LT PUSH2 0x1522 JUMPI PUSH2 0x1522 PUSH2 0x1A73 JUMP JUMPDEST PUSH1 0x0 SWAP2 DUP3 MSTORE PUSH1 0x20 SWAP2 DUP3 SWAP1 KECCAK256 PUSH1 0x40 DUP1 MLOAD PUSH1 0x60 DUP2 ADD DUP3 MSTORE PUSH1 0x3 SWAP1 SWAP4 MUL SWAP1 SWAP2 ADD DUP1 SLOAD PUSH1 0x1 PUSH1 0x1 PUSH1 0xA0 SHL SUB SWAP1 DUP2 AND DUP1 DUP6 MSTORE PUSH1 0x1 DUP4 ADD SLOAD SWAP6 DUP6 ADD SWAP6 SWAP1 SWAP6 MSTORE PUSH1 0x2 SWAP1 SWAP2 ADD SLOAD DUP2 AND SWAP2 DUP4 ADD SWAP2 SWAP1 SWAP2 MSTORE PUSH1 0x6 SLOAD SWAP2 SWAP4 POP PUSH3 0x10000 SWAP1 SWAP2 DIV AND SWAP1 SUB PUSH2 0x174D JUMPI PUSH1 0x0 DUP1 JUMPDEST DUP5 DUP2 LT ISZERO PUSH2 0x15DB JUMPI DUP3 PUSH1 0x40 ADD MLOAD PUSH1 0x1 PUSH1 0x1 PUSH1 0xA0 SHL SUB AND DUP7 DUP3 DUP2 MLOAD DUP2 LT PUSH2 0x15AA JUMPI PUSH2 0x15AA PUSH2 0x1A73 JUMP JUMPDEST PUSH1 0x20 MUL PUSH1 0x20 ADD ADD MLOAD PUSH1 0x1 PUSH1 0x1 PUSH1 0xA0 SHL SUB AND SUB PUSH2 0x15C9 JUMPI PUSH1 0x1 SWAP2 POP PUSH2 0x15DB JUMP JUMPDEST DUP1 PUSH2 0x15D3 DUP2 PUSH2 0x1A89 JUMP JUMPDEST SWAP2 POP POP PUSH2 0x1582 JUMP JUMPDEST POP DUP1 PUSH2 0x174B JUMPI PUSH1 0x40 DUP1 DUP4 ADD MLOAD PUSH1 0x1 PUSH1 0x1 PUSH1 0xA0 SHL SUB SWAP1 DUP2 AND PUSH1 0x0 SWAP1 DUP2 MSTORE PUSH1 0x3 PUSH1 0x20 SWAP1 DUP2 MSTORE DUP4 DUP3 KECCAK256 PUSH1 0x6 SLOAD PUSH3 0x10000 SWAP1 DIV SWAP1 SWAP4 AND DUP3 MSTORE SWAP2 SWAP1 SWAP2 MSTORE KECCAK256 SLOAD DUP1 ISZERO PUSH2 0x1749 JUMPI PUSH1 0x0 PUSH1 0x8 SLOAD PUSH1 0x7 SLOAD DUP4 PUSH2 0x162E SWAP2 SWAP1 PUSH2 0x1B1A JUMP JUMPDEST PUSH2 0x1638 SWAP2 SWAP1 PUSH2 0x1B31 JUMP JUMPDEST SWAP1 POP DUP4 PUSH1 0x40 ADD MLOAD DUP8 DUP8 DUP2 MLOAD DUP2 LT PUSH2 0x1651 JUMPI PUSH2 0x1651 PUSH2 0x1A73 JUMP JUMPDEST PUSH1 0x1 PUSH1 0x1 PUSH1 0xA0 SHL SUB SWAP1 SWAP3 AND PUSH1 0x20 SWAP3 DUP4 MUL SWAP2 SWAP1 SWAP2 ADD SWAP1 SWAP2 ADD MSTORE DUP6 PUSH2 0x1673 DUP2 PUSH2 0x1A89 JUMP JUMPDEST PUSH1 0x40 DUP7 DUP2 ADD DUP1 MLOAD PUSH1 0x1 PUSH1 0x1 PUSH1 0xA0 SHL SUB SWAP1 DUP2 AND PUSH1 0x0 SWAP1 DUP2 MSTORE PUSH1 0x3 PUSH1 0x20 SWAP1 DUP2 MSTORE DUP5 DUP3 KECCAK256 PUSH1 0x6 SLOAD PUSH3 0x10000 SWAP1 DIV DUP5 AND DUP4 MSTORE SWAP1 MSTORE DUP4 DUP2 KECCAK256 DUP2 SWAP1 SSTORE SWAP2 MLOAD SWAP3 MLOAD SWAP4 SWAP11 POP SWAP1 SWAP4 POP AND SWAP1 DUP4 SWAP1 DUP4 DUP2 DUP2 DUP2 DUP6 DUP8 GAS CALL SWAP3 POP POP POP RETURNDATASIZE DUP1 PUSH1 0x0 DUP2 EQ PUSH2 0x16EF JUMPI PUSH1 0x40 MLOAD SWAP2 POP PUSH1 0x1F NOT PUSH1 0x3F RETURNDATASIZE ADD AND DUP3 ADD PUSH1 0x40 MSTORE RETURNDATASIZE DUP3 MSTORE RETURNDATASIZE PUSH1 0x0 PUSH1 0x20 DUP5 ADD RETURNDATACOPY PUSH2 0x16F4 JUMP JUMPDEST PUSH1 0x60 SWAP2 POP JUMPDEST POP POP SWAP1 POP DUP1 ISZERO PUSH2 0x1746 JUMPI DUP5 PUSH1 0x40 ADD MLOAD PUSH1 0x1 PUSH1 0x1 PUSH1 0xA0 SHL SUB AND PUSH32 0xB8E091D87F82E56D22276C9A0088EA5D6068E355383DC08B2721B7B6CB10E845 DUP4 PUSH1 0x40 MLOAD PUSH2 0x173D SWAP2 DUP2 MSTORE PUSH1 0x20 ADD SWAP1 JUMP JUMPDEST PUSH1 0x40 MLOAD DUP1 SWAP2 SUB SWAP1 LOG2 JUMPDEST POP POP JUMPDEST POP JUMPDEST POP JUMPDEST POP DUP1 PUSH2 0x1758 DUP2 PUSH2 0x1A89 JUMP JUMPDEST SWAP2 POP POP PUSH2 0x1503 JUMP JUMPDEST POP POP POP JUMP JUMPDEST PUSH1 0x0 DUP2 MLOAD DUP1 DUP5 MSTORE PUSH1 0x0 JUMPDEST DUP2 DUP2 LT ISZERO PUSH2 0x178B JUMPI PUSH1 0x20 DUP2 DUP6 ADD DUP2 ADD MLOAD DUP7 DUP4 ADD DUP3 ADD MSTORE ADD PUSH2 0x176F JUMP JUMPDEST POP PUSH1 0x0 PUSH1 0x20 DUP3 DUP7 ADD ADD MSTORE PUSH1 0x20 PUSH1 0x1F NOT PUSH1 0x1F DUP4 ADD AND DUP6 ADD ADD SWAP2 POP POP SWAP3 SWAP2 POP POP JUMP JUMPDEST PUSH1 0x20 DUP2 MSTORE PUSH1 0x0 PUSH2 0x17BE PUSH1 0x20 DUP4 ADD DUP5 PUSH2 0x1765 JUMP JUMPDEST SWAP4 SWAP3 POP POP POP JUMP JUMPDEST DUP1 CALLDATALOAD PUSH1 0x1 PUSH1 0x1 PUSH1 0xA0 SHL SUB DUP2 AND DUP2 EQ PUSH2 0x17DC JUMPI PUSH1 0x0 DUP1 REVERT JUMPDEST SWAP2 SWAP1 POP JUMP JUMPDEST PUSH1 0x0 PUSH1 0x20 DUP3 DUP5 SUB SLT ISZERO PUSH2 0x17F3 JUMPI PUSH1 0x0 DUP1 REVERT JUMPDEST PUSH2 0x17BE DUP3 PUSH2 0x17C5 JUMP JUMPDEST PUSH1 0x0 DUP2 MLOAD DUP1 DUP5 MSTORE PUSH1 0x20 DUP1 DUP6 ADD SWAP5 POP DUP1 DUP5 ADD PUSH1 0x0 JUMPDEST DUP4 DUP2 LT ISZERO PUSH2 0x1835 JUMPI DUP2 MLOAD PUSH1 0x1 PUSH1 0x1 PUSH1 0xA0 SHL SUB AND DUP8 MSTORE SWAP6 DUP3 ADD SWAP6 SWAP1 DUP3 ADD SWAP1 PUSH1 0x1 ADD PUSH2 0x1810 JUMP JUMPDEST POP SWAP5 SWAP6 SWAP5 POP POP POP POP POP JUMP JUMPDEST PUSH1 0x20 DUP2 MSTORE PUSH1 0x0 PUSH2 0x17BE PUSH1 0x20 DUP4 ADD DUP5 PUSH2 0x17FC JUMP JUMPDEST PUSH1 0x0 PUSH1 0x20 DUP3 DUP5 SUB SLT ISZERO PUSH2 0x1865 JUMPI PUSH1 0x0 DUP1 REVERT JUMPDEST POP CALLDATALOAD SWAP2 SWAP1 POP JUMP JUMPDEST PUSH1 0x0 DUP2 MLOAD DUP1 DUP5 MSTORE PUSH1 0x20 DUP1 DUP6 ADD SWAP5 POP DUP1 DUP5 ADD PUSH1 0x0 JUMPDEST DUP4 DUP2 LT ISZERO PUSH2 0x1835 JUMPI DUP2 MLOAD DUP8 MSTORE SWAP6 DUP3 ADD SWAP6 SWAP1 DUP3 ADD SWAP1 PUSH1 0x1 ADD PUSH2 0x1880 JUMP JUMPDEST PUSH1 0x60 DUP2 MSTORE PUSH1 0x0 PUSH2 0x18AF PUSH1 0x60 DUP4 ADD DUP7 PUSH2 0x17FC JUMP JUMPDEST DUP3 DUP2 SUB PUSH1 0x20 DUP5 ADD MSTORE PUSH2 0x18C1 DUP2 DUP7 PUSH2 0x186C JUMP JUMPDEST SWAP1 POP DUP3 DUP2 SUB PUSH1 0x40 DUP5 ADD MSTORE PUSH2 0x18D5 DUP2 DUP6 PUSH2 0x186C JUMP JUMPDEST SWAP7 SWAP6 POP POP POP POP POP POP JUMP JUMPDEST PUSH1 0x0 DUP1 PUSH1 0x40 DUP4 DUP6 SUB SLT ISZERO PUSH2 0x18F2 JUMPI PUSH1 0x0 DUP1 REVERT JUMPDEST PUSH2 0x18FB DUP4 PUSH2 0x17C5 JUMP JUMPDEST SWAP2 POP PUSH2 0x1909 PUSH1 0x20 DUP5 ADD PUSH2 0x17C5 JUMP JUMPDEST SWAP1 POP SWAP3 POP SWAP3 SWAP1 POP JUMP JUMPDEST PUSH1 0x0 DUP1 PUSH1 0x20 DUP4 DUP6 SUB SLT ISZERO PUSH2 0x1925 JUMPI PUSH1 0x0 DUP1 REVERT JUMPDEST DUP3 CALLDATALOAD PUSH8 0xFFFFFFFFFFFFFFFF DUP1 DUP3 GT ISZERO PUSH2 0x193D JUMPI PUSH1 0x0 DUP1 REVERT JUMPDEST DUP2 DUP6 ADD SWAP2 POP DUP6 PUSH1 0x1F DUP4 ADD SLT PUSH2 0x1951 JUMPI PUSH1 0x0 DUP1 REVERT JUMPDEST DUP2 CALLDATALOAD DUP2 DUP2 GT ISZERO PUSH2 0x1960 JUMPI PUSH1 0x0 DUP1 REVERT JUMPDEST DUP7 PUSH1 0x20 DUP3 PUSH1 0x6 SHL DUP6 ADD ADD GT ISZERO PUSH2 0x1975 JUMPI PUSH1 0x0 DUP1 REVERT JUMPDEST PUSH1 0x20 SWAP3 SWAP1 SWAP3 ADD SWAP7 SWAP2 SWAP6 POP SWAP1 SWAP4 POP POP POP POP JUMP JUMPDEST PUSH1 0x40 DUP2 MSTORE PUSH1 0x0 PUSH2 0x199A PUSH1 0x40 DUP4 ADD DUP6 PUSH2 0x17FC JUMP JUMPDEST DUP3 DUP2 SUB PUSH1 0x20 DUP5 ADD MSTORE PUSH2 0x19AC DUP2 DUP6 PUSH2 0x186C JUMP JUMPDEST SWAP6 SWAP5 POP POP POP POP POP JUMP JUMPDEST PUSH1 0xC0 DUP2 MSTORE PUSH1 0x0 PUSH2 0x19C8 PUSH1 0xC0 DUP4 ADD DUP10 PUSH2 0x1765 JUMP JUMPDEST SWAP7 ISZERO ISZERO PUSH1 0x20 DUP4 ADD MSTORE POP SWAP4 ISZERO ISZERO PUSH1 0x40 DUP6 ADD MSTORE PUSH1 0x60 DUP5 ADD SWAP3 SWAP1 SWAP3 MSTORE PUSH1 0x80 DUP4 ADD MSTORE PUSH1 0x1 PUSH1 0x1 PUSH1 0xA0 SHL SUB AND PUSH1 0xA0 SWAP1 SWAP2 ADD MSTORE SWAP2 SWAP1 POP JUMP JUMPDEST PUSH1 0x1 DUP2 DUP2 SHR SWAP1 DUP3 AND DUP1 PUSH2 0x1A0E JUMPI PUSH1 0x7F DUP3 AND SWAP2 POP JUMPDEST PUSH1 0x20 DUP3 LT DUP2 SUB PUSH2 0x1A2E JUMPI PUSH4 0x4E487B71 PUSH1 0xE0 SHL PUSH1 0x0 MSTORE PUSH1 0x22 PUSH1 0x4 MSTORE PUSH1 0x24 PUSH1 0x0 REVERT JUMPDEST POP SWAP2 SWAP1 POP JUMP JUMPDEST PUSH4 0x4E487B71 PUSH1 0xE0 SHL PUSH1 0x0 MSTORE PUSH1 0x11 PUSH1 0x4 MSTORE PUSH1 0x24 PUSH1 0x0 REVERT JUMPDEST DUP1 DUP3 ADD DUP1 DUP3 GT ISZERO PUSH2 0xBED JUMPI PUSH2 0xBED PUSH2 0x1A34 JUMP JUMPDEST PUSH4 0x4E487B71 PUSH1 0xE0 SHL PUSH1 0x0 MSTORE PUSH1 0x41 PUSH1 0x4 MSTORE PUSH1 0x24 PUSH1 0x0 REVERT JUMPDEST PUSH4 0x4E487B71 PUSH1 0xE0 SHL PUSH1 0x0 MSTORE PUSH1 0x32 PUSH1 0x4 MSTORE PUSH1 0x24 PUSH1 0x0 REVERT JUMPDEST PUSH1 0x0 PUSH1 0x1 DUP3 ADD PUSH2 0x1A9B JUMPI PUSH2 0x1A9B PUSH2 0x1A34 JUMP JUMPDEST POP PUSH1 0x1 ADD SWAP1 JUMP JUMPDEST DUP2 DUP2 SUB DUP2 DUP2 GT ISZERO PUSH2 0xBED JUMPI PUSH2 0xBED PUSH2 0x1A34 JUMP JUMPDEST PUSH1 0x0 PUSH1 0x40 DUP3 DUP5 SUB SLT ISZERO PUSH2 0x1AC7 JUMPI PUSH1 0x0 DUP1 REVERT JUMPDEST PUSH1 0x40 MLOAD PUSH1 0x40 DUP2 ADD DUP2 DUP2 LT PUSH8 0xFFFFFFFFFFFFFFFF DUP3 GT OR ISZERO PUSH2 0x1AF8 JUMPI PUSH4 0x4E487B71 PUSH1 0xE0 SHL PUSH1 0x0 MSTORE PUSH1 0x41 PUSH1 0x4 MSTORE PUSH1 0x24 PUSH1 0x0 REVERT JUMPDEST PUSH1 0x40 MSTORE PUSH2 0x1B04 DUP4 PUSH2 0x17C5 JUMP JUMPDEST DUP2 MSTORE PUSH1 0x20 DUP4 ADD CALLDATALOAD PUSH1 0x20 DUP3 ADD MSTORE DUP1 SWAP2 POP POP SWAP3 SWAP2 POP POP JUMP JUMPDEST DUP1 DUP3 MUL DUP2 ISZERO DUP3 DUP3 DIV DUP5 EQ OR PUSH2 0xBED JUMPI PUSH2 0xBED PUSH2 0x1A34 JUMP JUMPDEST PUSH1 0x0 DUP3 PUSH2 0x1B4E JUMPI PUSH4 0x4E487B71 PUSH1 0xE0 SHL PUSH1 0x0 MSTORE PUSH1 0x12 PUSH1 0x4 MSTORE PUSH1 0x24 PUSH1 0x0 REVERT JUMPDEST POP DIV SWAP1 JUMP INVALID LOG2 PUSH5 0x6970667358 0x22 SLT KECCAK256 0xDB BYTE SWAP8 DUP2 CALLDATASIZE 0xF6 0xAD CODESIZE SIGNEXTEND DUP5 PREVRANDAO DUP12 BALANCE 0x4E 0xC 0xD5 SAR PUSH19 0xEA45B94E9853D4838E251F701DD064736F6C63 NUMBER STOP ADDMOD EQ STOP CALLER PUSH3 0xE2C9C7 JUMPDEST 0x28 PUSH24 0x78C0B58F1C1D83FA8F9978A33848E0B423735FD44F48EBE3 0xC1 LOG2 PUSH5 0x6970667358 0x22 SLT KECCAK256 SSTORE 0xCA 0xC2 CALLDATASIZE SMOD PUSH15 0x3A838B181199E053F6D5BBDC2441C3 EQ PUSH3 0x49A2FA SWAP7 0xBE 0x29 CALLDATASIZE PC PUSH31 0x64736F6C634300081400330000000000000000000000000000000000000000 "},"methodIdentifiers":{"addSupportedToken(address,string,string,uint256)":"6fc89fe3","canCreateNewRound()":"2819829d","changeOwner(address)":"a6f9dae1","createRound(string,uint256,address[])":"5693f02e","currentActiveRound()":"181d9574","currentRoundIndex()":"6896ef4b","emergencyFinalizeRound(address,(address,uint256)[])":"9591e260","finalizeRound(address,(address,uint256)[])":"9550af06","getCurrentRoundInfo()":"747dff42","getRoundInfo(uint256)":"88c3ffb0","getSupportedTokens()":"d3c7c2c7","getTokenPrice(address)":"d02641a0","getTokenPrices(address[])":"45ac924d","isValidRound(address)":"effa5699","owner()":"8da5cb5b","removeSupportedToken(address)":"76319190","rounds(uint256)":"8c65c81f","supportedTokens(address)":"68c4ac26","tokenList(uint256)":"9ead7222","updateTokenPrice(address,uint256)":"d4ee651b","updateTokenPrices(address[],uint256[])":"eff29f8e"}}}}}