{
  "_format": "hh-sol-artifact-1",
  "contractName": "RoundFactory",
  "sourceName": "contracts/RoundFactory.sol",
  "abi": [
    {
      "inputs": [
        {
          "internalType": "address",
          "name": "_owner",
          "type": "address"
        }
      ],
      "stateMutability": "nonpayable",
      "type": "constructor"
    },
    {
      "anonymous": false,
      "inputs": [
        {
          "indexed": true,
          "internalType": "uint256",
          "name": "roundIndex",
          "type": "uint256"
        },
        {
          "indexed": true,
          "internalType": "address",
          "name": "roundAddress",
          "type": "address"
        },
        {
          "indexed": false,
          "internalType": "string",
          "name": "roundName",
          "type": "string"
        },
        {
          "indexed": false,
          "internalType": "uint256",
          "name": "tokenCount",
          "type": "uint256"
        }
      ],
      "name": "RoundCreated",
      "type": "event"
    },
    {
      "anonymous": false,
      "inputs": [
        {
          "indexed": true,
          "internalType": "address",
          "name": "roundAddress",
          "type": "address"
        },
        {
          "indexed": true,
          "internalType": "address",
          "name": "winningToken",
          "type": "address"
        }
      ],
      "name": "RoundFinalized",
      "type": "event"
    },
    {
      "anonymous": false,
      "inputs": [
        {
          "indexed": true,
          "internalType": "address",
          "name": "tokenAddress",
          "type": "address"
        },
        {
          "indexed": false,
          "internalType": "string",
          "name": "symbol",
          "type": "string"
        },
        {
          "indexed": false,
          "internalType": "string",
          "name": "name",
          "type": "string"
        },
        {
          "indexed": false,
          "internalType": "uint256",
          "name": "initialPrice",
          "type": "uint256"
        }
      ],
      "name": "TokenAdded",
      "type": "event"
    },
    {
      "anonymous": false,
      "inputs": [
        {
          "indexed": true,
          "internalType": "address",
          "name": "tokenAddress",
          "type": "address"
        },
        {
          "indexed": false,
          "internalType": "uint256",
          "name": "oldPrice",
          "type": "uint256"
        },
        {
          "indexed": false,
          "internalType": "uint256",
          "name": "newPrice",
          "type": "uint256"
        }
      ],
      "name": "TokenPriceUpdated",
      "type": "event"
    },
    {
      "anonymous": false,
      "inputs": [
        {
          "indexed": true,
          "internalType": "address",
          "name": "tokenAddress",
          "type": "address"
        }
      ],
      "name": "TokenRemoved",
      "type": "event"
    },
    {
      "inputs": [
        {
          "internalType": "address",
          "name": "tokenAddress",
          "type": "address"
        },
        {
          "internalType": "string",
          "name": "symbol",
          "type": "string"
        },
        {
          "internalType": "string",
          "name": "name",
          "type": "string"
        },
        {
          "internalType": "uint256",
          "name": "initialPrice",
          "type": "uint256"
        }
      ],
      "name": "addSupportedToken",
      "outputs": [],
      "stateMutability": "nonpayable",
      "type": "function"
    },
    {
      "inputs": [],
      "name": "canCreateNewRound",
      "outputs": [
        {
          "internalType": "bool",
          "name": "",
          "type": "bool"
        }
      ],
      "stateMutability": "view",
      "type": "function"
    },
    {
      "inputs": [
        {
          "internalType": "address",
          "name": "_newOwner",
          "type": "address"
        }
      ],
      "name": "changeOwner",
      "outputs": [],
      "stateMutability": "nonpayable",
      "type": "function"
    },
    {
      "inputs": [
        {
          "internalType": "string",
          "name": "roundName",
          "type": "string"
        },
        {
          "internalType": "uint256",
          "name": "duration",
          "type": "uint256"
        },
        {
          "internalType": "address[]",
          "name": "participatingTokens",
          "type": "address[]"
        }
      ],
      "name": "createRound",
      "outputs": [
        {
          "internalType": "address",
          "name": "",
          "type": "address"
        }
      ],
      "stateMutability": "nonpayable",
      "type": "function"
    },
    {
      "inputs": [],
      "name": "currentActiveRound",
      "outputs": [
        {
          "internalType": "address",
          "name": "",
          "type": "address"
        }
      ],
      "stateMutability": "view",
      "type": "function"
    },
    {
      "inputs": [],
      "name": "currentRoundIndex",
      "outputs": [
        {
          "internalType": "uint256",
          "name": "",
          "type": "uint256"
        }
      ],
      "stateMutability": "view",
      "type": "function"
    },
    {
      "inputs": [
        {
          "internalType": "address",
          "name": "roundAddress",
          "type": "address"
        },
        {
          "components": [
            {
              "internalType": "address",
              "name": "tokenAddress",
              "type": "address"
            },
            {
              "internalType": "uint256",
              "name": "currentPrice",
              "type": "uint256"
            }
          ],
          "internalType": "struct Round.TokenPrice[]",
          "name": "currentPrices",
          "type": "tuple[]"
        }
      ],
      "name": "emergencyFinalizeRound",
      "outputs": [],
      "stateMutability": "nonpayable",
      "type": "function"
    },
    {
      "inputs": [
        {
          "internalType": "address",
          "name": "roundAddress",
          "type": "address"
        },
        {
          "components": [
            {
              "internalType": "address",
              "name": "tokenAddress",
              "type": "address"
            },
            {
              "internalType": "uint256",
              "name": "currentPrice",
              "type": "uint256"
            }
          ],
          "internalType": "struct Round.TokenPrice[]",
          "name": "currentPrices",
          "type": "tuple[]"
        }
      ],
      "name": "finalizeRound",
      "outputs": [],
      "stateMutability": "nonpayable",
      "type": "function"
    },
    {
      "inputs": [],
      "name": "getCurrentRoundInfo",
      "outputs": [
        {
          "internalType": "address",
          "name": "roundAddress",
          "type": "address"
        },
        {
          "internalType": "string",
          "name": "roundName",
          "type": "string"
        },
        {
          "internalType": "bool",
          "name": "isActive",
          "type": "bool"
        },
        {
          "internalType": "uint256",
          "name": "tokenCount",
          "type": "uint256"
        },
        {
          "internalType": "uint256",
          "name": "totalPrizePool",
          "type": "uint256"
        }
      ],
      "stateMutability": "view",
      "type": "function"
    },
    {
      "inputs": [
        {
          "internalType": "uint256",
          "name": "roundIndex",
          "type": "uint256"
        }
      ],
      "name": "getRoundInfo",
      "outputs": [
        {
          "internalType": "address",
          "name": "roundAddress",
          "type": "address"
        },
        {
          "internalType": "string",
          "name": "roundName",
          "type": "string"
        },
        {
          "internalType": "bool",
          "name": "isActive",
          "type": "bool"
        },
        {
          "internalType": "bool",
          "name": "isFinalized",
          "type": "bool"
        },
        {
          "internalType": "uint256",
          "name": "totalPrizePool",
          "type": "uint256"
        },
        {
          "internalType": "address",
          "name": "winningToken",
          "type": "address"
        }
      ],
      "stateMutability": "view",
      "type": "function"
    },
    {
      "inputs": [],
      "name": "getSupportedTokens",
      "outputs": [
        {
          "components": [
            {
              "internalType": "address",
              "name": "tokenAddress",
              "type": "address"
            },
            {
              "internalType": "string",
              "name": "symbol",
              "type": "string"
            },
            {
              "internalType": "string",
              "name": "name",
              "type": "string"
            },
            {
              "internalType": "uint256",
              "name": "currentPrice",
              "type": "uint256"
            },
            {
              "internalType": "bool",
              "name": "isActive",
              "type": "bool"
            }
          ],
          "internalType": "struct RoundFactory.TokenInfo[]",
          "name": "",
          "type": "tuple[]"
        }
      ],
      "stateMutability": "view",
      "type": "function"
    },
    {
      "inputs": [
        {
          "internalType": "address",
          "name": "tokenAddress",
          "type": "address"
        }
      ],
      "name": "getTokenPrice",
      "outputs": [
        {
          "internalType": "uint256",
          "name": "",
          "type": "uint256"
        }
      ],
      "stateMutability": "view",
      "type": "function"
    },
    {
      "inputs": [
        {
          "internalType": "address[]",
          "name": "tokenAddresses",
          "type": "address[]"
        }
      ],
      "name": "getTokenPrices",
      "outputs": [
        {
          "internalType": "uint256[]",
          "name": "",
          "type": "uint256[]"
        }
      ],
      "stateMutability": "view",
      "type": "function"
    },
    {
      "inputs": [
        {
          "internalType": "address",
          "name": "",
          "type": "address"
        }
      ],
      "name": "isValidRound",
      "outputs": [
        {
          "internalType": "bool",
          "name": "",
          "type": "bool"
        }
      ],
      "stateMutability": "view",
      "type": "function"
    },
    {
      "inputs": [],
      "name": "owner",
      "outputs": [
        {
          "internalType": "address",
          "name": "",
          "type": "address"
        }
      ],
      "stateMutability": "view",
      "type": "function"
    },
    {
      "inputs": [
        {
          "internalType": "address",
          "name": "tokenAddress",
          "type": "address"
        }
      ],
      "name": "removeSupportedToken",
      "outputs": [],
      "stateMutability": "nonpayable",
      "type": "function"
    },
    {
      "inputs": [
        {
          "internalType": "uint256",
          "name": "",
          "type": "uint256"
        }
      ],
      "name": "rounds",
      "outputs": [
        {
          "internalType": "address",
          "name": "",
          "type": "address"
        }
      ],
      "stateMutability": "view",
      "type": "function"
    },
    {
      "inputs": [
        {
          "internalType": "address",
          "name": "",
          "type": "address"
        }
      ],
      "name": "supportedTokens",
      "outputs": [
        {
          "internalType": "address",
          "name": "tokenAddress",
          "type": "address"
        },
        {
          "internalType": "string",
          "name": "symbol",
          "type": "string"
        },
        {
          "internalType": "string",
          "name": "name",
          "type": "string"
        },
        {
          "internalType": "uint256",
          "name": "currentPrice",
          "type": "uint256"
        },
        {
          "internalType": "bool",
          "name": "isActive",
          "type": "bool"
        }
      ],
      "stateMutability": "view",
      "type": "function"
    },
    {
      "inputs": [
        {
          "internalType": "uint256",
          "name": "",
          "type": "uint256"
        }
      ],
      "name": "tokenList",
      "outputs": [
        {
          "internalType": "address",
          "name": "",
          "type": "address"
        }
      ],
      "stateMutability": "view",
      "type": "function"
    },
    {
      "inputs": [
        {
          "internalType": "address",
          "name": "tokenAddress",
          "type": "address"
        },
        {
          "internalType": "uint256",
          "name": "newPrice",
          "type": "uint256"
        }
      ],
      "name": "updateTokenPrice",
      "outputs": [],
      "stateMutability": "nonpayable",
      "type": "function"
    },
    {
      "inputs": [
        {
          "internalType": "address[]",
          "name": "tokenAddresses",
          "type": "address[]"
        },
        {
          "internalType": "uint256[]",
          "name": "newPrices",
          "type": "uint256[]"
        }
      ],
      "name": "updateTokenPrices",
      "outputs": [],
      "stateMutability": "nonpayable",
      "type": "function"
    }
  ],
  "bytecode": "0x60806040523480156200001157600080fd5b50604051620051e1380380620051e183398101604081905262000034916200005a565b600080546001600160a01b0319166001600160a01b03929092169190911790556200008c565b6000602082840312156200006d57600080fd5b81516001600160a01b03811681146200008557600080fd5b9392505050565b615145806200009c6000396000f3fe60806040523480156200001157600080fd5b5060043610620001515760003560e01c80638c65c81f11620000c7578063a6f9dae11162000086578063a6f9dae11462000323578063d02641a0146200033a578063d3c7c2c71462000351578063d4ee651b146200036a578063eff29f8e1462000381578063effa5699146200039857600080fd5b80638c65c81f146200029e5780638da5cb5b14620002ca5780639550af0614620002de5780639591e26014620002f55780639ead7222146200030c57600080fd5b806368c4ac26116200011457806368c4ac2614620001fc5780636fc89fe31462000226578063747dff42146200023f57806376319190146200025c57806388c3ffb0146200027357600080fd5b8063181d957414620001565780632819829d146200018757806345ac924d14620001a65780635693f02e14620001cc5780636896ef4b14620001e3575b600080fd5b6006546200016a906001600160a01b031681565b6040516001600160a01b0390911681526020015b60405180910390f35b6006546001600160a01b0316155b60405190151581526020016200017e565b620001bd620001b7366004620021e2565b620003be565b6040516200017e919062002264565b6200016a620001dd3660046200234f565b62000521565b620001ed60015481565b6040519081526020016200017e565b620002136200020d366004620023de565b620009b7565b6040516200017e95949392919062002452565b6200023d62000237366004620024a6565b62000b14565b005b6200024962000d88565b6040516200017e9594939291906200252c565b6200023d6200026d366004620023de565b62000e2b565b6200028a620002843660046200256f565b6200100c565b6040516200017e9695949392919062002589565b6200016a620002af3660046200256f565b6002602052600090815260409020546001600160a01b031681565b6000546200016a906001600160a01b031681565b6200023d620002ef366004620025d5565b620010bb565b6200023d62000306366004620025d5565b62001582565b6200016a6200031d3660046200256f565b62001944565b6200023d62000334366004620023de565b6200196f565b620001ed6200034b366004620023de565b62001a0a565b6200035b62001a67565b6040516200017e919062002663565b6200023d6200037b3660046200271b565b62001d9e565b6200023d620003923660046200274a565b62001e9d565b62000195620003a9366004620023de565b60036020526000908152604090205460ff1681565b60606000826001600160401b03811115620003dd57620003dd62002280565b60405190808252806020026020018201604052801562000407578160200160208202803683370190505b50905060005b838110156200051757600460008686848181106200042f576200042f620027a1565b9050602002016020810190620004469190620023de565b6001600160a01b0316815260208101919091526040016000206004015460ff166200048e5760405162461bcd60e51b81526004016200048590620027b7565b60405180910390fd5b60046000868684818110620004a757620004a7620027a1565b9050602002016020810190620004be9190620023de565b6001600160a01b03166001600160a01b0316815260200190815260200160002060030154828281518110620004f757620004f7620027a1565b6020908102919091010152806200050e81620027fa565b9150506200040d565b5090505b92915050565b600080546001600160a01b031633146200054f5760405162461bcd60e51b8152600401620004859062002816565b6006546001600160a01b031615620005a05760405162461bcd60e51b815260206004820152601360248201527241637469766520726f756e642065786973747360681b604482015260640162000485565b6000855111620005e95760405162461bcd60e51b8152602060048201526013602482015272149bdd5b99081b985b59481c995c5d5a5c9959606a1b604482015260640162000485565b600084116200063b5760405162461bcd60e51b815260206004820152601f60248201527f4475726174696f6e206d7573742062652067726561746572207468616e203000604482015260640162000485565b60018211620006865760405162461bcd60e51b81526020600482015260166024820152754e656564206174206c65617374203220746f6b656e7360501b604482015260640162000485565b6000826001600160401b03811115620006a357620006a362002280565b604051908082528060200260200182016040528015620006cd578160200160208202803683370190505b5090506000836001600160401b03811115620006ed57620006ed62002280565b60405190808252806020026020018201604052801562000717578160200160208202803683370190505b50905060005b848110156200087f57600460008787848181106200073f576200073f620027a1565b9050602002016020810190620007569190620023de565b6001600160a01b0316815260208101919091526040016000206004015460ff16620007955760405162461bcd60e51b81526004016200048590620027b7565b858582818110620007aa57620007aa620027a1565b9050602002016020810190620007c19190620023de565b838281518110620007d657620007d6620027a1565b60200260200101906001600160a01b031690816001600160a01b031681525050600460008787848181106200080f576200080f620027a1565b9050602002016020810190620008269190620023de565b6001600160a01b03166001600160a01b03168152602001908152602001600020600301548282815181106200085f576200085f620027a1565b6020908102919091010152806200087681620027fa565b9150506200071d565b50600060015488426040516020016200089b9392919062002843565b60405160208183030381529060405280519060200120905060008189898686604051620008c8906200214c565b620008d7949392919062002872565b8190604051809103906000f5905080158015620008f8573d6000803e3d6000fd5b5060018054600090815260026020908152604080832080546001600160a01b0387166001600160a01b03199182168117909255818552600390935292819020805460ff1916851790556006805490921683179091559154915192935083929091907f4f28300a5fd8808e5f10b16038bd9bcb8caacb650f56c4e7550a5fe70c7368c9906200098a908e908c90620028f0565b60405180910390a360018054906000620009a483620027fa565b90915550909a9950505050505050505050565b600460205260009081526040902080546001820180546001600160a01b039092169291620009e59062002914565b80601f016020809104026020016040519081016040528092919081815260200182805462000a139062002914565b801562000a645780601f1062000a385761010080835404028352916020019162000a64565b820191906000526020600020905b81548152906001019060200180831162000a4657829003601f168201915b50505050509080600201805462000a7b9062002914565b80601f016020809104026020016040519081016040528092919081815260200182805462000aa99062002914565b801562000afa5780601f1062000ace5761010080835404028352916020019162000afa565b820191906000526020600020905b81548152906001019060200180831162000adc57829003601f168201915b50505050600383015460049093015491929160ff16905085565b6000546001600160a01b0316331462000b415760405162461bcd60e51b8152600401620004859062002816565b6001600160a01b03841662000b915760405162461bcd60e51b8152602060048201526015602482015274496e76616c696420746f6b656e206164647265737360581b604482015260640162000485565b6000811162000bdb5760405162461bcd60e51b8152602060048201526015602482015274496e76616c696420696e697469616c20707269636560581b604482015260640162000485565b6001600160a01b0384166000908152600460208190526040909120015460ff161562000c4a5760405162461bcd60e51b815260206004820152601760248201527f546f6b656e20616c726561647920737570706f72746564000000000000000000604482015260640162000485565b6040805160a0810182526001600160a01b038681168083526020808401888152848601889052606085018790526001608086018190526000938452600490925294909120835181546001600160a01b03191693169290921782559251919290919082019062000cba9082620029a3565b506040820151600282019062000cd19082620029a3565b50606082015160038201556080909101516004909101805460ff1916911515919091179055600580546001810182556000919091527f036b6384b5eca791c62761152d0c79bb0604c104a5fb6f4eb0703f3154bb3db00180546001600160a01b0319166001600160a01b0386169081179091556040517ff711540f34d729d036431d051198fe18d9fd348ad9aa68dfc8b27d5c5f2771079062000d7a9086908690869062002a6f565b60405180910390a250505050565b6006546001600160a01b0316606060008080841562000e24576000859050600080826001600160a01b031663d015d86f6040518163ffffffff1660e01b8152600401600060405180830381865afa15801562000de8573d6000803e3d6000fd5b505050506040513d6000823e601f3d908101601f1916820160405262000e12919081019062002acc565b50939a50919850909650909450505050505b9091929394565b6000546001600160a01b0316331462000e585760405162461bcd60e51b8152600401620004859062002816565b6001600160a01b0381166000908152600460208190526040909120015460ff1662000e975760405162461bcd60e51b81526004016200048590620027b7565b6001600160a01b0381166000908152600460208190526040822001805460ff191690555b60055481101562000fd457816001600160a01b03166005828154811062000ee65762000ee6620027a1565b6000918252602090912001546001600160a01b03160362000fbf576005805462000f139060019062002b96565b8154811062000f265762000f26620027a1565b600091825260209091200154600580546001600160a01b03909216918390811062000f555762000f55620027a1565b9060005260206000200160006101000a8154816001600160a01b0302191690836001600160a01b03160217905550600580548062000f975762000f9762002bac565b600082815260209020810160001990810180546001600160a01b031916905501905562000fd4565b8062000fcb81620027fa565b91505062000ebb565b506040516001600160a01b038216907f4c910b69fe65a61f7531b9c5042b2329ca7179c77290aa7e2eb3afa3c8511fd390600090a250565b6000818152600260205260408120546001600160a01b0316906060908080808515620010b2576000869050806001600160a01b031663d015d86f6040518163ffffffff1660e01b8152600401600060405180830381865afa15801562001076573d6000803e3d6000fd5b505050506040513d6000823e601f3d908101601f19168201604052620010a0919081019062002acc565b949a5092985090965090945090925050505b91939550919395565b6000546001600160a01b03163314620010e85760405162461bcd60e51b8152600401620004859062002816565b6001600160a01b03831660009081526003602052604090205460ff166200114a5760405162461bcd60e51b8152602060048201526015602482015274496e76616c696420726f756e64206164647265737360581b604482015260640162000485565b6006546001600160a01b03848116911614620011a95760405162461bcd60e51b815260206004820152601860248201527f4e6f742063757272656e742061637469766520726f756e640000000000000000604482015260640162000485565b6000839050806001600160a01b03166322f3e2d46040518163ffffffff1660e01b8152600401602060405180830381865afa158015620011ed573d6000803e3d6000fd5b505050506040513d601f19601f8201168201806040525081019062001213919062002bc2565b8015620012825750806001600160a01b0316638d4e40836040518163ffffffff1660e01b8152600401602060405180830381865afa1580156200125a573d6000803e3d6000fd5b505050506040513d601f19601f8201168201806040525081019062001280919062002bc2565b155b620012c35760405162461bcd60e51b815260206004820152601060248201526f526f756e64206e6f742061637469766560801b604482015260640162000485565b6000816001600160a01b0316636fe8022c6040518163ffffffff1660e01b815260040160a060405180830381865afa15801562001304573d6000803e3d6000fd5b505050506040513d601f19601f820116820180604052508101906200132a919062002be0565b945050505050806200137f5760405162461bcd60e51b815260206004820152601860248201527f526f756e642074696d65206e6f7420656e646564207965740000000000000000604482015260640162000485565b60005b8381101562001462576000858583818110620013a257620013a2620027a1565b905060400201803603810190620013ba919062002c2c565b80516001600160a01b03166000908152600460208190526040909120015490915060ff16156200144c5780516001600160a01b0390811660009081526004602090815260408083206003908101548387018051885188168752958490209092019490945585519051825185815293840152815193941692600080516020620050f08339815191529281900390910190a2505b50806200145981620027fa565b91505062001382565b5060405163531c04af60e11b81526001600160a01b0383169063a638095e9062001493908790879060040162002c89565b600060405180830381600087803b158015620014ae57600080fd5b505af1158015620014c3573d6000803e3d6000fd5b50505050816001600160a01b031663361bc1b56040518163ffffffff1660e01b8152600401602060405180830381865afa15801562001506573d6000803e3d6000fd5b505050506040513d601f19601f820116820180604052508101906200152c919062002ce6565b6001600160a01b0316856001600160a01b03167fa9bd5492c2625576549717f92067040ac2d73d543e19a2fe2125588b3ec3a54760405160405180910390a35050600680546001600160a01b0319169055505050565b6000546001600160a01b03163314620015af5760405162461bcd60e51b8152600401620004859062002816565b6001600160a01b03831660009081526003602052604090205460ff16620016115760405162461bcd60e51b8152602060048201526015602482015274496e76616c696420726f756e64206164647265737360581b604482015260640162000485565b6000839050806001600160a01b03166322f3e2d46040518163ffffffff1660e01b8152600401602060405180830381865afa15801562001655573d6000803e3d6000fd5b505050506040513d601f19601f820116820180604052508101906200167b919062002bc2565b8015620016ea5750806001600160a01b0316638d4e40836040518163ffffffff1660e01b8152600401602060405180830381865afa158015620016c2573d6000803e3d6000fd5b505050506040513d601f19601f82011682018060405250810190620016e8919062002bc2565b155b6200172b5760405162461bcd60e51b815260206004820152601060248201526f526f756e64206e6f742061637469766560801b604482015260640162000485565b60005b828110156200180e5760008484838181106200174e576200174e620027a1565b90506040020180360381019062001766919062002c2c565b80516001600160a01b03166000908152600460208190526040909120015490915060ff1615620017f85780516001600160a01b0390811660009081526004602090815260408083206003908101548387018051885188168752958490209092019490945585519051825185815293840152815193941692600080516020620050f08339815191529281900390910190a2505b50806200180581620027fa565b9150506200172e565b5060405163531c04af60e11b81526001600160a01b0382169063a638095e906200183f908690869060040162002c89565b600060405180830381600087803b1580156200185a57600080fd5b505af11580156200186f573d6000803e3d6000fd5b50505050806001600160a01b031663361bc1b56040518163ffffffff1660e01b8152600401602060405180830381865afa158015620018b2573d6000803e3d6000fd5b505050506040513d601f19601f82011682018060405250810190620018d8919062002ce6565b6001600160a01b0316846001600160a01b03167fa9bd5492c2625576549717f92067040ac2d73d543e19a2fe2125588b3ec3a54760405160405180910390a36006546001600160a01b038086169116036200193e57600680546001600160a01b03191690555b50505050565b600581815481106200195557600080fd5b6000918252602090912001546001600160a01b0316905081565b6000546001600160a01b031633146200199c5760405162461bcd60e51b8152600401620004859062002816565b6001600160a01b038116620019e85760405162461bcd60e51b815260206004820152601160248201527024b73b30b634b2103732bb9037bbb732b960791b604482015260640162000485565b600080546001600160a01b0319166001600160a01b0392909216919091179055565b6001600160a01b03811660009081526004602081905260408220015460ff1662001a485760405162461bcd60e51b81526004016200048590620027b7565b506001600160a01b031660009081526004602052604090206003015490565b6005546060906000906001600160401b0381111562001a8a5762001a8a62002280565b60405190808252806020026020018201604052801562001ac757816020015b62001ab36200215a565b81526020019060019003908162001aa95790505b5090506000805b60055481101562001cd9576000600460006005848154811062001af55762001af5620027a1565b60009182526020808320909101546001600160a01b039081168452838201949094526040928301909120825160a08101909352805490931682526001830180549293929184019162001b479062002914565b80601f016020809104026020016040519081016040528092919081815260200182805462001b759062002914565b801562001bc65780601f1062001b9a5761010080835404028352916020019162001bc6565b820191906000526020600020905b81548152906001019060200180831162001ba857829003601f168201915b5050505050815260200160028201805462001be19062002914565b80601f016020809104026020016040519081016040528092919081815260200182805462001c0f9062002914565b801562001c605780601f1062001c345761010080835404028352916020019162001c60565b820191906000526020600020905b81548152906001019060200180831162001c4257829003601f168201915b50505091835250506003820154602082015260049091015460ff16151560409091015260808101519091501562001cc3578084848151811062001ca75762001ca7620027a1565b6020026020010181905250828062001cbf90620027fa565b9350505b508062001cd081620027fa565b91505062001ace565b506000816001600160401b0381111562001cf75762001cf762002280565b60405190808252806020026020018201604052801562001d3457816020015b62001d206200215a565b81526020019060019003908162001d165790505b50905060005b8281101562001d965783818151811062001d585762001d58620027a1565b602002602001015182828151811062001d755762001d75620027a1565b6020026020010181905250808062001d8d90620027fa565b91505062001d3a565b509392505050565b6000546001600160a01b0316331462001dcb5760405162461bcd60e51b8152600401620004859062002816565b6001600160a01b0382166000908152600460208190526040909120015460ff1662001e0a5760405162461bcd60e51b81526004016200048590620027b7565b6000811162001e4c5760405162461bcd60e51b815260206004820152600d60248201526c496e76616c696420707269636560981b604482015260640162000485565b6001600160a01b03821660008181526004602090815260409182902060030180549085905582518181529182018590529291600080516020620050f0833981519152910160405180910390a2505050565b6000546001600160a01b0316331462001eca5760405162461bcd60e51b8152600401620004859062002816565b82811462001f145760405162461bcd60e51b8152602060048201526016602482015275082e4e4c2f2e640d8cadccee8d040dad2e6dac2e8c6d60531b604482015260640162000485565b60005b8381101562002145576004600086868481811062001f395762001f39620027a1565b905060200201602081019062001f509190620023de565b6001600160a01b0316815260208101919091526040016000206004015460ff1662001f8f5760405162461bcd60e51b81526004016200048590620027b7565b600083838381811062001fa65762001fa6620027a1565b905060200201351162001fec5760405162461bcd60e51b815260206004820152600d60248201526c496e76616c696420707269636560981b604482015260640162000485565b600060046000878785818110620020075762002007620027a1565b90506020020160208101906200201e9190620023de565b6001600160a01b03166001600160a01b03168152602001908152602001600020600301549050838383818110620020595762002059620027a1565b9050602002013560046000888886818110620020795762002079620027a1565b9050602002016020810190620020909190620023de565b6001600160a01b03168152602081019190915260400160002060030155858583818110620020c257620020c2620027a1565b9050602002016020810190620020d99190620023de565b6001600160a01b0316600080516020620050f083398151915282868686818110620021085762002108620027a1565b9050602002013560405162002127929190918252602082015260400190565b60405180910390a250806200213c81620027fa565b91505062001f17565b5050505050565b6123e98062002d0783390190565b6040518060a0016040528060006001600160a01b031681526020016060815260200160608152602001600081526020016000151581525090565b60008083601f840112620021a757600080fd5b5081356001600160401b03811115620021bf57600080fd5b6020830191508360208260051b8501011115620021db57600080fd5b9250929050565b60008060208385031215620021f657600080fd5b82356001600160401b038111156200220d57600080fd5b6200221b8582860162002194565b90969095509350505050565b600081518084526020808501945080840160005b8381101562002259578151875295820195908201906001016200223b565b509495945050505050565b60208152600062002279602083018462002227565b9392505050565b634e487b7160e01b600052604160045260246000fd5b604051601f8201601f191681016001600160401b0381118282101715620022c157620022c162002280565b604052919050565b60006001600160401b03821115620022e557620022e562002280565b50601f01601f191660200190565b600082601f8301126200230557600080fd5b81356200231c6200231682620022c9565b62002296565b8181528460208386010111156200233257600080fd5b816020850160208301376000918101602001919091529392505050565b600080600080606085870312156200236657600080fd5b84356001600160401b03808211156200237e57600080fd5b6200238c88838901620022f3565b9550602087013594506040870135915080821115620023aa57600080fd5b50620023b98782880162002194565b95989497509550505050565b6001600160a01b0381168114620023db57600080fd5b50565b600060208284031215620023f157600080fd5b81356200227981620023c5565b60005b838110156200241b57818101518382015260200162002401565b50506000910152565b600081518084526200243e816020860160208601620023fe565b601f01601f19169290920160200192915050565b6001600160a01b038616815260a060208201819052600090620024789083018762002424565b82810360408401526200248c818762002424565b606084019590955250509015156080909101529392505050565b60008060008060808587031215620024bd57600080fd5b8435620024ca81620023c5565b935060208501356001600160401b0380821115620024e757600080fd5b620024f588838901620022f3565b945060408701359150808211156200250c57600080fd5b506200251b87828801620022f3565b949793965093946060013593505050565b6001600160a01b038616815260a060208201819052600090620025529083018762002424565b941515604083015250606081019290925260809091015292915050565b6000602082840312156200258257600080fd5b5035919050565b600060018060a01b03808916835260c06020840152620025ad60c084018962002424565b9615156040840152941515606083015250608081019290925290911660a09091015292915050565b600080600060408486031215620025eb57600080fd5b8335620025f881620023c5565b925060208401356001600160401b03808211156200261557600080fd5b818601915086601f8301126200262a57600080fd5b8135818111156200263a57600080fd5b8760208260061b85010111156200265057600080fd5b6020830194508093505050509250925092565b60006020808301818452808551808352604092508286019150828160051b87010184880160005b838110156200270d57888303603f19018552815180516001600160a01b031684528781015160a089860181905290620026c68287018262002424565b9150508782015185820389870152620026e0828262002424565b6060848101519088015260809384015115159390960192909252505093860193908601906001016200268a565b509098975050505050505050565b600080604083850312156200272f57600080fd5b82356200273c81620023c5565b946020939093013593505050565b600080600080604085870312156200276157600080fd5b84356001600160401b03808211156200277957600080fd5b620027878883890162002194565b90965094506020870135915080821115620023aa57600080fd5b634e487b7160e01b600052603260045260246000fd5b602080825260139082015272151bdad95b881b9bdd081cdd5c1c1bdc9d1959606a1b604082015260600190565b634e487b7160e01b600052601160045260246000fd5b6000600182016200280f576200280f620027e4565b5060010190565b60208082526013908201527213db9b1e481bdddb995c8818d85b8818d85b1b606a1b604082015260600190565b838152600083516200285d816020850160208801620023fe565b60209201918201929092526040019392505050565b60808152600062002887608083018762002424565b6020838101879052838203604085015285518083528682019282019060005b81811015620028cd5784516001600160a01b031683529383019391830191600101620028a6565b50508481036060860152620028e3818762002227565b9998505050505050505050565b60408152600062002905604083018562002424565b90508260208301529392505050565b600181811c908216806200292957607f821691505b6020821081036200294a57634e487b7160e01b600052602260045260246000fd5b50919050565b601f8211156200299e57600081815260208120601f850160051c81016020861015620029795750805b601f850160051c820191505b818110156200299a5782815560010162002985565b5050505b505050565b81516001600160401b03811115620029bf57620029bf62002280565b620029d781620029d0845462002914565b8462002950565b602080601f83116001811462002a0f5760008415620029f65750858301515b600019600386901b1c1916600185901b1785556200299a565b600085815260208120601f198616915b8281101562002a405788860151825594840194600190910190840162002a1f565b508582101562002a5f5787850151600019600388901b60f8161c191681555b5050505050600190811b01905550565b60608152600062002a84606083018662002424565b828103602084015262002a98818662002424565b915050826040830152949350505050565b8051801515811462002aba57600080fd5b919050565b805162002aba81620023c5565b60008060008060008060c0878903121562002ae657600080fd5b86516001600160401b0381111562002afd57600080fd5b8701601f8101891362002b0f57600080fd5b805162002b206200231682620022c9565b8181528a602083850101111562002b3657600080fd5b62002b49826020830160208601620023fe565b975062002b5c9150506020880162002aa9565b945062002b6c6040880162002aa9565b9350606087015192506080870151915062002b8a60a0880162002abf565b90509295509295509295565b818103818111156200051b576200051b620027e4565b634e487b7160e01b600052603160045260246000fd5b60006020828403121562002bd557600080fd5b620022798262002aa9565b600080600080600060a0868803121562002bf957600080fd5b8551945060208601519350604086015192506060860151915062002c206080870162002aa9565b90509295509295909350565b60006040828403121562002c3f57600080fd5b604051604081018181106001600160401b038211171562002c645762002c6462002280565b604052823562002c7481620023c5565b81526020928301359281019290925250919050565b6020808252818101839052600090604080840186845b8781101562002cd957813562002cb581620023c5565b6001600160a01b031683528185013585840152918301919083019060010162002c9f565b5090979650505050505050565b60006020828403121562002cf957600080fd5b81516200227981620023c556fe6101006040523480156200001257600080fd5b50604051620023e9380380620023e983398101604081905262000035916200051b565b80518251146200008c5760405162461bcd60e51b815260206004820152601660248201527f417272617973206c656e677468206d69736d617463680000000000000000000060448201526064015b60405180910390fd5b6001825111620000df5760405162461bcd60e51b815260206004820152601660248201527f4e656564206174206c65617374203220746f6b656e7300000000000000000000604482015260640162000083565b60008311620001315760405162461bcd60e51b815260206004820152601f60248201527f4475726174696f6e206d7573742062652067726561746572207468616e203000604482015260640162000083565b336080526000620001438582620006b7565b504260a081905260c08490526200015c90849062000799565b60e0526006805460ff1916600117905560005b8251811015620003b55760006001600160a01b0316838281518110620001995762000199620007b5565b60200260200101516001600160a01b031603620001f95760405162461bcd60e51b815260206004820152601560248201527f496e76616c696420746f6b656e20616464726573730000000000000000000000604482015260640162000083565b6000828281518110620002105762000210620007b5565b602002602001015111620002675760405162461bcd60e51b815260206004820152601560248201527f496e76616c696420696e697469616c2070726963650000000000000000000000604482015260640162000083565b60016000848381518110620002805762000280620007b5565b60200260200101516001600160a01b03166001600160a01b0316815260200190815260200160002054600014620002ec5760405162461bcd60e51b815260206004820152600f60248201526e223ab83634b1b0ba32903a37b5b2b760891b604482015260640162000083565b818181518110620003015762000301620007b5565b602002602001015160016000858481518110620003225762000322620007b5565b60200260200101516001600160a01b03166001600160a01b03168152602001908152602001600020819055506004838281518110620003655762000365620007b5565b60209081029190910181015182546001810184556000938452919092200180546001600160a01b0319166001600160a01b0390921691909117905580620003ac81620007cb565b9150506200016f565b5050505050620007e7565b634e487b7160e01b600052604160045260246000fd5b604051601f8201601f191681016001600160401b0381118282101715620004015762000401620003c0565b604052919050565b60006001600160401b03821115620004255762000425620003c0565b5060051b60200190565b600082601f8301126200044157600080fd5b815160206200045a620004548362000409565b620003d6565b82815260059290921b840181019181810190868411156200047a57600080fd5b8286015b84811015620004ae5780516001600160a01b0381168114620004a05760008081fd5b83529183019183016200047e565b509695505050505050565b600082601f830112620004cb57600080fd5b81516020620004de620004548362000409565b82815260059290921b84018101918181019086841115620004fe57600080fd5b8286015b84811015620004ae578051835291830191830162000502565b600080600080608085870312156200053257600080fd5b84516001600160401b03808211156200054a57600080fd5b818701915087601f8301126200055f57600080fd5b815181811115620005745762000574620003c0565b60206200058a601f8301601f19168201620003d6565b8281528a828487010111156200059f57600080fd5b60005b83811015620005bf578581018301518282018401528201620005a2565b50600092810182019290925288015160408901519197509550915080821115620005e857600080fd5b620005f6888389016200042f565b935060608701519150808211156200060d57600080fd5b506200061c87828801620004b9565b91505092959194509250565b600181811c908216806200063d57607f821691505b6020821081036200065e57634e487b7160e01b600052602260045260246000fd5b50919050565b601f821115620006b257600081815260208120601f850160051c810160208610156200068d5750805b601f850160051c820191505b81811015620006ae5782815560010162000699565b5050505b505050565b81516001600160401b03811115620006d357620006d3620003c0565b620006eb81620006e4845462000628565b8462000664565b602080601f8311600181146200072357600084156200070a5750858301515b600019600386901b1c1916600185901b178555620006ae565b600085815260208120601f198616915b82811015620007545788860151825594840194600190910190840162000733565b5085821015620007735787850151600019600388901b60f8161c191681555b5050505050600190811b01905550565b634e487b7160e01b600052601160045260246000fd5b80820180821115620007af57620007af62000783565b92915050565b634e487b7160e01b600052603260045260246000fd5b600060018201620007e057620007e062000783565b5060010190565b60805160a05160c05160e051611b8962000860600039600081816102f90152818161067c01528181610c1601528181610c6701528181610c9701528181610dd201526112e20152600081816101bd0152610c370152600081816104040152610bf501526000818161056d0152610cf70152611b896000f3fe6080604052600436106101665760003560e01c80636fe8022c116100d1578063a638095e1161008a578063c38687c011610064578063c38687c014610523578063c45a01551461055b578063d015d86f1461058f578063fd92649f146105b657600080fd5b8063a638095e146104a8578063ad79d884146104c8578063b0cc896c146104f657600080fd5b80636fe8022c146103b357806378e97925146103f25780638d4e4083146104265780639903e1be146104455780639a0ba2ea1461045b578063a41fe82c1461047b57600080fd5b806322f3e2d41161012357806322f3e2d4146102bd5780633197cbb6146102e7578063361bc1b51461031b578063398ab9a7146103595780633f47666b1461036f5780636c74ad851461039357600080fd5b806301fd050d1461016b5780630474a68e146101965780630fb5a6b4146101ab57806314cbd993146101ed5780631f69565f1461020f57806322af00fa14610273575b600080fd5b34801561017757600080fd5b506101806105cb565b60405161018d91906117ab565b60405180910390f35b6101a96101a43660046117e1565b610659565b005b3480156101b757600080fd5b506101df7f000000000000000000000000000000000000000000000000000000000000000081565b60405190815260200161018d565b3480156101f957600080fd5b50610202610908565b60405161018d9190611840565b34801561021b57600080fd5b5061025661022a3660046117e1565b6001600160a01b0316600090815260016020908152604080832054600290925290912054909182151590565b60408051938452602084019290925215159082015260600161018d565b34801561027f57600080fd5b5061029361028e366004611853565b61096a565b604080516001600160a01b039485168152602081019390935292169181019190915260600161018d565b3480156102c957600080fd5b506006546102d79060ff1681565b604051901515815260200161018d565b3480156102f357600080fd5b506101df7f000000000000000000000000000000000000000000000000000000000000000081565b34801561032757600080fd5b50600654610341906201000090046001600160a01b031681565b6040516001600160a01b03909116815260200161018d565b34801561036557600080fd5b506101df60075481565b34801561037b57600080fd5b506103846109a8565b60405161018d9392919061189c565b34801561039f57600080fd5b506101df6103ae3660046118df565b610bc6565b3480156103bf57600080fd5b506103c8610bf3565b6040805195865260208601949094529284019190915260608301521515608082015260a00161018d565b3480156103fe57600080fd5b506101df7f000000000000000000000000000000000000000000000000000000000000000081565b34801561043257600080fd5b506006546102d790610100900460ff1681565b34801561045157600080fd5b506101df60085481565b34801561046757600080fd5b50610341610476366004611853565b610cc2565b34801561048757600080fd5b506101df6104963660046117e1565b60026020526000908152604090205481565b3480156104b457600080fd5b506101a96104c3366004611912565b610cec565b3480156104d457600080fd5b506104e86104e33660046117e1565b61109f565b60405161018d929190611987565b34801561050257600080fd5b506101df6105113660046117e1565b60016020526000908152604090205481565b34801561052f57600080fd5b506101df61053e3660046118df565b600360209081526000928352604080842090915290825290205481565b34801561056757600080fd5b506103417f000000000000000000000000000000000000000000000000000000000000000081565b34801561059b57600080fd5b506105a4611239565b60405161018d969594939291906119b5565b3480156105c257600080fd5b506104e8611333565b600080546105d8906119fa565b80601f0160208091040260200160405190810160405280929190818152602001828054610604906119fa565b80156106515780601f1061062657610100808354040283529160200191610651565b820191906000526020600020905b81548152906001019060200180831161063457829003601f168201915b505050505081565b60065460ff1680156106735750600654610100900460ff16155b801561069f57507f00000000000000000000000000000000000000000000000000000000000000004211155b6106e35760405162461bcd60e51b815260206004820152601060248201526f526f756e64206e6f742061637469766560801b60448201526064015b60405180910390fd5b6000341161073d5760405162461bcd60e51b815260206004820152602160248201527f42657420616d6f756e74206d7573742062652067726561746572207468616e206044820152600360fc1b60648201526084016106da565b6001600160a01b0381166000908152600160205260409020546107995760405162461bcd60e51b8152602060048201526014602482015273151bdad95b881b9bdd081c9959da5cdd195c995960621b60448201526064016106da565b3360009081526003602090815260408083206001600160a01b0385168452909152812080543492906107cc908490611a4a565b90915550506001600160a01b038116600090815260026020526040812080543492906107f9908490611a4a565b9091555050604080516060810182526001600160a01b0380841680835234602084018181523385870181815260058054600181018255600091909152965160039097027f036b6384b5eca791c62761152d0c79bb0604c104a5fb6f4eb0703f3154bb3db0810180549888166001600160a01b0319998a1617905592517f036b6384b5eca791c62761152d0c79bb0604c104a5fb6f4eb0703f3154bb3db1840155517f036b6384b5eca791c62761152d0c79bb0604c104a5fb6f4eb0703f3154bb3db2909201805492909516919095161790925592517f3fe3739e8f82288ea9b537327542d88a4989dfc21c88c5c0c9261a4933520291916108fd9190815260200190565b60405180910390a350565b6060600480548060200260200160405190810160405280929190818152602001828054801561096057602002820191906000526020600020905b81546001600160a01b03168152600190910190602001808311610942575b5050505050905090565b6005818154811061097a57600080fd5b60009182526020909120600390910201805460018201546002909201546001600160a01b0391821693501683565b606080606060048054905067ffffffffffffffff8111156109cb576109cb611a5d565b6040519080825280602002602001820160405280156109f4578160200160208202803683370190505b5060045490935067ffffffffffffffff811115610a1357610a13611a5d565b604051908082528060200260200182016040528015610a3c578160200160208202803683370190505b5060045490925067ffffffffffffffff811115610a5b57610a5b611a5d565b604051908082528060200260200182016040528015610a84578160200160208202803683370190505b50905060005b600454811015610bc05760048181548110610aa757610aa7611a73565b9060005260206000200160009054906101000a90046001600160a01b0316848281518110610ad757610ad7611a73565b60200260200101906001600160a01b031690816001600160a01b0316815250506001600060048381548110610b0e57610b0e611a73565b60009182526020808320909101546001600160a01b031683528201929092526040019020548351849083908110610b4757610b47611a73565b6020026020010181815250506002600060048381548110610b6a57610b6a611a73565b60009182526020808320909101546001600160a01b031683528201929092526040019020548251839083908110610ba357610ba3611a73565b602090810291909101015280610bb881611a89565b915050610a8a565b50909192565b6001600160a01b038083166000908152600360209081526040808320938516835292905220545b92915050565b7f00000000000000000000000000000000000000000000000000000000000000007f00000000000000000000000000000000000000000000000000000000000000007f000000000000000000000000000000000000000000000000000000000000000060008042841115610c9057610c8b427f0000000000000000000000000000000000000000000000000000000000000000611aa2565b610c93565b60005b91507f000000000000000000000000000000000000000000000000000000000000000042101590509091929394565b60048181548110610cd257600080fd5b6000918252602090912001546001600160a01b0316905081565b336001600160a01b037f00000000000000000000000000000000000000000000000000000000000000001614610d5c5760405162461bcd60e51b815260206004820152601560248201527413db9b1e48199858dd1bdc9e4818d85b8818d85b1b605a1b60448201526064016106da565b60065460ff168015610d765750600654610100900460ff16155b610dd05760405162461bcd60e51b815260206004820152602560248201527f526f756e64206e6f7420616374697665206f7220616c72656164792066696e616044820152641b1a5e995960da1b60648201526084016106da565b7f0000000000000000000000000000000000000000000000000000000000000000421015610e365760405162461bcd60e51b8152602060048201526013602482015272149bdd5b99081b9bdd08195b991959081e595d606a1b60448201526064016106da565b6004548114610e875760405162461bcd60e51b815260206004820152601960248201527f496e76616c69642070726963652064617461206c656e6774680000000000000060448201526064016106da565b60008060005b83811015610f9a576000858583818110610ea957610ea9611a73565b905060400201803603810190610ebf9190611ab5565b80516001600160a01b0316600090815260016020526040902054909150610f1f5760405162461bcd60e51b8152602060048201526014602482015273151bdad95b881b9bdd081c9959da5cdd195c995960621b60448201526064016106da565b80516001600160a01b031660009081526001602090815260409091205490820151811015610f8557600081828460200151610f5a9190611aa2565b610f6690612710611b1a565b610f709190611b31565b905085811115610f835782519095509350845b505b50508080610f9290611a89565b915050610e8d565b506001600160a01b038116610ffb5760405162461bcd60e51b815260206004820152602160248201527f4e6f20746f6b656e2068616420706f73697469766520706572666f726d616e636044820152606560f81b60648201526084016106da565b60068054610100610100600160b01b0319909116620100006001600160a01b03858116820261ff001916929092179290921792839055476007559104166000908152600260205260409020546008556110526114a9565b600654604051838152620100009091046001600160a01b0316907fc8404bd5e2bf0c0d9461811a6e7cfae92b0d57217d8dd9c212dc145392a922fd9060200160405180910390a250505050565b600454606090819067ffffffffffffffff8111156110bf576110bf611a5d565b6040519080825280602002602001820160405280156110e8578160200160208202803683370190505b5060045490925067ffffffffffffffff81111561110757611107611a5d565b604051908082528060200260200182016040528015611130578160200160208202803683370190505b50905060005b600454811015611233576004818154811061115357611153611a73565b9060005260206000200160009054906101000a90046001600160a01b031683828151811061118357611183611a73565b60200260200101906001600160a01b031690816001600160a01b03168152505060036000856001600160a01b03166001600160a01b031681526020019081526020016000206000600483815481106111dd576111dd611a73565b60009182526020808320909101546001600160a01b03168352820192909252604001902054825183908390811061121657611216611a73565b60209081029190910101528061122b81611a89565b915050611136565b50915091565b6060600080600080600080805461124f906119fa565b80601f016020809104026020016040519081016040528092919081815260200182805461127b906119fa565b80156112c85780601f1061129d576101008083540402835291602001916112c8565b820191906000526020600020905b8154815290600101906020018083116112ab57829003601f168201915b50506006549399505060ff909216915050801561130557507f00000000000000000000000000000000000000000000000000000000000000004211155b60065460045497989197610100820460ff16975095504794506201000090046001600160a01b031692509050565b600454606090819067ffffffffffffffff81111561135357611353611a5d565b60405190808252806020026020018201604052801561137c578160200160208202803683370190505b5060045490925067ffffffffffffffff81111561139b5761139b611a5d565b6040519080825280602002602001820160405280156113c4578160200160208202803683370190505b50905060005b6004548110156114a457600481815481106113e7576113e7611a73565b9060005260206000200160009054906101000a90046001600160a01b031683828151811061141757611417611a73565b60200260200101906001600160a01b031690816001600160a01b031681525050600260006004838154811061144e5761144e611a73565b60009182526020808320909101546001600160a01b03168352820192909252604001902054825183908390811061148757611487611a73565b60209081029190910101528061149c81611a89565b9150506113ca565b509091565b6008546000036114b557565b60055460009067ffffffffffffffff8111156114d3576114d3611a5d565b6040519080825280602002602001820160405280156114fc578160200160208202803683370190505b5090506000805b6005548110156117605760006005828154811061152257611522611a73565b600091825260209182902060408051606081018252600390930290910180546001600160a01b039081168085526001830154958501959095526002909101548116918301919091526006549193506201000090910416900361174d576000805b848110156115db5782604001516001600160a01b03168682815181106115aa576115aa611a73565b60200260200101516001600160a01b0316036115c957600191506115db565b806115d381611a89565b915050611582565b508061174b576040808301516001600160a01b03908116600090815260036020908152838220600654620100009004909316825291909152205480156117495760006008546007548361162e9190611b1a565b6116389190611b31565b9050836040015187878151811061165157611651611a73565b6001600160a01b03909216602092830291909101909101528561167381611a89565b604086810180516001600160a01b0390811660009081526003602090815284822060065462010000900484168352905283812081905591519251939a50909350169083908381818185875af1925050503d80600081146116ef576040519150601f19603f3d011682016040523d82523d6000602084013e6116f4565b606091505b5050905080156117465784604001516001600160a01b03167fb8e091d87f82e56d22276c9a0088ea5d6068e355383dc08b2721b7b6cb10e8458360405161173d91815260200190565b60405180910390a25b50505b505b505b508061175881611a89565b915050611503565b505050565b6000815180845260005b8181101561178b5760208185018101518683018201520161176f565b506000602082860101526020601f19601f83011685010191505092915050565b6020815260006117be6020830184611765565b9392505050565b80356001600160a01b03811681146117dc57600080fd5b919050565b6000602082840312156117f357600080fd5b6117be826117c5565b600081518084526020808501945080840160005b838110156118355781516001600160a01b031687529582019590820190600101611810565b509495945050505050565b6020815260006117be60208301846117fc565b60006020828403121561186557600080fd5b5035919050565b600081518084526020808501945080840160005b8381101561183557815187529582019590820190600101611880565b6060815260006118af60608301866117fc565b82810360208401526118c1818661186c565b905082810360408401526118d5818561186c565b9695505050505050565b600080604083850312156118f257600080fd5b6118fb836117c5565b9150611909602084016117c5565b90509250929050565b6000806020838503121561192557600080fd5b823567ffffffffffffffff8082111561193d57600080fd5b818501915085601f83011261195157600080fd5b81358181111561196057600080fd5b8660208260061b850101111561197557600080fd5b60209290920196919550909350505050565b60408152600061199a60408301856117fc565b82810360208401526119ac818561186c565b95945050505050565b60c0815260006119c860c0830189611765565b9615156020830152509315156040850152606084019290925260808301526001600160a01b031660a090910152919050565b600181811c90821680611a0e57607f821691505b602082108103611a2e57634e487b7160e01b600052602260045260246000fd5b50919050565b634e487b7160e01b600052601160045260246000fd5b80820180821115610bed57610bed611a34565b634e487b7160e01b600052604160045260246000fd5b634e487b7160e01b600052603260045260246000fd5b600060018201611a9b57611a9b611a34565b5060010190565b81810381811115610bed57610bed611a34565b600060408284031215611ac757600080fd5b6040516040810181811067ffffffffffffffff82111715611af857634e487b7160e01b600052604160045260246000fd5b604052611b04836117c5565b8152602083013560208201528091505092915050565b8082028115828204841417610bed57610bed611a34565b600082611b4e57634e487b7160e01b600052601260045260246000fd5b50049056fea2646970667358221220db1a978136f6ad380b84448b314e0cd51d72ea45b94e9853d4838e251f701dd064736f6c6343000814003362e2c9c75b287778c0b58f1c1d83fa8f9978a33848e0b423735fd44f48ebe3c1a264697066735822122055cac236076e3a838b181199e053f6d5bbdc2441c3146249a2fa96be2936587e64736f6c63430008140033",
  "linkReferences": {},
  "deployedLinkReferences": {}
}