{
  "_format": "hh-sol-artifact-1",
  "contractName": "RoundFactory",
  "sourceName": "contracts/RoundFactory.sol",
  "abi": [
    {
      "inputs": [
        {
          "internalType": "address",
          "name": "_owner",
          "type": "address"
        }
      ],
      "stateMutability": "nonpayable",
      "type": "constructor"
    },
    {
      "anonymous": false,
      "inputs": [
        {
          "indexed": true,
          "internalType": "uint256",
          "name": "roundIndex",
          "type": "uint256"
        },
        {
          "indexed": true,
          "internalType": "address",
          "name": "roundAddress",
          "type": "address"
        },
        {
          "indexed": false,
          "internalType": "string",
          "name": "roundName",
          "type": "string"
        }
      ],
      "name": "RoundCreated",
      "type": "event"
    },
    {
      "anonymous": false,
      "inputs": [
        {
          "indexed": true,
          "internalType": "address",
          "name": "roundAddress",
          "type": "address"
        },
        {
          "indexed": true,
          "internalType": "address",
          "name": "winningToken",
          "type": "address"
        }
      ],
      "name": "RoundFinalized",
      "type": "event"
    },
    {
      "anonymous": false,
      "inputs": [
        {
          "indexed": true,
          "internalType": "address",
          "name": "tokenAddress",
          "type": "address"
        },
        {
          "indexed": false,
          "internalType": "string",
          "name": "symbol",
          "type": "string"
        },
        {
          "indexed": false,
          "internalType": "string",
          "name": "name",
          "type": "string"
        }
      ],
      "name": "TokenAdded",
      "type": "event"
    },
    {
      "anonymous": false,
      "inputs": [
        {
          "indexed": true,
          "internalType": "address",
          "name": "roundAddress",
          "type": "address"
        },
        {
          "indexed": true,
          "internalType": "address",
          "name": "tokenAddress",
          "type": "address"
        },
        {
          "indexed": false,
          "internalType": "uint256",
          "name": "initialPrice",
          "type": "uint256"
        }
      ],
      "name": "TokenRegisteredInRound",
      "type": "event"
    },
    {
      "anonymous": false,
      "inputs": [
        {
          "indexed": true,
          "internalType": "address",
          "name": "tokenAddress",
          "type": "address"
        }
      ],
      "name": "TokenRemoved",
      "type": "event"
    },
    {
      "inputs": [
        {
          "internalType": "address",
          "name": "tokenAddress",
          "type": "address"
        },
        {
          "internalType": "string",
          "name": "symbol",
          "type": "string"
        },
        {
          "internalType": "string",
          "name": "name",
          "type": "string"
        }
      ],
      "name": "addSupportedToken",
      "outputs": [],
      "stateMutability": "nonpayable",
      "type": "function"
    },
    {
      "inputs": [],
      "name": "canCreateNewRound",
      "outputs": [
        {
          "internalType": "bool",
          "name": "",
          "type": "bool"
        }
      ],
      "stateMutability": "view",
      "type": "function"
    },
    {
      "inputs": [
        {
          "internalType": "address",
          "name": "_newOwner",
          "type": "address"
        }
      ],
      "name": "changeOwner",
      "outputs": [],
      "stateMutability": "nonpayable",
      "type": "function"
    },
    {
      "inputs": [
        {
          "internalType": "string",
          "name": "roundName",
          "type": "string"
        },
        {
          "internalType": "uint256",
          "name": "duration",
          "type": "uint256"
        }
      ],
      "name": "createRound",
      "outputs": [
        {
          "internalType": "address",
          "name": "",
          "type": "address"
        }
      ],
      "stateMutability": "nonpayable",
      "type": "function"
    },
    {
      "inputs": [],
      "name": "currentActiveRound",
      "outputs": [
        {
          "internalType": "address",
          "name": "",
          "type": "address"
        }
      ],
      "stateMutability": "view",
      "type": "function"
    },
    {
      "inputs": [],
      "name": "currentRoundIndex",
      "outputs": [
        {
          "internalType": "uint256",
          "name": "",
          "type": "uint256"
        }
      ],
      "stateMutability": "view",
      "type": "function"
    },
    {
      "inputs": [
        {
          "internalType": "address",
          "name": "roundAddress",
          "type": "address"
        },
        {
          "components": [
            {
              "internalType": "address",
              "name": "tokenAddress",
              "type": "address"
            },
            {
              "internalType": "uint256",
              "name": "currentPrice",
              "type": "uint256"
            }
          ],
          "internalType": "struct Round.TokenPrice[]",
          "name": "currentPrices",
          "type": "tuple[]"
        }
      ],
      "name": "emergencyFinalizeRound",
      "outputs": [],
      "stateMutability": "nonpayable",
      "type": "function"
    },
    {
      "inputs": [
        {
          "internalType": "address",
          "name": "roundAddress",
          "type": "address"
        },
        {
          "components": [
            {
              "internalType": "address",
              "name": "tokenAddress",
              "type": "address"
            },
            {
              "internalType": "uint256",
              "name": "currentPrice",
              "type": "uint256"
            }
          ],
          "internalType": "struct Round.TokenPrice[]",
          "name": "currentPrices",
          "type": "tuple[]"
        }
      ],
      "name": "finalizeRound",
      "outputs": [],
      "stateMutability": "nonpayable",
      "type": "function"
    },
    {
      "inputs": [],
      "name": "getCurrentRoundInfo",
      "outputs": [
        {
          "internalType": "address",
          "name": "roundAddress",
          "type": "address"
        },
        {
          "internalType": "string",
          "name": "roundName",
          "type": "string"
        },
        {
          "internalType": "bool",
          "name": "isActive",
          "type": "bool"
        },
        {
          "internalType": "uint256",
          "name": "tokenCount",
          "type": "uint256"
        },
        {
          "internalType": "uint256",
          "name": "totalPrizePool",
          "type": "uint256"
        }
      ],
      "stateMutability": "view",
      "type": "function"
    },
    {
      "inputs": [
        {
          "internalType": "uint256",
          "name": "roundIndex",
          "type": "uint256"
        }
      ],
      "name": "getRoundInfo",
      "outputs": [
        {
          "internalType": "address",
          "name": "roundAddress",
          "type": "address"
        },
        {
          "internalType": "string",
          "name": "roundName",
          "type": "string"
        },
        {
          "internalType": "bool",
          "name": "isActive",
          "type": "bool"
        },
        {
          "internalType": "bool",
          "name": "isFinalized",
          "type": "bool"
        },
        {
          "internalType": "uint256",
          "name": "totalPrizePool",
          "type": "uint256"
        },
        {
          "internalType": "address",
          "name": "winningToken",
          "type": "address"
        }
      ],
      "stateMutability": "view",
      "type": "function"
    },
    {
      "inputs": [],
      "name": "getSupportedTokens",
      "outputs": [
        {
          "components": [
            {
              "internalType": "address",
              "name": "tokenAddress",
              "type": "address"
            },
            {
              "internalType": "string",
              "name": "symbol",
              "type": "string"
            },
            {
              "internalType": "string",
              "name": "name",
              "type": "string"
            },
            {
              "internalType": "bool",
              "name": "isActive",
              "type": "bool"
            }
          ],
          "internalType": "struct RoundFactory.TokenInfo[]",
          "name": "",
          "type": "tuple[]"
        }
      ],
      "stateMutability": "view",
      "type": "function"
    },
    {
      "inputs": [
        {
          "internalType": "address",
          "name": "",
          "type": "address"
        }
      ],
      "name": "isValidRound",
      "outputs": [
        {
          "internalType": "bool",
          "name": "",
          "type": "bool"
        }
      ],
      "stateMutability": "view",
      "type": "function"
    },
    {
      "inputs": [],
      "name": "owner",
      "outputs": [
        {
          "internalType": "address",
          "name": "",
          "type": "address"
        }
      ],
      "stateMutability": "view",
      "type": "function"
    },
    {
      "inputs": [
        {
          "internalType": "address",
          "name": "roundAddress",
          "type": "address"
        },
        {
          "internalType": "address[]",
          "name": "tokenAddresses",
          "type": "address[]"
        },
        {
          "internalType": "uint256[]",
          "name": "initialPrices",
          "type": "uint256[]"
        }
      ],
      "name": "registerTokensInRound",
      "outputs": [],
      "stateMutability": "nonpayable",
      "type": "function"
    },
    {
      "inputs": [
        {
          "internalType": "address",
          "name": "tokenAddress",
          "type": "address"
        }
      ],
      "name": "removeSupportedToken",
      "outputs": [],
      "stateMutability": "nonpayable",
      "type": "function"
    },
    {
      "inputs": [
        {
          "internalType": "uint256",
          "name": "",
          "type": "uint256"
        }
      ],
      "name": "rounds",
      "outputs": [
        {
          "internalType": "address",
          "name": "",
          "type": "address"
        }
      ],
      "stateMutability": "view",
      "type": "function"
    },
    {
      "inputs": [
        {
          "internalType": "address",
          "name": "",
          "type": "address"
        }
      ],
      "name": "supportedTokens",
      "outputs": [
        {
          "internalType": "address",
          "name": "tokenAddress",
          "type": "address"
        },
        {
          "internalType": "string",
          "name": "symbol",
          "type": "string"
        },
        {
          "internalType": "string",
          "name": "name",
          "type": "string"
        },
        {
          "internalType": "bool",
          "name": "isActive",
          "type": "bool"
        }
      ],
      "stateMutability": "view",
      "type": "function"
    },
    {
      "inputs": [
        {
          "internalType": "uint256",
          "name": "",
          "type": "uint256"
        }
      ],
      "name": "tokenList",
      "outputs": [
        {
          "internalType": "address",
          "name": "",
          "type": "address"
        }
      ],
      "stateMutability": "view",
      "type": "function"
    }
  ],
  "bytecode": "0x60806040523480156200001157600080fd5b50604051620044d7380380620044d783398101604081905262000034916200005a565b600080546001600160a01b0319166001600160a01b03929092169190911790556200008c565b6000602082840312156200006d57600080fd5b81516001600160a01b03811681146200008557600080fd5b9392505050565b61443b806200009c6000396000f3fe60806040523480156200001157600080fd5b50600436106200012d5760003560e01c80638c65c81f11620000af5780639675f7bf116200007a5780639675f7bf14620002c15780639ead722214620002d8578063a6f9dae114620002ef578063d3c7c2c71462000306578063effa5699146200031f57600080fd5b80638c65c81f14620002535780638da5cb5b146200027f5780639550af0614620002935780639591e26014620002aa57600080fd5b806368c4ac2611620000fc57806368c4ac2614620001b4578063747dff4214620001dd5780637631919014620001fa5780637a05a2f1146200021157806388c3ffb0146200022857600080fd5b806315b2049a1462000132578063181d9574146200014b5780632819829d146200017c5780636896ef4b146200019b575b600080fd5b620001496200014336600462001c09565b62000345565b005b6006546200015f906001600160a01b031681565b6040516001600160a01b0390911681526020015b60405180910390f35b6006546001600160a01b0316155b604051901515815260200162000173565b620001a560015481565b60405190815260200162000173565b620001cb620001c536600462001c95565b6200080d565b60405162000173949392919062001d10565b620001e762000963565b6040516200017395949392919062001d5e565b620001496200020b36600462001c95565b62000a06565b6200015f6200022236600462001e72565b62000c0b565b6200023f6200023936600462001ebb565b62000e54565b604051620001739695949392919062001ed5565b6200015f6200026436600462001ebb565b6002602052600090815260409020546001600160a01b031681565b6000546200015f906001600160a01b031681565b62000149620002a436600462001f21565b62000f03565b62000149620002bb36600462001f21565b62001298565b62000149620002d236600462001fb0565b6200152d565b6200015f620002e936600462001ebb565b62001743565b620001496200030036600462001c95565b6200176e565b6200031062001809565b6040516200017391906200202f565b6200018a6200033036600462001c95565b60036020526000908152604090205460ff1681565b6000546001600160a01b031633146200037b5760405162461bcd60e51b81526004016200037290620020de565b60405180910390fd5b6001600160a01b03851660009081526003602052604090205460ff16620003b65760405162461bcd60e51b815260040162000372906200210b565b6006546001600160a01b03868116911614620004105760405162461bcd60e51b8152602060048201526018602482015277139bdd0818dd5c9c995b9d081858dd1a5d99481c9bdd5b9960421b604482015260640162000372565b8281146200045a5760405162461bcd60e51b8152602060048201526016602482015275082e4e4c2f2e640d8cadccee8d040dad2e6dac2e8c6d60531b604482015260640162000372565b60018311620004a55760405162461bcd60e51b81526020600482015260166024820152754e656564206174206c65617374203220746f6b656e7360501b604482015260640162000372565b6000859050806001600160a01b03166322f3e2d46040518163ffffffff1660e01b8152600401602060405180830381865afa158015620004e9573d6000803e3d6000fd5b505050506040513d601f19601f820116820180604052508101906200050f919062002150565b80156200057e5750806001600160a01b0316638d4e40836040518163ffffffff1660e01b8152600401602060405180830381865afa15801562000556573d6000803e3d6000fd5b505050506040513d601f19601f820116820180604052508101906200057c919062002150565b155b6200059d5760405162461bcd60e51b815260040162000372906200216e565b60005b84811015620008045760046000878784818110620005c257620005c262002198565b9050602002016020810190620005d9919062001c95565b6001600160a01b0316815260208101919091526040016000206003015460ff166200063d5760405162461bcd60e51b8152602060048201526013602482015272151bdad95b881b9bdd081cdd5c1c1bdc9d1959606a1b604482015260640162000372565b600084848381811062000654576200065462002198565b9050602002013511620006a25760405162461bcd60e51b8152602060048201526015602482015274496e76616c696420696e697469616c20707269636560581b604482015260640162000372565b816001600160a01b03166302ca5994878784818110620006c657620006c662002198565b9050602002016020810190620006dd919062001c95565b868685818110620006f257620006f262002198565b6040516001600160e01b031960e087901b1681526001600160a01b0390941660048501526020029190910135602483015250604401600060405180830381600087803b1580156200074257600080fd5b505af115801562000757573d6000803e3d6000fd5b5050505085858281811062000770576200077062002198565b905060200201602081019062000787919062001c95565b6001600160a01b0316876001600160a01b03167f4ccdea86f2cfc9364b60bba87d8b9942117bb093913b8340d042f554cdba0fe9868685818110620007d057620007d062002198565b90506020020135604051620007e791815260200190565b60405180910390a380620007fb81620021c4565b915050620005a0565b50505050505050565b600460205260009081526040902080546001820180546001600160a01b0390921692916200083b90620021e0565b80601f01602080910402602001604051908101604052809291908181526020018280546200086990620021e0565b8015620008ba5780601f106200088e57610100808354040283529160200191620008ba565b820191906000526020600020905b8154815290600101906020018083116200089c57829003601f168201915b505050505090806002018054620008d190620021e0565b80601f0160208091040260200160405190810160405280929190818152602001828054620008ff90620021e0565b8015620009505780601f10620009245761010080835404028352916020019162000950565b820191906000526020600020905b8154815290600101906020018083116200093257829003601f168201915b5050506003909301549192505060ff1684565b6006546001600160a01b03166060600080808415620009ff576000859050600080826001600160a01b031663d015d86f6040518163ffffffff1660e01b8152600401600060405180830381865afa158015620009c3573d6000803e3d6000fd5b505050506040513d6000823e601f3d908101601f19168201604052620009ed919081019062002229565b50939a50919850909650909450505050505b9091929394565b6000546001600160a01b0316331462000a335760405162461bcd60e51b81526004016200037290620020de565b6001600160a01b03811660009081526004602052604090206003015460ff1662000a965760405162461bcd60e51b8152602060048201526013602482015272151bdad95b881b9bdd081cdd5c1c1bdc9d1959606a1b604482015260640162000372565b6001600160a01b0381166000908152600460205260408120600301805460ff191690555b60055481101562000bd357816001600160a01b03166005828154811062000ae55762000ae562002198565b6000918252602090912001546001600160a01b03160362000bbe576005805462000b1290600190620022f4565b8154811062000b255762000b2562002198565b600091825260209091200154600580546001600160a01b03909216918390811062000b545762000b5462002198565b9060005260206000200160006101000a8154816001600160a01b0302191690836001600160a01b03160217905550600580548062000b965762000b966200230a565b600082815260209020810160001990810180546001600160a01b031916905501905562000bd3565b8062000bca81620021c4565b91505062000aba565b506040516001600160a01b038216907f4c910b69fe65a61f7531b9c5042b2329ca7179c77290aa7e2eb3afa3c8511fd390600090a250565b600080546001600160a01b0316331462000c395760405162461bcd60e51b81526004016200037290620020de565b6006546001600160a01b03161562000c8a5760405162461bcd60e51b815260206004820152601360248201527241637469766520726f756e642065786973747360681b604482015260640162000372565b600083511162000cd35760405162461bcd60e51b8152602060048201526013602482015272149bdd5b99081b985b59481c995c5d5a5c9959606a1b604482015260640162000372565b6000821162000d255760405162461bcd60e51b815260206004820152601f60248201527f4475726174696f6e206d7573742062652067726561746572207468616e203000604482015260640162000372565b6000600154844260405160200162000d409392919062002320565b604051602081830303815290604052805190602001209050600081858560405162000d6b9062001b93565b62000d789291906200234f565b8190604051809103906000f590508015801562000d99573d6000803e3d6000fd5b5060018054600090815260026020908152604080832080546001600160a01b0387166001600160a01b03199182168117909255818552600390935292819020805460ff1916851790556006805490921683179091559154915192935083929091907f0634bc706cfc00f9fc1c99a0bc026cac19c8b8f2a1179b6c84f270c4d5340f5d9062000e29908a9062002373565b60405180910390a36001805490600062000e4383620021c4565b909155509093505050505b92915050565b6000818152600260205260408120546001600160a01b031690606090808080851562000efa576000869050806001600160a01b031663d015d86f6040518163ffffffff1660e01b8152600401600060405180830381865afa15801562000ebe573d6000803e3d6000fd5b505050506040513d6000823e601f3d908101601f1916820160405262000ee8919081019062002229565b949a5092985090965090945090925050505b91939550919395565b6000546001600160a01b0316331462000f305760405162461bcd60e51b81526004016200037290620020de565b6001600160a01b03831660009081526003602052604090205460ff1662000f6b5760405162461bcd60e51b815260040162000372906200210b565b6006546001600160a01b0384811691161462000fc55760405162461bcd60e51b8152602060048201526018602482015277139bdd0818dd5c9c995b9d081858dd1a5d99481c9bdd5b9960421b604482015260640162000372565b6000839050806001600160a01b03166322f3e2d46040518163ffffffff1660e01b8152600401602060405180830381865afa15801562001009573d6000803e3d6000fd5b505050506040513d601f19601f820116820180604052508101906200102f919062002150565b80156200109e5750806001600160a01b0316638d4e40836040518163ffffffff1660e01b8152600401602060405180830381865afa15801562001076573d6000803e3d6000fd5b505050506040513d601f19601f820116820180604052508101906200109c919062002150565b155b620010bd5760405162461bcd60e51b815260040162000372906200216e565b6000816001600160a01b0316636fe8022c6040518163ffffffff1660e01b815260040160a060405180830381865afa158015620010fe573d6000803e3d6000fd5b505050506040513d601f19601f8201168201806040525081019062001124919062002388565b94505050505080620011795760405162461bcd60e51b815260206004820152601860248201527f526f756e642074696d65206e6f7420656e646564207965740000000000000000604482015260640162000372565b60405163531c04af60e11b81526001600160a01b0383169063a638095e90620011a99087908790600401620023d4565b600060405180830381600087803b158015620011c457600080fd5b505af1158015620011d9573d6000803e3d6000fd5b50505050816001600160a01b031663361bc1b56040518163ffffffff1660e01b8152600401602060405180830381865afa1580156200121c573d6000803e3d6000fd5b505050506040513d601f19601f8201168201806040525081019062001242919062002431565b6001600160a01b0316856001600160a01b03167fa9bd5492c2625576549717f92067040ac2d73d543e19a2fe2125588b3ec3a54760405160405180910390a35050600680546001600160a01b0319169055505050565b6000546001600160a01b03163314620012c55760405162461bcd60e51b81526004016200037290620020de565b6001600160a01b03831660009081526003602052604090205460ff16620013005760405162461bcd60e51b815260040162000372906200210b565b6000839050806001600160a01b03166322f3e2d46040518163ffffffff1660e01b8152600401602060405180830381865afa15801562001344573d6000803e3d6000fd5b505050506040513d601f19601f820116820180604052508101906200136a919062002150565b8015620013d95750806001600160a01b0316638d4e40836040518163ffffffff1660e01b8152600401602060405180830381865afa158015620013b1573d6000803e3d6000fd5b505050506040513d601f19601f82011682018060405250810190620013d7919062002150565b155b620013f85760405162461bcd60e51b815260040162000372906200216e565b60405163531c04af60e11b81526001600160a01b0382169063a638095e90620014289086908690600401620023d4565b600060405180830381600087803b1580156200144357600080fd5b505af115801562001458573d6000803e3d6000fd5b50505050806001600160a01b031663361bc1b56040518163ffffffff1660e01b8152600401602060405180830381865afa1580156200149b573d6000803e3d6000fd5b505050506040513d601f19601f82011682018060405250810190620014c1919062002431565b6001600160a01b0316846001600160a01b03167fa9bd5492c2625576549717f92067040ac2d73d543e19a2fe2125588b3ec3a54760405160405180910390a36006546001600160a01b038086169116036200152757600680546001600160a01b03191690555b50505050565b6000546001600160a01b031633146200155a5760405162461bcd60e51b81526004016200037290620020de565b6001600160a01b038316620015aa5760405162461bcd60e51b8152602060048201526015602482015274496e76616c696420746f6b656e206164647265737360581b604482015260640162000372565b6001600160a01b03831660009081526004602052604090206003015460ff1615620016185760405162461bcd60e51b815260206004820152601760248201527f546f6b656e20616c726561647920737570706f72746564000000000000000000604482015260640162000372565b604080516080810182526001600160a01b0385811680835260208084018781528486018790526001606086018190526000938452600490925294909120835181546001600160a01b031916931692909217825592519192909190820190620016819082620024a4565b5060408201516002820190620016989082620024a4565b50606091909101516003909101805460ff1916911515919091179055600580546001810182556000919091527f036b6384b5eca791c62761152d0c79bb0604c104a5fb6f4eb0703f3154bb3db00180546001600160a01b0319166001600160a01b0385169081179091556040517f2fb34ce114a136590b874d8cf80e7652adda576578bacfa4f8023f720f5693949062001736908590859062002571565b60405180910390a2505050565b600581815481106200175457600080fd5b6000918252602090912001546001600160a01b0316905081565b6000546001600160a01b031633146200179b5760405162461bcd60e51b81526004016200037290620020de565b6001600160a01b038116620017e75760405162461bcd60e51b815260206004820152601160248201527024b73b30b634b2103732bb9037bbb732b960791b604482015260640162000372565b600080546001600160a01b0319166001600160a01b0392909216919091179055565b60055460609060009067ffffffffffffffff8111156200182d576200182d62001da1565b6040519080825280602002602001820160405280156200189757816020015b62001883604051806080016040528060006001600160a01b0316815260200160608152602001606081526020016000151581525090565b8152602001906001900390816200184c5790505b5090506000805b60055481101562001aa05760006004600060058481548110620018c557620018c562002198565b60009182526020808320909101546001600160a01b03908116845283820194909452604092830190912082516080810190935280549093168252600183018054929392918401916200191790620021e0565b80601f01602080910402602001604051908101604052809291908181526020018280546200194590620021e0565b8015620019965780601f106200196a5761010080835404028352916020019162001996565b820191906000526020600020905b8154815290600101906020018083116200197857829003601f168201915b50505050508152602001600282018054620019b190620021e0565b80601f0160208091040260200160405190810160405280929190818152602001828054620019df90620021e0565b801562001a305780601f1062001a045761010080835404028352916020019162001a30565b820191906000526020600020905b81548152906001019060200180831162001a1257829003601f168201915b50505091835250506003919091015460ff16151560209091015260608101519091501562001a8a578084848151811062001a6e5762001a6e62002198565b6020026020010181905250828062001a8690620021c4565b9350505b508062001a9781620021c4565b9150506200189e565b5060008167ffffffffffffffff81111562001abf5762001abf62001da1565b60405190808252806020026020018201604052801562001b2957816020015b62001b15604051806080016040528060006001600160a01b0316815260200160608152602001606081526020016000151581525090565b81526020019060019003908162001ade5790505b50905060005b8281101562001b8b5783818151811062001b4d5762001b4d62002198565b602002602001015182828151811062001b6a5762001b6a62002198565b6020026020010181905250808062001b8290620021c4565b91505062001b2f565b509392505050565b611e6280620025a483390190565b6001600160a01b038116811462001bb757600080fd5b50565b60008083601f84011262001bcd57600080fd5b50813567ffffffffffffffff81111562001be657600080fd5b6020830191508360208260051b850101111562001c0257600080fd5b9250929050565b60008060008060006060868803121562001c2257600080fd5b853562001c2f8162001ba1565b9450602086013567ffffffffffffffff8082111562001c4d57600080fd5b62001c5b89838a0162001bba565b9096509450604088013591508082111562001c7557600080fd5b5062001c848882890162001bba565b969995985093965092949392505050565b60006020828403121562001ca857600080fd5b813562001cb58162001ba1565b9392505050565b60005b8381101562001cd957818101518382015260200162001cbf565b50506000910152565b6000815180845262001cfc81602086016020860162001cbc565b601f01601f19169290920160200192915050565b6001600160a01b038516815260806020820181905260009062001d369083018662001ce2565b828103604084015262001d4a818662001ce2565b915050821515606083015295945050505050565b6001600160a01b038616815260a06020820181905260009062001d849083018762001ce2565b941515604083015250606081019290925260809091015292915050565b634e487b7160e01b600052604160045260246000fd5b604051601f8201601f1916810167ffffffffffffffff8111828210171562001de35762001de362001da1565b604052919050565b600067ffffffffffffffff82111562001e085762001e0862001da1565b50601f01601f191660200190565b600082601f83011262001e2857600080fd5b813562001e3f62001e398262001deb565b62001db7565b81815284602083860101111562001e5557600080fd5b816020850160208301376000918101602001919091529392505050565b6000806040838503121562001e8657600080fd5b823567ffffffffffffffff81111562001e9e57600080fd5b62001eac8582860162001e16565b95602094909401359450505050565b60006020828403121562001ece57600080fd5b5035919050565b600060018060a01b03808916835260c0602084015262001ef960c084018962001ce2565b9615156040840152941515606083015250608081019290925290911660a09091015292915050565b60008060006040848603121562001f3757600080fd5b833562001f448162001ba1565b9250602084013567ffffffffffffffff8082111562001f6257600080fd5b818601915086601f83011262001f7757600080fd5b81358181111562001f8757600080fd5b8760208260061b850101111562001f9d57600080fd5b6020830194508093505050509250925092565b60008060006060848603121562001fc657600080fd5b833562001fd38162001ba1565b9250602084013567ffffffffffffffff8082111562001ff157600080fd5b62001fff8783880162001e16565b935060408601359150808211156200201657600080fd5b50620020258682870162001e16565b9150509250925092565b60006020808301818452808551808352604092508286019150828160051b87010184880160005b83811015620020d057888303603f19018552815180516001600160a01b0316845287810151608089860181905290620020928287018262001ce2565b9150508782015185820389870152620020ac828262001ce2565b60609384015115159690930195909552509487019492509086019060010162002056565b509098975050505050505050565b60208082526013908201527213db9b1e481bdddb995c8818d85b8818d85b1b606a1b604082015260600190565b602080825260159082015274496e76616c696420726f756e64206164647265737360581b604082015260600190565b805180151581146200214b57600080fd5b919050565b6000602082840312156200216357600080fd5b62001cb5826200213a565b60208082526010908201526f526f756e64206e6f742061637469766560801b604082015260600190565b634e487b7160e01b600052603260045260246000fd5b634e487b7160e01b600052601160045260246000fd5b600060018201620021d957620021d9620021ae565b5060010190565b600181811c90821680620021f557607f821691505b6020821081036200221657634e487b7160e01b600052602260045260246000fd5b50919050565b80516200214b8162001ba1565b60008060008060008060c087890312156200224357600080fd5b865167ffffffffffffffff8111156200225b57600080fd5b8701601f810189136200226d57600080fd5b80516200227e62001e398262001deb565b8181528a60208385010111156200229457600080fd5b620022a782602083016020860162001cbc565b9750620022ba915050602088016200213a565b9450620022ca604088016200213a565b93506060870151925060808701519150620022e860a088016200221c565b90509295509295509295565b8181038181111562000e4e5762000e4e620021ae565b634e487b7160e01b600052603160045260246000fd5b838152600083516200233a81602085016020880162001cbc565b60209201918201929092526040019392505050565b60408152600062002364604083018562001ce2565b90508260208301529392505050565b60208152600062001cb5602083018462001ce2565b600080600080600060a08688031215620023a157600080fd5b85519450602086015193506040860151925060608601519150620023c8608087016200213a565b90509295509295909350565b6020808252818101839052600090604080840186845b8781101562002424578135620024008162001ba1565b6001600160a01b0316835281850135858401529183019190830190600101620023ea565b5090979650505050505050565b6000602082840312156200244457600080fd5b815162001cb58162001ba1565b601f8211156200249f57600081815260208120601f850160051c810160208610156200247a5750805b601f850160051c820191505b818110156200249b5782815560010162002486565b5050505b505050565b815167ffffffffffffffff811115620024c157620024c162001da1565b620024d981620024d28454620021e0565b8462002451565b602080601f831160018114620025115760008415620024f85750858301515b600019600386901b1c1916600185901b1785556200249b565b600085815260208120601f198616915b82811015620025425788860151825594840194600190910190840162002521565b5085821015620025615787850151600019600388901b60f8161c191681555b5050505050600190811b01905550565b60408152600062002586604083018562001ce2565b82810360208401526200259a818562001ce2565b9594505050505056fe6101006040523480156200001257600080fd5b5060405162001e6238038062001e6283398101604081905262000035916200008e565b336080526000620000478382620001f8565b504260a081905260c082905262000060908290620002c4565b60e05250506006805460ff19166001179055620002ec565b634e487b7160e01b600052604160045260246000fd5b60008060408385031215620000a257600080fd5b82516001600160401b0380821115620000ba57600080fd5b818501915085601f830112620000cf57600080fd5b815181811115620000e457620000e462000078565b604051601f8201601f19908116603f011681019083821181831017156200010f576200010f62000078565b816040528281526020935088848487010111156200012c57600080fd5b600091505b8282101562000150578482018401518183018501529083019062000131565b6000928101840192909252509401519395939450505050565b600181811c908216806200017e57607f821691505b6020821081036200019f57634e487b7160e01b600052602260045260246000fd5b50919050565b601f821115620001f357600081815260208120601f850160051c81016020861015620001ce5750805b601f850160051c820191505b81811015620001ef57828155600101620001da565b5050505b505050565b81516001600160401b0381111562000214576200021462000078565b6200022c8162000225845462000169565b84620001a5565b602080601f8311600181146200026457600084156200024b5750858301515b600019600386901b1c1916600185901b178555620001ef565b600085815260208120601f198616915b82811015620002955788860151825594840194600190910190840162000274565b5085821015620002b45787850151600019600388901b60f8161c191681555b5050505050600190811b01905550565b80820180821115620002e657634e487b7160e01b600052601160045260246000fd5b92915050565b60805160a05160c05160e051611aef6200037360003960008181610319015281816106ed015281816108cc01528181610c4301528181610c9401528181610cc401528181610dff01526113550152600081816101dd0152610c640152600081816104000152610c22015260008181610569015281816106600152610d240152611aef6000f3fe6080604052600436106101665760003560e01c80636fe8022c116100d1578063a638095e1161008a578063c38687c011610064578063c38687c01461051f578063c45a015514610557578063d015d86f1461058b578063fd92649f146105b257600080fd5b8063a638095e146104a4578063ad79d884146104c4578063b0cc896c146104f257600080fd5b80636fe8022c146103af57806378e97925146103ee5780638d4e4083146104225780639903e1be146104415780639a0ba2ea14610457578063a41fe82c1461047757600080fd5b806322af00fa1161012357806322af00fa1461029357806322f3e2d4146102dd5780633197cbb614610307578063361bc1b51461033b578063398ab9a7146103795780636c74ad851461038f57600080fd5b806301fd050d1461016b57806302ca5994146101965780630474a68e146101b85780630fb5a6b4146101cb57806314cbd9931461020d5780631f69565f1461022f575b600080fd5b34801561017757600080fd5b506101806105c7565b60405161018d9190611731565b60405180910390f35b3480156101a257600080fd5b506101b66101b1366004611767565b610655565b005b6101b66101c6366004611791565b6108a9565b3480156101d757600080fd5b506101ff7f000000000000000000000000000000000000000000000000000000000000000081565b60405190815260200161018d565b34801561021957600080fd5b50610222610b53565b60405161018d91906117f0565b34801561023b57600080fd5b5061027661024a366004611791565b6001600160a01b0316600090815260016020908152604080832054600290925290912054909182151590565b60408051938452602084019290925215159082015260600161018d565b34801561029f57600080fd5b506102b36102ae366004611803565b610bb5565b604080516001600160a01b039485168152602081019390935292169181019190915260600161018d565b3480156102e957600080fd5b506006546102f79060ff1681565b604051901515815260200161018d565b34801561031357600080fd5b506101ff7f000000000000000000000000000000000000000000000000000000000000000081565b34801561034757600080fd5b50600654610361906201000090046001600160a01b031681565b6040516001600160a01b03909116815260200161018d565b34801561038557600080fd5b506101ff60075481565b34801561039b57600080fd5b506101ff6103aa36600461181c565b610bf3565b3480156103bb57600080fd5b506103c4610c20565b6040805195865260208601949094529284019190915260608301521515608082015260a00161018d565b3480156103fa57600080fd5b506101ff7f000000000000000000000000000000000000000000000000000000000000000081565b34801561042e57600080fd5b506006546102f790610100900460ff1681565b34801561044d57600080fd5b506101ff60085481565b34801561046357600080fd5b50610361610472366004611803565b610cef565b34801561048357600080fd5b506101ff610492366004611791565b60026020526000908152604090205481565b3480156104b057600080fd5b506101b66104bf36600461184f565b610d19565b3480156104d057600080fd5b506104e46104df366004611791565b611112565b60405161018d9291906118c4565b3480156104fe57600080fd5b506101ff61050d366004611791565b60016020526000908152604090205481565b34801561052b57600080fd5b506101ff61053a36600461181c565b600360209081526000928352604080842090915290825290205481565b34801561056357600080fd5b506103617f000000000000000000000000000000000000000000000000000000000000000081565b34801561059757600080fd5b506105a06112ac565b60405161018d9695949392919061191b565b3480156105be57600080fd5b506104e46113a6565b600080546105d490611960565b80601f016020809104026020016040519081016040528092919081815260200182805461060090611960565b801561064d5780601f106106225761010080835404028352916020019161064d565b820191906000526020600020905b81548152906001019060200180831161063057829003601f168201915b505050505081565b336001600160a01b037f000000000000000000000000000000000000000000000000000000000000000016146106ca5760405162461bcd60e51b815260206004820152601560248201527413db9b1e48199858dd1bdc9e4818d85b8818d85b1b605a1b60448201526064015b60405180910390fd5b60065460ff1680156106e45750600654610100900460ff16155b801561071057507f00000000000000000000000000000000000000000000000000000000000000004211155b61074f5760405162461bcd60e51b815260206004820152601060248201526f526f756e64206e6f742061637469766560801b60448201526064016106c1565b600081116107ab5760405162461bcd60e51b8152602060048201526024808201527f496e697469616c207072696365206d75737420626520677265617465722074686044820152630616e20360e41b60648201526084016106c1565b6001600160a01b038216600090815260016020526040902054156108115760405162461bcd60e51b815260206004820152601860248201527f546f6b656e20616c72656164792072656769737465726564000000000000000060448201526064016106c1565b6001600160a01b03821660008181526001602081905260408083208590556004805492830181559092527f8a35acfbc15ff81a39ae7d344fd709f28e8600b4aa8c65c6b64bfe7fe36bd19b0180546001600160a01b03191683179055517fd7ca5dc2f8c6bb37c3a4de2a81499b25f8ca8bbb3082010244fe747077d0f6cc9061089d9084815260200190565b60405180910390a25050565b60065460ff1680156108c35750600654610100900460ff16155b80156108ef57507f00000000000000000000000000000000000000000000000000000000000000004211155b61092e5760405162461bcd60e51b815260206004820152601060248201526f526f756e64206e6f742061637469766560801b60448201526064016106c1565b600034116109885760405162461bcd60e51b815260206004820152602160248201527f42657420616d6f756e74206d7573742062652067726561746572207468616e206044820152600360fc1b60648201526084016106c1565b6001600160a01b0381166000908152600160205260409020546109e45760405162461bcd60e51b8152602060048201526014602482015273151bdad95b881b9bdd081c9959da5cdd195c995960621b60448201526064016106c1565b3360009081526003602090815260408083206001600160a01b038516845290915281208054349290610a179084906119b0565b90915550506001600160a01b03811660009081526002602052604081208054349290610a449084906119b0565b9091555050604080516060810182526001600160a01b0380841680835234602084018181523385870181815260058054600181018255600091909152965160039097027f036b6384b5eca791c62761152d0c79bb0604c104a5fb6f4eb0703f3154bb3db0810180549888166001600160a01b0319998a1617905592517f036b6384b5eca791c62761152d0c79bb0604c104a5fb6f4eb0703f3154bb3db1840155517f036b6384b5eca791c62761152d0c79bb0604c104a5fb6f4eb0703f3154bb3db2909201805492909516919095161790925592517f3fe3739e8f82288ea9b537327542d88a4989dfc21c88c5c0c9261a493352029191610b489190815260200190565b60405180910390a350565b60606004805480602002602001604051908101604052809291908181526020018280548015610bab57602002820191906000526020600020905b81546001600160a01b03168152600190910190602001808311610b8d575b5050505050905090565b60058181548110610bc557600080fd5b60009182526020909120600390910201805460018201546002909201546001600160a01b0391821693501683565b6001600160a01b038083166000908152600360209081526040808320938516835292905220545b92915050565b7f00000000000000000000000000000000000000000000000000000000000000007f00000000000000000000000000000000000000000000000000000000000000007f000000000000000000000000000000000000000000000000000000000000000060008042841115610cbd57610cb8427f00000000000000000000000000000000000000000000000000000000000000006119c3565b610cc0565b60005b91507f000000000000000000000000000000000000000000000000000000000000000042101590509091929394565b60048181548110610cff57600080fd5b6000918252602090912001546001600160a01b0316905081565b336001600160a01b037f00000000000000000000000000000000000000000000000000000000000000001614610d895760405162461bcd60e51b815260206004820152601560248201527413db9b1e48199858dd1bdc9e4818d85b8818d85b1b605a1b60448201526064016106c1565b60065460ff168015610da35750600654610100900460ff16155b610dfd5760405162461bcd60e51b815260206004820152602560248201527f526f756e64206e6f7420616374697665206f7220616c72656164792066696e616044820152641b1a5e995960da1b60648201526084016106c1565b7f0000000000000000000000000000000000000000000000000000000000000000421015610e635760405162461bcd60e51b8152602060048201526013602482015272149bdd5b99081b9bdd08195b991959081e595d606a1b60448201526064016106c1565b6004548114610eb45760405162461bcd60e51b815260206004820152601960248201527f496e76616c69642070726963652064617461206c656e6774680000000000000060448201526064016106c1565b600454610efa5760405162461bcd60e51b8152602060048201526014602482015273139bc81d1bdad95b9cc81c9959da5cdd195c995960621b60448201526064016106c1565b60008060005b8381101561100d576000858583818110610f1c57610f1c6119d6565b905060400201803603810190610f329190611a02565b80516001600160a01b0316600090815260016020526040902054909150610f925760405162461bcd60e51b8152602060048201526014602482015273151bdad95b881b9bdd081c9959da5cdd195c995960621b60448201526064016106c1565b80516001600160a01b031660009081526001602090815260409091205490820151811015610ff857600081828460200151610fcd91906119c3565b610fd990612710611a67565b610fe39190611a7e565b905085811115610ff65782519095509350845b505b5050808061100590611aa0565b915050610f00565b506001600160a01b03811661106e5760405162461bcd60e51b815260206004820152602160248201527f4e6f20746f6b656e2068616420706f73697469766520706572666f726d616e636044820152606560f81b60648201526084016106c1565b60068054610100610100600160b01b0319909116620100006001600160a01b03858116820261ff001916929092179290921792839055476007559104166000908152600260205260409020546008556110c561151c565b600654604051838152620100009091046001600160a01b0316907fc8404bd5e2bf0c0d9461811a6e7cfae92b0d57217d8dd9c212dc145392a922fd9060200160405180910390a250505050565b600454606090819067ffffffffffffffff811115611132576111326119ec565b60405190808252806020026020018201604052801561115b578160200160208202803683370190505b5060045490925067ffffffffffffffff81111561117a5761117a6119ec565b6040519080825280602002602001820160405280156111a3578160200160208202803683370190505b50905060005b6004548110156112a657600481815481106111c6576111c66119d6565b9060005260206000200160009054906101000a90046001600160a01b03168382815181106111f6576111f66119d6565b60200260200101906001600160a01b031690816001600160a01b03168152505060036000856001600160a01b03166001600160a01b03168152602001908152602001600020600060048381548110611250576112506119d6565b60009182526020808320909101546001600160a01b031683528201929092526040019020548251839083908110611289576112896119d6565b60209081029190910101528061129e81611aa0565b9150506111a9565b50915091565b606060008060008060008080546112c290611960565b80601f01602080910402602001604051908101604052809291908181526020018280546112ee90611960565b801561133b5780601f106113105761010080835404028352916020019161133b565b820191906000526020600020905b81548152906001019060200180831161131e57829003601f168201915b50506006549399505060ff909216915050801561137857507f00000000000000000000000000000000000000000000000000000000000000004211155b60065460045497989197610100820460ff16975095504794506201000090046001600160a01b031692509050565b600454606090819067ffffffffffffffff8111156113c6576113c66119ec565b6040519080825280602002602001820160405280156113ef578160200160208202803683370190505b5060045490925067ffffffffffffffff81111561140e5761140e6119ec565b604051908082528060200260200182016040528015611437578160200160208202803683370190505b50905060005b600454811015611517576004818154811061145a5761145a6119d6565b9060005260206000200160009054906101000a90046001600160a01b031683828151811061148a5761148a6119d6565b60200260200101906001600160a01b031690816001600160a01b03168152505060026000600483815481106114c1576114c16119d6565b60009182526020808320909101546001600160a01b0316835282019290925260400190205482518390839081106114fa576114fa6119d6565b60209081029190910101528061150f81611aa0565b91505061143d565b509091565b60085460000361152857565b60005b6005548110156116e85760006005828154811061154a5761154a6119d6565b600091825260209182902060408051606081018252600390930290910180546001600160a01b03908116808552600183015495850195909552600290910154811691830191909152600654919350620100009091041690036116d5576040808201516001600160a01b03908116600090815260036020908152838220600654620100009004909316825291909152205480156116d3576000600854600754836115f39190611a67565b6115fd9190611a7e565b604084810180516001600160a01b0390811660009081526003602090815284822060065462010000900484168352905283812081905591519251939450909291169083908381818185875af1925050503d8060008114611679576040519150601f19603f3d011682016040523d82523d6000602084013e61167e565b606091505b5050905080156116d05783604001516001600160a01b03167fb8e091d87f82e56d22276c9a0088ea5d6068e355383dc08b2721b7b6cb10e845836040516116c791815260200190565b60405180910390a25b50505b505b50806116e081611aa0565b91505061152b565b50565b6000815180845260005b81811015611711576020818501810151868301820152016116f5565b506000602082860101526020601f19601f83011685010191505092915050565b60208152600061174460208301846116eb565b9392505050565b80356001600160a01b038116811461176257600080fd5b919050565b6000806040838503121561177a57600080fd5b6117838361174b565b946020939093013593505050565b6000602082840312156117a357600080fd5b6117448261174b565b600081518084526020808501945080840160005b838110156117e55781516001600160a01b0316875295820195908201906001016117c0565b509495945050505050565b60208152600061174460208301846117ac565b60006020828403121561181557600080fd5b5035919050565b6000806040838503121561182f57600080fd5b6118388361174b565b91506118466020840161174b565b90509250929050565b6000806020838503121561186257600080fd5b823567ffffffffffffffff8082111561187a57600080fd5b818501915085601f83011261188e57600080fd5b81358181111561189d57600080fd5b8660208260061b85010111156118b257600080fd5b60209290920196919550909350505050565b6040815260006118d760408301856117ac565b82810360208481019190915284518083528582019282019060005b8181101561190e578451835293830193918301916001016118f2565b5090979650505050505050565b60c08152600061192e60c08301896116eb565b9615156020830152509315156040850152606084019290925260808301526001600160a01b031660a090910152919050565b600181811c9082168061197457607f821691505b60208210810361199457634e487b7160e01b600052602260045260246000fd5b50919050565b634e487b7160e01b600052601160045260246000fd5b80820180821115610c1a57610c1a61199a565b81810381811115610c1a57610c1a61199a565b634e487b7160e01b600052603260045260246000fd5b634e487b7160e01b600052604160045260246000fd5b600060408284031215611a1457600080fd5b6040516040810181811067ffffffffffffffff82111715611a4557634e487b7160e01b600052604160045260246000fd5b604052611a518361174b565b8152602083013560208201528091505092915050565b8082028115828204841417610c1a57610c1a61199a565b600082611a9b57634e487b7160e01b600052601260045260246000fd5b500490565b600060018201611ab257611ab261199a565b506001019056fea26469706673582212202d0b59ab7432de36dae3682c7c9ad1ac73ecc0b2b7e1c3a156638655cbb2c94b64736f6c63430008140033a264697066735822122053a062449730588a923a40069bfbcb620c2b6c6763f6d50de55d49e5ea928dc064736f6c63430008140033",
  "linkReferences": {},
  "deployedLinkReferences": {}
}