{
  "_format": "hh-sol-artifact-1",
  "contractName": "Round",
  "sourceName": "contracts/Round.sol",
  "abi": [
    {
      "inputs": [
        {
          "internalType": "string",
          "name": "_roundName",
          "type": "string"
        },
        {
          "internalType": "uint256",
          "name": "_duration",
          "type": "uint256"
        },
        {
          "internalType": "address[]",
          "name": "_tokenAddresses",
          "type": "address[]"
        },
        {
          "internalType": "uint256[]",
          "name": "_initialPrices",
          "type": "uint256[]"
        }
      ],
      "stateMutability": "nonpayable",
      "type": "constructor"
    },
    {
      "anonymous": false,
      "inputs": [
        {
          "indexed": true,
          "internalType": "address",
          "name": "bettor",
          "type": "address"
        },
        {
          "indexed": true,
          "internalType": "address",
          "name": "tokenAddress",
          "type": "address"
        },
        {
          "indexed": false,
          "internalType": "uint256",
          "name": "amount",
          "type": "uint256"
        }
      ],
      "name": "BetPlaced",
      "type": "event"
    },
    {
      "anonymous": false,
      "inputs": [
        {
          "indexed": true,
          "internalType": "address",
          "name": "winner",
          "type": "address"
        },
        {
          "indexed": false,
          "internalType": "uint256",
          "name": "amount",
          "type": "uint256"
        }
      ],
      "name": "PrizeDistributed",
      "type": "event"
    },
    {
      "anonymous": false,
      "inputs": [
        {
          "indexed": true,
          "internalType": "address",
          "name": "winningToken",
          "type": "address"
        },
        {
          "indexed": false,
          "internalType": "uint256",
          "name": "winningPercentage",
          "type": "uint256"
        }
      ],
      "name": "RoundFinalized",
      "type": "event"
    },
    {
      "inputs": [
        {
          "internalType": "address",
          "name": "tokenAddress",
          "type": "address"
        }
      ],
      "name": "bet",
      "outputs": [],
      "stateMutability": "payable",
      "type": "function"
    },
    {
      "inputs": [
        {
          "internalType": "uint256",
          "name": "",
          "type": "uint256"
        }
      ],
      "name": "bets",
      "outputs": [
        {
          "internalType": "address",
          "name": "tokenAddress",
          "type": "address"
        },
        {
          "internalType": "uint256",
          "name": "amount",
          "type": "uint256"
        },
        {
          "internalType": "address",
          "name": "bettor",
          "type": "address"
        }
      ],
      "stateMutability": "view",
      "type": "function"
    },
    {
      "inputs": [],
      "name": "duration",
      "outputs": [
        {
          "internalType": "uint256",
          "name": "",
          "type": "uint256"
        }
      ],
      "stateMutability": "view",
      "type": "function"
    },
    {
      "inputs": [],
      "name": "endTime",
      "outputs": [
        {
          "internalType": "uint256",
          "name": "",
          "type": "uint256"
        }
      ],
      "stateMutability": "view",
      "type": "function"
    },
    {
      "inputs": [],
      "name": "factory",
      "outputs": [
        {
          "internalType": "address",
          "name": "",
          "type": "address"
        }
      ],
      "stateMutability": "view",
      "type": "function"
    },
    {
      "inputs": [
        {
          "components": [
            {
              "internalType": "address",
              "name": "tokenAddress",
              "type": "address"
            },
            {
              "internalType": "uint256",
              "name": "currentPrice",
              "type": "uint256"
            }
          ],
          "internalType": "struct Round.TokenPrice[]",
          "name": "currentPrices",
          "type": "tuple[]"
        }
      ],
      "name": "finalize",
      "outputs": [],
      "stateMutability": "nonpayable",
      "type": "function"
    },
    {
      "inputs": [],
      "name": "getAllTokenTotalBets",
      "outputs": [
        {
          "internalType": "address[]",
          "name": "tokens",
          "type": "address[]"
        },
        {
          "internalType": "uint256[]",
          "name": "amounts",
          "type": "uint256[]"
        }
      ],
      "stateMutability": "view",
      "type": "function"
    },
    {
      "inputs": [],
      "name": "getRegisteredTokens",
      "outputs": [
        {
          "internalType": "address[]",
          "name": "",
          "type": "address[]"
        }
      ],
      "stateMutability": "view",
      "type": "function"
    },
    {
      "inputs": [],
      "name": "getRoundStats",
      "outputs": [
        {
          "internalType": "string",
          "name": "name",
          "type": "string"
        },
        {
          "internalType": "bool",
          "name": "active",
          "type": "bool"
        },
        {
          "internalType": "bool",
          "name": "finalized",
          "type": "bool"
        },
        {
          "internalType": "uint256",
          "name": "totalTokens",
          "type": "uint256"
        },
        {
          "internalType": "uint256",
          "name": "totalPool",
          "type": "uint256"
        },
        {
          "internalType": "address",
          "name": "winner",
          "type": "address"
        }
      ],
      "stateMutability": "view",
      "type": "function"
    },
    {
      "inputs": [],
      "name": "getTimeInfo",
      "outputs": [
        {
          "internalType": "uint256",
          "name": "_startTime",
          "type": "uint256"
        },
        {
          "internalType": "uint256",
          "name": "_endTime",
          "type": "uint256"
        },
        {
          "internalType": "uint256",
          "name": "_duration",
          "type": "uint256"
        },
        {
          "internalType": "uint256",
          "name": "_timeLeft",
          "type": "uint256"
        },
        {
          "internalType": "bool",
          "name": "_hasEnded",
          "type": "bool"
        }
      ],
      "stateMutability": "view",
      "type": "function"
    },
    {
      "inputs": [
        {
          "internalType": "address",
          "name": "tokenAddress",
          "type": "address"
        }
      ],
      "name": "getTokenInfo",
      "outputs": [
        {
          "internalType": "uint256",
          "name": "initialPrice",
          "type": "uint256"
        },
        {
          "internalType": "uint256",
          "name": "totalBets",
          "type": "uint256"
        },
        {
          "internalType": "bool",
          "name": "isRegistered",
          "type": "bool"
        }
      ],
      "stateMutability": "view",
      "type": "function"
    },
    {
      "inputs": [],
      "name": "getTokenPriceData",
      "outputs": [
        {
          "internalType": "address[]",
          "name": "tokenAddresses",
          "type": "address[]"
        },
        {
          "internalType": "uint256[]",
          "name": "prices",
          "type": "uint256[]"
        },
        {
          "internalType": "uint256[]",
          "name": "betAmounts",
          "type": "uint256[]"
        }
      ],
      "stateMutability": "view",
      "type": "function"
    },
    {
      "inputs": [
        {
          "internalType": "address",
          "name": "user",
          "type": "address"
        },
        {
          "internalType": "address",
          "name": "tokenAddress",
          "type": "address"
        }
      ],
      "name": "getUserBetForToken",
      "outputs": [
        {
          "internalType": "uint256",
          "name": "",
          "type": "uint256"
        }
      ],
      "stateMutability": "view",
      "type": "function"
    },
    {
      "inputs": [
        {
          "internalType": "address",
          "name": "user",
          "type": "address"
        }
      ],
      "name": "getUserTotalBets",
      "outputs": [
        {
          "internalType": "address[]",
          "name": "tokens",
          "type": "address[]"
        },
        {
          "internalType": "uint256[]",
          "name": "amounts",
          "type": "uint256[]"
        }
      ],
      "stateMutability": "view",
      "type": "function"
    },
    {
      "inputs": [
        {
          "internalType": "address",
          "name": "",
          "type": "address"
        }
      ],
      "name": "initialPrices",
      "outputs": [
        {
          "internalType": "uint256",
          "name": "",
          "type": "uint256"
        }
      ],
      "stateMutability": "view",
      "type": "function"
    },
    {
      "inputs": [],
      "name": "isActive",
      "outputs": [
        {
          "internalType": "bool",
          "name": "",
          "type": "bool"
        }
      ],
      "stateMutability": "view",
      "type": "function"
    },
    {
      "inputs": [],
      "name": "isFinalized",
      "outputs": [
        {
          "internalType": "bool",
          "name": "",
          "type": "bool"
        }
      ],
      "stateMutability": "view",
      "type": "function"
    },
    {
      "inputs": [
        {
          "internalType": "uint256",
          "name": "",
          "type": "uint256"
        }
      ],
      "name": "registeredTokens",
      "outputs": [
        {
          "internalType": "address",
          "name": "",
          "type": "address"
        }
      ],
      "stateMutability": "view",
      "type": "function"
    },
    {
      "inputs": [],
      "name": "roundName",
      "outputs": [
        {
          "internalType": "string",
          "name": "",
          "type": "string"
        }
      ],
      "stateMutability": "view",
      "type": "function"
    },
    {
      "inputs": [],
      "name": "startTime",
      "outputs": [
        {
          "internalType": "uint256",
          "name": "",
          "type": "uint256"
        }
      ],
      "stateMutability": "view",
      "type": "function"
    },
    {
      "inputs": [
        {
          "internalType": "address",
          "name": "",
          "type": "address"
        }
      ],
      "name": "tokenTotalBets",
      "outputs": [
        {
          "internalType": "uint256",
          "name": "",
          "type": "uint256"
        }
      ],
      "stateMutability": "view",
      "type": "function"
    },
    {
      "inputs": [],
      "name": "totalPrizePool",
      "outputs": [
        {
          "internalType": "uint256",
          "name": "",
          "type": "uint256"
        }
      ],
      "stateMutability": "view",
      "type": "function"
    },
    {
      "inputs": [
        {
          "internalType": "address",
          "name": "",
          "type": "address"
        },
        {
          "internalType": "address",
          "name": "",
          "type": "address"
        }
      ],
      "name": "userBets",
      "outputs": [
        {
          "internalType": "uint256",
          "name": "",
          "type": "uint256"
        }
      ],
      "stateMutability": "view",
      "type": "function"
    },
    {
      "inputs": [],
      "name": "winningPoolAmount",
      "outputs": [
        {
          "internalType": "uint256",
          "name": "",
          "type": "uint256"
        }
      ],
      "stateMutability": "view",
      "type": "function"
    },
    {
      "inputs": [],
      "name": "winningToken",
      "outputs": [
        {
          "internalType": "address",
          "name": "",
          "type": "address"
        }
      ],
      "stateMutability": "view",
      "type": "function"
    }
  ],
  "bytecode": "0x6101006040523480156200001257600080fd5b50604051620023e9380380620023e983398101604081905262000035916200051b565b80518251146200008c5760405162461bcd60e51b815260206004820152601660248201527f417272617973206c656e677468206d69736d617463680000000000000000000060448201526064015b60405180910390fd5b6001825111620000df5760405162461bcd60e51b815260206004820152601660248201527f4e656564206174206c65617374203220746f6b656e7300000000000000000000604482015260640162000083565b60008311620001315760405162461bcd60e51b815260206004820152601f60248201527f4475726174696f6e206d7573742062652067726561746572207468616e203000604482015260640162000083565b336080526000620001438582620006b7565b504260a081905260c08490526200015c90849062000799565b60e0526006805460ff1916600117905560005b8251811015620003b55760006001600160a01b0316838281518110620001995762000199620007b5565b60200260200101516001600160a01b031603620001f95760405162461bcd60e51b815260206004820152601560248201527f496e76616c696420746f6b656e20616464726573730000000000000000000000604482015260640162000083565b6000828281518110620002105762000210620007b5565b602002602001015111620002675760405162461bcd60e51b815260206004820152601560248201527f496e76616c696420696e697469616c2070726963650000000000000000000000604482015260640162000083565b60016000848381518110620002805762000280620007b5565b60200260200101516001600160a01b03166001600160a01b0316815260200190815260200160002054600014620002ec5760405162461bcd60e51b815260206004820152600f60248201526e223ab83634b1b0ba32903a37b5b2b760891b604482015260640162000083565b818181518110620003015762000301620007b5565b602002602001015160016000858481518110620003225762000322620007b5565b60200260200101516001600160a01b03166001600160a01b03168152602001908152602001600020819055506004838281518110620003655762000365620007b5565b60209081029190910181015182546001810184556000938452919092200180546001600160a01b0319166001600160a01b0390921691909117905580620003ac81620007cb565b9150506200016f565b5050505050620007e7565b634e487b7160e01b600052604160045260246000fd5b604051601f8201601f191681016001600160401b0381118282101715620004015762000401620003c0565b604052919050565b60006001600160401b03821115620004255762000425620003c0565b5060051b60200190565b600082601f8301126200044157600080fd5b815160206200045a620004548362000409565b620003d6565b82815260059290921b840181019181810190868411156200047a57600080fd5b8286015b84811015620004ae5780516001600160a01b0381168114620004a05760008081fd5b83529183019183016200047e565b509695505050505050565b600082601f830112620004cb57600080fd5b81516020620004de620004548362000409565b82815260059290921b84018101918181019086841115620004fe57600080fd5b8286015b84811015620004ae578051835291830191830162000502565b600080600080608085870312156200053257600080fd5b84516001600160401b03808211156200054a57600080fd5b818701915087601f8301126200055f57600080fd5b815181811115620005745762000574620003c0565b60206200058a601f8301601f19168201620003d6565b8281528a828487010111156200059f57600080fd5b60005b83811015620005bf578581018301518282018401528201620005a2565b50600092810182019290925288015160408901519197509550915080821115620005e857600080fd5b620005f6888389016200042f565b935060608701519150808211156200060d57600080fd5b506200061c87828801620004b9565b91505092959194509250565b600181811c908216806200063d57607f821691505b6020821081036200065e57634e487b7160e01b600052602260045260246000fd5b50919050565b601f821115620006b257600081815260208120601f850160051c810160208610156200068d5750805b601f850160051c820191505b81811015620006ae5782815560010162000699565b5050505b505050565b81516001600160401b03811115620006d357620006d3620003c0565b620006eb81620006e4845462000628565b8462000664565b602080601f8311600181146200072357600084156200070a5750858301515b600019600386901b1c1916600185901b178555620006ae565b600085815260208120601f198616915b82811015620007545788860151825594840194600190910190840162000733565b5085821015620007735787850151600019600388901b60f8161c191681555b5050505050600190811b01905550565b634e487b7160e01b600052601160045260246000fd5b80820180821115620007af57620007af62000783565b92915050565b634e487b7160e01b600052603260045260246000fd5b600060018201620007e057620007e062000783565b5060010190565b60805160a05160c05160e051611b8962000860600039600081816102f90152818161067c01528181610c1601528181610c6701528181610c9701528181610dd201526112e20152600081816101bd0152610c370152600081816104040152610bf501526000818161056d0152610cf70152611b896000f3fe6080604052600436106101665760003560e01c80636fe8022c116100d1578063a638095e1161008a578063c38687c011610064578063c38687c014610523578063c45a01551461055b578063d015d86f1461058f578063fd92649f146105b657600080fd5b8063a638095e146104a8578063ad79d884146104c8578063b0cc896c146104f657600080fd5b80636fe8022c146103b357806378e97925146103f25780638d4e4083146104265780639903e1be146104455780639a0ba2ea1461045b578063a41fe82c1461047b57600080fd5b806322f3e2d41161012357806322f3e2d4146102bd5780633197cbb6146102e7578063361bc1b51461031b578063398ab9a7146103595780633f47666b1461036f5780636c74ad851461039357600080fd5b806301fd050d1461016b5780630474a68e146101965780630fb5a6b4146101ab57806314cbd993146101ed5780631f69565f1461020f57806322af00fa14610273575b600080fd5b34801561017757600080fd5b506101806105cb565b60405161018d91906117ab565b60405180910390f35b6101a96101a43660046117e1565b610659565b005b3480156101b757600080fd5b506101df7f000000000000000000000000000000000000000000000000000000000000000081565b60405190815260200161018d565b3480156101f957600080fd5b50610202610908565b60405161018d9190611840565b34801561021b57600080fd5b5061025661022a3660046117e1565b6001600160a01b0316600090815260016020908152604080832054600290925290912054909182151590565b60408051938452602084019290925215159082015260600161018d565b34801561027f57600080fd5b5061029361028e366004611853565b61096a565b604080516001600160a01b039485168152602081019390935292169181019190915260600161018d565b3480156102c957600080fd5b506006546102d79060ff1681565b604051901515815260200161018d565b3480156102f357600080fd5b506101df7f000000000000000000000000000000000000000000000000000000000000000081565b34801561032757600080fd5b50600654610341906201000090046001600160a01b031681565b6040516001600160a01b03909116815260200161018d565b34801561036557600080fd5b506101df60075481565b34801561037b57600080fd5b506103846109a8565b60405161018d9392919061189c565b34801561039f57600080fd5b506101df6103ae3660046118df565b610bc6565b3480156103bf57600080fd5b506103c8610bf3565b6040805195865260208601949094529284019190915260608301521515608082015260a00161018d565b3480156103fe57600080fd5b506101df7f000000000000000000000000000000000000000000000000000000000000000081565b34801561043257600080fd5b506006546102d790610100900460ff1681565b34801561045157600080fd5b506101df60085481565b34801561046757600080fd5b50610341610476366004611853565b610cc2565b34801561048757600080fd5b506101df6104963660046117e1565b60026020526000908152604090205481565b3480156104b457600080fd5b506101a96104c3366004611912565b610cec565b3480156104d457600080fd5b506104e86104e33660046117e1565b61109f565b60405161018d929190611987565b34801561050257600080fd5b506101df6105113660046117e1565b60016020526000908152604090205481565b34801561052f57600080fd5b506101df61053e3660046118df565b600360209081526000928352604080842090915290825290205481565b34801561056757600080fd5b506103417f000000000000000000000000000000000000000000000000000000000000000081565b34801561059b57600080fd5b506105a4611239565b60405161018d969594939291906119b5565b3480156105c257600080fd5b506104e8611333565b600080546105d8906119fa565b80601f0160208091040260200160405190810160405280929190818152602001828054610604906119fa565b80156106515780601f1061062657610100808354040283529160200191610651565b820191906000526020600020905b81548152906001019060200180831161063457829003601f168201915b505050505081565b60065460ff1680156106735750600654610100900460ff16155b801561069f57507f00000000000000000000000000000000000000000000000000000000000000004211155b6106e35760405162461bcd60e51b815260206004820152601060248201526f526f756e64206e6f742061637469766560801b60448201526064015b60405180910390fd5b6000341161073d5760405162461bcd60e51b815260206004820152602160248201527f42657420616d6f756e74206d7573742062652067726561746572207468616e206044820152600360fc1b60648201526084016106da565b6001600160a01b0381166000908152600160205260409020546107995760405162461bcd60e51b8152602060048201526014602482015273151bdad95b881b9bdd081c9959da5cdd195c995960621b60448201526064016106da565b3360009081526003602090815260408083206001600160a01b0385168452909152812080543492906107cc908490611a4a565b90915550506001600160a01b038116600090815260026020526040812080543492906107f9908490611a4a565b9091555050604080516060810182526001600160a01b0380841680835234602084018181523385870181815260058054600181018255600091909152965160039097027f036b6384b5eca791c62761152d0c79bb0604c104a5fb6f4eb0703f3154bb3db0810180549888166001600160a01b0319998a1617905592517f036b6384b5eca791c62761152d0c79bb0604c104a5fb6f4eb0703f3154bb3db1840155517f036b6384b5eca791c62761152d0c79bb0604c104a5fb6f4eb0703f3154bb3db2909201805492909516919095161790925592517f3fe3739e8f82288ea9b537327542d88a4989dfc21c88c5c0c9261a4933520291916108fd9190815260200190565b60405180910390a350565b6060600480548060200260200160405190810160405280929190818152602001828054801561096057602002820191906000526020600020905b81546001600160a01b03168152600190910190602001808311610942575b5050505050905090565b6005818154811061097a57600080fd5b60009182526020909120600390910201805460018201546002909201546001600160a01b0391821693501683565b606080606060048054905067ffffffffffffffff8111156109cb576109cb611a5d565b6040519080825280602002602001820160405280156109f4578160200160208202803683370190505b5060045490935067ffffffffffffffff811115610a1357610a13611a5d565b604051908082528060200260200182016040528015610a3c578160200160208202803683370190505b5060045490925067ffffffffffffffff811115610a5b57610a5b611a5d565b604051908082528060200260200182016040528015610a84578160200160208202803683370190505b50905060005b600454811015610bc05760048181548110610aa757610aa7611a73565b9060005260206000200160009054906101000a90046001600160a01b0316848281518110610ad757610ad7611a73565b60200260200101906001600160a01b031690816001600160a01b0316815250506001600060048381548110610b0e57610b0e611a73565b60009182526020808320909101546001600160a01b031683528201929092526040019020548351849083908110610b4757610b47611a73565b6020026020010181815250506002600060048381548110610b6a57610b6a611a73565b60009182526020808320909101546001600160a01b031683528201929092526040019020548251839083908110610ba357610ba3611a73565b602090810291909101015280610bb881611a89565b915050610a8a565b50909192565b6001600160a01b038083166000908152600360209081526040808320938516835292905220545b92915050565b7f00000000000000000000000000000000000000000000000000000000000000007f00000000000000000000000000000000000000000000000000000000000000007f000000000000000000000000000000000000000000000000000000000000000060008042841115610c9057610c8b427f0000000000000000000000000000000000000000000000000000000000000000611aa2565b610c93565b60005b91507f000000000000000000000000000000000000000000000000000000000000000042101590509091929394565b60048181548110610cd257600080fd5b6000918252602090912001546001600160a01b0316905081565b336001600160a01b037f00000000000000000000000000000000000000000000000000000000000000001614610d5c5760405162461bcd60e51b815260206004820152601560248201527413db9b1e48199858dd1bdc9e4818d85b8818d85b1b605a1b60448201526064016106da565b60065460ff168015610d765750600654610100900460ff16155b610dd05760405162461bcd60e51b815260206004820152602560248201527f526f756e64206e6f7420616374697665206f7220616c72656164792066696e616044820152641b1a5e995960da1b60648201526084016106da565b7f0000000000000000000000000000000000000000000000000000000000000000421015610e365760405162461bcd60e51b8152602060048201526013602482015272149bdd5b99081b9bdd08195b991959081e595d606a1b60448201526064016106da565b6004548114610e875760405162461bcd60e51b815260206004820152601960248201527f496e76616c69642070726963652064617461206c656e6774680000000000000060448201526064016106da565b60008060005b83811015610f9a576000858583818110610ea957610ea9611a73565b905060400201803603810190610ebf9190611ab5565b80516001600160a01b0316600090815260016020526040902054909150610f1f5760405162461bcd60e51b8152602060048201526014602482015273151bdad95b881b9bdd081c9959da5cdd195c995960621b60448201526064016106da565b80516001600160a01b031660009081526001602090815260409091205490820151811015610f8557600081828460200151610f5a9190611aa2565b610f6690612710611b1a565b610f709190611b31565b905085811115610f835782519095509350845b505b50508080610f9290611a89565b915050610e8d565b506001600160a01b038116610ffb5760405162461bcd60e51b815260206004820152602160248201527f4e6f20746f6b656e2068616420706f73697469766520706572666f726d616e636044820152606560f81b60648201526084016106da565b60068054610100610100600160b01b0319909116620100006001600160a01b03858116820261ff001916929092179290921792839055476007559104166000908152600260205260409020546008556110526114a9565b600654604051838152620100009091046001600160a01b0316907fc8404bd5e2bf0c0d9461811a6e7cfae92b0d57217d8dd9c212dc145392a922fd9060200160405180910390a250505050565b600454606090819067ffffffffffffffff8111156110bf576110bf611a5d565b6040519080825280602002602001820160405280156110e8578160200160208202803683370190505b5060045490925067ffffffffffffffff81111561110757611107611a5d565b604051908082528060200260200182016040528015611130578160200160208202803683370190505b50905060005b600454811015611233576004818154811061115357611153611a73565b9060005260206000200160009054906101000a90046001600160a01b031683828151811061118357611183611a73565b60200260200101906001600160a01b031690816001600160a01b03168152505060036000856001600160a01b03166001600160a01b031681526020019081526020016000206000600483815481106111dd576111dd611a73565b60009182526020808320909101546001600160a01b03168352820192909252604001902054825183908390811061121657611216611a73565b60209081029190910101528061122b81611a89565b915050611136565b50915091565b6060600080600080600080805461124f906119fa565b80601f016020809104026020016040519081016040528092919081815260200182805461127b906119fa565b80156112c85780601f1061129d576101008083540402835291602001916112c8565b820191906000526020600020905b8154815290600101906020018083116112ab57829003601f168201915b50506006549399505060ff909216915050801561130557507f00000000000000000000000000000000000000000000000000000000000000004211155b60065460045497989197610100820460ff16975095504794506201000090046001600160a01b031692509050565b600454606090819067ffffffffffffffff81111561135357611353611a5d565b60405190808252806020026020018201604052801561137c578160200160208202803683370190505b5060045490925067ffffffffffffffff81111561139b5761139b611a5d565b6040519080825280602002602001820160405280156113c4578160200160208202803683370190505b50905060005b6004548110156114a457600481815481106113e7576113e7611a73565b9060005260206000200160009054906101000a90046001600160a01b031683828151811061141757611417611a73565b60200260200101906001600160a01b031690816001600160a01b031681525050600260006004838154811061144e5761144e611a73565b60009182526020808320909101546001600160a01b03168352820192909252604001902054825183908390811061148757611487611a73565b60209081029190910101528061149c81611a89565b9150506113ca565b509091565b6008546000036114b557565b60055460009067ffffffffffffffff8111156114d3576114d3611a5d565b6040519080825280602002602001820160405280156114fc578160200160208202803683370190505b5090506000805b6005548110156117605760006005828154811061152257611522611a73565b600091825260209182902060408051606081018252600390930290910180546001600160a01b039081168085526001830154958501959095526002909101548116918301919091526006549193506201000090910416900361174d576000805b848110156115db5782604001516001600160a01b03168682815181106115aa576115aa611a73565b60200260200101516001600160a01b0316036115c957600191506115db565b806115d381611a89565b915050611582565b508061174b576040808301516001600160a01b03908116600090815260036020908152838220600654620100009004909316825291909152205480156117495760006008546007548361162e9190611b1a565b6116389190611b31565b9050836040015187878151811061165157611651611a73565b6001600160a01b03909216602092830291909101909101528561167381611a89565b604086810180516001600160a01b0390811660009081526003602090815284822060065462010000900484168352905283812081905591519251939a50909350169083908381818185875af1925050503d80600081146116ef576040519150601f19603f3d011682016040523d82523d6000602084013e6116f4565b606091505b5050905080156117465784604001516001600160a01b03167fb8e091d87f82e56d22276c9a0088ea5d6068e355383dc08b2721b7b6cb10e8458360405161173d91815260200190565b60405180910390a25b50505b505b505b508061175881611a89565b915050611503565b505050565b6000815180845260005b8181101561178b5760208185018101518683018201520161176f565b506000602082860101526020601f19601f83011685010191505092915050565b6020815260006117be6020830184611765565b9392505050565b80356001600160a01b03811681146117dc57600080fd5b919050565b6000602082840312156117f357600080fd5b6117be826117c5565b600081518084526020808501945080840160005b838110156118355781516001600160a01b031687529582019590820190600101611810565b509495945050505050565b6020815260006117be60208301846117fc565b60006020828403121561186557600080fd5b5035919050565b600081518084526020808501945080840160005b8381101561183557815187529582019590820190600101611880565b6060815260006118af60608301866117fc565b82810360208401526118c1818661186c565b905082810360408401526118d5818561186c565b9695505050505050565b600080604083850312156118f257600080fd5b6118fb836117c5565b9150611909602084016117c5565b90509250929050565b6000806020838503121561192557600080fd5b823567ffffffffffffffff8082111561193d57600080fd5b818501915085601f83011261195157600080fd5b81358181111561196057600080fd5b8660208260061b850101111561197557600080fd5b60209290920196919550909350505050565b60408152600061199a60408301856117fc565b82810360208401526119ac818561186c565b95945050505050565b60c0815260006119c860c0830189611765565b9615156020830152509315156040850152606084019290925260808301526001600160a01b031660a090910152919050565b600181811c90821680611a0e57607f821691505b602082108103611a2e57634e487b7160e01b600052602260045260246000fd5b50919050565b634e487b7160e01b600052601160045260246000fd5b80820180821115610bed57610bed611a34565b634e487b7160e01b600052604160045260246000fd5b634e487b7160e01b600052603260045260246000fd5b600060018201611a9b57611a9b611a34565b5060010190565b81810381811115610bed57610bed611a34565b600060408284031215611ac757600080fd5b6040516040810181811067ffffffffffffffff82111715611af857634e487b7160e01b600052604160045260246000fd5b604052611b04836117c5565b8152602083013560208201528091505092915050565b8082028115828204841417610bed57610bed611a34565b600082611b4e57634e487b7160e01b600052601260045260246000fd5b50049056fea2646970667358221220db1a978136f6ad380b84448b314e0cd51d72ea45b94e9853d4838e251f701dd064736f6c63430008140033",
  "linkReferences": {},
  "deployedLinkReferences": {}
}