{
  "_format": "hh-sol-artifact-1",
  "contractName": "Round",
  "sourceName": "contracts/Round.sol",
  "abi": [
    {
      "inputs": [
        {
          "internalType": "string",
          "name": "_roundName",
          "type": "string"
        },
        {
          "internalType": "uint256",
          "name": "_duration",
          "type": "uint256"
        },
        {
          "internalType": "address[]",
          "name": "_tokenAddresses",
          "type": "address[]"
        },
        {
          "internalType": "uint256[]",
          "name": "_initialPrices",
          "type": "uint256[]"
        }
      ],
      "stateMutability": "nonpayable",
      "type": "constructor"
    },
    {
      "anonymous": false,
      "inputs": [
        {
          "indexed": true,
          "internalType": "address",
          "name": "bettor",
          "type": "address"
        },
        {
          "indexed": true,
          "internalType": "address",
          "name": "tokenAddress",
          "type": "address"
        },
        {
          "indexed": false,
          "internalType": "uint256",
          "name": "amount",
          "type": "uint256"
        }
      ],
      "name": "BetPlaced",
      "type": "event"
    },
    {
      "anonymous": false,
      "inputs": [
        {
          "indexed": true,
          "internalType": "address",
          "name": "winner",
          "type": "address"
        },
        {
          "indexed": false,
          "internalType": "uint256",
          "name": "amount",
          "type": "uint256"
        }
      ],
      "name": "PrizeDistributed",
      "type": "event"
    },
    {
      "anonymous": false,
      "inputs": [
        {
          "indexed": true,
          "internalType": "address",
          "name": "winningToken",
          "type": "address"
        },
        {
          "indexed": false,
          "internalType": "uint256",
          "name": "winningPercentage",
          "type": "uint256"
        }
      ],
      "name": "RoundFinalized",
      "type": "event"
    },
    {
      "inputs": [
        {
          "internalType": "address",
          "name": "tokenAddress",
          "type": "address"
        }
      ],
      "name": "bet",
      "outputs": [],
      "stateMutability": "payable",
      "type": "function"
    },
    {
      "inputs": [
        {
          "internalType": "uint256",
          "name": "",
          "type": "uint256"
        }
      ],
      "name": "bets",
      "outputs": [
        {
          "internalType": "address",
          "name": "tokenAddress",
          "type": "address"
        },
        {
          "internalType": "uint256",
          "name": "amount",
          "type": "uint256"
        },
        {
          "internalType": "address",
          "name": "bettor",
          "type": "address"
        }
      ],
      "stateMutability": "view",
      "type": "function"
    },
    {
      "inputs": [],
      "name": "duration",
      "outputs": [
        {
          "internalType": "uint256",
          "name": "",
          "type": "uint256"
        }
      ],
      "stateMutability": "view",
      "type": "function"
    },
    {
      "inputs": [],
      "name": "endTime",
      "outputs": [
        {
          "internalType": "uint256",
          "name": "",
          "type": "uint256"
        }
      ],
      "stateMutability": "view",
      "type": "function"
    },
    {
      "inputs": [],
      "name": "factory",
      "outputs": [
        {
          "internalType": "address",
          "name": "",
          "type": "address"
        }
      ],
      "stateMutability": "view",
      "type": "function"
    },
    {
      "inputs": [
        {
          "components": [
            {
              "internalType": "address",
              "name": "tokenAddress",
              "type": "address"
            },
            {
              "internalType": "uint256",
              "name": "currentPrice",
              "type": "uint256"
            }
          ],
          "internalType": "struct Round.TokenPrice[]",
          "name": "currentPrices",
          "type": "tuple[]"
        }
      ],
      "name": "finalize",
      "outputs": [],
      "stateMutability": "nonpayable",
      "type": "function"
    },
    {
      "inputs": [],
      "name": "getAllTokenTotalBets",
      "outputs": [
        {
          "internalType": "address[]",
          "name": "tokens",
          "type": "address[]"
        },
        {
          "internalType": "uint256[]",
          "name": "amounts",
          "type": "uint256[]"
        }
      ],
      "stateMutability": "view",
      "type": "function"
    },
    {
      "inputs": [],
      "name": "getBetsCount",
      "outputs": [
        {
          "internalType": "uint256",
          "name": "",
          "type": "uint256"
        }
      ],
      "stateMutability": "view",
      "type": "function"
    },
    {
      "inputs": [],
      "name": "getRegisteredTokens",
      "outputs": [
        {
          "internalType": "address[]",
          "name": "",
          "type": "address[]"
        }
      ],
      "stateMutability": "view",
      "type": "function"
    },
    {
      "inputs": [],
      "name": "getRoundStats",
      "outputs": [
        {
          "internalType": "string",
          "name": "name",
          "type": "string"
        },
        {
          "internalType": "bool",
          "name": "active",
          "type": "bool"
        },
        {
          "internalType": "bool",
          "name": "finalized",
          "type": "bool"
        },
        {
          "internalType": "uint256",
          "name": "totalTokens",
          "type": "uint256"
        },
        {
          "internalType": "uint256",
          "name": "totalPool",
          "type": "uint256"
        },
        {
          "internalType": "address",
          "name": "winner",
          "type": "address"
        }
      ],
      "stateMutability": "view",
      "type": "function"
    },
    {
      "inputs": [],
      "name": "getTimeInfo",
      "outputs": [
        {
          "internalType": "uint256",
          "name": "_startTime",
          "type": "uint256"
        },
        {
          "internalType": "uint256",
          "name": "_endTime",
          "type": "uint256"
        },
        {
          "internalType": "uint256",
          "name": "_duration",
          "type": "uint256"
        },
        {
          "internalType": "uint256",
          "name": "_timeLeft",
          "type": "uint256"
        },
        {
          "internalType": "bool",
          "name": "_hasEnded",
          "type": "bool"
        }
      ],
      "stateMutability": "view",
      "type": "function"
    },
    {
      "inputs": [
        {
          "internalType": "address",
          "name": "tokenAddress",
          "type": "address"
        }
      ],
      "name": "getTokenInfo",
      "outputs": [
        {
          "internalType": "uint256",
          "name": "initialPrice",
          "type": "uint256"
        },
        {
          "internalType": "uint256",
          "name": "totalBets",
          "type": "uint256"
        },
        {
          "internalType": "bool",
          "name": "isRegistered",
          "type": "bool"
        }
      ],
      "stateMutability": "view",
      "type": "function"
    },
    {
      "inputs": [],
      "name": "getTokenPriceData",
      "outputs": [
        {
          "internalType": "address[]",
          "name": "tokenAddresses",
          "type": "address[]"
        },
        {
          "internalType": "uint256[]",
          "name": "prices",
          "type": "uint256[]"
        },
        {
          "internalType": "uint256[]",
          "name": "betAmounts",
          "type": "uint256[]"
        }
      ],
      "stateMutability": "view",
      "type": "function"
    },
    {
      "inputs": [
        {
          "internalType": "address",
          "name": "user",
          "type": "address"
        },
        {
          "internalType": "address",
          "name": "tokenAddress",
          "type": "address"
        }
      ],
      "name": "getUserBetForToken",
      "outputs": [
        {
          "internalType": "uint256",
          "name": "",
          "type": "uint256"
        }
      ],
      "stateMutability": "view",
      "type": "function"
    },
    {
      "inputs": [
        {
          "internalType": "address",
          "name": "user",
          "type": "address"
        }
      ],
      "name": "getUserTotalBets",
      "outputs": [
        {
          "internalType": "address[]",
          "name": "tokens",
          "type": "address[]"
        },
        {
          "internalType": "uint256[]",
          "name": "amounts",
          "type": "uint256[]"
        }
      ],
      "stateMutability": "view",
      "type": "function"
    },
    {
      "inputs": [
        {
          "internalType": "address",
          "name": "",
          "type": "address"
        }
      ],
      "name": "initialPrices",
      "outputs": [
        {
          "internalType": "uint256",
          "name": "",
          "type": "uint256"
        }
      ],
      "stateMutability": "view",
      "type": "function"
    },
    {
      "inputs": [],
      "name": "isActive",
      "outputs": [
        {
          "internalType": "bool",
          "name": "",
          "type": "bool"
        }
      ],
      "stateMutability": "view",
      "type": "function"
    },
    {
      "inputs": [],
      "name": "isFinalized",
      "outputs": [
        {
          "internalType": "bool",
          "name": "",
          "type": "bool"
        }
      ],
      "stateMutability": "view",
      "type": "function"
    },
    {
      "inputs": [
        {
          "internalType": "uint256",
          "name": "",
          "type": "uint256"
        }
      ],
      "name": "registeredTokens",
      "outputs": [
        {
          "internalType": "address",
          "name": "",
          "type": "address"
        }
      ],
      "stateMutability": "view",
      "type": "function"
    },
    {
      "inputs": [],
      "name": "roundName",
      "outputs": [
        {
          "internalType": "string",
          "name": "",
          "type": "string"
        }
      ],
      "stateMutability": "view",
      "type": "function"
    },
    {
      "inputs": [],
      "name": "startTime",
      "outputs": [
        {
          "internalType": "uint256",
          "name": "",
          "type": "uint256"
        }
      ],
      "stateMutability": "view",
      "type": "function"
    },
    {
      "inputs": [
        {
          "internalType": "address",
          "name": "",
          "type": "address"
        }
      ],
      "name": "tokenTotalBets",
      "outputs": [
        {
          "internalType": "uint256",
          "name": "",
          "type": "uint256"
        }
      ],
      "stateMutability": "view",
      "type": "function"
    },
    {
      "inputs": [],
      "name": "totalPrizePool",
      "outputs": [
        {
          "internalType": "uint256",
          "name": "",
          "type": "uint256"
        }
      ],
      "stateMutability": "view",
      "type": "function"
    },
    {
      "inputs": [
        {
          "internalType": "address",
          "name": "",
          "type": "address"
        },
        {
          "internalType": "address",
          "name": "",
          "type": "address"
        }
      ],
      "name": "userBets",
      "outputs": [
        {
          "internalType": "uint256",
          "name": "",
          "type": "uint256"
        }
      ],
      "stateMutability": "view",
      "type": "function"
    },
    {
      "inputs": [],
      "name": "winningPoolAmount",
      "outputs": [
        {
          "internalType": "uint256",
          "name": "",
          "type": "uint256"
        }
      ],
      "stateMutability": "view",
      "type": "function"
    },
    {
      "inputs": [],
      "name": "winningToken",
      "outputs": [
        {
          "internalType": "address",
          "name": "",
          "type": "address"
        }
      ],
      "stateMutability": "view",
      "type": "function"
    }
  ],
  "bytecode": "0x6101006040523480156200001257600080fd5b50604051620023ac380380620023ac83398101604081905262000035916200051b565b80518251146200008c5760405162461bcd60e51b815260206004820152601660248201527f417272617973206c656e677468206d69736d617463680000000000000000000060448201526064015b60405180910390fd5b6001825111620000df5760405162461bcd60e51b815260206004820152601660248201527f4e656564206174206c65617374203220746f6b656e7300000000000000000000604482015260640162000083565b60008311620001315760405162461bcd60e51b815260206004820152601f60248201527f4475726174696f6e206d7573742062652067726561746572207468616e203000604482015260640162000083565b336080526000620001438582620006b7565b504260a081905260c08490526200015c90849062000799565b60e0526006805460ff1916600117905560005b8251811015620003b55760006001600160a01b0316838281518110620001995762000199620007b5565b60200260200101516001600160a01b031603620001f95760405162461bcd60e51b815260206004820152601560248201527f496e76616c696420746f6b656e20616464726573730000000000000000000000604482015260640162000083565b6000828281518110620002105762000210620007b5565b602002602001015111620002675760405162461bcd60e51b815260206004820152601560248201527f496e76616c696420696e697469616c2070726963650000000000000000000000604482015260640162000083565b60016000848381518110620002805762000280620007b5565b60200260200101516001600160a01b03166001600160a01b0316815260200190815260200160002054600014620002ec5760405162461bcd60e51b815260206004820152600f60248201526e223ab83634b1b0ba32903a37b5b2b760891b604482015260640162000083565b818181518110620003015762000301620007b5565b602002602001015160016000858481518110620003225762000322620007b5565b60200260200101516001600160a01b03166001600160a01b03168152602001908152602001600020819055506004838281518110620003655762000365620007b5565b60209081029190910181015182546001810184556000938452919092200180546001600160a01b0319166001600160a01b0390921691909117905580620003ac81620007cb565b9150506200016f565b5050505050620007e7565b634e487b7160e01b600052604160045260246000fd5b604051601f8201601f191681016001600160401b0381118282101715620004015762000401620003c0565b604052919050565b60006001600160401b03821115620004255762000425620003c0565b5060051b60200190565b600082601f8301126200044157600080fd5b815160206200045a620004548362000409565b620003d6565b82815260059290921b840181019181810190868411156200047a57600080fd5b8286015b84811015620004ae5780516001600160a01b0381168114620004a05760008081fd5b83529183019183016200047e565b509695505050505050565b600082601f830112620004cb57600080fd5b81516020620004de620004548362000409565b82815260059290921b84018101918181019086841115620004fe57600080fd5b8286015b84811015620004ae578051835291830191830162000502565b600080600080608085870312156200053257600080fd5b84516001600160401b03808211156200054a57600080fd5b818701915087601f8301126200055f57600080fd5b815181811115620005745762000574620003c0565b60206200058a601f8301601f19168201620003d6565b8281528a828487010111156200059f57600080fd5b60005b83811015620005bf578581018301518282018401528201620005a2565b50600092810182019290925288015160408901519197509550915080821115620005e857600080fd5b620005f6888389016200042f565b935060608701519150808211156200060d57600080fd5b506200061c87828801620004b9565b91505092959194509250565b600181811c908216806200063d57607f821691505b6020821081036200065e57634e487b7160e01b600052602260045260246000fd5b50919050565b601f821115620006b257600081815260208120601f850160051c810160208610156200068d5750805b601f850160051c820191505b81811015620006ae5782815560010162000699565b5050505b505050565b81516001600160401b03811115620006d357620006d3620003c0565b620006eb81620006e4845462000628565b8462000664565b602080601f8311600181146200072357600084156200070a5750858301515b600019600386901b1c1916600185901b178555620006ae565b600085815260208120601f198616915b82811015620007545788860151825594840194600190910190840162000733565b5085821015620007735787850151600019600388901b60f8161c191681555b5050505050600190811b01905550565b634e487b7160e01b600052601160045260246000fd5b80820180821115620007af57620007af62000783565b92915050565b634e487b7160e01b600052603260045260246000fd5b600060018201620007e057620007e062000783565b5060010190565b60805160a05160c05160e051611b536200085960003960008181610314015281816106ac01528181610c4601528181610c9701528181610cc701526112ac0152600081816101d80152610c6701526000818161041f0152610c2501526000818161059d0152610d270152611b536000f3fe6080604052600436106101815760003560e01c806378e97925116100d1578063a638095e1161008a578063c38687c011610064578063c38687c014610553578063c45a01551461058b578063d015d86f146105bf578063fd92649f146105e657600080fd5b8063a638095e146104d8578063ad79d884146104f8578063b0cc896c1461052657600080fd5b806378e979251461040d5780638c7e347a146104415780638d4e4083146104565780639903e1be146104755780639a0ba2ea1461048b578063a41fe82c146104ab57600080fd5b806322f3e2d41161013e578063398ab9a711610118578063398ab9a7146103745780633f47666b1461038a5780636c74ad85146103ae5780636fe8022c146103ce57600080fd5b806322f3e2d4146102d85780633197cbb614610302578063361bc1b51461033657600080fd5b806301fd050d146101865780630474a68e146101b15780630fb5a6b4146101c657806314cbd993146102085780631f69565f1461022a57806322af00fa1461028e575b600080fd5b34801561019257600080fd5b5061019b6105fb565b6040516101a89190611775565b60405180910390f35b6101c46101bf3660046117ab565b610689565b005b3480156101d257600080fd5b506101fa7f000000000000000000000000000000000000000000000000000000000000000081565b6040519081526020016101a8565b34801561021457600080fd5b5061021d610938565b6040516101a8919061180a565b34801561023657600080fd5b506102716102453660046117ab565b6001600160a01b0316600090815260016020908152604080832054600290925290912054909182151590565b6040805193845260208401929092521515908201526060016101a8565b34801561029a57600080fd5b506102ae6102a936600461181d565b61099a565b604080516001600160a01b03948516815260208101939093529216918101919091526060016101a8565b3480156102e457600080fd5b506006546102f29060ff1681565b60405190151581526020016101a8565b34801561030e57600080fd5b506101fa7f000000000000000000000000000000000000000000000000000000000000000081565b34801561034257600080fd5b5060065461035c906201000090046001600160a01b031681565b6040516001600160a01b0390911681526020016101a8565b34801561038057600080fd5b506101fa60075481565b34801561039657600080fd5b5061039f6109d8565b6040516101a893929190611866565b3480156103ba57600080fd5b506101fa6103c93660046118a9565b610bf6565b3480156103da57600080fd5b506103e3610c23565b6040805195865260208601949094529284019190915260608301521515608082015260a0016101a8565b34801561041957600080fd5b506101fa7f000000000000000000000000000000000000000000000000000000000000000081565b34801561044d57600080fd5b506005546101fa565b34801561046257600080fd5b506006546102f290610100900460ff1681565b34801561048157600080fd5b506101fa60085481565b34801561049757600080fd5b5061035c6104a636600461181d565b610cf2565b3480156104b757600080fd5b506101fa6104c63660046117ab565b60026020526000908152604090205481565b3480156104e457600080fd5b506101c46104f33660046118dc565b610d1c565b34801561050457600080fd5b506105186105133660046117ab565b611069565b6040516101a8929190611951565b34801561053257600080fd5b506101fa6105413660046117ab565b60016020526000908152604090205481565b34801561055f57600080fd5b506101fa61056e3660046118a9565b600360209081526000928352604080842090915290825290205481565b34801561059757600080fd5b5061035c7f000000000000000000000000000000000000000000000000000000000000000081565b3480156105cb57600080fd5b506105d4611203565b6040516101a89695949392919061197f565b3480156105f257600080fd5b506105186112fd565b60008054610608906119c4565b80601f0160208091040260200160405190810160405280929190818152602001828054610634906119c4565b80156106815780601f1061065657610100808354040283529160200191610681565b820191906000526020600020905b81548152906001019060200180831161066457829003601f168201915b505050505081565b60065460ff1680156106a35750600654610100900460ff16155b80156106cf57507f00000000000000000000000000000000000000000000000000000000000000004211155b6107135760405162461bcd60e51b815260206004820152601060248201526f526f756e64206e6f742061637469766560801b60448201526064015b60405180910390fd5b6000341161076d5760405162461bcd60e51b815260206004820152602160248201527f42657420616d6f756e74206d7573742062652067726561746572207468616e206044820152600360fc1b606482015260840161070a565b6001600160a01b0381166000908152600160205260409020546107c95760405162461bcd60e51b8152602060048201526014602482015273151bdad95b881b9bdd081c9959da5cdd195c995960621b604482015260640161070a565b3360009081526003602090815260408083206001600160a01b0385168452909152812080543492906107fc908490611a14565b90915550506001600160a01b03811660009081526002602052604081208054349290610829908490611a14565b9091555050604080516060810182526001600160a01b0380841680835234602084018181523385870181815260058054600181018255600091909152965160039097027f036b6384b5eca791c62761152d0c79bb0604c104a5fb6f4eb0703f3154bb3db0810180549888166001600160a01b0319998a1617905592517f036b6384b5eca791c62761152d0c79bb0604c104a5fb6f4eb0703f3154bb3db1840155517f036b6384b5eca791c62761152d0c79bb0604c104a5fb6f4eb0703f3154bb3db2909201805492909516919095161790925592517f3fe3739e8f82288ea9b537327542d88a4989dfc21c88c5c0c9261a49335202919161092d9190815260200190565b60405180910390a350565b6060600480548060200260200160405190810160405280929190818152602001828054801561099057602002820191906000526020600020905b81546001600160a01b03168152600190910190602001808311610972575b5050505050905090565b600581815481106109aa57600080fd5b60009182526020909120600390910201805460018201546002909201546001600160a01b0391821693501683565b606080606060048054905067ffffffffffffffff8111156109fb576109fb611a27565b604051908082528060200260200182016040528015610a24578160200160208202803683370190505b5060045490935067ffffffffffffffff811115610a4357610a43611a27565b604051908082528060200260200182016040528015610a6c578160200160208202803683370190505b5060045490925067ffffffffffffffff811115610a8b57610a8b611a27565b604051908082528060200260200182016040528015610ab4578160200160208202803683370190505b50905060005b600454811015610bf05760048181548110610ad757610ad7611a3d565b9060005260206000200160009054906101000a90046001600160a01b0316848281518110610b0757610b07611a3d565b60200260200101906001600160a01b031690816001600160a01b0316815250506001600060048381548110610b3e57610b3e611a3d565b60009182526020808320909101546001600160a01b031683528201929092526040019020548351849083908110610b7757610b77611a3d565b6020026020010181815250506002600060048381548110610b9a57610b9a611a3d565b60009182526020808320909101546001600160a01b031683528201929092526040019020548251839083908110610bd357610bd3611a3d565b602090810291909101015280610be881611a53565b915050610aba565b50909192565b6001600160a01b038083166000908152600360209081526040808320938516835292905220545b92915050565b7f00000000000000000000000000000000000000000000000000000000000000007f00000000000000000000000000000000000000000000000000000000000000007f000000000000000000000000000000000000000000000000000000000000000060008042841115610cc057610cbb427f0000000000000000000000000000000000000000000000000000000000000000611a6c565b610cc3565b60005b91507f000000000000000000000000000000000000000000000000000000000000000042101590509091929394565b60048181548110610d0257600080fd5b6000918252602090912001546001600160a01b0316905081565b336001600160a01b037f00000000000000000000000000000000000000000000000000000000000000001614610d8c5760405162461bcd60e51b815260206004820152601560248201527413db9b1e48199858dd1bdc9e4818d85b8818d85b1b605a1b604482015260640161070a565b60065460ff168015610da65750600654610100900460ff16155b610e005760405162461bcd60e51b815260206004820152602560248201527f526f756e64206e6f7420616374697665206f7220616c72656164792066696e616044820152641b1a5e995960da1b606482015260840161070a565b6004548114610e515760405162461bcd60e51b815260206004820152601960248201527f496e76616c69642070726963652064617461206c656e67746800000000000000604482015260640161070a565b60008060005b83811015610f64576000858583818110610e7357610e73611a3d565b905060400201803603810190610e899190611a7f565b80516001600160a01b0316600090815260016020526040902054909150610ee95760405162461bcd60e51b8152602060048201526014602482015273151bdad95b881b9bdd081c9959da5cdd195c995960621b604482015260640161070a565b80516001600160a01b031660009081526001602090815260409091205490820151811015610f4f57600081828460200151610f249190611a6c565b610f3090612710611ae4565b610f3a9190611afb565b905085811115610f4d5782519095509350845b505b50508080610f5c90611a53565b915050610e57565b506001600160a01b038116610fc55760405162461bcd60e51b815260206004820152602160248201527f4e6f20746f6b656e2068616420706f73697469766520706572666f726d616e636044820152606560f81b606482015260840161070a565b60068054610100610100600160b01b0319909116620100006001600160a01b03858116820261ff0019169290921792909217928390554760075591041660009081526002602052604090205460085561101c611473565b600654604051838152620100009091046001600160a01b0316907fc8404bd5e2bf0c0d9461811a6e7cfae92b0d57217d8dd9c212dc145392a922fd9060200160405180910390a250505050565b600454606090819067ffffffffffffffff81111561108957611089611a27565b6040519080825280602002602001820160405280156110b2578160200160208202803683370190505b5060045490925067ffffffffffffffff8111156110d1576110d1611a27565b6040519080825280602002602001820160405280156110fa578160200160208202803683370190505b50905060005b6004548110156111fd576004818154811061111d5761111d611a3d565b9060005260206000200160009054906101000a90046001600160a01b031683828151811061114d5761114d611a3d565b60200260200101906001600160a01b031690816001600160a01b03168152505060036000856001600160a01b03166001600160a01b031681526020019081526020016000206000600483815481106111a7576111a7611a3d565b60009182526020808320909101546001600160a01b0316835282019290925260400190205482518390839081106111e0576111e0611a3d565b6020908102919091010152806111f581611a53565b915050611100565b50915091565b60606000806000806000808054611219906119c4565b80601f0160208091040260200160405190810160405280929190818152602001828054611245906119c4565b80156112925780601f1061126757610100808354040283529160200191611292565b820191906000526020600020905b81548152906001019060200180831161127557829003601f168201915b50506006549399505060ff90921691505080156112cf57507f00000000000000000000000000000000000000000000000000000000000000004211155b60065460045497989197610100820460ff16975095504794506201000090046001600160a01b031692509050565b600454606090819067ffffffffffffffff81111561131d5761131d611a27565b604051908082528060200260200182016040528015611346578160200160208202803683370190505b5060045490925067ffffffffffffffff81111561136557611365611a27565b60405190808252806020026020018201604052801561138e578160200160208202803683370190505b50905060005b60045481101561146e57600481815481106113b1576113b1611a3d565b9060005260206000200160009054906101000a90046001600160a01b03168382815181106113e1576113e1611a3d565b60200260200101906001600160a01b031690816001600160a01b031681525050600260006004838154811061141857611418611a3d565b60009182526020808320909101546001600160a01b03168352820192909252604001902054825183908390811061145157611451611a3d565b60209081029190910101528061146681611a53565b915050611394565b509091565b60085460000361147f57565b60055460009067ffffffffffffffff81111561149d5761149d611a27565b6040519080825280602002602001820160405280156114c6578160200160208202803683370190505b5090506000805b60055481101561172a576000600582815481106114ec576114ec611a3d565b600091825260209182902060408051606081018252600390930290910180546001600160a01b0390811680855260018301549585019590955260029091015481169183019190915260065491935062010000909104169003611717576000805b848110156115a55782604001516001600160a01b031686828151811061157457611574611a3d565b60200260200101516001600160a01b03160361159357600191506115a5565b8061159d81611a53565b91505061154c565b5080611715576040808301516001600160a01b0390811660009081526003602090815283822060065462010000900490931682529190915220548015611713576000600854600754836115f89190611ae4565b6116029190611afb565b9050836040015187878151811061161b5761161b611a3d565b6001600160a01b03909216602092830291909101909101528561163d81611a53565b604086810180516001600160a01b0390811660009081526003602090815284822060065462010000900484168352905283812081905591519251939a50909350169083908381818185875af1925050503d80600081146116b9576040519150601f19603f3d011682016040523d82523d6000602084013e6116be565b606091505b5050905080156117105784604001516001600160a01b03167fb8e091d87f82e56d22276c9a0088ea5d6068e355383dc08b2721b7b6cb10e8458360405161170791815260200190565b60405180910390a25b50505b505b505b508061172281611a53565b9150506114cd565b505050565b6000815180845260005b8181101561175557602081850181015186830182015201611739565b506000602082860101526020601f19601f83011685010191505092915050565b602081526000611788602083018461172f565b9392505050565b80356001600160a01b03811681146117a657600080fd5b919050565b6000602082840312156117bd57600080fd5b6117888261178f565b600081518084526020808501945080840160005b838110156117ff5781516001600160a01b0316875295820195908201906001016117da565b509495945050505050565b60208152600061178860208301846117c6565b60006020828403121561182f57600080fd5b5035919050565b600081518084526020808501945080840160005b838110156117ff5781518752958201959082019060010161184a565b60608152600061187960608301866117c6565b828103602084015261188b8186611836565b9050828103604084015261189f8185611836565b9695505050505050565b600080604083850312156118bc57600080fd5b6118c58361178f565b91506118d36020840161178f565b90509250929050565b600080602083850312156118ef57600080fd5b823567ffffffffffffffff8082111561190757600080fd5b818501915085601f83011261191b57600080fd5b81358181111561192a57600080fd5b8660208260061b850101111561193f57600080fd5b60209290920196919550909350505050565b60408152600061196460408301856117c6565b82810360208401526119768185611836565b95945050505050565b60c08152600061199260c083018961172f565b9615156020830152509315156040850152606084019290925260808301526001600160a01b031660a090910152919050565b600181811c908216806119d857607f821691505b6020821081036119f857634e487b7160e01b600052602260045260246000fd5b50919050565b634e487b7160e01b600052601160045260246000fd5b80820180821115610c1d57610c1d6119fe565b634e487b7160e01b600052604160045260246000fd5b634e487b7160e01b600052603260045260246000fd5b600060018201611a6557611a656119fe565b5060010190565b81810381811115610c1d57610c1d6119fe565b600060408284031215611a9157600080fd5b6040516040810181811067ffffffffffffffff82111715611ac257634e487b7160e01b600052604160045260246000fd5b604052611ace8361178f565b8152602083013560208201528091505092915050565b8082028115828204841417610c1d57610c1d6119fe565b600082611b1857634e487b7160e01b600052601260045260246000fd5b50049056fea26469706673582212203e42a68d72ce3337b5517df42c6c78338cd531aafff220726155232c4a30b46164736f6c63430008140033",
  "linkReferences": {},
  "deployedLinkReferences": {}
}