{
  "_format": "hh-sol-artifact-1",
  "contractName": "Round",
  "sourceName": "contracts/Round.sol",
  "abi": [
    {
      "inputs": [
        {
          "internalType": "string",
          "name": "_roundName",
          "type": "string"
        },
        {
          "internalType": "uint256",
          "name": "_duration",
          "type": "uint256"
        },
        {
          "internalType": "address[]",
          "name": "_tokenAddresses",
          "type": "address[]"
        },
        {
          "internalType": "uint256[]",
          "name": "_initialPrices",
          "type": "uint256[]"
        }
      ],
      "stateMutability": "nonpayable",
      "type": "constructor"
    },
    {
      "anonymous": false,
      "inputs": [
        {
          "indexed": true,
          "internalType": "address",
          "name": "bettor",
          "type": "address"
        },
        {
          "indexed": true,
          "internalType": "address",
          "name": "tokenAddress",
          "type": "address"
        },
        {
          "indexed": false,
          "internalType": "uint256",
          "name": "amount",
          "type": "uint256"
        }
      ],
      "name": "BetPlaced",
      "type": "event"
    },
    {
      "anonymous": false,
      "inputs": [
        {
          "indexed": true,
          "internalType": "address",
          "name": "winner",
          "type": "address"
        },
        {
          "indexed": false,
          "internalType": "uint256",
          "name": "amount",
          "type": "uint256"
        }
      ],
      "name": "PrizeDistributed",
      "type": "event"
    },
    {
      "anonymous": false,
      "inputs": [
        {
          "indexed": true,
          "internalType": "address",
          "name": "winningToken",
          "type": "address"
        },
        {
          "indexed": false,
          "internalType": "uint256",
          "name": "winningPercentage",
          "type": "uint256"
        }
      ],
      "name": "RoundFinalized",
      "type": "event"
    },
    {
      "inputs": [
        {
          "internalType": "address",
          "name": "tokenAddress",
          "type": "address"
        }
      ],
      "name": "bet",
      "outputs": [],
      "stateMutability": "payable",
      "type": "function"
    },
    {
      "inputs": [
        {
          "internalType": "uint256",
          "name": "",
          "type": "uint256"
        }
      ],
      "name": "bets",
      "outputs": [
        {
          "internalType": "address",
          "name": "tokenAddress",
          "type": "address"
        },
        {
          "internalType": "uint256",
          "name": "amount",
          "type": "uint256"
        },
        {
          "internalType": "address",
          "name": "bettor",
          "type": "address"
        }
      ],
      "stateMutability": "view",
      "type": "function"
    },
    {
      "inputs": [],
      "name": "duration",
      "outputs": [
        {
          "internalType": "uint256",
          "name": "",
          "type": "uint256"
        }
      ],
      "stateMutability": "view",
      "type": "function"
    },
    {
      "inputs": [],
      "name": "endTime",
      "outputs": [
        {
          "internalType": "uint256",
          "name": "",
          "type": "uint256"
        }
      ],
      "stateMutability": "view",
      "type": "function"
    },
    {
      "inputs": [],
      "name": "factory",
      "outputs": [
        {
          "internalType": "address",
          "name": "",
          "type": "address"
        }
      ],
      "stateMutability": "view",
      "type": "function"
    },
    {
      "inputs": [
        {
          "components": [
            {
              "internalType": "address",
              "name": "tokenAddress",
              "type": "address"
            },
            {
              "internalType": "uint256",
              "name": "currentPrice",
              "type": "uint256"
            }
          ],
          "internalType": "struct Round.TokenPrice[]",
          "name": "currentPrices",
          "type": "tuple[]"
        }
      ],
      "name": "finalize",
      "outputs": [],
      "stateMutability": "nonpayable",
      "type": "function"
    },
    {
      "inputs": [],
      "name": "getAllTokenTotalBets",
      "outputs": [
        {
          "internalType": "address[]",
          "name": "tokens",
          "type": "address[]"
        },
        {
          "internalType": "uint256[]",
          "name": "amounts",
          "type": "uint256[]"
        }
      ],
      "stateMutability": "view",
      "type": "function"
    },
    {
      "inputs": [],
      "name": "getBetsCount",
      "outputs": [
        {
          "internalType": "uint256",
          "name": "",
          "type": "uint256"
        }
      ],
      "stateMutability": "view",
      "type": "function"
    },
    {
      "inputs": [],
      "name": "getRegisteredTokens",
      "outputs": [
        {
          "internalType": "address[]",
          "name": "",
          "type": "address[]"
        }
      ],
      "stateMutability": "view",
      "type": "function"
    },
    {
      "inputs": [],
      "name": "getRoundStats",
      "outputs": [
        {
          "internalType": "string",
          "name": "name",
          "type": "string"
        },
        {
          "internalType": "bool",
          "name": "active",
          "type": "bool"
        },
        {
          "internalType": "bool",
          "name": "finalized",
          "type": "bool"
        },
        {
          "internalType": "uint256",
          "name": "totalTokens",
          "type": "uint256"
        },
        {
          "internalType": "uint256",
          "name": "totalPool",
          "type": "uint256"
        },
        {
          "internalType": "address",
          "name": "winner",
          "type": "address"
        }
      ],
      "stateMutability": "view",
      "type": "function"
    },
    {
      "inputs": [],
      "name": "getTimeInfo",
      "outputs": [
        {
          "internalType": "uint256",
          "name": "_startTime",
          "type": "uint256"
        },
        {
          "internalType": "uint256",
          "name": "_endTime",
          "type": "uint256"
        },
        {
          "internalType": "uint256",
          "name": "_duration",
          "type": "uint256"
        },
        {
          "internalType": "uint256",
          "name": "_timeLeft",
          "type": "uint256"
        },
        {
          "internalType": "bool",
          "name": "_hasEnded",
          "type": "bool"
        }
      ],
      "stateMutability": "view",
      "type": "function"
    },
    {
      "inputs": [
        {
          "internalType": "address",
          "name": "tokenAddress",
          "type": "address"
        }
      ],
      "name": "getTokenInfo",
      "outputs": [
        {
          "internalType": "uint256",
          "name": "initialPrice",
          "type": "uint256"
        },
        {
          "internalType": "uint256",
          "name": "totalBets",
          "type": "uint256"
        },
        {
          "internalType": "bool",
          "name": "isRegistered",
          "type": "bool"
        }
      ],
      "stateMutability": "view",
      "type": "function"
    },
    {
      "inputs": [],
      "name": "getTokenPriceData",
      "outputs": [
        {
          "internalType": "address[]",
          "name": "tokenAddresses",
          "type": "address[]"
        },
        {
          "internalType": "uint256[]",
          "name": "prices",
          "type": "uint256[]"
        },
        {
          "internalType": "uint256[]",
          "name": "betAmounts",
          "type": "uint256[]"
        }
      ],
      "stateMutability": "view",
      "type": "function"
    },
    {
      "inputs": [
        {
          "internalType": "address",
          "name": "user",
          "type": "address"
        },
        {
          "internalType": "address",
          "name": "tokenAddress",
          "type": "address"
        }
      ],
      "name": "getUserBetForToken",
      "outputs": [
        {
          "internalType": "uint256",
          "name": "",
          "type": "uint256"
        }
      ],
      "stateMutability": "view",
      "type": "function"
    },
    {
      "inputs": [
        {
          "internalType": "address",
          "name": "user",
          "type": "address"
        }
      ],
      "name": "getUserTotalBets",
      "outputs": [
        {
          "internalType": "address[]",
          "name": "tokens",
          "type": "address[]"
        },
        {
          "internalType": "uint256[]",
          "name": "amounts",
          "type": "uint256[]"
        }
      ],
      "stateMutability": "view",
      "type": "function"
    },
    {
      "inputs": [
        {
          "internalType": "address",
          "name": "",
          "type": "address"
        }
      ],
      "name": "initialPrices",
      "outputs": [
        {
          "internalType": "uint256",
          "name": "",
          "type": "uint256"
        }
      ],
      "stateMutability": "view",
      "type": "function"
    },
    {
      "inputs": [],
      "name": "isActive",
      "outputs": [
        {
          "internalType": "bool",
          "name": "",
          "type": "bool"
        }
      ],
      "stateMutability": "view",
      "type": "function"
    },
    {
      "inputs": [],
      "name": "isFinalized",
      "outputs": [
        {
          "internalType": "bool",
          "name": "",
          "type": "bool"
        }
      ],
      "stateMutability": "view",
      "type": "function"
    },
    {
      "inputs": [
        {
          "internalType": "uint256",
          "name": "",
          "type": "uint256"
        }
      ],
      "name": "registeredTokens",
      "outputs": [
        {
          "internalType": "address",
          "name": "",
          "type": "address"
        }
      ],
      "stateMutability": "view",
      "type": "function"
    },
    {
      "inputs": [],
      "name": "roundName",
      "outputs": [
        {
          "internalType": "string",
          "name": "",
          "type": "string"
        }
      ],
      "stateMutability": "view",
      "type": "function"
    },
    {
      "inputs": [],
      "name": "startTime",
      "outputs": [
        {
          "internalType": "uint256",
          "name": "",
          "type": "uint256"
        }
      ],
      "stateMutability": "view",
      "type": "function"
    },
    {
      "inputs": [
        {
          "internalType": "address",
          "name": "",
          "type": "address"
        }
      ],
      "name": "tokenTotalBets",
      "outputs": [
        {
          "internalType": "uint256",
          "name": "",
          "type": "uint256"
        }
      ],
      "stateMutability": "view",
      "type": "function"
    },
    {
      "inputs": [],
      "name": "totalPrizePool",
      "outputs": [
        {
          "internalType": "uint256",
          "name": "",
          "type": "uint256"
        }
      ],
      "stateMutability": "view",
      "type": "function"
    },
    {
      "inputs": [
        {
          "internalType": "address",
          "name": "",
          "type": "address"
        },
        {
          "internalType": "address",
          "name": "",
          "type": "address"
        }
      ],
      "name": "userBets",
      "outputs": [
        {
          "internalType": "uint256",
          "name": "",
          "type": "uint256"
        }
      ],
      "stateMutability": "view",
      "type": "function"
    },
    {
      "inputs": [],
      "name": "winningPoolAmount",
      "outputs": [
        {
          "internalType": "uint256",
          "name": "",
          "type": "uint256"
        }
      ],
      "stateMutability": "view",
      "type": "function"
    },
    {
      "inputs": [],
      "name": "winningToken",
      "outputs": [
        {
          "internalType": "address",
          "name": "",
          "type": "address"
        }
      ],
      "stateMutability": "view",
      "type": "function"
    }
  ],
  "bytecode": "0x6101006040523480156200001257600080fd5b50604051620024193803806200241983398101604081905262000035916200051b565b80518251146200008c5760405162461bcd60e51b815260206004820152601660248201527f417272617973206c656e677468206d69736d617463680000000000000000000060448201526064015b60405180910390fd5b6001825111620000df5760405162461bcd60e51b815260206004820152601660248201527f4e656564206174206c65617374203220746f6b656e7300000000000000000000604482015260640162000083565b60008311620001315760405162461bcd60e51b815260206004820152601f60248201527f4475726174696f6e206d7573742062652067726561746572207468616e203000604482015260640162000083565b336080526000620001438582620006b7565b504260a081905260c08490526200015c90849062000799565b60e0526006805460ff1916600117905560005b8251811015620003b55760006001600160a01b0316838281518110620001995762000199620007b5565b60200260200101516001600160a01b031603620001f95760405162461bcd60e51b815260206004820152601560248201527f496e76616c696420746f6b656e20616464726573730000000000000000000000604482015260640162000083565b6000828281518110620002105762000210620007b5565b602002602001015111620002675760405162461bcd60e51b815260206004820152601560248201527f496e76616c696420696e697469616c2070726963650000000000000000000000604482015260640162000083565b60016000848381518110620002805762000280620007b5565b60200260200101516001600160a01b03166001600160a01b0316815260200190815260200160002054600014620002ec5760405162461bcd60e51b815260206004820152600f60248201526e223ab83634b1b0ba32903a37b5b2b760891b604482015260640162000083565b818181518110620003015762000301620007b5565b602002602001015160016000858481518110620003225762000322620007b5565b60200260200101516001600160a01b03166001600160a01b03168152602001908152602001600020819055506004838281518110620003655762000365620007b5565b60209081029190910181015182546001810184556000938452919092200180546001600160a01b0319166001600160a01b0390921691909117905580620003ac81620007cb565b9150506200016f565b5050505050620007e7565b634e487b7160e01b600052604160045260246000fd5b604051601f8201601f191681016001600160401b0381118282101715620004015762000401620003c0565b604052919050565b60006001600160401b03821115620004255762000425620003c0565b5060051b60200190565b600082601f8301126200044157600080fd5b815160206200045a620004548362000409565b620003d6565b82815260059290921b840181019181810190868411156200047a57600080fd5b8286015b84811015620004ae5780516001600160a01b0381168114620004a05760008081fd5b83529183019183016200047e565b509695505050505050565b600082601f830112620004cb57600080fd5b81516020620004de620004548362000409565b82815260059290921b84018101918181019086841115620004fe57600080fd5b8286015b84811015620004ae578051835291830191830162000502565b600080600080608085870312156200053257600080fd5b84516001600160401b03808211156200054a57600080fd5b818701915087601f8301126200055f57600080fd5b815181811115620005745762000574620003c0565b60206200058a601f8301601f19168201620003d6565b8281528a828487010111156200059f57600080fd5b60005b83811015620005bf578581018301518282018401528201620005a2565b50600092810182019290925288015160408901519197509550915080821115620005e857600080fd5b620005f6888389016200042f565b935060608701519150808211156200060d57600080fd5b506200061c87828801620004b9565b91505092959194509250565b600181811c908216806200063d57607f821691505b6020821081036200065e57634e487b7160e01b600052602260045260246000fd5b50919050565b601f821115620006b257600081815260208120601f850160051c810160208610156200068d5750805b601f850160051c820191505b81811015620006ae5782815560010162000699565b5050505b505050565b81516001600160401b03811115620006d357620006d3620003c0565b620006eb81620006e4845462000628565b8462000664565b602080601f8311600181146200072357600084156200070a5750858301515b600019600386901b1c1916600185901b178555620006ae565b600085815260208120601f198616915b82811015620007545788860151825594840194600190910190840162000733565b5085821015620007735787850151600019600388901b60f8161c191681555b5050505050600190811b01905550565b634e487b7160e01b600052601160045260246000fd5b80820180821115620007af57620007af62000783565b92915050565b634e487b7160e01b600052603260045260246000fd5b600060018201620007e057620007e062000783565b5060010190565b60805160a05160c05160e051611bb96200086060003960008181610314015281816106ac01528181610c4601528181610c9701528181610cc701528181610e0201526113120152600081816101d80152610c6701526000818161041f0152610c2501526000818161059d0152610d270152611bb96000f3fe6080604052600436106101815760003560e01c806378e97925116100d1578063a638095e1161008a578063c38687c011610064578063c38687c014610553578063c45a01551461058b578063d015d86f146105bf578063fd92649f146105e657600080fd5b8063a638095e146104d8578063ad79d884146104f8578063b0cc896c1461052657600080fd5b806378e979251461040d5780638c7e347a146104415780638d4e4083146104565780639903e1be146104755780639a0ba2ea1461048b578063a41fe82c146104ab57600080fd5b806322f3e2d41161013e578063398ab9a711610118578063398ab9a7146103745780633f47666b1461038a5780636c74ad85146103ae5780636fe8022c146103ce57600080fd5b806322f3e2d4146102d85780633197cbb614610302578063361bc1b51461033657600080fd5b806301fd050d146101865780630474a68e146101b15780630fb5a6b4146101c657806314cbd993146102085780631f69565f1461022a57806322af00fa1461028e575b600080fd5b34801561019257600080fd5b5061019b6105fb565b6040516101a891906117db565b60405180910390f35b6101c46101bf366004611811565b610689565b005b3480156101d257600080fd5b506101fa7f000000000000000000000000000000000000000000000000000000000000000081565b6040519081526020016101a8565b34801561021457600080fd5b5061021d610938565b6040516101a89190611870565b34801561023657600080fd5b50610271610245366004611811565b6001600160a01b0316600090815260016020908152604080832054600290925290912054909182151590565b6040805193845260208401929092521515908201526060016101a8565b34801561029a57600080fd5b506102ae6102a9366004611883565b61099a565b604080516001600160a01b03948516815260208101939093529216918101919091526060016101a8565b3480156102e457600080fd5b506006546102f29060ff1681565b60405190151581526020016101a8565b34801561030e57600080fd5b506101fa7f000000000000000000000000000000000000000000000000000000000000000081565b34801561034257600080fd5b5060065461035c906201000090046001600160a01b031681565b6040516001600160a01b0390911681526020016101a8565b34801561038057600080fd5b506101fa60075481565b34801561039657600080fd5b5061039f6109d8565b6040516101a8939291906118cc565b3480156103ba57600080fd5b506101fa6103c936600461190f565b610bf6565b3480156103da57600080fd5b506103e3610c23565b6040805195865260208601949094529284019190915260608301521515608082015260a0016101a8565b34801561041957600080fd5b506101fa7f000000000000000000000000000000000000000000000000000000000000000081565b34801561044d57600080fd5b506005546101fa565b34801561046257600080fd5b506006546102f290610100900460ff1681565b34801561048157600080fd5b506101fa60085481565b34801561049757600080fd5b5061035c6104a6366004611883565b610cf2565b3480156104b757600080fd5b506101fa6104c6366004611811565b60026020526000908152604090205481565b3480156104e457600080fd5b506101c46104f3366004611942565b610d1c565b34801561050457600080fd5b50610518610513366004611811565b6110cf565b6040516101a89291906119b7565b34801561053257600080fd5b506101fa610541366004611811565b60016020526000908152604090205481565b34801561055f57600080fd5b506101fa61056e36600461190f565b600360209081526000928352604080842090915290825290205481565b34801561059757600080fd5b5061035c7f000000000000000000000000000000000000000000000000000000000000000081565b3480156105cb57600080fd5b506105d4611269565b6040516101a8969594939291906119e5565b3480156105f257600080fd5b50610518611363565b6000805461060890611a2a565b80601f016020809104026020016040519081016040528092919081815260200182805461063490611a2a565b80156106815780601f1061065657610100808354040283529160200191610681565b820191906000526020600020905b81548152906001019060200180831161066457829003601f168201915b505050505081565b60065460ff1680156106a35750600654610100900460ff16155b80156106cf57507f00000000000000000000000000000000000000000000000000000000000000004211155b6107135760405162461bcd60e51b815260206004820152601060248201526f526f756e64206e6f742061637469766560801b60448201526064015b60405180910390fd5b6000341161076d5760405162461bcd60e51b815260206004820152602160248201527f42657420616d6f756e74206d7573742062652067726561746572207468616e206044820152600360fc1b606482015260840161070a565b6001600160a01b0381166000908152600160205260409020546107c95760405162461bcd60e51b8152602060048201526014602482015273151bdad95b881b9bdd081c9959da5cdd195c995960621b604482015260640161070a565b3360009081526003602090815260408083206001600160a01b0385168452909152812080543492906107fc908490611a7a565b90915550506001600160a01b03811660009081526002602052604081208054349290610829908490611a7a565b9091555050604080516060810182526001600160a01b0380841680835234602084018181523385870181815260058054600181018255600091909152965160039097027f036b6384b5eca791c62761152d0c79bb0604c104a5fb6f4eb0703f3154bb3db0810180549888166001600160a01b0319998a1617905592517f036b6384b5eca791c62761152d0c79bb0604c104a5fb6f4eb0703f3154bb3db1840155517f036b6384b5eca791c62761152d0c79bb0604c104a5fb6f4eb0703f3154bb3db2909201805492909516919095161790925592517f3fe3739e8f82288ea9b537327542d88a4989dfc21c88c5c0c9261a49335202919161092d9190815260200190565b60405180910390a350565b6060600480548060200260200160405190810160405280929190818152602001828054801561099057602002820191906000526020600020905b81546001600160a01b03168152600190910190602001808311610972575b5050505050905090565b600581815481106109aa57600080fd5b60009182526020909120600390910201805460018201546002909201546001600160a01b0391821693501683565b606080606060048054905067ffffffffffffffff8111156109fb576109fb611a8d565b604051908082528060200260200182016040528015610a24578160200160208202803683370190505b5060045490935067ffffffffffffffff811115610a4357610a43611a8d565b604051908082528060200260200182016040528015610a6c578160200160208202803683370190505b5060045490925067ffffffffffffffff811115610a8b57610a8b611a8d565b604051908082528060200260200182016040528015610ab4578160200160208202803683370190505b50905060005b600454811015610bf05760048181548110610ad757610ad7611aa3565b9060005260206000200160009054906101000a90046001600160a01b0316848281518110610b0757610b07611aa3565b60200260200101906001600160a01b031690816001600160a01b0316815250506001600060048381548110610b3e57610b3e611aa3565b60009182526020808320909101546001600160a01b031683528201929092526040019020548351849083908110610b7757610b77611aa3565b6020026020010181815250506002600060048381548110610b9a57610b9a611aa3565b60009182526020808320909101546001600160a01b031683528201929092526040019020548251839083908110610bd357610bd3611aa3565b602090810291909101015280610be881611ab9565b915050610aba565b50909192565b6001600160a01b038083166000908152600360209081526040808320938516835292905220545b92915050565b7f00000000000000000000000000000000000000000000000000000000000000007f00000000000000000000000000000000000000000000000000000000000000007f000000000000000000000000000000000000000000000000000000000000000060008042841115610cc057610cbb427f0000000000000000000000000000000000000000000000000000000000000000611ad2565b610cc3565b60005b91507f000000000000000000000000000000000000000000000000000000000000000042101590509091929394565b60048181548110610d0257600080fd5b6000918252602090912001546001600160a01b0316905081565b336001600160a01b037f00000000000000000000000000000000000000000000000000000000000000001614610d8c5760405162461bcd60e51b815260206004820152601560248201527413db9b1e48199858dd1bdc9e4818d85b8818d85b1b605a1b604482015260640161070a565b60065460ff168015610da65750600654610100900460ff16155b610e005760405162461bcd60e51b815260206004820152602560248201527f526f756e64206e6f7420616374697665206f7220616c72656164792066696e616044820152641b1a5e995960da1b606482015260840161070a565b7f0000000000000000000000000000000000000000000000000000000000000000421015610e665760405162461bcd60e51b8152602060048201526013602482015272149bdd5b99081b9bdd08195b991959081e595d606a1b604482015260640161070a565b6004548114610eb75760405162461bcd60e51b815260206004820152601960248201527f496e76616c69642070726963652064617461206c656e67746800000000000000604482015260640161070a565b60008060005b83811015610fca576000858583818110610ed957610ed9611aa3565b905060400201803603810190610eef9190611ae5565b80516001600160a01b0316600090815260016020526040902054909150610f4f5760405162461bcd60e51b8152602060048201526014602482015273151bdad95b881b9bdd081c9959da5cdd195c995960621b604482015260640161070a565b80516001600160a01b031660009081526001602090815260409091205490820151811015610fb557600081828460200151610f8a9190611ad2565b610f9690612710611b4a565b610fa09190611b61565b905085811115610fb35782519095509350845b505b50508080610fc290611ab9565b915050610ebd565b506001600160a01b03811661102b5760405162461bcd60e51b815260206004820152602160248201527f4e6f20746f6b656e2068616420706f73697469766520706572666f726d616e636044820152606560f81b606482015260840161070a565b60068054610100610100600160b01b0319909116620100006001600160a01b03858116820261ff001916929092179290921792839055476007559104166000908152600260205260409020546008556110826114d9565b600654604051838152620100009091046001600160a01b0316907fc8404bd5e2bf0c0d9461811a6e7cfae92b0d57217d8dd9c212dc145392a922fd9060200160405180910390a250505050565b600454606090819067ffffffffffffffff8111156110ef576110ef611a8d565b604051908082528060200260200182016040528015611118578160200160208202803683370190505b5060045490925067ffffffffffffffff81111561113757611137611a8d565b604051908082528060200260200182016040528015611160578160200160208202803683370190505b50905060005b600454811015611263576004818154811061118357611183611aa3565b9060005260206000200160009054906101000a90046001600160a01b03168382815181106111b3576111b3611aa3565b60200260200101906001600160a01b031690816001600160a01b03168152505060036000856001600160a01b03166001600160a01b0316815260200190815260200160002060006004838154811061120d5761120d611aa3565b60009182526020808320909101546001600160a01b03168352820192909252604001902054825183908390811061124657611246611aa3565b60209081029190910101528061125b81611ab9565b915050611166565b50915091565b6060600080600080600080805461127f90611a2a565b80601f01602080910402602001604051908101604052809291908181526020018280546112ab90611a2a565b80156112f85780601f106112cd576101008083540402835291602001916112f8565b820191906000526020600020905b8154815290600101906020018083116112db57829003601f168201915b50506006549399505060ff909216915050801561133557507f00000000000000000000000000000000000000000000000000000000000000004211155b60065460045497989197610100820460ff16975095504794506201000090046001600160a01b031692509050565b600454606090819067ffffffffffffffff81111561138357611383611a8d565b6040519080825280602002602001820160405280156113ac578160200160208202803683370190505b5060045490925067ffffffffffffffff8111156113cb576113cb611a8d565b6040519080825280602002602001820160405280156113f4578160200160208202803683370190505b50905060005b6004548110156114d4576004818154811061141757611417611aa3565b9060005260206000200160009054906101000a90046001600160a01b031683828151811061144757611447611aa3565b60200260200101906001600160a01b031690816001600160a01b031681525050600260006004838154811061147e5761147e611aa3565b60009182526020808320909101546001600160a01b0316835282019290925260400190205482518390839081106114b7576114b7611aa3565b6020908102919091010152806114cc81611ab9565b9150506113fa565b509091565b6008546000036114e557565b60055460009067ffffffffffffffff81111561150357611503611a8d565b60405190808252806020026020018201604052801561152c578160200160208202803683370190505b5090506000805b6005548110156117905760006005828154811061155257611552611aa3565b600091825260209182902060408051606081018252600390930290910180546001600160a01b039081168085526001830154958501959095526002909101548116918301919091526006549193506201000090910416900361177d576000805b8481101561160b5782604001516001600160a01b03168682815181106115da576115da611aa3565b60200260200101516001600160a01b0316036115f9576001915061160b565b8061160381611ab9565b9150506115b2565b508061177b576040808301516001600160a01b03908116600090815260036020908152838220600654620100009004909316825291909152205480156117795760006008546007548361165e9190611b4a565b6116689190611b61565b9050836040015187878151811061168157611681611aa3565b6001600160a01b0390921660209283029190910190910152856116a381611ab9565b604086810180516001600160a01b0390811660009081526003602090815284822060065462010000900484168352905283812081905591519251939a50909350169083908381818185875af1925050503d806000811461171f576040519150601f19603f3d011682016040523d82523d6000602084013e611724565b606091505b5050905080156117765784604001516001600160a01b03167fb8e091d87f82e56d22276c9a0088ea5d6068e355383dc08b2721b7b6cb10e8458360405161176d91815260200190565b60405180910390a25b50505b505b505b508061178881611ab9565b915050611533565b505050565b6000815180845260005b818110156117bb5760208185018101518683018201520161179f565b506000602082860101526020601f19601f83011685010191505092915050565b6020815260006117ee6020830184611795565b9392505050565b80356001600160a01b038116811461180c57600080fd5b919050565b60006020828403121561182357600080fd5b6117ee826117f5565b600081518084526020808501945080840160005b838110156118655781516001600160a01b031687529582019590820190600101611840565b509495945050505050565b6020815260006117ee602083018461182c565b60006020828403121561189557600080fd5b5035919050565b600081518084526020808501945080840160005b83811015611865578151875295820195908201906001016118b0565b6060815260006118df606083018661182c565b82810360208401526118f1818661189c565b90508281036040840152611905818561189c565b9695505050505050565b6000806040838503121561192257600080fd5b61192b836117f5565b9150611939602084016117f5565b90509250929050565b6000806020838503121561195557600080fd5b823567ffffffffffffffff8082111561196d57600080fd5b818501915085601f83011261198157600080fd5b81358181111561199057600080fd5b8660208260061b85010111156119a557600080fd5b60209290920196919550909350505050565b6040815260006119ca604083018561182c565b82810360208401526119dc818561189c565b95945050505050565b60c0815260006119f860c0830189611795565b9615156020830152509315156040850152606084019290925260808301526001600160a01b031660a090910152919050565b600181811c90821680611a3e57607f821691505b602082108103611a5e57634e487b7160e01b600052602260045260246000fd5b50919050565b634e487b7160e01b600052601160045260246000fd5b80820180821115610c1d57610c1d611a64565b634e487b7160e01b600052604160045260246000fd5b634e487b7160e01b600052603260045260246000fd5b600060018201611acb57611acb611a64565b5060010190565b81810381811115610c1d57610c1d611a64565b600060408284031215611af757600080fd5b6040516040810181811067ffffffffffffffff82111715611b2857634e487b7160e01b600052604160045260246000fd5b604052611b34836117f5565b8152602083013560208201528091505092915050565b8082028115828204841417610c1d57610c1d611a64565b600082611b7e57634e487b7160e01b600052601260045260246000fd5b50049056fea26469706673582212202e88650bb3c842aa722e87813f282fc5bbb25a5503065c37d360db412b9aa5df64736f6c63430008140033",
  "linkReferences": {},
  "deployedLinkReferences": {}
}