{
  "_format": "hh-sol-artifact-1",
  "contractName": "Round",
  "sourceName": "contracts/Round.sol",
  "abi": [
    {
      "inputs": [
        {
          "internalType": "string",
          "name": "_roundName",
          "type": "string"
        },
        {
          "internalType": "uint256",
          "name": "_duration",
          "type": "uint256"
        }
      ],
      "stateMutability": "nonpayable",
      "type": "constructor"
    },
    {
      "anonymous": false,
      "inputs": [
        {
          "indexed": true,
          "internalType": "address",
          "name": "bettor",
          "type": "address"
        },
        {
          "indexed": true,
          "internalType": "address",
          "name": "tokenAddress",
          "type": "address"
        },
        {
          "indexed": false,
          "internalType": "uint256",
          "name": "amount",
          "type": "uint256"
        }
      ],
      "name": "BetPlaced",
      "type": "event"
    },
    {
      "anonymous": false,
      "inputs": [
        {
          "indexed": true,
          "internalType": "address",
          "name": "winner",
          "type": "address"
        },
        {
          "indexed": false,
          "internalType": "uint256",
          "name": "amount",
          "type": "uint256"
        }
      ],
      "name": "PrizeDistributed",
      "type": "event"
    },
    {
      "anonymous": false,
      "inputs": [
        {
          "indexed": true,
          "internalType": "address",
          "name": "winningToken",
          "type": "address"
        },
        {
          "indexed": false,
          "internalType": "uint256",
          "name": "winningPercentage",
          "type": "uint256"
        }
      ],
      "name": "RoundFinalized",
      "type": "event"
    },
    {
      "anonymous": false,
      "inputs": [
        {
          "indexed": true,
          "internalType": "address",
          "name": "tokenAddress",
          "type": "address"
        },
        {
          "indexed": false,
          "internalType": "uint256",
          "name": "initialPrice",
          "type": "uint256"
        }
      ],
      "name": "TokenRegistered",
      "type": "event"
    },
    {
      "inputs": [
        {
          "internalType": "address",
          "name": "tokenAddress",
          "type": "address"
        }
      ],
      "name": "bet",
      "outputs": [],
      "stateMutability": "payable",
      "type": "function"
    },
    {
      "inputs": [
        {
          "internalType": "uint256",
          "name": "",
          "type": "uint256"
        }
      ],
      "name": "bets",
      "outputs": [
        {
          "internalType": "address",
          "name": "tokenAddress",
          "type": "address"
        },
        {
          "internalType": "uint256",
          "name": "amount",
          "type": "uint256"
        },
        {
          "internalType": "address",
          "name": "bettor",
          "type": "address"
        }
      ],
      "stateMutability": "view",
      "type": "function"
    },
    {
      "inputs": [],
      "name": "duration",
      "outputs": [
        {
          "internalType": "uint256",
          "name": "",
          "type": "uint256"
        }
      ],
      "stateMutability": "view",
      "type": "function"
    },
    {
      "inputs": [],
      "name": "endTime",
      "outputs": [
        {
          "internalType": "uint256",
          "name": "",
          "type": "uint256"
        }
      ],
      "stateMutability": "view",
      "type": "function"
    },
    {
      "inputs": [],
      "name": "factory",
      "outputs": [
        {
          "internalType": "address",
          "name": "",
          "type": "address"
        }
      ],
      "stateMutability": "view",
      "type": "function"
    },
    {
      "inputs": [
        {
          "components": [
            {
              "internalType": "address",
              "name": "tokenAddress",
              "type": "address"
            },
            {
              "internalType": "uint256",
              "name": "currentPrice",
              "type": "uint256"
            }
          ],
          "internalType": "struct Round.TokenPrice[]",
          "name": "currentPrices",
          "type": "tuple[]"
        }
      ],
      "name": "finalize",
      "outputs": [],
      "stateMutability": "nonpayable",
      "type": "function"
    },
    {
      "inputs": [],
      "name": "getAllTokenTotalBets",
      "outputs": [
        {
          "internalType": "address[]",
          "name": "tokens",
          "type": "address[]"
        },
        {
          "internalType": "uint256[]",
          "name": "amounts",
          "type": "uint256[]"
        }
      ],
      "stateMutability": "view",
      "type": "function"
    },
    {
      "inputs": [],
      "name": "getRegisteredTokens",
      "outputs": [
        {
          "internalType": "address[]",
          "name": "",
          "type": "address[]"
        }
      ],
      "stateMutability": "view",
      "type": "function"
    },
    {
      "inputs": [],
      "name": "getRoundStats",
      "outputs": [
        {
          "internalType": "string",
          "name": "name",
          "type": "string"
        },
        {
          "internalType": "bool",
          "name": "active",
          "type": "bool"
        },
        {
          "internalType": "bool",
          "name": "finalized",
          "type": "bool"
        },
        {
          "internalType": "uint256",
          "name": "totalTokens",
          "type": "uint256"
        },
        {
          "internalType": "uint256",
          "name": "totalPool",
          "type": "uint256"
        },
        {
          "internalType": "address",
          "name": "winner",
          "type": "address"
        }
      ],
      "stateMutability": "view",
      "type": "function"
    },
    {
      "inputs": [],
      "name": "getTimeInfo",
      "outputs": [
        {
          "internalType": "uint256",
          "name": "_startTime",
          "type": "uint256"
        },
        {
          "internalType": "uint256",
          "name": "_endTime",
          "type": "uint256"
        },
        {
          "internalType": "uint256",
          "name": "_duration",
          "type": "uint256"
        },
        {
          "internalType": "uint256",
          "name": "_timeLeft",
          "type": "uint256"
        },
        {
          "internalType": "bool",
          "name": "_hasEnded",
          "type": "bool"
        }
      ],
      "stateMutability": "view",
      "type": "function"
    },
    {
      "inputs": [
        {
          "internalType": "address",
          "name": "tokenAddress",
          "type": "address"
        }
      ],
      "name": "getTokenInfo",
      "outputs": [
        {
          "internalType": "uint256",
          "name": "initialPrice",
          "type": "uint256"
        },
        {
          "internalType": "uint256",
          "name": "totalBets",
          "type": "uint256"
        },
        {
          "internalType": "bool",
          "name": "isRegistered",
          "type": "bool"
        }
      ],
      "stateMutability": "view",
      "type": "function"
    },
    {
      "inputs": [
        {
          "internalType": "address",
          "name": "user",
          "type": "address"
        },
        {
          "internalType": "address",
          "name": "tokenAddress",
          "type": "address"
        }
      ],
      "name": "getUserBetForToken",
      "outputs": [
        {
          "internalType": "uint256",
          "name": "",
          "type": "uint256"
        }
      ],
      "stateMutability": "view",
      "type": "function"
    },
    {
      "inputs": [
        {
          "internalType": "address",
          "name": "user",
          "type": "address"
        }
      ],
      "name": "getUserTotalBets",
      "outputs": [
        {
          "internalType": "address[]",
          "name": "tokens",
          "type": "address[]"
        },
        {
          "internalType": "uint256[]",
          "name": "amounts",
          "type": "uint256[]"
        }
      ],
      "stateMutability": "view",
      "type": "function"
    },
    {
      "inputs": [
        {
          "internalType": "address",
          "name": "",
          "type": "address"
        }
      ],
      "name": "initialPrices",
      "outputs": [
        {
          "internalType": "uint256",
          "name": "",
          "type": "uint256"
        }
      ],
      "stateMutability": "view",
      "type": "function"
    },
    {
      "inputs": [],
      "name": "isActive",
      "outputs": [
        {
          "internalType": "bool",
          "name": "",
          "type": "bool"
        }
      ],
      "stateMutability": "view",
      "type": "function"
    },
    {
      "inputs": [],
      "name": "isFinalized",
      "outputs": [
        {
          "internalType": "bool",
          "name": "",
          "type": "bool"
        }
      ],
      "stateMutability": "view",
      "type": "function"
    },
    {
      "inputs": [
        {
          "internalType": "address",
          "name": "tokenAddress",
          "type": "address"
        },
        {
          "internalType": "uint256",
          "name": "initialPrice",
          "type": "uint256"
        }
      ],
      "name": "registerToken",
      "outputs": [],
      "stateMutability": "nonpayable",
      "type": "function"
    },
    {
      "inputs": [
        {
          "internalType": "uint256",
          "name": "",
          "type": "uint256"
        }
      ],
      "name": "registeredTokens",
      "outputs": [
        {
          "internalType": "address",
          "name": "",
          "type": "address"
        }
      ],
      "stateMutability": "view",
      "type": "function"
    },
    {
      "inputs": [],
      "name": "roundName",
      "outputs": [
        {
          "internalType": "string",
          "name": "",
          "type": "string"
        }
      ],
      "stateMutability": "view",
      "type": "function"
    },
    {
      "inputs": [],
      "name": "startTime",
      "outputs": [
        {
          "internalType": "uint256",
          "name": "",
          "type": "uint256"
        }
      ],
      "stateMutability": "view",
      "type": "function"
    },
    {
      "inputs": [
        {
          "internalType": "address",
          "name": "",
          "type": "address"
        }
      ],
      "name": "tokenTotalBets",
      "outputs": [
        {
          "internalType": "uint256",
          "name": "",
          "type": "uint256"
        }
      ],
      "stateMutability": "view",
      "type": "function"
    },
    {
      "inputs": [],
      "name": "totalPrizePool",
      "outputs": [
        {
          "internalType": "uint256",
          "name": "",
          "type": "uint256"
        }
      ],
      "stateMutability": "view",
      "type": "function"
    },
    {
      "inputs": [
        {
          "internalType": "address",
          "name": "",
          "type": "address"
        },
        {
          "internalType": "address",
          "name": "",
          "type": "address"
        }
      ],
      "name": "userBets",
      "outputs": [
        {
          "internalType": "uint256",
          "name": "",
          "type": "uint256"
        }
      ],
      "stateMutability": "view",
      "type": "function"
    },
    {
      "inputs": [],
      "name": "winningPoolAmount",
      "outputs": [
        {
          "internalType": "uint256",
          "name": "",
          "type": "uint256"
        }
      ],
      "stateMutability": "view",
      "type": "function"
    },
    {
      "inputs": [],
      "name": "winningToken",
      "outputs": [
        {
          "internalType": "address",
          "name": "",
          "type": "address"
        }
      ],
      "stateMutability": "view",
      "type": "function"
    }
  ],
  "bytecode": "0x6101006040523480156200001257600080fd5b5060405162001e6238038062001e6283398101604081905262000035916200008e565b336080526000620000478382620001f8565b504260a081905260c082905262000060908290620002c4565b60e05250506006805460ff19166001179055620002ec565b634e487b7160e01b600052604160045260246000fd5b60008060408385031215620000a257600080fd5b82516001600160401b0380821115620000ba57600080fd5b818501915085601f830112620000cf57600080fd5b815181811115620000e457620000e462000078565b604051601f8201601f19908116603f011681019083821181831017156200010f576200010f62000078565b816040528281526020935088848487010111156200012c57600080fd5b600091505b8282101562000150578482018401518183018501529083019062000131565b6000928101840192909252509401519395939450505050565b600181811c908216806200017e57607f821691505b6020821081036200019f57634e487b7160e01b600052602260045260246000fd5b50919050565b601f821115620001f357600081815260208120601f850160051c81016020861015620001ce5750805b601f850160051c820191505b81811015620001ef57828155600101620001da565b5050505b505050565b81516001600160401b0381111562000214576200021462000078565b6200022c8162000225845462000169565b84620001a5565b602080601f8311600181146200026457600084156200024b5750858301515b600019600386901b1c1916600185901b178555620001ef565b600085815260208120601f198616915b82811015620002955788860151825594840194600190910190840162000274565b5085821015620002b45787850151600019600388901b60f8161c191681555b5050505050600190811b01905550565b80820180821115620002e657634e487b7160e01b600052601160045260246000fd5b92915050565b60805160a05160c05160e051611aef6200037360003960008181610319015281816106ed015281816108cc01528181610c4301528181610c9401528181610cc401528181610dff01526113550152600081816101dd0152610c640152600081816104000152610c22015260008181610569015281816106600152610d240152611aef6000f3fe6080604052600436106101665760003560e01c80636fe8022c116100d1578063a638095e1161008a578063c38687c011610064578063c38687c01461051f578063c45a015514610557578063d015d86f1461058b578063fd92649f146105b257600080fd5b8063a638095e146104a4578063ad79d884146104c4578063b0cc896c146104f257600080fd5b80636fe8022c146103af57806378e97925146103ee5780638d4e4083146104225780639903e1be146104415780639a0ba2ea14610457578063a41fe82c1461047757600080fd5b806322af00fa1161012357806322af00fa1461029357806322f3e2d4146102dd5780633197cbb614610307578063361bc1b51461033b578063398ab9a7146103795780636c74ad851461038f57600080fd5b806301fd050d1461016b57806302ca5994146101965780630474a68e146101b85780630fb5a6b4146101cb57806314cbd9931461020d5780631f69565f1461022f575b600080fd5b34801561017757600080fd5b506101806105c7565b60405161018d9190611731565b60405180910390f35b3480156101a257600080fd5b506101b66101b1366004611767565b610655565b005b6101b66101c6366004611791565b6108a9565b3480156101d757600080fd5b506101ff7f000000000000000000000000000000000000000000000000000000000000000081565b60405190815260200161018d565b34801561021957600080fd5b50610222610b53565b60405161018d91906117f0565b34801561023b57600080fd5b5061027661024a366004611791565b6001600160a01b0316600090815260016020908152604080832054600290925290912054909182151590565b60408051938452602084019290925215159082015260600161018d565b34801561029f57600080fd5b506102b36102ae366004611803565b610bb5565b604080516001600160a01b039485168152602081019390935292169181019190915260600161018d565b3480156102e957600080fd5b506006546102f79060ff1681565b604051901515815260200161018d565b34801561031357600080fd5b506101ff7f000000000000000000000000000000000000000000000000000000000000000081565b34801561034757600080fd5b50600654610361906201000090046001600160a01b031681565b6040516001600160a01b03909116815260200161018d565b34801561038557600080fd5b506101ff60075481565b34801561039b57600080fd5b506101ff6103aa36600461181c565b610bf3565b3480156103bb57600080fd5b506103c4610c20565b6040805195865260208601949094529284019190915260608301521515608082015260a00161018d565b3480156103fa57600080fd5b506101ff7f000000000000000000000000000000000000000000000000000000000000000081565b34801561042e57600080fd5b506006546102f790610100900460ff1681565b34801561044d57600080fd5b506101ff60085481565b34801561046357600080fd5b50610361610472366004611803565b610cef565b34801561048357600080fd5b506101ff610492366004611791565b60026020526000908152604090205481565b3480156104b057600080fd5b506101b66104bf36600461184f565b610d19565b3480156104d057600080fd5b506104e46104df366004611791565b611112565b60405161018d9291906118c4565b3480156104fe57600080fd5b506101ff61050d366004611791565b60016020526000908152604090205481565b34801561052b57600080fd5b506101ff61053a36600461181c565b600360209081526000928352604080842090915290825290205481565b34801561056357600080fd5b506103617f000000000000000000000000000000000000000000000000000000000000000081565b34801561059757600080fd5b506105a06112ac565b60405161018d9695949392919061191b565b3480156105be57600080fd5b506104e46113a6565b600080546105d490611960565b80601f016020809104026020016040519081016040528092919081815260200182805461060090611960565b801561064d5780601f106106225761010080835404028352916020019161064d565b820191906000526020600020905b81548152906001019060200180831161063057829003601f168201915b505050505081565b336001600160a01b037f000000000000000000000000000000000000000000000000000000000000000016146106ca5760405162461bcd60e51b815260206004820152601560248201527413db9b1e48199858dd1bdc9e4818d85b8818d85b1b605a1b60448201526064015b60405180910390fd5b60065460ff1680156106e45750600654610100900460ff16155b801561071057507f00000000000000000000000000000000000000000000000000000000000000004211155b61074f5760405162461bcd60e51b815260206004820152601060248201526f526f756e64206e6f742061637469766560801b60448201526064016106c1565b600081116107ab5760405162461bcd60e51b8152602060048201526024808201527f496e697469616c207072696365206d75737420626520677265617465722074686044820152630616e20360e41b60648201526084016106c1565b6001600160a01b038216600090815260016020526040902054156108115760405162461bcd60e51b815260206004820152601860248201527f546f6b656e20616c72656164792072656769737465726564000000000000000060448201526064016106c1565b6001600160a01b03821660008181526001602081905260408083208590556004805492830181559092527f8a35acfbc15ff81a39ae7d344fd709f28e8600b4aa8c65c6b64bfe7fe36bd19b0180546001600160a01b03191683179055517fd7ca5dc2f8c6bb37c3a4de2a81499b25f8ca8bbb3082010244fe747077d0f6cc9061089d9084815260200190565b60405180910390a25050565b60065460ff1680156108c35750600654610100900460ff16155b80156108ef57507f00000000000000000000000000000000000000000000000000000000000000004211155b61092e5760405162461bcd60e51b815260206004820152601060248201526f526f756e64206e6f742061637469766560801b60448201526064016106c1565b600034116109885760405162461bcd60e51b815260206004820152602160248201527f42657420616d6f756e74206d7573742062652067726561746572207468616e206044820152600360fc1b60648201526084016106c1565b6001600160a01b0381166000908152600160205260409020546109e45760405162461bcd60e51b8152602060048201526014602482015273151bdad95b881b9bdd081c9959da5cdd195c995960621b60448201526064016106c1565b3360009081526003602090815260408083206001600160a01b038516845290915281208054349290610a179084906119b0565b90915550506001600160a01b03811660009081526002602052604081208054349290610a449084906119b0565b9091555050604080516060810182526001600160a01b0380841680835234602084018181523385870181815260058054600181018255600091909152965160039097027f036b6384b5eca791c62761152d0c79bb0604c104a5fb6f4eb0703f3154bb3db0810180549888166001600160a01b0319998a1617905592517f036b6384b5eca791c62761152d0c79bb0604c104a5fb6f4eb0703f3154bb3db1840155517f036b6384b5eca791c62761152d0c79bb0604c104a5fb6f4eb0703f3154bb3db2909201805492909516919095161790925592517f3fe3739e8f82288ea9b537327542d88a4989dfc21c88c5c0c9261a493352029191610b489190815260200190565b60405180910390a350565b60606004805480602002602001604051908101604052809291908181526020018280548015610bab57602002820191906000526020600020905b81546001600160a01b03168152600190910190602001808311610b8d575b5050505050905090565b60058181548110610bc557600080fd5b60009182526020909120600390910201805460018201546002909201546001600160a01b0391821693501683565b6001600160a01b038083166000908152600360209081526040808320938516835292905220545b92915050565b7f00000000000000000000000000000000000000000000000000000000000000007f00000000000000000000000000000000000000000000000000000000000000007f000000000000000000000000000000000000000000000000000000000000000060008042841115610cbd57610cb8427f00000000000000000000000000000000000000000000000000000000000000006119c3565b610cc0565b60005b91507f000000000000000000000000000000000000000000000000000000000000000042101590509091929394565b60048181548110610cff57600080fd5b6000918252602090912001546001600160a01b0316905081565b336001600160a01b037f00000000000000000000000000000000000000000000000000000000000000001614610d895760405162461bcd60e51b815260206004820152601560248201527413db9b1e48199858dd1bdc9e4818d85b8818d85b1b605a1b60448201526064016106c1565b60065460ff168015610da35750600654610100900460ff16155b610dfd5760405162461bcd60e51b815260206004820152602560248201527f526f756e64206e6f7420616374697665206f7220616c72656164792066696e616044820152641b1a5e995960da1b60648201526084016106c1565b7f0000000000000000000000000000000000000000000000000000000000000000421015610e635760405162461bcd60e51b8152602060048201526013602482015272149bdd5b99081b9bdd08195b991959081e595d606a1b60448201526064016106c1565b6004548114610eb45760405162461bcd60e51b815260206004820152601960248201527f496e76616c69642070726963652064617461206c656e6774680000000000000060448201526064016106c1565b600454610efa5760405162461bcd60e51b8152602060048201526014602482015273139bc81d1bdad95b9cc81c9959da5cdd195c995960621b60448201526064016106c1565b60008060005b8381101561100d576000858583818110610f1c57610f1c6119d6565b905060400201803603810190610f329190611a02565b80516001600160a01b0316600090815260016020526040902054909150610f925760405162461bcd60e51b8152602060048201526014602482015273151bdad95b881b9bdd081c9959da5cdd195c995960621b60448201526064016106c1565b80516001600160a01b031660009081526001602090815260409091205490820151811015610ff857600081828460200151610fcd91906119c3565b610fd990612710611a67565b610fe39190611a7e565b905085811115610ff65782519095509350845b505b5050808061100590611aa0565b915050610f00565b506001600160a01b03811661106e5760405162461bcd60e51b815260206004820152602160248201527f4e6f20746f6b656e2068616420706f73697469766520706572666f726d616e636044820152606560f81b60648201526084016106c1565b60068054610100610100600160b01b0319909116620100006001600160a01b03858116820261ff001916929092179290921792839055476007559104166000908152600260205260409020546008556110c561151c565b600654604051838152620100009091046001600160a01b0316907fc8404bd5e2bf0c0d9461811a6e7cfae92b0d57217d8dd9c212dc145392a922fd9060200160405180910390a250505050565b600454606090819067ffffffffffffffff811115611132576111326119ec565b60405190808252806020026020018201604052801561115b578160200160208202803683370190505b5060045490925067ffffffffffffffff81111561117a5761117a6119ec565b6040519080825280602002602001820160405280156111a3578160200160208202803683370190505b50905060005b6004548110156112a657600481815481106111c6576111c66119d6565b9060005260206000200160009054906101000a90046001600160a01b03168382815181106111f6576111f66119d6565b60200260200101906001600160a01b031690816001600160a01b03168152505060036000856001600160a01b03166001600160a01b03168152602001908152602001600020600060048381548110611250576112506119d6565b60009182526020808320909101546001600160a01b031683528201929092526040019020548251839083908110611289576112896119d6565b60209081029190910101528061129e81611aa0565b9150506111a9565b50915091565b606060008060008060008080546112c290611960565b80601f01602080910402602001604051908101604052809291908181526020018280546112ee90611960565b801561133b5780601f106113105761010080835404028352916020019161133b565b820191906000526020600020905b81548152906001019060200180831161131e57829003601f168201915b50506006549399505060ff909216915050801561137857507f00000000000000000000000000000000000000000000000000000000000000004211155b60065460045497989197610100820460ff16975095504794506201000090046001600160a01b031692509050565b600454606090819067ffffffffffffffff8111156113c6576113c66119ec565b6040519080825280602002602001820160405280156113ef578160200160208202803683370190505b5060045490925067ffffffffffffffff81111561140e5761140e6119ec565b604051908082528060200260200182016040528015611437578160200160208202803683370190505b50905060005b600454811015611517576004818154811061145a5761145a6119d6565b9060005260206000200160009054906101000a90046001600160a01b031683828151811061148a5761148a6119d6565b60200260200101906001600160a01b031690816001600160a01b03168152505060026000600483815481106114c1576114c16119d6565b60009182526020808320909101546001600160a01b0316835282019290925260400190205482518390839081106114fa576114fa6119d6565b60209081029190910101528061150f81611aa0565b91505061143d565b509091565b60085460000361152857565b60005b6005548110156116e85760006005828154811061154a5761154a6119d6565b600091825260209182902060408051606081018252600390930290910180546001600160a01b03908116808552600183015495850195909552600290910154811691830191909152600654919350620100009091041690036116d5576040808201516001600160a01b03908116600090815260036020908152838220600654620100009004909316825291909152205480156116d3576000600854600754836115f39190611a67565b6115fd9190611a7e565b604084810180516001600160a01b0390811660009081526003602090815284822060065462010000900484168352905283812081905591519251939450909291169083908381818185875af1925050503d8060008114611679576040519150601f19603f3d011682016040523d82523d6000602084013e61167e565b606091505b5050905080156116d05783604001516001600160a01b03167fb8e091d87f82e56d22276c9a0088ea5d6068e355383dc08b2721b7b6cb10e845836040516116c791815260200190565b60405180910390a25b50505b505b50806116e081611aa0565b91505061152b565b50565b6000815180845260005b81811015611711576020818501810151868301820152016116f5565b506000602082860101526020601f19601f83011685010191505092915050565b60208152600061174460208301846116eb565b9392505050565b80356001600160a01b038116811461176257600080fd5b919050565b6000806040838503121561177a57600080fd5b6117838361174b565b946020939093013593505050565b6000602082840312156117a357600080fd5b6117448261174b565b600081518084526020808501945080840160005b838110156117e55781516001600160a01b0316875295820195908201906001016117c0565b509495945050505050565b60208152600061174460208301846117ac565b60006020828403121561181557600080fd5b5035919050565b6000806040838503121561182f57600080fd5b6118388361174b565b91506118466020840161174b565b90509250929050565b6000806020838503121561186257600080fd5b823567ffffffffffffffff8082111561187a57600080fd5b818501915085601f83011261188e57600080fd5b81358181111561189d57600080fd5b8660208260061b85010111156118b257600080fd5b60209290920196919550909350505050565b6040815260006118d760408301856117ac565b82810360208481019190915284518083528582019282019060005b8181101561190e578451835293830193918301916001016118f2565b5090979650505050505050565b60c08152600061192e60c08301896116eb565b9615156020830152509315156040850152606084019290925260808301526001600160a01b031660a090910152919050565b600181811c9082168061197457607f821691505b60208210810361199457634e487b7160e01b600052602260045260246000fd5b50919050565b634e487b7160e01b600052601160045260246000fd5b80820180821115610c1a57610c1a61199a565b81810381811115610c1a57610c1a61199a565b634e487b7160e01b600052603260045260246000fd5b634e487b7160e01b600052604160045260246000fd5b600060408284031215611a1457600080fd5b6040516040810181811067ffffffffffffffff82111715611a4557634e487b7160e01b600052604160045260246000fd5b604052611a518361174b565b8152602083013560208201528091505092915050565b8082028115828204841417610c1a57610c1a61199a565b600082611a9b57634e487b7160e01b600052601260045260246000fd5b500490565b600060018201611ab257611ab261199a565b506001019056fea26469706673582212202d0b59ab7432de36dae3682c7c9ad1ac73ecc0b2b7e1c3a156638655cbb2c94b64736f6c63430008140033",
  "linkReferences": {},
  "deployedLinkReferences": {}
}