{
  "_format": "hh-sol-artifact-1",
  "contractName": "CrossChainRoundFactory",
  "sourceName": "contracts/CrossChainRoundFactory.sol",
  "abi": [
    {
      "inputs": [
        {
          "internalType": "address",
          "name": "_owner",
          "type": "address"
        }
      ],
      "stateMutability": "nonpayable",
      "type": "constructor"
    },
    {
      "inputs": [
        {
          "internalType": "address",
          "name": "router",
          "type": "address"
        }
      ],
      "name": "InvalidRouter",
      "type": "error"
    },
    {
      "anonymous": false,
      "inputs": [
        {
          "indexed": true,
          "internalType": "uint64",
          "name": "sourceChainSelector",
          "type": "uint64"
        },
        {
          "indexed": true,
          "internalType": "address",
          "name": "sender",
          "type": "address"
        },
        {
          "indexed": false,
          "internalType": "uint256",
          "name": "tokenCount",
          "type": "uint256"
        }
      ],
      "name": "CrossChainMessageReceived",
      "type": "event"
    },
    {
      "anonymous": false,
      "inputs": [
        {
          "indexed": true,
          "internalType": "address",
          "name": "tokenAddress",
          "type": "address"
        },
        {
          "indexed": false,
          "internalType": "uint256",
          "name": "oldPrice",
          "type": "uint256"
        },
        {
          "indexed": false,
          "internalType": "uint256",
          "name": "newPrice",
          "type": "uint256"
        },
        {
          "indexed": false,
          "internalType": "uint64",
          "name": "sourceChain",
          "type": "uint64"
        }
      ],
      "name": "CrossChainTokenPriceUpdated",
      "type": "event"
    },
    {
      "anonymous": false,
      "inputs": [
        {
          "indexed": true,
          "internalType": "uint256",
          "name": "roundIndex",
          "type": "uint256"
        },
        {
          "indexed": true,
          "internalType": "address",
          "name": "roundAddress",
          "type": "address"
        },
        {
          "indexed": false,
          "internalType": "string",
          "name": "roundName",
          "type": "string"
        },
        {
          "indexed": false,
          "internalType": "uint256",
          "name": "tokenCount",
          "type": "uint256"
        }
      ],
      "name": "RoundCreated",
      "type": "event"
    },
    {
      "anonymous": false,
      "inputs": [
        {
          "indexed": true,
          "internalType": "address",
          "name": "roundAddress",
          "type": "address"
        },
        {
          "indexed": true,
          "internalType": "address",
          "name": "winningToken",
          "type": "address"
        }
      ],
      "name": "RoundFinalized",
      "type": "event"
    },
    {
      "anonymous": false,
      "inputs": [
        {
          "indexed": true,
          "internalType": "address",
          "name": "tokenAddress",
          "type": "address"
        },
        {
          "indexed": false,
          "internalType": "string",
          "name": "symbol",
          "type": "string"
        },
        {
          "indexed": false,
          "internalType": "string",
          "name": "name",
          "type": "string"
        },
        {
          "indexed": false,
          "internalType": "uint256",
          "name": "initialPrice",
          "type": "uint256"
        }
      ],
      "name": "TokenAdded",
      "type": "event"
    },
    {
      "anonymous": false,
      "inputs": [
        {
          "indexed": true,
          "internalType": "address",
          "name": "tokenAddress",
          "type": "address"
        },
        {
          "indexed": false,
          "internalType": "uint256",
          "name": "oldPrice",
          "type": "uint256"
        },
        {
          "indexed": false,
          "internalType": "uint256",
          "name": "newPrice",
          "type": "uint256"
        }
      ],
      "name": "TokenPriceUpdated",
      "type": "event"
    },
    {
      "anonymous": false,
      "inputs": [
        {
          "indexed": true,
          "internalType": "address",
          "name": "tokenAddress",
          "type": "address"
        }
      ],
      "name": "TokenRemoved",
      "type": "event"
    },
    {
      "inputs": [
        {
          "internalType": "address",
          "name": "tokenAddress",
          "type": "address"
        },
        {
          "internalType": "string",
          "name": "symbol",
          "type": "string"
        },
        {
          "internalType": "string",
          "name": "name",
          "type": "string"
        },
        {
          "internalType": "uint256",
          "name": "initialPrice",
          "type": "uint256"
        }
      ],
      "name": "addSupportedToken",
      "outputs": [],
      "stateMutability": "nonpayable",
      "type": "function"
    },
    {
      "inputs": [
        {
          "internalType": "address",
          "name": "_sender",
          "type": "address"
        },
        {
          "internalType": "bool",
          "name": "allowed",
          "type": "bool"
        }
      ],
      "name": "allowlistSender",
      "outputs": [],
      "stateMutability": "nonpayable",
      "type": "function"
    },
    {
      "inputs": [
        {
          "internalType": "uint64",
          "name": "_sourceChainSelector",
          "type": "uint64"
        },
        {
          "internalType": "bool",
          "name": "allowed",
          "type": "bool"
        }
      ],
      "name": "allowlistSourceChain",
      "outputs": [],
      "stateMutability": "nonpayable",
      "type": "function"
    },
    {
      "inputs": [
        {
          "internalType": "address",
          "name": "",
          "type": "address"
        }
      ],
      "name": "allowlistedSenders",
      "outputs": [
        {
          "internalType": "bool",
          "name": "",
          "type": "bool"
        }
      ],
      "stateMutability": "view",
      "type": "function"
    },
    {
      "inputs": [
        {
          "internalType": "uint64",
          "name": "",
          "type": "uint64"
        }
      ],
      "name": "allowlistedSourceChains",
      "outputs": [
        {
          "internalType": "bool",
          "name": "",
          "type": "bool"
        }
      ],
      "stateMutability": "view",
      "type": "function"
    },
    {
      "inputs": [],
      "name": "canCreateNewRound",
      "outputs": [
        {
          "internalType": "bool",
          "name": "",
          "type": "bool"
        }
      ],
      "stateMutability": "view",
      "type": "function"
    },
    {
      "inputs": [
        {
          "components": [
            {
              "internalType": "bytes32",
              "name": "messageId",
              "type": "bytes32"
            },
            {
              "internalType": "uint64",
              "name": "sourceChainSelector",
              "type": "uint64"
            },
            {
              "internalType": "bytes",
              "name": "sender",
              "type": "bytes"
            },
            {
              "internalType": "bytes",
              "name": "data",
              "type": "bytes"
            },
            {
              "components": [
                {
                  "internalType": "address",
                  "name": "token",
                  "type": "address"
                },
                {
                  "internalType": "uint256",
                  "name": "amount",
                  "type": "uint256"
                }
              ],
              "internalType": "struct Client.EVMTokenAmount[]",
              "name": "destTokenAmounts",
              "type": "tuple[]"
            }
          ],
          "internalType": "struct Client.Any2EVMMessage",
          "name": "message",
          "type": "tuple"
        }
      ],
      "name": "ccipReceive",
      "outputs": [],
      "stateMutability": "nonpayable",
      "type": "function"
    },
    {
      "inputs": [
        {
          "internalType": "address",
          "name": "_newOwner",
          "type": "address"
        }
      ],
      "name": "changeOwner",
      "outputs": [],
      "stateMutability": "nonpayable",
      "type": "function"
    },
    {
      "inputs": [
        {
          "internalType": "string",
          "name": "roundName",
          "type": "string"
        },
        {
          "internalType": "uint256",
          "name": "duration",
          "type": "uint256"
        },
        {
          "internalType": "address[]",
          "name": "participatingTokens",
          "type": "address[]"
        }
      ],
      "name": "createRound",
      "outputs": [
        {
          "internalType": "address",
          "name": "",
          "type": "address"
        }
      ],
      "stateMutability": "nonpayable",
      "type": "function"
    },
    {
      "inputs": [
        {
          "internalType": "uint256",
          "name": "",
          "type": "uint256"
        }
      ],
      "name": "crossChainTokenList",
      "outputs": [
        {
          "internalType": "address",
          "name": "",
          "type": "address"
        }
      ],
      "stateMutability": "view",
      "type": "function"
    },
    {
      "inputs": [
        {
          "internalType": "address",
          "name": "",
          "type": "address"
        }
      ],
      "name": "crossChainTokens",
      "outputs": [
        {
          "internalType": "address",
          "name": "tokenAddress",
          "type": "address"
        },
        {
          "internalType": "string",
          "name": "symbol",
          "type": "string"
        },
        {
          "internalType": "string",
          "name": "name",
          "type": "string"
        },
        {
          "internalType": "uint256",
          "name": "currentPrice",
          "type": "uint256"
        },
        {
          "internalType": "bool",
          "name": "isActive",
          "type": "bool"
        }
      ],
      "stateMutability": "view",
      "type": "function"
    },
    {
      "inputs": [],
      "name": "currentActiveRound",
      "outputs": [
        {
          "internalType": "address",
          "name": "",
          "type": "address"
        }
      ],
      "stateMutability": "view",
      "type": "function"
    },
    {
      "inputs": [],
      "name": "currentRoundIndex",
      "outputs": [
        {
          "internalType": "uint256",
          "name": "",
          "type": "uint256"
        }
      ],
      "stateMutability": "view",
      "type": "function"
    },
    {
      "inputs": [
        {
          "internalType": "address",
          "name": "roundAddress",
          "type": "address"
        },
        {
          "components": [
            {
              "internalType": "address",
              "name": "tokenAddress",
              "type": "address"
            },
            {
              "internalType": "uint256",
              "name": "currentPrice",
              "type": "uint256"
            }
          ],
          "internalType": "struct Round.TokenPrice[]",
          "name": "currentPrices",
          "type": "tuple[]"
        }
      ],
      "name": "finalizeRound",
      "outputs": [],
      "stateMutability": "nonpayable",
      "type": "function"
    },
    {
      "inputs": [],
      "name": "getCrossChainTokens",
      "outputs": [
        {
          "components": [
            {
              "internalType": "address",
              "name": "tokenAddress",
              "type": "address"
            },
            {
              "internalType": "string",
              "name": "symbol",
              "type": "string"
            },
            {
              "internalType": "string",
              "name": "name",
              "type": "string"
            },
            {
              "internalType": "uint256",
              "name": "currentPrice",
              "type": "uint256"
            },
            {
              "internalType": "bool",
              "name": "isActive",
              "type": "bool"
            }
          ],
          "internalType": "struct CrossChainRoundFactory.TokenInfo[]",
          "name": "",
          "type": "tuple[]"
        }
      ],
      "stateMutability": "view",
      "type": "function"
    },
    {
      "inputs": [],
      "name": "getCurrentRoundInfo",
      "outputs": [
        {
          "internalType": "address",
          "name": "roundAddress",
          "type": "address"
        },
        {
          "internalType": "string",
          "name": "roundName",
          "type": "string"
        },
        {
          "internalType": "bool",
          "name": "isActive",
          "type": "bool"
        },
        {
          "internalType": "uint256",
          "name": "tokenCount",
          "type": "uint256"
        },
        {
          "internalType": "uint256",
          "name": "totalPrizePool",
          "type": "uint256"
        }
      ],
      "stateMutability": "view",
      "type": "function"
    },
    {
      "inputs": [],
      "name": "getRouter",
      "outputs": [
        {
          "internalType": "address",
          "name": "",
          "type": "address"
        }
      ],
      "stateMutability": "view",
      "type": "function"
    },
    {
      "inputs": [],
      "name": "getSupportedTokens",
      "outputs": [
        {
          "components": [
            {
              "internalType": "address",
              "name": "tokenAddress",
              "type": "address"
            },
            {
              "internalType": "string",
              "name": "symbol",
              "type": "string"
            },
            {
              "internalType": "string",
              "name": "name",
              "type": "string"
            },
            {
              "internalType": "uint256",
              "name": "currentPrice",
              "type": "uint256"
            },
            {
              "internalType": "bool",
              "name": "isActive",
              "type": "bool"
            }
          ],
          "internalType": "struct CrossChainRoundFactory.TokenInfo[]",
          "name": "",
          "type": "tuple[]"
        }
      ],
      "stateMutability": "view",
      "type": "function"
    },
    {
      "inputs": [
        {
          "internalType": "address",
          "name": "tokenAddress",
          "type": "address"
        }
      ],
      "name": "getTokenPrice",
      "outputs": [
        {
          "internalType": "uint256",
          "name": "",
          "type": "uint256"
        }
      ],
      "stateMutability": "view",
      "type": "function"
    },
    {
      "inputs": [
        {
          "internalType": "address",
          "name": "",
          "type": "address"
        }
      ],
      "name": "isValidRound",
      "outputs": [
        {
          "internalType": "bool",
          "name": "",
          "type": "bool"
        }
      ],
      "stateMutability": "view",
      "type": "function"
    },
    {
      "inputs": [],
      "name": "owner",
      "outputs": [
        {
          "internalType": "address",
          "name": "",
          "type": "address"
        }
      ],
      "stateMutability": "view",
      "type": "function"
    },
    {
      "inputs": [
        {
          "internalType": "uint256",
          "name": "",
          "type": "uint256"
        }
      ],
      "name": "rounds",
      "outputs": [
        {
          "internalType": "address",
          "name": "",
          "type": "address"
        }
      ],
      "stateMutability": "view",
      "type": "function"
    },
    {
      "inputs": [
        {
          "internalType": "address",
          "name": "tokenAddress",
          "type": "address"
        },
        {
          "internalType": "string",
          "name": "symbol",
          "type": "string"
        },
        {
          "internalType": "string",
          "name": "name",
          "type": "string"
        }
      ],
      "name": "setCrossChainTokenInfo",
      "outputs": [],
      "stateMutability": "nonpayable",
      "type": "function"
    },
    {
      "inputs": [
        {
          "internalType": "address",
          "name": "",
          "type": "address"
        }
      ],
      "name": "supportedTokens",
      "outputs": [
        {
          "internalType": "address",
          "name": "tokenAddress",
          "type": "address"
        },
        {
          "internalType": "string",
          "name": "symbol",
          "type": "string"
        },
        {
          "internalType": "string",
          "name": "name",
          "type": "string"
        },
        {
          "internalType": "uint256",
          "name": "currentPrice",
          "type": "uint256"
        },
        {
          "internalType": "bool",
          "name": "isActive",
          "type": "bool"
        }
      ],
      "stateMutability": "view",
      "type": "function"
    },
    {
      "inputs": [
        {
          "internalType": "bytes4",
          "name": "interfaceId",
          "type": "bytes4"
        }
      ],
      "name": "supportsInterface",
      "outputs": [
        {
          "internalType": "bool",
          "name": "",
          "type": "bool"
        }
      ],
      "stateMutability": "view",
      "type": "function"
    },
    {
      "inputs": [
        {
          "internalType": "uint256",
          "name": "",
          "type": "uint256"
        }
      ],
      "name": "tokenList",
      "outputs": [
        {
          "internalType": "address",
          "name": "",
          "type": "address"
        }
      ],
      "stateMutability": "view",
      "type": "function"
    },
    {
      "inputs": [
        {
          "internalType": "address[]",
          "name": "tokenAddresses",
          "type": "address[]"
        },
        {
          "internalType": "uint256[]",
          "name": "newPrices",
          "type": "uint256[]"
        }
      ],
      "name": "updateTokenPrices",
      "outputs": [],
      "stateMutability": "nonpayable",
      "type": "function"
    }
  ],
  "bytecode": "0x60a06040523480156200001157600080fd5b506040516200557e3803806200557e8339810160408190526200003491620000b7565b735f16e51e3dcb255480f090157dd01ba962a53e54608052600080546001600160a01b0319166001600160a01b039290921691821781557f453b07ac3007c95b9a922dc651c2c3e37f86e5d555a0fe039001a35acf94d12a805460ff199081166001908117909255928252600a60205260409091208054909216179055620000e9565b600060208284031215620000ca57600080fd5b81516001600160a01b0381168114620000e257600080fd5b9392505050565b6080516154726200010c600039600081816103fe01526112fe01526154726000f3fe60806040523480156200001157600080fd5b5060043610620001cc5760003560e01c806385572ffb116200010d578063d02641a011620000a3578063e899f7ba116200007a578063e899f7ba146200045b578063eab5b02c1462000472578063eff29f8e1462000489578063effa569914620004a057600080fd5b8063d02641a01462000423578063d3c7c2c7146200043a578063db04fa49146200044457600080fd5b80639550af0611620000e45780639550af0614620003b75780639ead722214620003ce578063a6f9dae114620003e5578063b0f479a114620003fc57600080fd5b806385572ffb14620003605780638c65c81f14620003775780638da5cb5b14620003a357600080fd5b80635693f02e11620001835780636896ef4b116200015a5780636896ef4b14620002fc57806368c4ac2614620003155780636fc89fe3146200032c578063747dff42146200034357600080fd5b80635693f02e14620002a65780636159ada114620002bd57806361f90edc14620002e357600080fd5b806301ffc9a714620001d157806304ce532914620001fd578063181d9574146200022757806320274bed14620002545780632819829d146200026d5780634030d5211462000280575b600080fd5b620001e8620001e2366004620022fd565b620004c6565b60405190151581526020015b60405180910390f35b620002146200020e36600462002346565b620004fe565b604051620001f4959493929190620023ba565b6006546200023b906001600160a01b031681565b6040516001600160a01b039091168152602001620001f4565b6200026b620002653660046200252d565b6200065b565b005b6006546001600160a01b031615620001e8565b620001e862000291366004620025c3565b60096020526000908152604090205460ff1681565b6200023b620002b73660046200262f565b62000745565b620001e8620002ce36600462002346565b600a6020526000908152604090205460ff1681565b620002ed62000c77565b604051620001f49190620026a5565b6200030660015481565b604051908152602001620001f4565b620002146200032636600462002346565b62000fae565b6200026b6200033d3660046200275d565b62000fdc565b6200034d62001250565b604051620001f4959493929190620027e3565b6200026b6200037136600462002826565b620012f3565b6200023b6200038836600462002863565b6002602052600090815260409020546001600160a01b031681565b6000546200023b906001600160a01b031681565b6200026b620003c83660046200287d565b62001358565b6200023b620003df36600462002863565b6200167e565b6200026b620003f636600462002346565b620016a9565b7f00000000000000000000000000000000000000000000000000000000000000006200023b565b620003066200043436600462002346565b6200175a565b620002ed620017e7565b6200026b620004553660046200291a565b62001b16565b6200023b6200046c36600462002863565b62001b6e565b6200026b6200048336600462002956565b62001b7f565b6200026b6200049a36600462002977565b62001bd7565b620001e8620004b136600462002346565b60036020526000908152604090205460ff1681565b60006001600160e01b031982166385572ffb60e01b1480620004f857506001600160e01b031982166301ffc9a760e01b145b92915050565b600760205260009081526040902080546001820180546001600160a01b0390921692916200052c90620029ce565b80601f01602080910402602001604051908101604052809291908181526020018280546200055a90620029ce565b8015620005ab5780601f106200057f57610100808354040283529160200191620005ab565b820191906000526020600020905b8154815290600101906020018083116200058d57829003601f168201915b505050505090806002018054620005c290620029ce565b80601f0160208091040260200160405190810160405280929190818152602001828054620005f090620029ce565b8015620006415780601f10620006155761010080835404028352916020019162000641565b820191906000526020600020905b8154815290600101906020018083116200062357829003601f168201915b50505050600383015460049093015491929160ff16905085565b6000546001600160a01b03163314620006915760405162461bcd60e51b8152600401620006889062002a0a565b60405180910390fd5b6001600160a01b03831660009081526007602052604090206004015460ff16620006f05760405162461bcd60e51b815260206004820152600f60248201526e151bdad95b881b9bdd08199bdd5b99608a1b604482015260640162000688565b6001600160a01b038316600090815260076020526040902060010162000717838262002a8a565b506001600160a01b03831660009081526007602052604090206002016200073f828262002a8a565b50505050565b600080546001600160a01b03163314620007735760405162461bcd60e51b8152600401620006889062002a0a565b6006546001600160a01b031615620007c45760405162461bcd60e51b815260206004820152601360248201527241637469766520726f756e642065786973747360681b604482015260640162000688565b60008551116200080d5760405162461bcd60e51b8152602060048201526013602482015272149bdd5b99081b985b59481c995c5d5a5c9959606a1b604482015260640162000688565b600084116200085f5760405162461bcd60e51b815260206004820152601f60248201527f4475726174696f6e206d7573742062652067726561746572207468616e203000604482015260640162000688565b60018211620008aa5760405162461bcd60e51b81526020600482015260166024820152754e656564206174206c65617374203220746f6b656e7360501b604482015260640162000688565b6000826001600160401b03811115620008c757620008c76200240e565b604051908082528060200260200182016040528015620008f1578160200160208202803683370190505b5090506000836001600160401b038111156200091157620009116200240e565b6040519080825280602002602001820160405280156200093b578160200160208202803683370190505b50905060005b8481101562000b3f578585828181106200095f576200095f62002b56565b905060200201602081019062000976919062002346565b8382815181106200098b576200098b62002b56565b60200260200101906001600160a01b031690816001600160a01b03168152505060046000878784818110620009c457620009c462002b56565b9050602002016020810190620009db919062002346565b6001600160a01b0316815260208101919091526040016000206004015460ff161562000a7c576004600087878481811062000a1a5762000a1a62002b56565b905060200201602081019062000a31919062002346565b6001600160a01b03166001600160a01b031681526020019081526020016000206003015482828151811062000a6a5762000a6a62002b56565b60200260200101818152505062000b2a565b6007600087878481811062000a955762000a9562002b56565b905060200201602081019062000aac919062002346565b6001600160a01b0316815260208101919091526040016000206004015460ff161562000aeb576007600087878481811062000a1a5762000a1a62002b56565b60405162461bcd60e51b8152602060048201526013602482015272151bdad95b881b9bdd081cdd5c1c1bdc9d1959606a1b604482015260640162000688565b8062000b368162002b6c565b91505062000941565b506000600154884260405160200162000b5b9392919062002b94565b6040516020818303038152906040528051906020012090506000818989868660405162000b8890620022b5565b62000b97949392919062002bc3565b8190604051809103906000f590508015801562000bb8573d6000803e3d6000fd5b5060018054600090815260026020908152604080832080546001600160a01b0387166001600160a01b03199182168117909255818552600390935292819020805460ff1916851790556006805490921683179091559154915192935083929091907f4f28300a5fd8808e5f10b16038bd9bcb8caacb650f56c4e7550a5fe70c7368c99062000c4a908e908c9062002c66565b60405180910390a36001805490600062000c648362002b6c565b90915550909a9950505050505050505050565b6008546060906000906001600160401b0381111562000c9a5762000c9a6200240e565b60405190808252806020026020018201604052801562000cd757816020015b62000cc3620022c3565b81526020019060019003908162000cb95790505b5090506000805b60085481101562000ee9576000600760006008848154811062000d055762000d0562002b56565b60009182526020808320909101546001600160a01b039081168452838201949094526040928301909120825160a08101909352805490931682526001830180549293929184019162000d5790620029ce565b80601f016020809104026020016040519081016040528092919081815260200182805462000d8590620029ce565b801562000dd65780601f1062000daa5761010080835404028352916020019162000dd6565b820191906000526020600020905b81548152906001019060200180831162000db857829003601f168201915b5050505050815260200160028201805462000df190620029ce565b80601f016020809104026020016040519081016040528092919081815260200182805462000e1f90620029ce565b801562000e705780601f1062000e445761010080835404028352916020019162000e70565b820191906000526020600020905b81548152906001019060200180831162000e5257829003601f168201915b50505091835250506003820154602082015260049091015460ff16151560409091015260808101519091501562000ed3578084848151811062000eb75762000eb762002b56565b6020026020010181905250828062000ecf9062002b6c565b9350505b508062000ee08162002b6c565b91505062000cde565b506000816001600160401b0381111562000f075762000f076200240e565b60405190808252806020026020018201604052801562000f4457816020015b62000f30620022c3565b81526020019060019003908162000f265790505b50905060005b8281101562000fa65783818151811062000f685762000f6862002b56565b602002602001015182828151811062000f855762000f8562002b56565b6020026020010181905250808062000f9d9062002b6c565b91505062000f4a565b509392505050565b600460205260009081526040902080546001820180546001600160a01b0390921692916200052c90620029ce565b6000546001600160a01b03163314620010095760405162461bcd60e51b8152600401620006889062002a0a565b6001600160a01b038416620010595760405162461bcd60e51b8152602060048201526015602482015274496e76616c696420746f6b656e206164647265737360581b604482015260640162000688565b60008111620010a35760405162461bcd60e51b8152602060048201526015602482015274496e76616c696420696e697469616c20707269636560581b604482015260640162000688565b6001600160a01b0384166000908152600460208190526040909120015460ff1615620011125760405162461bcd60e51b815260206004820152601760248201527f546f6b656e20616c726561647920737570706f72746564000000000000000000604482015260640162000688565b6040805160a0810182526001600160a01b038681168083526020808401888152848601889052606085018790526001608086018190526000938452600490925294909120835181546001600160a01b03191693169290921782559251919290919082019062001182908262002a8a565b506040820151600282019062001199908262002a8a565b50606082015160038201556080909101516004909101805460ff1916911515919091179055600580546001810182556000919091527f036b6384b5eca791c62761152d0c79bb0604c104a5fb6f4eb0703f3154bb3db00180546001600160a01b0319166001600160a01b0386169081179091556040517ff711540f34d729d036431d051198fe18d9fd348ad9aa68dfc8b27d5c5f27710790620012429086908690869062002c8a565b60405180910390a250505050565b6006546001600160a01b03166060600080808415620012ec576000859050600080826001600160a01b031663d015d86f6040518163ffffffff1660e01b8152600401600060405180830381865afa158015620012b0573d6000803e3d6000fd5b505050506040513d6000823e601f3d908101601f19168201604052620012da919081019062002cde565b50939a50919850909650909450505050505b9091929394565b336001600160a01b037f0000000000000000000000000000000000000000000000000000000000000000161462001340576040516335fdcccd60e21b815233600482015260240162000688565b620013556200134f8262002e6d565b62001ebc565b50565b6000546001600160a01b03163314620013855760405162461bcd60e51b8152600401620006889062002a0a565b6001600160a01b03831660009081526003602052604090205460ff16620013e75760405162461bcd60e51b8152602060048201526015602482015274496e76616c696420726f756e64206164647265737360581b604482015260640162000688565b6006546001600160a01b03848116911614620014465760405162461bcd60e51b815260206004820152601860248201527f4e6f742063757272656e742061637469766520726f756e640000000000000000604482015260640162000688565b6000839050806001600160a01b03166322f3e2d46040518163ffffffff1660e01b8152600401602060405180830381865afa1580156200148a573d6000803e3d6000fd5b505050506040513d601f19601f82011682018060405250810190620014b0919062002f27565b80156200151f5750806001600160a01b0316638d4e40836040518163ffffffff1660e01b8152600401602060405180830381865afa158015620014f7573d6000803e3d6000fd5b505050506040513d601f19601f820116820180604052508101906200151d919062002f27565b155b620015605760405162461bcd60e51b815260206004820152601060248201526f526f756e64206e6f742061637469766560801b604482015260640162000688565b60405163531c04af60e11b81526001600160a01b0382169063a638095e9062001590908690869060040162002f47565b600060405180830381600087803b158015620015ab57600080fd5b505af1158015620015c0573d6000803e3d6000fd5b50505050806001600160a01b031663361bc1b56040518163ffffffff1660e01b8152600401602060405180830381865afa15801562001603573d6000803e3d6000fd5b505050506040513d601f19601f8201168201806040525081019062001629919062002fa4565b6001600160a01b0316846001600160a01b03167fa9bd5492c2625576549717f92067040ac2d73d543e19a2fe2125588b3ec3a54760405160405180910390a35050600680546001600160a01b03191690555050565b600581815481106200168f57600080fd5b6000918252602090912001546001600160a01b0316905081565b6000546001600160a01b03163314620016d65760405162461bcd60e51b8152600401620006889062002a0a565b6001600160a01b038116620017225760405162461bcd60e51b815260206004820152601160248201527024b73b30b634b2103732bb9037bbb732b960791b604482015260640162000688565b600080546001600160a01b039092166001600160a01b031990921682178155908152600a60205260409020805460ff19166001179055565b6001600160a01b03811660009081526004602081905260408220015460ff16156200179e57506001600160a01b031660009081526004602052604090206003015490565b6001600160a01b03821660009081526007602052604090206004015460ff161562000aeb57506001600160a01b031660009081526007602052604090206003015490565b919050565b6005546060906000906001600160401b038111156200180a576200180a6200240e565b6040519080825280602002602001820160405280156200184757816020015b62001833620022c3565b815260200190600190039081620018295790505b5090506000805b60055481101562001a59576000600460006005848154811062001875576200187562002b56565b60009182526020808320909101546001600160a01b039081168452838201949094526040928301909120825160a081019093528054909316825260018301805492939291840191620018c790620029ce565b80601f0160208091040260200160405190810160405280929190818152602001828054620018f590620029ce565b8015620019465780601f106200191a5761010080835404028352916020019162001946565b820191906000526020600020905b8154815290600101906020018083116200192857829003601f168201915b505050505081526020016002820180546200196190620029ce565b80601f01602080910402602001604051908101604052809291908181526020018280546200198f90620029ce565b8015620019e05780601f10620019b457610100808354040283529160200191620019e0565b820191906000526020600020905b815481529060010190602001808311620019c257829003601f168201915b50505091835250506003820154602082015260049091015460ff16151560409091015260808101519091501562001a43578084848151811062001a275762001a2762002b56565b6020026020010181905250828062001a3f9062002b6c565b9350505b508062001a508162002b6c565b9150506200184e565b506000816001600160401b0381111562001a775762001a776200240e565b60405190808252806020026020018201604052801562001ab457816020015b62001aa0620022c3565b81526020019060019003908162001a965790505b50905060005b8281101562000fa65783818151811062001ad85762001ad862002b56565b602002602001015182828151811062001af55762001af562002b56565b6020026020010181905250808062001b0d9062002b6c565b91505062001aba565b6000546001600160a01b0316331462001b435760405162461bcd60e51b8152600401620006889062002a0a565b6001600160401b03919091166000908152600960205260409020805460ff1916911515919091179055565b600881815481106200168f57600080fd5b6000546001600160a01b0316331462001bac5760405162461bcd60e51b8152600401620006889062002a0a565b6001600160a01b03919091166000908152600a60205260409020805460ff1916911515919091179055565b6000546001600160a01b0316331462001c045760405162461bcd60e51b8152600401620006889062002a0a565b82811462001c4e5760405162461bcd60e51b8152602060048201526016602482015275082e4e4c2f2e640d8cadccee8d040dad2e6dac2e8c6d60531b604482015260640162000688565b60005b8381101562001eb5576004600086868481811062001c735762001c7362002b56565b905060200201602081019062001c8a919062002346565b6001600160a01b0316815260208101919091526040016000206004015460ff1662001cee5760405162461bcd60e51b8152602060048201526013602482015272151bdad95b881b9bdd081cdd5c1c1bdc9d1959606a1b604482015260640162000688565b600083838381811062001d055762001d0562002b56565b905060200201351162001d4b5760405162461bcd60e51b815260206004820152600d60248201526c496e76616c696420707269636560981b604482015260640162000688565b60006004600087878581811062001d665762001d6662002b56565b905060200201602081019062001d7d919062002346565b6001600160a01b03166001600160a01b0316815260200190815260200160002060030154905083838381811062001db85762001db862002b56565b905060200201356004600088888681811062001dd85762001dd862002b56565b905060200201602081019062001def919062002346565b6001600160a01b0316815260208101919091526040016000206003015585858381811062001e215762001e2162002b56565b905060200201602081019062001e38919062002346565b6001600160a01b03167f62e2c9c75b287778c0b58f1c1d83fa8f9978a33848e0b423735fd44f48ebe3c18286868681811062001e785762001e7862002b56565b9050602002013560405162001e97929190918252602082015260400190565b60405180910390a2508062001eac8162002b6c565b91505062001c51565b5050505050565b6020808201516001600160401b0381166000908152600990925260409091205460ff1662001f2d5760405162461bcd60e51b815260206004820152601c60248201527f536f7572636520636861696e206e6f7420616c6c6f776c697374656400000000604482015260640162000688565b6000826040015180602001905181019062001f49919062002fa4565b6001600160a01b0381166000908152600a602052604090205490915060ff1662001faf5760405162461bcd60e51b815260206004820152601660248201527514d95b99195c881b9bdd08185b1b1bdddb1a5cdd195960521b604482015260640162000688565b6000836060015180602001905181019062001fcb919062002fc4565b905060005b815181101562002040576200202b82828151811062001ff35762001ff362002b56565b60200260200101516000015183838151811062002014576200201462002b56565b60200260200101516020015187602001516200209a565b80620020378162002b6c565b91505062001fd0565b50816001600160a01b031684602001516001600160401b03167f2afafca09ec71b7a986d8ea17ad353cf6354925492b641780a57358f155992d883516040516200208c91815260200190565b60405180910390a350505050565b60008211620020dc5760405162461bcd60e51b815260206004820152600d60248201526c496e76616c696420707269636560981b604482015260640162000688565b6001600160a01b0383166000908152600760205260409020600381015460049091015460ff1662002241576040805160a0810182526001600160a01b03868116808352835180850185526007808252662aa725a727aba760c91b60208084019190915280860192835286518088018852601181527021b937b9b996a1b430b4b7102a37b5b2b760791b8183015286880152606086018a9052600160808701819052600094855291905294909120835181546001600160a01b0319169316929092178255519192909190820190620021b4908262002a8a565b5060408201516002820190620021cb908262002a8a565b50606082015160038201556080909101516004909101805460ff1916911515919091179055600880546001810182556000919091527ff3f7a9fe364faab93b216da50a3214154f22a0a2b415b23a84c8169e8b636ee30180546001600160a01b0319166001600160a01b03861617905562002260565b6001600160a01b03841660009081526007602052604090206003018390555b60408051828152602081018590526001600160401b038416918101919091526001600160a01b038516907f6a65503af00bfeea17f8dfdebcc15a9b9d4436c822fb0cab550c5136289aa24a9060600162001242565b6123ac806200309183390190565b6040518060a0016040528060006001600160a01b031681526020016060815260200160608152602001600081526020016000151581525090565b6000602082840312156200231057600080fd5b81356001600160e01b0319811681146200232957600080fd5b9392505050565b6001600160a01b03811681146200135557600080fd5b6000602082840312156200235957600080fd5b8135620023298162002330565b60005b838110156200238357818101518382015260200162002369565b50506000910152565b60008151808452620023a681602086016020860162002366565b601f01601f19169290920160200192915050565b6001600160a01b038616815260a060208201819052600090620023e0908301876200238c565b8281036040840152620023f481876200238c565b606084019590955250509015156080909101529392505050565b634e487b7160e01b600052604160045260246000fd5b604080519081016001600160401b03811182821017156200244957620024496200240e565b60405290565b60405160a081016001600160401b03811182821017156200244957620024496200240e565b604051601f8201601f191681016001600160401b03811182821017156200249f576200249f6200240e565b604052919050565b60006001600160401b03821115620024c357620024c36200240e565b50601f01601f191660200190565b600082601f830112620024e357600080fd5b8135620024fa620024f482620024a7565b62002474565b8181528460208386010111156200251057600080fd5b816020850160208301376000918101602001919091529392505050565b6000806000606084860312156200254357600080fd5b8335620025508162002330565b925060208401356001600160401b03808211156200256d57600080fd5b6200257b87838801620024d1565b935060408601359150808211156200259257600080fd5b50620025a186828701620024d1565b9150509250925092565b80356001600160401b0381168114620017e257600080fd5b600060208284031215620025d657600080fd5b6200232982620025ab565b60008083601f840112620025f457600080fd5b5081356001600160401b038111156200260c57600080fd5b6020830191508360208260051b85010111156200262857600080fd5b9250929050565b600080600080606085870312156200264657600080fd5b84356001600160401b03808211156200265e57600080fd5b6200266c88838901620024d1565b95506020870135945060408701359150808211156200268a57600080fd5b506200269987828801620025e1565b95989497509550505050565b60006020808301818452808551808352604092508286019150828160051b87010184880160005b838110156200274f57888303603f19018552815180516001600160a01b031684528781015160a08986018190529062002708828701826200238c565b91505087820151858203898701526200272282826200238c565b606084810151908801526080938401511515939096019290925250509386019390860190600101620026cc565b509098975050505050505050565b600080600080608085870312156200277457600080fd5b8435620027818162002330565b935060208501356001600160401b03808211156200279e57600080fd5b620027ac88838901620024d1565b94506040870135915080821115620027c357600080fd5b50620027d287828801620024d1565b949793965093946060013593505050565b6001600160a01b038616815260a06020820181905260009062002809908301876200238c565b941515604083015250606081019290925260809091015292915050565b6000602082840312156200283957600080fd5b81356001600160401b038111156200285057600080fd5b820160a081850312156200232957600080fd5b6000602082840312156200287657600080fd5b5035919050565b6000806000604084860312156200289357600080fd5b8335620028a08162002330565b925060208401356001600160401b0380821115620028bd57600080fd5b818601915086601f830112620028d257600080fd5b813581811115620028e257600080fd5b8760208260061b8501011115620028f857600080fd5b6020830194508093505050509250925092565b80151581146200135557600080fd5b600080604083850312156200292e57600080fd5b6200293983620025ab565b915060208301356200294b816200290b565b809150509250929050565b600080604083850312156200296a57600080fd5b8235620029398162002330565b600080600080604085870312156200298e57600080fd5b84356001600160401b0380821115620029a657600080fd5b620029b488838901620025e1565b909650945060208701359150808211156200268a57600080fd5b600181811c90821680620029e357607f821691505b60208210810362002a0457634e487b7160e01b600052602260045260246000fd5b50919050565b60208082526013908201527213db9b1e481bdddb995c8818d85b8818d85b1b606a1b604082015260600190565b601f82111562002a8557600081815260208120601f850160051c8101602086101562002a605750805b601f850160051c820191505b8181101562002a815782815560010162002a6c565b5050505b505050565b81516001600160401b0381111562002aa65762002aa66200240e565b62002abe8162002ab78454620029ce565b8462002a37565b602080601f83116001811462002af6576000841562002add5750858301515b600019600386901b1c1916600185901b17855562002a81565b600085815260208120601f198616915b8281101562002b275788860151825594840194600190910190840162002b06565b508582101562002b465787850151600019600388901b60f8161c191681555b5050505050600190811b01905550565b634e487b7160e01b600052603260045260246000fd5b60006001820162002b8d57634e487b7160e01b600052601160045260246000fd5b5060010190565b8381526000835162002bae81602085016020880162002366565b60209201918201929092526040019392505050565b60808152600062002bd860808301876200238c565b6020838101879052838203604085015285518083528682019282019060005b8181101562002c1e5784516001600160a01b03168352938301939183019160010162002bf7565b50508481036060860152855180825290820192508186019060005b8181101562002c575782518552938301939183019160010162002c39565b50929998505050505050505050565b60408152600062002c7b60408301856200238c565b90508260208301529392505050565b60608152600062002c9f60608301866200238c565b828103602084015262002cb381866200238c565b915050826040830152949350505050565b8051620017e2816200290b565b8051620017e28162002330565b60008060008060008060c0878903121562002cf857600080fd5b86516001600160401b0381111562002d0f57600080fd5b8701601f8101891362002d2157600080fd5b805162002d32620024f482620024a7565b8181528a602083850101111562002d4857600080fd5b62002d5b82602083016020860162002366565b975062002d6e9150506020880162002cc4565b945062002d7e6040880162002cc4565b9350606087015192506080870151915062002d9c60a0880162002cd1565b90509295509295509295565b60006001600160401b0382111562002dc45762002dc46200240e565b5060051b60200190565b600082601f83011262002de057600080fd5b8135602062002df3620024f48362002da8565b82815260069290921b8401810191818101908684111562002e1357600080fd5b8286015b8481101562002e62576040818903121562002e325760008081fd5b62002e3c62002424565b813562002e498162002330565b8152818501358582015283529183019160400162002e17565b509695505050505050565b600060a0823603121562002e8057600080fd5b62002e8a6200244f565b8235815262002e9c60208401620025ab565b602082015260408301356001600160401b038082111562002ebc57600080fd5b62002eca36838701620024d1565b6040840152606085013591508082111562002ee457600080fd5b62002ef236838701620024d1565b6060840152608085013591508082111562002f0c57600080fd5b5062002f1b3682860162002dce565b60808301525092915050565b60006020828403121562002f3a57600080fd5b815162002329816200290b565b6020808252818101839052600090604080840186845b8781101562002f9757813562002f738162002330565b6001600160a01b031683528185013585840152918301919083019060010162002f5d565b5090979650505050505050565b60006020828403121562002fb757600080fd5b8151620023298162002330565b6000602080838503121562002fd857600080fd5b82516001600160401b0381111562002fef57600080fd5b8301601f810185136200300157600080fd5b805162003012620024f48262002da8565b81815260069190911b820183019083810190878311156200303257600080fd5b928401925b82841015620030855760408489031215620030525760008081fd5b6200305c62002424565b8451620030698162002330565b8152848601518682015282526040909301929084019062003037565b97965050505050505056fe6101006040523480156200001257600080fd5b50604051620023ac380380620023ac83398101604081905262000035916200051b565b80518251146200008c5760405162461bcd60e51b815260206004820152601660248201527f417272617973206c656e677468206d69736d617463680000000000000000000060448201526064015b60405180910390fd5b6001825111620000df5760405162461bcd60e51b815260206004820152601660248201527f4e656564206174206c65617374203220746f6b656e7300000000000000000000604482015260640162000083565b60008311620001315760405162461bcd60e51b815260206004820152601f60248201527f4475726174696f6e206d7573742062652067726561746572207468616e203000604482015260640162000083565b336080526000620001438582620006b7565b504260a081905260c08490526200015c90849062000799565b60e0526006805460ff1916600117905560005b8251811015620003b55760006001600160a01b0316838281518110620001995762000199620007b5565b60200260200101516001600160a01b031603620001f95760405162461bcd60e51b815260206004820152601560248201527f496e76616c696420746f6b656e20616464726573730000000000000000000000604482015260640162000083565b6000828281518110620002105762000210620007b5565b602002602001015111620002675760405162461bcd60e51b815260206004820152601560248201527f496e76616c696420696e697469616c2070726963650000000000000000000000604482015260640162000083565b60016000848381518110620002805762000280620007b5565b60200260200101516001600160a01b03166001600160a01b0316815260200190815260200160002054600014620002ec5760405162461bcd60e51b815260206004820152600f60248201526e223ab83634b1b0ba32903a37b5b2b760891b604482015260640162000083565b818181518110620003015762000301620007b5565b602002602001015160016000858481518110620003225762000322620007b5565b60200260200101516001600160a01b03166001600160a01b03168152602001908152602001600020819055506004838281518110620003655762000365620007b5565b60209081029190910181015182546001810184556000938452919092200180546001600160a01b0319166001600160a01b0390921691909117905580620003ac81620007cb565b9150506200016f565b5050505050620007e7565b634e487b7160e01b600052604160045260246000fd5b604051601f8201601f191681016001600160401b0381118282101715620004015762000401620003c0565b604052919050565b60006001600160401b03821115620004255762000425620003c0565b5060051b60200190565b600082601f8301126200044157600080fd5b815160206200045a620004548362000409565b620003d6565b82815260059290921b840181019181810190868411156200047a57600080fd5b8286015b84811015620004ae5780516001600160a01b0381168114620004a05760008081fd5b83529183019183016200047e565b509695505050505050565b600082601f830112620004cb57600080fd5b81516020620004de620004548362000409565b82815260059290921b84018101918181019086841115620004fe57600080fd5b8286015b84811015620004ae578051835291830191830162000502565b600080600080608085870312156200053257600080fd5b84516001600160401b03808211156200054a57600080fd5b818701915087601f8301126200055f57600080fd5b815181811115620005745762000574620003c0565b60206200058a601f8301601f19168201620003d6565b8281528a828487010111156200059f57600080fd5b60005b83811015620005bf578581018301518282018401528201620005a2565b50600092810182019290925288015160408901519197509550915080821115620005e857600080fd5b620005f6888389016200042f565b935060608701519150808211156200060d57600080fd5b506200061c87828801620004b9565b91505092959194509250565b600181811c908216806200063d57607f821691505b6020821081036200065e57634e487b7160e01b600052602260045260246000fd5b50919050565b601f821115620006b257600081815260208120601f850160051c810160208610156200068d5750805b601f850160051c820191505b81811015620006ae5782815560010162000699565b5050505b505050565b81516001600160401b03811115620006d357620006d3620003c0565b620006eb81620006e4845462000628565b8462000664565b602080601f8311600181146200072357600084156200070a5750858301515b600019600386901b1c1916600185901b178555620006ae565b600085815260208120601f198616915b82811015620007545788860151825594840194600190910190840162000733565b5085821015620007735787850151600019600388901b60f8161c191681555b5050505050600190811b01905550565b634e487b7160e01b600052601160045260246000fd5b80820180821115620007af57620007af62000783565b92915050565b634e487b7160e01b600052603260045260246000fd5b600060018201620007e057620007e062000783565b5060010190565b60805160a05160c05160e051611b536200085960003960008181610314015281816106ac01528181610c4601528181610c9701528181610cc701526112ac0152600081816101d80152610c6701526000818161041f0152610c2501526000818161059d0152610d270152611b536000f3fe6080604052600436106101815760003560e01c806378e97925116100d1578063a638095e1161008a578063c38687c011610064578063c38687c014610553578063c45a01551461058b578063d015d86f146105bf578063fd92649f146105e657600080fd5b8063a638095e146104d8578063ad79d884146104f8578063b0cc896c1461052657600080fd5b806378e979251461040d5780638c7e347a146104415780638d4e4083146104565780639903e1be146104755780639a0ba2ea1461048b578063a41fe82c146104ab57600080fd5b806322f3e2d41161013e578063398ab9a711610118578063398ab9a7146103745780633f47666b1461038a5780636c74ad85146103ae5780636fe8022c146103ce57600080fd5b806322f3e2d4146102d85780633197cbb614610302578063361bc1b51461033657600080fd5b806301fd050d146101865780630474a68e146101b15780630fb5a6b4146101c657806314cbd993146102085780631f69565f1461022a57806322af00fa1461028e575b600080fd5b34801561019257600080fd5b5061019b6105fb565b6040516101a89190611775565b60405180910390f35b6101c46101bf3660046117ab565b610689565b005b3480156101d257600080fd5b506101fa7f000000000000000000000000000000000000000000000000000000000000000081565b6040519081526020016101a8565b34801561021457600080fd5b5061021d610938565b6040516101a8919061180a565b34801561023657600080fd5b506102716102453660046117ab565b6001600160a01b0316600090815260016020908152604080832054600290925290912054909182151590565b6040805193845260208401929092521515908201526060016101a8565b34801561029a57600080fd5b506102ae6102a936600461181d565b61099a565b604080516001600160a01b03948516815260208101939093529216918101919091526060016101a8565b3480156102e457600080fd5b506006546102f29060ff1681565b60405190151581526020016101a8565b34801561030e57600080fd5b506101fa7f000000000000000000000000000000000000000000000000000000000000000081565b34801561034257600080fd5b5060065461035c906201000090046001600160a01b031681565b6040516001600160a01b0390911681526020016101a8565b34801561038057600080fd5b506101fa60075481565b34801561039657600080fd5b5061039f6109d8565b6040516101a893929190611866565b3480156103ba57600080fd5b506101fa6103c93660046118a9565b610bf6565b3480156103da57600080fd5b506103e3610c23565b6040805195865260208601949094529284019190915260608301521515608082015260a0016101a8565b34801561041957600080fd5b506101fa7f000000000000000000000000000000000000000000000000000000000000000081565b34801561044d57600080fd5b506005546101fa565b34801561046257600080fd5b506006546102f290610100900460ff1681565b34801561048157600080fd5b506101fa60085481565b34801561049757600080fd5b5061035c6104a636600461181d565b610cf2565b3480156104b757600080fd5b506101fa6104c63660046117ab565b60026020526000908152604090205481565b3480156104e457600080fd5b506101c46104f33660046118dc565b610d1c565b34801561050457600080fd5b506105186105133660046117ab565b611069565b6040516101a8929190611951565b34801561053257600080fd5b506101fa6105413660046117ab565b60016020526000908152604090205481565b34801561055f57600080fd5b506101fa61056e3660046118a9565b600360209081526000928352604080842090915290825290205481565b34801561059757600080fd5b5061035c7f000000000000000000000000000000000000000000000000000000000000000081565b3480156105cb57600080fd5b506105d4611203565b6040516101a89695949392919061197f565b3480156105f257600080fd5b506105186112fd565b60008054610608906119c4565b80601f0160208091040260200160405190810160405280929190818152602001828054610634906119c4565b80156106815780601f1061065657610100808354040283529160200191610681565b820191906000526020600020905b81548152906001019060200180831161066457829003601f168201915b505050505081565b60065460ff1680156106a35750600654610100900460ff16155b80156106cf57507f00000000000000000000000000000000000000000000000000000000000000004211155b6107135760405162461bcd60e51b815260206004820152601060248201526f526f756e64206e6f742061637469766560801b60448201526064015b60405180910390fd5b6000341161076d5760405162461bcd60e51b815260206004820152602160248201527f42657420616d6f756e74206d7573742062652067726561746572207468616e206044820152600360fc1b606482015260840161070a565b6001600160a01b0381166000908152600160205260409020546107c95760405162461bcd60e51b8152602060048201526014602482015273151bdad95b881b9bdd081c9959da5cdd195c995960621b604482015260640161070a565b3360009081526003602090815260408083206001600160a01b0385168452909152812080543492906107fc908490611a14565b90915550506001600160a01b03811660009081526002602052604081208054349290610829908490611a14565b9091555050604080516060810182526001600160a01b0380841680835234602084018181523385870181815260058054600181018255600091909152965160039097027f036b6384b5eca791c62761152d0c79bb0604c104a5fb6f4eb0703f3154bb3db0810180549888166001600160a01b0319998a1617905592517f036b6384b5eca791c62761152d0c79bb0604c104a5fb6f4eb0703f3154bb3db1840155517f036b6384b5eca791c62761152d0c79bb0604c104a5fb6f4eb0703f3154bb3db2909201805492909516919095161790925592517f3fe3739e8f82288ea9b537327542d88a4989dfc21c88c5c0c9261a49335202919161092d9190815260200190565b60405180910390a350565b6060600480548060200260200160405190810160405280929190818152602001828054801561099057602002820191906000526020600020905b81546001600160a01b03168152600190910190602001808311610972575b5050505050905090565b600581815481106109aa57600080fd5b60009182526020909120600390910201805460018201546002909201546001600160a01b0391821693501683565b606080606060048054905067ffffffffffffffff8111156109fb576109fb611a27565b604051908082528060200260200182016040528015610a24578160200160208202803683370190505b5060045490935067ffffffffffffffff811115610a4357610a43611a27565b604051908082528060200260200182016040528015610a6c578160200160208202803683370190505b5060045490925067ffffffffffffffff811115610a8b57610a8b611a27565b604051908082528060200260200182016040528015610ab4578160200160208202803683370190505b50905060005b600454811015610bf05760048181548110610ad757610ad7611a3d565b9060005260206000200160009054906101000a90046001600160a01b0316848281518110610b0757610b07611a3d565b60200260200101906001600160a01b031690816001600160a01b0316815250506001600060048381548110610b3e57610b3e611a3d565b60009182526020808320909101546001600160a01b031683528201929092526040019020548351849083908110610b7757610b77611a3d565b6020026020010181815250506002600060048381548110610b9a57610b9a611a3d565b60009182526020808320909101546001600160a01b031683528201929092526040019020548251839083908110610bd357610bd3611a3d565b602090810291909101015280610be881611a53565b915050610aba565b50909192565b6001600160a01b038083166000908152600360209081526040808320938516835292905220545b92915050565b7f00000000000000000000000000000000000000000000000000000000000000007f00000000000000000000000000000000000000000000000000000000000000007f000000000000000000000000000000000000000000000000000000000000000060008042841115610cc057610cbb427f0000000000000000000000000000000000000000000000000000000000000000611a6c565b610cc3565b60005b91507f000000000000000000000000000000000000000000000000000000000000000042101590509091929394565b60048181548110610d0257600080fd5b6000918252602090912001546001600160a01b0316905081565b336001600160a01b037f00000000000000000000000000000000000000000000000000000000000000001614610d8c5760405162461bcd60e51b815260206004820152601560248201527413db9b1e48199858dd1bdc9e4818d85b8818d85b1b605a1b604482015260640161070a565b60065460ff168015610da65750600654610100900460ff16155b610e005760405162461bcd60e51b815260206004820152602560248201527f526f756e64206e6f7420616374697665206f7220616c72656164792066696e616044820152641b1a5e995960da1b606482015260840161070a565b6004548114610e515760405162461bcd60e51b815260206004820152601960248201527f496e76616c69642070726963652064617461206c656e67746800000000000000604482015260640161070a565b60008060005b83811015610f64576000858583818110610e7357610e73611a3d565b905060400201803603810190610e899190611a7f565b80516001600160a01b0316600090815260016020526040902054909150610ee95760405162461bcd60e51b8152602060048201526014602482015273151bdad95b881b9bdd081c9959da5cdd195c995960621b604482015260640161070a565b80516001600160a01b031660009081526001602090815260409091205490820151811015610f4f57600081828460200151610f249190611a6c565b610f3090612710611ae4565b610f3a9190611afb565b905085811115610f4d5782519095509350845b505b50508080610f5c90611a53565b915050610e57565b506001600160a01b038116610fc55760405162461bcd60e51b815260206004820152602160248201527f4e6f20746f6b656e2068616420706f73697469766520706572666f726d616e636044820152606560f81b606482015260840161070a565b60068054610100610100600160b01b0319909116620100006001600160a01b03858116820261ff0019169290921792909217928390554760075591041660009081526002602052604090205460085561101c611473565b600654604051838152620100009091046001600160a01b0316907fc8404bd5e2bf0c0d9461811a6e7cfae92b0d57217d8dd9c212dc145392a922fd9060200160405180910390a250505050565b600454606090819067ffffffffffffffff81111561108957611089611a27565b6040519080825280602002602001820160405280156110b2578160200160208202803683370190505b5060045490925067ffffffffffffffff8111156110d1576110d1611a27565b6040519080825280602002602001820160405280156110fa578160200160208202803683370190505b50905060005b6004548110156111fd576004818154811061111d5761111d611a3d565b9060005260206000200160009054906101000a90046001600160a01b031683828151811061114d5761114d611a3d565b60200260200101906001600160a01b031690816001600160a01b03168152505060036000856001600160a01b03166001600160a01b031681526020019081526020016000206000600483815481106111a7576111a7611a3d565b60009182526020808320909101546001600160a01b0316835282019290925260400190205482518390839081106111e0576111e0611a3d565b6020908102919091010152806111f581611a53565b915050611100565b50915091565b60606000806000806000808054611219906119c4565b80601f0160208091040260200160405190810160405280929190818152602001828054611245906119c4565b80156112925780601f1061126757610100808354040283529160200191611292565b820191906000526020600020905b81548152906001019060200180831161127557829003601f168201915b50506006549399505060ff90921691505080156112cf57507f00000000000000000000000000000000000000000000000000000000000000004211155b60065460045497989197610100820460ff16975095504794506201000090046001600160a01b031692509050565b600454606090819067ffffffffffffffff81111561131d5761131d611a27565b604051908082528060200260200182016040528015611346578160200160208202803683370190505b5060045490925067ffffffffffffffff81111561136557611365611a27565b60405190808252806020026020018201604052801561138e578160200160208202803683370190505b50905060005b60045481101561146e57600481815481106113b1576113b1611a3d565b9060005260206000200160009054906101000a90046001600160a01b03168382815181106113e1576113e1611a3d565b60200260200101906001600160a01b031690816001600160a01b031681525050600260006004838154811061141857611418611a3d565b60009182526020808320909101546001600160a01b03168352820192909252604001902054825183908390811061145157611451611a3d565b60209081029190910101528061146681611a53565b915050611394565b509091565b60085460000361147f57565b60055460009067ffffffffffffffff81111561149d5761149d611a27565b6040519080825280602002602001820160405280156114c6578160200160208202803683370190505b5090506000805b60055481101561172a576000600582815481106114ec576114ec611a3d565b600091825260209182902060408051606081018252600390930290910180546001600160a01b0390811680855260018301549585019590955260029091015481169183019190915260065491935062010000909104169003611717576000805b848110156115a55782604001516001600160a01b031686828151811061157457611574611a3d565b60200260200101516001600160a01b03160361159357600191506115a5565b8061159d81611a53565b91505061154c565b5080611715576040808301516001600160a01b0390811660009081526003602090815283822060065462010000900490931682529190915220548015611713576000600854600754836115f89190611ae4565b6116029190611afb565b9050836040015187878151811061161b5761161b611a3d565b6001600160a01b03909216602092830291909101909101528561163d81611a53565b604086810180516001600160a01b0390811660009081526003602090815284822060065462010000900484168352905283812081905591519251939a50909350169083908381818185875af1925050503d80600081146116b9576040519150601f19603f3d011682016040523d82523d6000602084013e6116be565b606091505b5050905080156117105784604001516001600160a01b03167fb8e091d87f82e56d22276c9a0088ea5d6068e355383dc08b2721b7b6cb10e8458360405161170791815260200190565b60405180910390a25b50505b505b505b508061172281611a53565b9150506114cd565b505050565b6000815180845260005b8181101561175557602081850181015186830182015201611739565b506000602082860101526020601f19601f83011685010191505092915050565b602081526000611788602083018461172f565b9392505050565b80356001600160a01b03811681146117a657600080fd5b919050565b6000602082840312156117bd57600080fd5b6117888261178f565b600081518084526020808501945080840160005b838110156117ff5781516001600160a01b0316875295820195908201906001016117da565b509495945050505050565b60208152600061178860208301846117c6565b60006020828403121561182f57600080fd5b5035919050565b600081518084526020808501945080840160005b838110156117ff5781518752958201959082019060010161184a565b60608152600061187960608301866117c6565b828103602084015261188b8186611836565b9050828103604084015261189f8185611836565b9695505050505050565b600080604083850312156118bc57600080fd5b6118c58361178f565b91506118d36020840161178f565b90509250929050565b600080602083850312156118ef57600080fd5b823567ffffffffffffffff8082111561190757600080fd5b818501915085601f83011261191b57600080fd5b81358181111561192a57600080fd5b8660208260061b850101111561193f57600080fd5b60209290920196919550909350505050565b60408152600061196460408301856117c6565b82810360208401526119768185611836565b95945050505050565b60c08152600061199260c083018961172f565b9615156020830152509315156040850152606084019290925260808301526001600160a01b031660a090910152919050565b600181811c908216806119d857607f821691505b6020821081036119f857634e487b7160e01b600052602260045260246000fd5b50919050565b634e487b7160e01b600052601160045260246000fd5b80820180821115610c1d57610c1d6119fe565b634e487b7160e01b600052604160045260246000fd5b634e487b7160e01b600052603260045260246000fd5b600060018201611a6557611a656119fe565b5060010190565b81810381811115610c1d57610c1d6119fe565b600060408284031215611a9157600080fd5b6040516040810181811067ffffffffffffffff82111715611ac257634e487b7160e01b600052604160045260246000fd5b604052611ace8361178f565b8152602083013560208201528091505092915050565b8082028115828204841417610c1d57610c1d6119fe565b600082611b1857634e487b7160e01b600052601260045260246000fd5b50049056fea26469706673582212203e42a68d72ce3337b5517df42c6c78338cd531aafff220726155232c4a30b46164736f6c63430008140033a2646970667358221220fd14b43d5b057da7c3a701b7a24f56e68ae2b2a4a1f08970a901cdd3101b76b264736f6c63430008140033",
  "linkReferences": {},
  "deployedLinkReferences": {}
}